:020000040800F2
:10000000982F01209D010008A5010008A701000804
:10001000A9010008AB010008AD01000800000000C4
:10002000000000000000000000000000AF01000818
:10003000B101000800000000B3010008C12700085A
:10004000B7010008B7010008B7010008B7010008B0
:10005000B7010008B7010008B7010008B7010008A0
:10006000B7010008B7010008B7010008B701000890
:10007000B7010008B7010008B7010008B701000880
:10008000B7010008B7010008B7010008B701000870
:10009000B7010008B7010008B7010008B701000860
:1000A000B7010008B7010008B7010008B701000850
:1000B000B7010008B7010008B7010008B701000840
:1000C000B7010008B7010008B7010008B701000830
:1000D000B7010008812A0008B7010008B70100082D
:1000E000B7010008B7010008B7010008B701000810
:1000F000B7010008B7010008B7010008B701000800
:10010000B7010008B7010008B7010008B7010008EF
:10011000B7010008B7010008B7010008B7010008DF
:10012000B7010008B7010008B7010008B7010008CF
:10013000B7010008B7010008B7010008B7010008BF
:10014000B7010008B7010008B7010008B7010008AF
:10015000B7010008B7010008B7010008B70100089F
:10016000B7010008B7010008B7010008B70100088F
:10017000B7010008B7010008B7010008000000003F
:10018000B7010008B7010008DFF80CD000F04CF907
:100190000048004765BE0208982F012006488047A6
:1001A00006480047FEE7FEE7FEE7FEE7FEE7FEE75C
:1001B000FEE7FEE7FEE7FEE7792800088901000870
:1001C0002DE9F05F0546002092469B46884606468C
:1001D000814640241BE0284641464746224600F01F
:1001E00005F953465A46C01A914110D31146184694
:1001F000224600F0ECF82D1A67EB01084F46224624
:100200000120002100F0E3F817EB00094E41201E09
:10021000A4F10104DFDC484631462A464346BDE8E6
:10022000F09FD2B201E000F8012B491EFBD27047CB
:100230000022F6E710B513460A4604461946FFF7B2
:10024000F0FF204610BD421C10F8011B0029FBD115
:10025000801A704710B5002200E0521C835C8C5C51
:10026000A34201D1002BF8D1D8B2E1B2401A10BD9F
:10027000034611F8012B00F8012B002AF9D118468A
:1002800070472DE9FF5F1D464FF0FF3BD5E9014662
:1002900091465F464FF00008A9697F1C0198884786
:1002A000296A824688470028F6D1BAF1FF3F0CD070
:1002B00024F4C064002E19DD600614D5BAF12B0FAA
:1002C00009D0BAF12D0F0ED103E0584604B0BDE8B5
:1002D000F09F44F48064A9697F1C01988847761ECA
:1002E0008246002E02DDBAF1300F03D0B9F1000FC3
:1002F00026D032E0A969761E44F400747F1C019870
:1003000088478246002E05DDBAF1780F06D0BAF193
:10031000580F03D0B9F1000F10D01EE0B9F1000F53
:1003200002D0B9F1100F18D1A969761E24F4007417
:100330007F1C019888478246102002E0082000E0D8
:100340000A20814609E008FB0908A969761E44F4E1
:1003500000747F1C019888478246002E05DD4946BF
:10036000504600F053F80028EDDAE9690198884713
:10037000A00502D46FF00100A8E7E00725D16006D0
:1003800013D5600502D5C8F1000000E04046296899
:100390000A1D2A600968220501D5087015E02207A8
:1003A00001D5088011E008600FE02868011D296070
:1003B0000068210502D580F8008006E0210702D5FB
:1003C000A0F8008001E0C0F8008038467EE7202ACF
:1003D00004DB203A00FA02F1002070479140C2F19C
:1003E000200320FA03F3194390407047202A04DBCE
:1003F000203A21FA02F00021704721FA02F3D0409E
:10040000C2F1200291400843194670473A2800D2B1
:10041000303820F02002412A01D3A2F1370088426F
:1004200001D34FF0FF307047064C074D06E0E068FF
:1004300040F0010394E8070098471034AC42F6D32B
:10044000FFF7A6FEA87A0308C87A03082DE9F0434F
:1004500083B041F60004C4F202044FF000082046C5
:100460004FF4004100228DF80680ADF8048000F0C2
:100470004FFA40F2F436C2F2000640F200014FF0AB
:100480000A09C2F2000101AA30460323CDF8009008
:1004900001F060F920464FF400410122012500F0EF
:1004A00037FABDF805004FF4004100BA070D2046A9
:1004B00000228DF80A80ADF8088000F029FA40F299
:1004C0000301C2F2000102AA30460323CDF80090D6
:1004D00001F040F920464FF40041012200F018FAE3
:1004E00000EE107A9FED201AB8EE400ABDF8090020
:1004F00020EE010A9FED1D1A00BA30EE010A000D30
:10050000BDEEC00A10EE101A00EE100A9FED181A88
:10051000B8EE400A20EE010A9FED161A40F2D0060E
:1005200030EE010AC2F20006BDEEC00AF08010EE05
:10053000100A3180708020468021B78000F0E2F9F7
:100540003188B0FA80F04009B1F5F07F307203D8FD
:100550007088B0F5887F02D90025C6F8008028464B
:1005600003B0BDE8F08300BF574D8B3E000038C29A
:10057000624F283E000010C2EFF3108072B600BF39
:10058000FEE70000B0B5B3F5804F034616D153F82F
:1005900022C00020CCF6F0700CEA000E91E8310089
:1005A000D1F818C040EA0E0040EA0410C96840EAD9
:1005B000052040EA0C0040EA014101E06FF0704183
:1005C000002043F82210B0BD2DE9F04F83B00B6836
:1005D000024650F8230001F1240B20F0010042F8FC
:1005E0002300D1E902C0D1E900E301908869D1E993
:1005F000049A0290C86BD1E9077600909BE8300816
:10060000D1F8308052F82E008021CFF6F0710840EA
:10061000BCF1080F08BF43F040030199194341EAB8
:10062000090141EA0A01394331432143294341EA9F
:100630000B01029B41EA08011943009B194308433F
:1006400040EA0C01002042F82E1003B0BDE8F08F04
:10065000F0B500EB82025068D1E902E400F0404CB2
:10066000D1E90030D1E9045643EA0C03002743EAFC
:100670000010CFF6F07740EA0E20896907EB0555A8
:1006800040EA04402843FE36084340EA0661002061
:100690005160F0BD70B5866D044600F03FF994F8E6
:1006A0003510022925D105462068216C026822F008
:1006B00016020260426922F08002426109B9A16C0F
:1006C00019B1016821F008010160016821F0010100
:1006D000016000BF20680068C0070ED000F01EF95E
:1006E000401B0628F6D320206065032084F83500DF
:1006F0000CE080206065012008E0E06D3F2101FAF8
:1007000000F0B060012084F835000020002184F85A
:10071000341070BD90F83510022909D1052180F8F8
:1007200035100068016821F0010101600020704768
:100730008021416501207047B0B5044600F0EEF815
:10074000054640F29900C2F200000078611C18BF13
:10075000044400BF00F0E2F8401BA042FAD3B0BD51
:100760002DE9F04F82B000F13E4241F6004502F122
:10077000FF77C4F20205082243F6004E4FEAB7267F
:10078000A84208BF0722C4F2010E072E38BF4FEA65
:10079000B7220125002600274FF00008009208E04C
:1007A00008F101080437B8F1100F06F1020600F055
:1007B000A6800C6805FA08F914EA090FF0D0D1F800
:1007C00004B003220BF0030CACF10104B240012C85
:1007D0006FEA020A10D88268CC6802EA0A02B440C2
:1007E000224382604268CBF3001422EA090204FA31
:1007F00008F42243426005E0BCF1030F02D14FF040
:10080000030C20E0C2688C6802EA0A02B44022436A
:10081000BCF1020FC26016D16FF0030202EA580267
:100820000244D2F820C007F01C050F230C69AB402E
:100830002CEA030304FA05F52B431362D1F804B044
:1008400001250BF0030C02680CFA06F302EA0A0217
:100850001A431BF4403F0260A2D0002243F6440337
:100860000192C4F202031A684FF6084C42F4804227
:100870001A601A68CFF6FF7C02F480420192019A56
:1008800028F00302724452F80C3007F00C050F24D4
:10089000AC40A343009C04FA05F52B4342F80C300E
:1008A000DEF808204B6842EA090543F60C4CDC02EE
:1008B00058BF22EA0905CEF80850C4F2010CDCF852
:1008C00000209C0242EA090558BF22EA0905CCF83B
:1008D0000050DEF804209C0342EA090558BF22EAD2
:1008E0000905CEF80450DEF80020DB0342EA0905D2
:1008F00058BF22EA0905CEF80050012550E702B0A2
:10090000BDE8F08F0069084018BF01207047000063
:10091000002A08BF090481617047000040F6844046
:10092000C2F201000068704740F2990040F684412D
:10093000C2F20000C2F2010100780A6810440860A7
:100940007047000080B543F60040C4F20200016821
:1009500041F400710160016841F480610160016847
:1009600041F480710160032000F08CF8002000F059
:1009700005F800F02BF8002080BD0000B0B540F273
:100980009902C2F2000240F208011278C2F200019C
:100990004FF47A730968B3FBF2F20446B1FBF2F14B
:1009A000084601F083F80F2C4FF001050CD858B918
:1009B0004FF0FF3021460022002500F037F840F2CA
:1009C0009C00C2F2000004602846B0BD82B0002046
:1009D00043F640010190C4F202014A6842F48042A9
:1009E0004A604A6802F480420192019A00900868C5
:1009F00040F080500860086800F080500090009837
:100A000002B07047002848BF7047C1B200F01F0015
:100A1000012202FA00F04EF20012CEF2000242EA87
:100A2000D10121F0030108607047000010B54EF6B7
:100A30000C5CCEF2000CDCF80030C3F3022E8EF01A
:100A40000704042C28BF0424BEF103034FF0FF3E2B
:100A50000EFA04F438BF0023A14399400EFA03F3C1
:100A60009A43114300F00F0200F160430901043A78
:100A700003F564436244002848BF02F10C03197077
:100A800010BD00004EF60C51CEF200010A684FF680
:100A9000FF031A4060F30A2242F0806040F0FD70CC
:100AA00008607047F0B581B00446006810F0050F8B
:100AB0002DD06827C4F2472743F670060020C4F201
:100AC00002063860FFF72AFF054600BF56F8700C93
:100AD000000105D5FFF722FF401B0228F6D93FE0B1
:100AE000D4E90110000740EA8110706101203860EC
:100AF000FFF714FF054600BF56F8700C000105D43F
:100B0000FFF70CFF401B0228F6D929E02068800778
:100B10004FF0000057D543F67006C4F2020600906D
:100B200056F8300C47F2000740F0805046F8300C81
:100B300056F8300CC4F2000700F080500090009886
:100B4000386840F480703860FFF7E8FE054600BF63
:100B50003868C00507D4FFF7E1FE401B0228F7D92B
:100B6000032001B0F0BD306810F4407013D0E1688C
:100B700001F4407188420ED0306840F64061C4F202
:100B80004721012220F440700A6000220A60306090
:100B90003068C00719D1E06856F8681C4FF6FF436B
:100BA00000F4407221F4F811C0F6FF730340B2F56F
:100BB000407F08BF194346F8681C31686FF31F3047
:100BC00008433060002001B0F0BDFFF7A7FE0546E6
:100BD00041F2883730688007DDD4FFF79FFE401B65
:100BE000B8424FF00300F5D9EDE700002DE9F041E0
:100BF000002800F08B8043F60808C4F2020804467F
:100C0000D8F8F8030D4600F00700884207D288F8AC
:100C1000F853D8F8F80300F00700A84276D120680E
:100C2000810717D5410705D5D8F8001041F4E051E8
:100C3000C8F80010010705D5D8F8001041F460414C
:100C4000C8F80010D8F80010A26821F0F001114394
:100C5000C8F80010C0073FD1D8F8F80300F007002B
:100C6000A84207D988F8F853D8F8F80300F007002D
:100C7000A8424BD12068410707D5D8F80010E26898
:100C800021F4E0511143C8F80010000708D5D8F846
:100C90000000216920F4604040EAC100C8F800006B
:100CA00000F07CF8D8F8001043F25842C1F3031169
:100CB000C0F60302515C40F2080220FA01F140F252
:100CC0009C00C2F200000068C2F200021160FFF74F
:100CD00055FE0020BDE8F0816068811E022907D220
:100CE00058F8081C89015CBF0120BDE8F08110E0C4
:100CF000012807D158F8081C89035CBF0120BDE812
:100D0000F08106E058F8081C890702D40120BDE8EC
:100D1000F081D8F8001021F003010843C8F8000062
:100D2000FFF7FCFD064641F2883700BFD8F8000007
:100D3000616800F00C00B0EB810F8DD0FFF7EEFD85
:100D4000801BB842F2D90320BDE8F08140F20800D0
:100D500043F60801C2F20000C4F20201006809680B
:100D600043F26842C1F38221C0F60302515CC840DD
:100D70007047000040F2080043F60801C2F200008C
:100D8000C4F202010068096843F26842C1F34231CB
:100D9000C0F60302515CC8407047000010B543F62E
:100DA0000404C4F20204606800F00C0008280AD0B1
:100DB000042819BF42F20040C0F2F40047F6400098
:100DC000C0F27D1010BD206821682368490247F6F3
:100DD0004001C0F27D1100F03F02C3F388105CBFF8
:100DE00042F20041C0F2F401A1FB00010023FFF731
:100DF000E7F921680222C1F3014102EB4101B0FB96
:100E0000F1F010BD2DE9F04182B0002868D0044611
:100E1000007843F60006C007C4F202060BD0B068A3
:100E200000F00C00042840F09C803068800302D55C
:100E30006068002854D0207880071AD5B06810F078
:100E40000C0F09D0B06800F00C00082840F0A38017
:100E50007068400200F19F803068800702D5E0682A
:100E600001283DD13068216920F0F80040EAC10036
:100E700030602078000737D4207840074BD4A5692C
:100E800055B3B06800F00C00082840F0B780012D81
:100E900026D07068E16900F480028A4220D1216A7C
:100EA00000F03F028A421BD147F6C071626A0140DE
:100EB000B1EB821F14D1A16A4FF6FF73C9039943A6
:100EC00000F44032A1F580318A4209D1E16A00F094
:100ED0007060B0EB016F03D1002002B0BDE8F0817B
:100EE000012002B0BDE8F0816069002840F20000F6
:100EF000C4F2472072D00121C0F8801EFFF70EFD1A
:100F0000054600BF706F8007B6D4FFF707FD401B92
:100F10000228F7D9D7E0306C10F080580AD10020B1
:100F20000190306C40F080503064306C00F08050A4
:100F30000190019847F20007C4F200073868C00525
:100F40003ED4386840F480703860FFF7E7FC05460F
:100F50003868C00534D4FFF7E1FC401B0228F7D9FC
:100F6000B1E0B06800F00C00082803D170684002BE
:100F70003FF55BAF6068B0F5803F07D0B0F5A02FBC
:100F800040F08B80306840F480203060306840F45E
:100F9000803030608BE0E068002851D00020C4F23F
:100FA000472001210160FFF7B9FC05463068800742
:100FB0003FF558AFFFF7B2FC401B0228F6D982E09C
:100FC000A068012805D005284ED1306F40F00400FC
:100FD0003067306F40F0010030674FE00021C0F80B
:100FE000801EFFF79BFC0546706F80077FF544AFBE
:100FF000FFF794FC401B0228F6D964E00027C4F2F6
:10100000472700203866FFF789FC022D05460BD1E3
:10101000306880015BD5FFF781FC401B02284FF050
:101020000300F5D959E700BF306880017FF554AF60
:10103000FFF774FC401B02284FF00300F4D94CE783
:101040000020C4F2472000210160FFF767FC05463D
:10105000306880077FF50DAFFFF760FC401B02286A
:101060004FF00300F4D938E7316F002821F0010177
:101070003167316F21F00401316749D0FFF74EFC31
:10108000054641F2883700BF306F800751D4FFF723
:1010900045FC401BB842F7D915E03168002821F41F
:1010A00080313160316821F4802131604AD0FFF70E
:1010B00035FC0546306880033FF5BDAEFFF72EFCDA
:1010C000401B6428F6D9032002B0BDE8F08104F18A
:1010D0001C052FCD084340EA8210D9034FF6FF725A
:1010E0009143A1F5803140EA05600843706001201A
:1010F0003866FFF713FC0446306880013FF5ECAE1C
:10110000FFF70CFC001B02284FF00300F4D9E4E6C3
:10111000FFF704FC054641F2883700BF306F8007B7
:1011200007D5FFF7FBFB401BB8424FF00300F5D992
:10113000D3E6B8F1000F7FF4A2AE306C20F08050FF
:1011400030649CE6FFF7EAFB054600BF3068800389
:101150007FF571AEFFF7E2FB401B64284FF0030000
:10116000F4D9BAE610B5006840684FEA1043C0F3FE
:10117000042E00F03F0CC0F34234CB7081F801E044
:1011800081F802C00C700AB1002010BDDCB2240945
:1011900004EB840403F00F0303EB4403020ACB7057
:1011A0004FEA1E1343EA830302F00F0202EB4302ED
:1011B0004A704FEA1C1242EA820200F00F0000EB74
:1011C00042008870002010BD10B50068836A4B6033
:1011D00003696FF3DF338B600068C0F30543C0F32E
:1011E000062E00F07F0CC0F380540B7081F801E0F4
:1011F00081F802C0CC700AB1002010BD020C1B099E
:1012000043EA830302F00F0202EB4302040A0A706E
:101210004FEA1E1202EB820204F00F0303EB4202BC
:101220004A704FEA1C1202EB820200F00F0000EB42
:1012300042008870002010BD002804BF01207047C4
:10124000B0B50446407F20B900202077204600F04A
:1012500067F8022060772168CA20486253204862FC
:10126000C868400614D4C86840F08000C860FFF722
:1012700055FB2168CA6852060AD40546FFF74EFBA3
:10128000401BB0F57A7F44D82168C8684006F5D580
:1012900088684FF6BF72CFF68F7210408860D4E92D
:1012A000010CD4E90335626928438D681043284353
:1012B00088600B61086940EA0C400861C86820F04A
:1012C0008000C8608868800615D4C86820F0A00037
:1012D000C860FFF723FB05462168C86880060AD46A
:1012E000FFF71CFB401BB0F57A7FF5D9042060772F
:1012F000216801200AE0086C20F480200864A069BD
:101300000A6C10430864012060770020FF224A62C3
:10131000B0BD042060772168C8680120F6E70000AE
:1013200080B584B0006842F60002C4F200020021D9
:1013300090420291019101D004B080BD0220009042
:101340004FF4007003906846FFF7ACFB002818BF0D
:10135000FFF712F940F63C60C4F24720012101601A
:1013600004B080BD2DE9F0410446007F01284FF014
:10137000020008BFBDE8F08101232377607732B116
:101380004878CA788F78000240EA024842E04878FC
:10139000C20642BF00F0EF000A304870CA780A2A3D
:1013A0000CD30A3AD3B2CD277B43DB0A03EB830786
:1013B000A2EB4702102707EB031300E000231A43B8
:1013C000D2B20A284FEA02420CD30A38C3B2CD2760
:1013D0007B43DB0A03EB8307A0EB4700102707EBF7
:1013E000031300E0002303438878DBB20A2842EAB3
:1013F00003280CD30A38C2B2CD235A43D20A02EBD7
:101400008203A0EB4300102303EB021200E0002252
:1014100042EA00070E782168CA20486253204862D9
:10142000C868400614D4C86840F08000C860FFF760
:1014300075FA2168CA6852060AD40546FFF76EFAA3
:10144000401BB0F57A7F31D82168C8684006F5D5D1
:10145000F8B240EA0800720320F0C0001043486070
:10146000C86820F08000C8608868800615D4C86805
:1014700020F0A000C860FFF751FA05462168C8684F
:1014800080060AD4FFF74AFA401BB0F57A7FF5D9F7
:10149000042060772168012002E0012060770020AD
:1014A000FF224A6200212177BDE8F08104206077A5
:1014B0002168C8680120F3E7F0B581B00446007FD9
:1014C00001284FF0020000F0AF800D460121217786
:1014D00060772168886800F040001AB1B0B9002038
:1014E000E87015E0002804BF0020E87028780A287A
:1014F00018D30A38C2B2CD235A43D20A02EB820370
:10150000A0EB4300102303EB02120CE0E878800507
:101510006B782A78AF781B0243EA02423A4442EAE7
:10152000000730E0002210436A78C0B20A2A4FEA6E
:1015300000400CD30A3AD3B2CD277B43DB0A03EB3E
:101540008307A2EB4702102707EB031300E00023F9
:101550001343AA78DBB20A2A40EA03200CD30A3AE2
:10156000D3B2CD277B43DB0A03EB8307A2EB470211
:10157000102707EB031300E000231A43D2B2EB78E5
:10158000104340EA8357CA20486253204862C86823
:10159000400615D4C86840F08000C860FFF7BEF967
:1015A0002168CA6852060BD4064600BFFFF7B6F999
:1015B000801BB0F57A7F39D82168C8684006F5D518
:1015C00047F67F70C0F27F0038400860886820F4DA
:1015D00080208860D5E903028B6810431843886037
:1015E000C86820F08000C8608868800615D4C86884
:1015F00020F0A000C860FFF791F905462168C8688F
:1016000080060AD4FFF78AF9401BB0F57A7FF5D936
:10161000042060772168012002E00120607700202B
:10162000FF224A620021217701B0F0BD04206077DB
:101630002168C8680120F3E770B538B10446406AF4
:1016400030B10020206104F1140007E0012070BDDA
:101650006068B0F5827F03D004F11C0000210160B6
:101660000026A66294F8510020B9204684F8506004
:1016700000F03CF8022084F8510094E80F0001F4D7
:101680008271056802F4044225F0400505601144AA
:1016900003F400622369114403F0020263691144F8
:1016A00003F00102A369E569114403F400721144D7
:1016B00005F03802256A114405F08002A56A11433D
:1016C00005F4005211430160626A042101EA1341EA
:1016D00002F0100211444160C16921F40061C1614E
:1016E0000120666584F85100304670BD80B586B033
:1016F000016843F60000C4F20000814201D006B048
:1017000080BD002143F630020191C4F20202136948
:1017100000F5F43043F480431361136903F480430C
:101720000193019B0191116841F48071116011686E
:1017300001F48071019101990E2101910221CDE9FD
:10174000021104910521059101A9FFF709F806B0DE
:1017500080BD00002DE9F04383B0044690F85000AE
:10176000012803D1022003B0BDE8F08301201E460A
:1017700015460F4684F85000FFF7D0F894F8511042
:10178000814601290AD06068B0F5827F70D1A068D7
:1017900000284FF0020008BF04296AD1002F4FF043
:1017A000010018BF002D64D0002E62D094F85100C3
:1017B000002104281CBF052084F851006165A56341
:1017C000E687A6872763E6862068A686216461648B
:1017D0000168490603D4016841F040010160616875
:1017E000731EE268B1FA81F1B3FA83F3DDF8288061
:1017F00049095B09B2F5006F41EA030142D131B1F9
:1018000037F8021BC1602763E08E0138E0860126AD
:1018100008F10105E08E10B9E08F00286ED0206835
:10182000816889070CD5E18E51B1012E08D1216B59
:10183000002631F8022BC2602163E18E0139E18676
:101840008168C9070AD0E18F41B1C068A16B012648
:1018500021F8020BA163E08F0138E087FFF75EF803
:10186000002DD7D0A0EB09004045D3D3032000E0E2
:101870000220012184F85110002184F8501003B097
:10188000BDE8F08339B139780173206B01302063F2
:10189000E08E0138E086012608F10105E08E08B9E6
:1018A000E08F58B32068816889070ED5E18E61B159
:1018B000012E0AD1216B002609780173216B206863
:1018C00001312163E18E0139E1868168C9070BD0BE
:1018D000E18F49B1C068A16B01260870A06B01308F
:1018E000A063E08F0138E087FFF718F8002DD5D00E
:1018F000A0EB09004045D1D30320BAE740F208002D
:10190000C2F20000006849F68171C1F25E61A0FB7D
:101910000101480D4FF47A71484302906068B0F5B8
:10192000827F0ED12046802142464B4600F0E0FEE9
:1019300058B3606D40F02000606520206065012094
:1019400097E7029808B302980138029020688068EF
:1019500000061AD50298C0B102980138029020689A
:101960008068000611D5029878B10298013802907B
:1019700020688068000608D5029830B102980138C6
:101980000290206880680006DBD4A06800284FF031
:1019900000007FF46EAF01902168CA6801928968E7
:1019A0000191019965E70000002804BF01207047FC
:1019B00070B5044690F8490015460E4628B9002037
:1019C00084F84800204600F01DF8206804F1080162
:1019D000FEF7FAFD2068A2683146FEF739FED4E929
:1019E0000102236B2946FEF7CDFD2068A16850F85F
:1019F000212042F0010240F82120012084F8490012
:101A0000002070BD2DE9F04385B040F2AC00C2F279
:101A100000000178002945D1012101704FF0000933
:101A200043F63800CDF80090C4F20200026840F698
:101A3000004442F0010202600068C4F2020400F0B7
:101A40000100009000986D4600914FF002080327B6
:101A50000C2604F500602946CDE901890397049618
:101A6000FEF77EFE4FF680708DE8010304F580607E
:101A70002946CDE90376FEF773FE4CF233708DE80C
:101A8000010320462946CDE90376FEF769FE4FF4AF
:101A900080508DE8010304F540602946CDE90376C6
:101AA000FEF75EFE05B0BDE8F0830000411E002099
:101AB000B0EB116F1CBF012070474EF21002CEF246
:101AC000000251604EF62351CEF20001F0230B705C
:101AD0000721906011607047704700007047000058
:101AE000B0B582B0044600680168C368426901F07D
:101AF0002F05202D03F0200506D12DB1204602B080
:101B0000BDE8B04000F0C8BE5FEA017C1EBF02F035
:101B1000010E03F4907212EB0E0253D1226B012AD4
:101B200005D111F0100218BF13F0100236D10A06C9
:101B300022D513F080021FD094F83D1021293FD107
:101B4000A168B1F5805F03D12169002900F06E82A0
:101B5000216A4A1C226209784160E18C01390A0439
:101B6000E1842DD1C16821F08001C160C16841F0DC
:101B70004001C16002B0B0BD490621D513F040015B
:101B80001ED0C16821F04001C1602021204684F8A8
:101B90003D1002B0BDE8B04000F04EBC0021019104
:101BA000016801914168019101994069400613D48F
:101BB000A08DE18DE28D002A18BF884240F0BA81E5
:101BC00002B0B0BDCA0718BF13F4807240F0B980EC
:101BD0004A0700F1BC80C1E0A16B0868426893B27B
:101BE000002BEDD0A08D8342EAD2E285C969B1F520
:101BF000807F00F09D80206850E8030F216820F46A
:101C0000807041E80302DAB1206850E8030F2168D0
:101C100020F4807041E8030292B1206850E8030F7D
:101C2000216820F4807041E803024AB1206850E83E
:101C3000030F216820F4807041E80302002ADAD102
:101C4000206850E8050F216820F0010041E80502F6
:101C5000DAB1206850E8050F216820F0010041E862
:101C6000050292B1206850E8050F216820F00100BC
:101C700041E805024AB1206850E8050F216820F0CC
:101C8000010041E80502002ADAD1206850E8050F7A
:101C9000216820F0400041E80502DAB1206850E8F0
:101CA000050F216820F0400041E8050292B120684C
:101CB00050E8050F216820F0400041E805024AB1D4
:101CC000206850E8050F216820F0400041E8050237
:101CD000002ADAD1202084F83E000020206320680A
:101CE00050E8030F216820F0100041E80302DAB148
:101CF000206850E8030F216820F0100041E803023B
:101D000092B1206850E8030F216820F0100041E8EC
:101D100003024AB1206850E8030F216820F0100048
:101D200041E80302002ADAD1A06BFEF7B3FCA08DD4
:101D3000E18D401A81B2204602B0BDE8B040FFF705
:101D4000CBBE226C42F0010222644A0706D5BEF1E6
:101D5000000F03D0226C42F0020222648A0706D5EB
:101D6000BEF1000F03D0226C42F004022264BCF1E9
:101D7000000F09D545EA0E02B2FA82F2520903D1E8
:101D8000226C42F008022264226C002A3FF418AF51
:101D900011F0200118BF002D03D0204600F07CFD7B
:101DA00020684069216C00F0400001F008014018F3
:101DB00000F0B380206850E8030F216820F4907091
:101DC00041E80302BAB3206850E8030F216820F409
:101DD000907041E8030272B3206850E8030F216855
:101DE00020F4907041E803022AB3206850E8030F02
:101DF000216820F4907041E80302002ADAD11AE049
:101E0000206850E8050F216820F0010041E8050234
:101E1000DAB1206850E8050F216820F0010041E8A0
:101E2000050292B1206850E8050F216820F00100FA
:101E300041E805024AB1206850E8050F216820F00A
:101E4000010041E80502002ADAD1206B012824D1E3
:101E5000206850E8030F216820F0100041E80302D9
:101E6000DAB1206850E8030F216820F0100041E843
:101E7000030292B1206850E8030F216820F010009F
:101E800041E803024AB1206850E8030F216820F0BE
:101E9000100041E80302002ADAD1202084F83E0035
:101EA000002020632068406940063DD5206850E846
:101EB000050F216820F0400041E80502DAB12068F2
:101EC00050E8050F216820F0400041E8050292B17A
:101ED000206850E8050F216820F0400041E8050225
:101EE0004AB1206850E8050F216820F0400041E821
:101EF0000502002ADAD1A06BB0B142F68D01C0F61E
:101F000000010165FEF706FC00283FF459AEA06B06
:101F1000016D02B0BDE8B04008472046FFF7DEFD86
:101F20000020206402B0B0BD204602B0BDE8B04041
:101F3000FFF7D4BD401A216851E8031F226821F43D
:101F4000907142E80313DBB1216851E8031F226856
:101F500021F4907142E8031393B1216851E8031F03
:101F6000226821F4907142E803134BB1216851E8D3
:101F7000031F226821F4907142E80313002BDAD189
:101F8000216851E8051F226821F0010142E805138C
:101F9000DBB1216851E8051F226821F0010142E808
:101FA000051393B1216851E8051F226821F0010152
:101FB00042E805134BB1216851E8051F226821F062
:101FC000010142E80513002BDAD1202184F83E10EC
:101FD00000212163216851E8031F226821F01001CC
:101FE00042E80313002B3FF4A5AE216851E8031F1C
:101FF000226821F0100142E80313002B3FF49AAE4F
:10200000216851E8031F226821F0100142E8031300
:10201000002B3FF48FAE216851E8031F226821F0A6
:10202000100142E80313002BD4D183E6216A31F872
:10203000022B6FF35F22426021628EE5002804BF0D
:102040000120704710B5044690F83D0028B90020E3
:1020500084F83C00204600F021F8242084F83D005C
:102060002068C16821F40051C160204600F092FC54
:102070002068016921F490410161416921F02A0140
:102080004161C16841F40051C160002020212064F9
:1020900084F83D1084F83E1010BD000080B586B075
:1020A000016841F20000C4F20100814201D006B093
:1020B00080BD002143F630020191C4F2020253694F
:1020C00000F5704043F010035361536903F01003AF
:1020D0000193019B0191136843F00103136012689F
:1020E00002F001020192019A4FF4C06201920222B1
:1020F000CDE90221032104910721059101A9FEF7F1
:102100002FFB252000210022FEF790FC2520FEF762
:1021100079FC06B080BD000090F83E30202B0BD13A
:1021200000294FF0010318BF002A01D1184670475B
:1021300090F83C30012B01D102207047002303634B
:10214000816222218285C285036480F83E10026983
:10215000016880F83C301AB1C86840F48070C860EB
:102160004869002340F001004861C86840F0200041
:10217000C86018467047000040F6F43CC2F2010CFB
:10218000BCF800000021431C98B2B1EB103F4EF6A2
:10219000F430C2F2000018BF002310FA83F140F2BD
:1021A0009C40C2F200000122ACF80030FFF7B4BF3F
:1021B0002DE9F04381B0044690F83D0020280DD170
:1021C0000D4600294FF0010000F032811646002A2A
:1021D00000F02E8194F83C00012803D1022001B0C8
:1021E000BDE8F083012084F83C0000202064212019
:1021F000984684F83D00FEF791FBA684E684A1682A
:102200008146B1F5805F01D1206910B12F460025CC
:1022100000E00027002084F83C00E08C002800F05B
:102220008380206808F101060AE000BF87B117F833
:10223000011B4160E18C0139E184E18C002974D0FB
:1022400001680906F2D44EB1B8F1000F17D11FE0B2
:1022500035F8021B00276FF35F21EAE701680906E2
:10226000E4D466B901680906E0D446B901680906F4
:10227000DCD426B901680906D8D4002EEED0FEF7CA
:102280004DFBA0EB0900404502D82068E6E700BFFF
:10229000206850E8030F216820F4D07041E8030261
:1022A000E2B1206850E8030F216820F4D07041E8C3
:1022B00003029AB1206850E8030F216820F4D0701F
:1022C00041E8030252B1206850E8030F216820F46E
:1022D000D07041E80302002ADAD100BF206850E83C
:1022E000050F216820F0010041E805023AB320689B
:1022F00050E8050F216820F0010041E80502F2B125
:10230000206850E8050F216820F0010041E805022F
:10231000AAB1206850E8050F216820F0010041E8CB
:102320000502002ADAD10AE02068016849067BD458
:1023300018F101055ED0B8F1000F0CD06BE0202041
:1023400084F83D0084F83E00002084F83C0003201F
:1023500001B0BDE8F083206850E8030F216820F445
:10236000D07041E80302D2B3206850E8030F21681F
:1023700020F4D07041E803028AB3206850E8030FCC
:10238000216820F4D07041E8030242B3206850E88D
:10239000030F216820F4D07041E80302002ADAD14B
:1023A0001DE0206850E8050F216820F0010041E899
:1023B0000502002AC3D0206850E8050F216820F0EC
:1023C000010041E80502002AB9D0206850E8050F55
:1023D000216820F0010041E80502002AAFD0206802
:1023E00050E8050F216820F0010041E80502002AAD
:1023F000D7D1A4E70168490616D465B90168490632
:1024000012D445B9016849060ED425B901684906B8
:102410000AD4002DEED0FEF781FAA0EB090040456A
:102420003FF699AF2068E5E7202084F83D000020C2
:1024300001B0BDE8F08300007047000010B54FF018
:10244000D84C4FF02A0E0224ACF800E04FEA102ED0
:10245000C6F60044C0B2A4F800E02080100A208034
:10246000D0B220802B20ACF80000080A2080C8B22F
:102470002080180A2080D8B2208010BD80B588B096
:1024800040F24C40C2F200004FF0204240F20413F0
:10249000CAF200034FF0060C002180E80C104FF444
:1024A0008052C0E90A21022201920F2202920422E4
:1024B0004FF0100ECDE903211122C0E90311C0E94C
:1024C00005E1C1614164C0E90811C0E90C118163F3
:1024D000CDE9062101A90022CDF814E0FFF764FA46
:1024E000002818BFFEF748F808B080BDF0B587B0E7
:1024F000002643F63000CDE905660196C4F20200DD
:10250000016841F6000441F0040101600168C4F271
:10251000020401F004010191019901960168002271
:1025200041F02001016001684FF4004701F02001F3
:10253000019101990196016841F0800101600168F3
:1025400001F08001019101990196016841F01001AB
:102550000160016801F01001019101990196016883
:1025600041F008010160016801F008010191019941
:102570000196016841F040010160016801F04001ED
:10258000019101990196016841F001010160016822
:1025900001F00101019101990196016841F48071F6
:1025A000016000684FF4004100F4807001900198D0
:1025B0002046FEF7ADF9802002ADCDE902062046A7
:1025C00029460496FEF7CCF80120CDE90306204603
:1025D000294602970596FEF7C3F807B0F0BD000044
:1025E00010B586B040F2D43042F600010024C2F2A9
:1025F0000000C4F200017F22C0E9001400F10801CC
:10260000CDE90244CDE90044FF231CC1C0E90544E3
:10261000FEF712FE002818BFFDF7AEFF40F2D430DF
:10262000C2F2000001A90022ADF804408DF8064076
:10263000CDE90444FEF740FF002818BFFDF79CFFDA
:1026400041F20120C1F20470009040F2D430C2F295
:10265000000069460022FEF785FE002818BFFDF73E
:102660008BFF06B010BD000080B540F2F43043F699
:102670000001C2F20000C4F200014FF48272002394
:1026800080E80E0000F114014FF4007C4FF0280E9A
:1026900081E808500A21C0E90333C0E90833C0E9E2
:1026A0000A31FEF7C9FF002808BF80BDBDE88040A1
:1026B000FDF762BF80B540F29C4041F20001C2F2DA
:1026C0000000C4F2010100234FF00C0C4FF4E13282
:1026D00080E80E00C0E90333C0E905C3C361FFF71A
:1026E000ADFC002808BF80BDBDE88040FDF744BFB9
:1026F0002DE9F04381B01E4690460D468146FEF717
:102700000DF9301A00EB0807FEF708F940F208014E
:10271000C2F200010968C1F3CB3179430091D9F8C5
:1027200000108A682A40AA421AD1064608F101041C
:1027300004E000BF88682840A84211D1002CF9D0DD
:10274000FEF7ECF8801BB8420ED2009800990028E2
:10275000A1F101010091D9F8001008BF0746E9E78F
:10276000002001B0BDE8F083D9E900014268B1F56D
:10277000827F22F0E00242600BD1D9F80810B1F557
:10278000004F02D0B1F5806F03D1016821F0400104
:102790000160D9F82810B1F5005F07D1016821F474
:1027A00000510160016841F400510160012089F885
:1027B0005100002089F85000032001B0BDE8F083EB
:1027C000FEF7B2B8B0B592B0002443F640000A94C8
:1027D000CDE908440594CDE90344CDE901440094D2
:1027E000C4F202000168022541F0805101600068D6
:1027F00000F080500090009847F200000094C4F26E
:102800000000016841F480410160006800F48040EC
:1028100000900098092006904FF480300790012026
:102820000B904FF480000D9019200E904FF4A8707B
:10283000CDE90F050420119006A80C95FEF7E2FAE9
:1028400018B1EFF3108072B6FEE70F20CDE9010555
:102850004FF4A05004904FF48050059001A805213A
:102860000394FEF7C3F920B1EFF3108072B600BFF6
:10287000FEE712B0B0BD00004EF68850CEF2000068
:10288000016841F47001016070470000806B002115
:10289000C185C184FFF722B981B090F83E1022298A
:1028A00020D183680246B3F5805F08D152F8281F13
:1028B00052F8183C002B61D003685B6809E052F8BD
:1028C000281F13B90369002BF6D003685B6803F077
:1028D0007F030B70116801311160C18D01390A0449
:1028E000C18501D001B070470168CA6822F020029A
:1028F000CA60CA6822F48072CA604A6922F0010282
:102900004A61202180F83E10016B01293ED100214F
:10291000016300BF016851E8031F026821F0100144
:1029200042E80313DBB1016851E8031F026821F09C
:10293000100142E8031393B1016851E8031F0268D4
:1029400021F0100142E803134BB1016851E8031F65
:10295000026821F0100142E80313002BDAD101686C
:102960000A68D20606D5002200920A6800924968D9
:1029700000910099818D01B0FFF7AEB802685268EE
:102980006FF35F2221F8022B8162A6E701B0FFF707
:10299000F3BB000010B504460068D4E902C2236905
:1029A000016921F4405111430161626943EA0C015C
:1029B000E3691143C268194349F20C639A43114316
:1029C000C1604169A26921F4407141F200431143A1
:1029D00040F48062C4F201039A42416102D1FEF7E1
:1029E000C9F901E0FEF7B2F9E16963681922B1F5AE
:1029F000004FA0FB020121D15A00DB0FFDF7E0FBE5
:102A000048F21F51C5F2EB11A0FB01235A094FF602
:102A10009C73C0F6FF7303F1805302FB0300322363
:102A200003EBC000A0FB01014FF4F87000EA1110A5
:102A300000EB0210C1F3421108441DE09A009B0F05
:102A4000FDF7BEFB48F21F51C5F2EB11A0FB0123BD
:102A50005A094FF69C73C0F6FF7302FB0300322342
:102A600003EB0010A0FB0101F02000EA511000EB85
:102A70000210C1F3431108442168886010BD0000B2
:102A800040F29C40C2F20000FFF72AB870B540F255
:102A9000E804C2F200042046442101F0FDFC45F6A2
:102AA000B940C0F600001421002228F061FB40F27A
:102AB000F406C2F2000640F284253060C2F200053E
:102AC00001202870204601F0B7FC0146306811B1A2
:102AD00028F070FC01E028F05DFC0020287070BD3B
:102AE0002DE9F041B1F900C0B2F90460B44511DC40
:102AF000B1F904E0B2F90040A6450BDBB1F9025090
:102B0000B2F90680454505DCB1F90670B2F902302C
:102B10009F4203DAFF2358B2BDE8F081A44509DBE8
:102B2000AB4207DCB64505DC474503DC002358B261
:102B3000BDE8F0815C1B24B2012CA7EB05060ADB83
:102B4000A0F800C04580A0F804E0C380B2F8068079
:102B50004D88012300E00023A6EB08042C4424B296
:102B6000012C14DBB1F906400FFA88F7A7420EDA00
:102B70000C888F88354400EBC30620F83340A6F854
:102B80000280B780F5804D88B2F806800133B2F933
:102B900002402DB2AC42C8BF2546B1F906600FFA1B
:102BA00088F7B2F800800C88B742B8BF3E46A8EB61
:102BB00004073FB2012FAEEB0C0C0DDB771B3FB2CD
:102BC000012F09DB00EBC30720F833407D80A7F815
:102BD0000480FE800C8801339188ACEB0102224412
:102BE00012B2012A09DB04EB0C0200EBC30720F848
:102BF000331001337D80BA80FE8058B2BDE8F08189
:102C000070B50346B1F90000B2F90040B1F902C055
:102C1000B2F90250B1F904E0B2F90460A042B1F98E
:102C20000610B2F90620C8BF0446AC451C80C8BFD8
:102C30006546B6455D80B8BF764691429E80B8BF76
:102C40000A460020B4424FF00001D8BF012195424E
:102C5000D8BF01200840DA8070BD00002DE9F043A4
:102C600081B00C46B0F90070B1F900108F423DDB25
:102C7000B0F90260B4F902108E4237DBB0F904906B
:102C8000B4F90410894531DCB0F90680B4F90600C6
:102C900080452BDC15466AB3694620462A46ADF8C6
:102CA0000070ADF8026000F097F8F8B16946204670
:102CB0002A46ADF80090ADF8026000F08DF8A8B19A
:102CC000694620462A46ADF80070ADF8028000F053
:102CD00083F858B1694620462A46ADF80090ADF811
:102CE000028000F079F801B0BDE8F083002001B067
:102CF000BDE8F083012001B0BDE8F083B0F9002009
:102D0000B1F904309A4213DCB0F90420B1F9003073
:102D10009A420DDBB0F90220B1F906309A4207DC85
:102D2000B0F90600B1F902108842A4BF0120704733
:102D3000002070472DE9F04381B00C46B0F90460E3
:102D4000B1F900108E4211DBB0F90670B4F902102F
:102D50008F420BDBB0F90080B4F90410884505DC24
:102D6000B0F90290B4F90600814503DD012001B0FD
:102D7000BDE8F0831546EAB1694620462A46ADF81B
:102D80000080ADF8029000F027F898B96946204617
:102D90002A46ADF80060ADF8029000F01DF848B981
:102DA000694620462A46ADF80080ADF8027000F072
:102DB00013F818B1002001B0BDE8F0836946204641
:102DC0002A46ADF80060ADF8027000F005F880F01A
:102DD000010001B0BDE8F0832DE9F041B1F9003008
:102DE000B0F90040A3420DDBB0F904E0734509DC03
:102DF000B1F902C0B0F902108C4503DBB0F90650FE
:102E0000AC4502DD0020BDE8F081012A52DBAEEBCB
:102E10000400013086B200EBD63006B2681A0130E9
:102E200087B200EBD73007B24FEA66087810B8EBEC
:102E3000670FB8BF70109042A8BF1046021917B2B2
:102E40004218BB4216B2D8BFB44515DD2A1ABB42A0
:102E500012B22ADC944528DB391809B2091B01EBB0
:102E6000D1714F1004EB6106604402EB61019B1BC2
:102E7000401A07FB07F10EE0384400B2001B00EBDC
:102E8000D070421004EB600701EB6000DB1BACEB81
:102E9000000002FB02F113FB03F210FB00220020F2
:102EA0008A4298BF0120BDE8F081AEEB000424B255
:102EB000A34202DA0120BDE8F081944516DAB44558
:102EC000F8DC201A02B2AEEB020202EBD27200EB87
:102ED0006200181A01EB62015710ACEB010110FB04
:102EE00000F007FB07F211FB010113E0211A0CB2FD
:102EF000AEEB040707EBD77701EB6701591A604483
:102F000002EB67027E10801A11FB01F106FB06F24C
:102F100010FB00110020914298BF0120BDE8F08114
:102F200070B5B1F90030B2F90040B1F902C0B2F9A0
:102F30000250B1F904E0B2F90460A342B1F90610FD
:102F4000B2F90620B8BF1C46AC450480B8BF654640
:102F5000B6454580C8BF764686809142C8BF0A46BE
:102F6000C28070BD2DE9F04F93B0044628F09CF864
:102F700000210A9104900CB1E06801E00EF02AFFF4
:102F800040F2B82B0169C2F2000BCBF800000846F2
:102F900024F0BAF8DBF80010486918B124F0B4F84E
:102FA000DBF80010C86924F0AFF8DBF80000006A15
:102FB00024F0AAF8DBF800000169002900F0DE80A7
:102FC000B0F85011002959D000274FF001080DF139
:102FD0002C09012204E000BF01378F420A464DD27E
:102FE000C31993F83031002BF6D1002AF4D0002514
:102FF00007E000BFDBF800000135B0F850118D424A
:10300000EAD2411991F830110029F3D1BD42F1D033
:1030100000F1300101EBC70001EBC501FFF76EFEC7
:103020000028E7D0DBF80000303000EBC70100EBF0
:10303000C5024846FFF774FF48460BF063F8DBF81B
:103040000010044601EBC70030300BF05BF8DBF8F2
:103050000010064601EBC50030300BF053F8304449
:103060008442C7D2DBF80000DDE90B2300EBC70187
:1030700028440A634B6380F83081BBE701680A7C0F
:10308000D20700F0A780C9684968002900F0A28033
:1030900000F5AC7001F06CFA002840F09B80DBF882
:1030A00000000168C9680B688A689A4208BF4B68CB
:1030B000CDE908320EF0A8FEDBF800100790B1F859
:1030C00050210020002ACDE91100CDE90F00CDE903
:1030D0000D00CDE90B0057D00BAEA6F1080A4FF05A
:1030E000000907E0DBF8001009F10109B1F850010F
:1030F000814549D201EB090090F830010028F1D157
:1031000001F5AC7001F098F90028EBD004460CE012
:10311000DBF80000214600F5AC7001F033FA2046E0
:103120001DF010FA002D2C46DCD0DBF80000214603
:1031300000F5AC7001F0A2F9DBF80010054601EBD8
:10314000C90000F1300230462146FFF7C9FC411C9E
:10315000E8D00128DCDB5FFA80F85746DBF8000096
:10316000214600F5AC7001F0B9F957F8081FB8F125
:1031700001087A6801604260F0D1C9E70021A0F837
:10318000501113B0BDE8F08F01F5AC7001F054F9A7
:103190000DF11C0898E86001B0B10446DBF80000AE
:1031A000414600682A46C06B2346876BCDE900651F
:1031B0000294B847DBF80000214600F5AC7001F03E
:1031C0005DF904460028E9D1DBF8000000F5AC7099
:1031D00001F002F9DBF800104EF6D838B1F8509142
:1031E000C2F200080020B9F1000FC8F8000000F09A
:1031F000B281B9F1010F1ADB01EB090090F82F2120
:10320000C2B1B9F1020F12DB90F82E21AAB1B9F1C7
:10321000030F0CDB90F82D2192B1B9F1040F06DBFE
:1032200090F82C01A9F104090028E2D10AE04FF03E
:10323000000907E0A9F1010904E0A9F1020901E090
:10324000A9F103090868426B1AB19047DBF8001036
:103250000868C068826922F0010282610868C0685B
:10326000826922F002028261B1F8502191F82800AF
:10327000002A40F0040281F8282000F06881002430
:10328000CDF814901CE08169554662F341018161DB
:103290003046B56029F072FBDBF8000000EBC4009B
:1032A00030300AF02FFFD8F800100844DBF8001087
:1032B000C8F80000B1F850010134844280F0FC806D
:1032C000081990F830010028F4D14C4505D1086860
:1032D000C068826942F001028261086801EBC40A99
:1032E000C068826922F0020282610868C268C66B07
:1032F00092683260007C80070AF130001FD082465D
:1033000008460EF081FDDBF80010451E08460EF061
:10331000D1FD013807B22BB20BA800210022009783
:103320000BAD0AF029FFDBF8000075600168D1E9F8
:10333000030182698907A6D542F00201A7E73AF89E
:10334000328F524632F8029F5546CDE90820008858
:1033500035F9047F079008460EF0ACFD87420694CD
:1033600001DA2C8804E0DBF800000EF0A3FD441E17
:10337000DBF8001007980968A9EB0000CB68013062
:10338000DB68A7EB080200B20132B3FBF0F08969F9
:103390000FFA82F84045B8BF804619B3002047466F
:1033A0000B90ADF8300000BF7D1EDBF80000ADF8DB
:1033B000325000680BA982699047BDF93200BDF810
:1033C0002E10411A013109B2884503DA2FB2002FBD
:1033D000EADC05E039B2012902DB00F1010801E075
:1033E0004FF00008BAF9000025B208EB00014A1EB0
:1033F0000BAFAA4280B202DD4FF0000935E0CDF8F4
:103400001C800AE0304629F0B9FA0798444600FAD1
:103410008AF14A1EAA42504626DC099B8A461B882E
:103420000FFA82F9ADF82C30089B4D451B88ADF89A
:103430002E00DBF80000ADF83030ADF832207760B8
:10344000B7600068A2B2C068A04681683160BCBFA6
:10345000ADF83240A1461FFA89F18A42D2D1816982
:1034600041F002018161CDE750464EF6D8381FFA8F
:1034700089F1A2B2C2F200088A421AD009990988D9
:10348000ADF82C1008990988ADF82E00DBF8000083
:10349000ADF83010ADF832407760B7600068C068B2
:1034A00081683160816941F002018161304629F013
:1034B00065FADDE90594EFE691F82820002802F08E
:1034C000FB0281F8282046D00868027CD2071ED073
:1034D000C0684068D8B130244FF4987508E000BF48
:1034E000B1F85001A5F22F120834013582420ED2F4
:1034F000485D0028F4D101F5AC7001F01FF8DBF84D
:1035000000100A1952680B5942600360E8E701F1A4
:1035100030004FF480711DF0CFFCDBF8000020215B
:1035200000F598701DF0C8FCDBF800000021A0F841
:103530005011049827F0B2FD0A90DBF800000068F3
:10354000436A43B10A99D8F80020984703E000F095
:10355000FB0081F828001CF033FE00F04DF900F06C
:1035600007F94EF6C036C2F200067469E4BB0EF0ED
:1035700031FC0EF061FC1BF013F97F2100220446A0
:1035800023F0EEFC20460021002223F0DDFC204643
:103590004FF6FF71002223F01FFD20460321002279
:1035A00023F00EFD20460321002223F0F7FC2046E5
:1035B0000321002223F0F8FC20460321002223F0FF
:1035C000F9FC20460321002223F000FD47F2176199
:1035D000C0F6030120461CF0F3F920460621002224
:1035E00000231EF0C9FC7461306827F057FD800885
:1035F0004A280DD8D8F8000041F28931884236D3E4
:103600000A98D6E901120844511CC6E901012EE0CE
:1036100027F04AFDDBF800103060496829B10868DE
:103620004FF47A71B1FBF0F500E03225B16828461D
:1036300041B170684FF47A72002808BF01205143ED
:10364000B1FBF0F00021C6E90111A84238BF0546E0
:10365000D6E9031028443061481CF06027F0AEFD25
:10366000C0F1640335A120462A461CF0E7F94EF666
:10367000B835C2F200052C68BCBB0EF0ABFB0EF0F7
:10368000DBFB1BF08DF87F210022044623F068FC51
:1036900020460021002223F057FC20464FF6FF7100
:1036A000002223F099FC20460321002223F088FC0D
:1036B00020460321002223F071FC20460321002232
:1036C00023F072FC20460321002223F073FC47F212
:1036D0001761C0F6030120461CF072F92046042150
:1036E000002200231EF048FC2C604EF6B435C2F2D6
:1036F0000005286827F0D2FCB0F5967F1AD927F08C
:10370000D3FC28600BA81CF04BFF0B980D999DF87B
:103710004570401A40F2FE31820A08404AF2A10187
:1037200048439DF84410830D009108A1204601975D
:103730001CF084F913B0BDE8F08F00BF257520465A
:1037400050530A25752525204350550025752E25F3
:1037500075206B422075736564202825642025251B
:10376000290A2564252520667261672E0000000065
:1037700010B540F2F804C2F200042068002818BF17
:103780001CF0E0FE20461C211DF096FBE06900289D
:1037900018BF1CF0D7FE04F11C001C211DF08CFB8F
:1037A000A06B002818BF1CF0CDFE04F138001C21CE
:1037B0001DF082FB606D002818BF1CF0C3FE04F1F1
:1037C00054001C21BDE810401DF076BB40F2C8310A
:1037D000C2F20001096804E00A7E42F001020A76A2
:1037E0004969002908BF70474A688242F4D00A68D4
:1037F0008242F5D1F0E700007047000040F2F4107B
:10380000C2F20000042100F047BE000040F2042094
:10381000C2F20000202100F03FBE00002DE9F04F71
:1038200085B00E9E1D46002B834608BFB6F5807FEF
:1038300069D0DDF83C800023019301A8ADF80810A1
:10384000CDF80A30ADF80E20ADF81010ADF812200A
:10385000294632464346071D00F1080900F10C0ACB
:1038600023F0A8FC384629463246434623F0A2FC02
:10387000484629463246434623F09CFC504629469A
:103880003246434623F096FCBDF90410BDF90830DA
:10389000BDF90C60BDF9104099421F46BDF90620E4
:1038A000BDF90A00B8BF0F46A6422546B8BF354647
:1038B000AF42B8BF3D46AF1E9942ABF80070C8BFDB
:1038C0000B46A642C8BF3446A342C8BF1C46BDF93A
:1038D0000E70BDF9125082420346B8BF1346AF4284
:1038E0002E46B8BF3E46B342B8BF1E468242C8BF4E
:1038F0001046AF42C8BF3D46A11CB31EA842C8BF78
:103900000546A81C04E00023ABF800300139501E26
:10391000ABF80230ABF80410ABF8060005B0BDE818
:10392000F08F0000F0B581B016460C46074627F030
:10393000BBFBA2B240F21024C2F2000405462046AE
:103940003946334619F02EFA58B1E0690021A162D8
:1039500078B9284627F0A2FB002808BF0120E061C3
:1039600007E020462C211DF0A7FA4FF00040A0628E
:103970000024204601B0F0BD10B540F23C24C2F254
:1039800000042046142100F087FD204600F08CFD45
:10399000B0B1142104461DF08FFA4CF22D20C0F670
:1039A00001004CF21D314CF2A5624CF2F513C0F649
:1039B0000101C0F60102C0F601030FC410BD00BF33
:1039C000FEE70000B0B50C460546084610211DF084
:1039D00073FA28680178042908D0022908D001293F
:1039E00008D1A98A2180E98A618003E00A2100E0E8
:1039F000E96861604268002A08BFB0BD2146BDE8A1
:103A0000B04010472DE9F04F8BB00446824634F8A1
:103A1000140F20B9BAF81600002800F0DA82DAF89C
:103A20002C80B8F1000F49D04FF48076002745462E
:103A3000284600216E2220F013FD0744284600216D
:103A40006D2220F00DFD01B2C90D50FA81F000B2D7
:103A50000012464328461FF01BFF05460028E7D109
:103A6000380403D1B0B2B0F5807F0DD030B24FF43E
:103A7000803292FBF0F079420022089209B202B241
:103A800008AB204623F096FB9AF8400000F00F00A8
:103A9000032840F04981404620F022F80546404680
:103AA0001FF0A4FFB4F900100246032740462B463E
:103AB000009706F01DFA0646002547E119F0AEFE14
:103AC0000068BAF81410BAF81820037E5018AAF843
:103AD0001800BAF81600BAF81A10DAF824B0084438
:103AE000BBF1000FAAF81A0000F07382584205904B
:103AF000002001944FF000080490002000270024CB
:103B000003930290A1464FF4807600245D46CDF8E1
:103B1000288000BF284600216E2220F0A1FC04442A
:103B2000284600216D2220F09BFC00B27043061253
:103B300028461FF0ADFE05460028EBD1DAF8180044
:103B40002104099008BFB6F5807F0FD04FF4803173
:103B5000604291FBF6F201B209A80AAB23F02AFBFE
:103B6000BDF82400BDF8261001E000BF010C02B230
:103B700080EAE230A0EBE2300AB281EAE231A1EB66
:103B8000E23180B289B288424FF000004FF000016C
:103B90004C4688BF012098BF012141EA0904074330
:103BA0005846102120F010FE002800F09C80584656
:103BB00007971FF0E9FE814600F0040004EA900731
:103BC00009F0080004EAD0000690584620F00AF8F0
:103BD000064658461FF074FE054658461FF006FF7D
:103BE000804658461FF07CFF002ED8BF012D11DB08
:103BF000BDF92610DDF80CC00FB1614504DA069A54
:103C000052B1059A914207DC0C2102915946CDF838
:103C100010B001E0DDF80CC0B8F1000FD8BF0028EB
:103C200041DDBE46079F09F0020209EA070111F0D3
:103C30000103BDF9241007EA520201D0614503DAFD
:103C40003AB1059FB94204DC5F460327CDF810B0B6
:103C50000297A1460024B8F1000FC8BF01242340F9
:103C6000012B02D1614580F2C38000284FF0000390
:103C7000C8BF0123002D4FF00000C8BF0120002E57
:103C80004FF00006C8BF0126069C1A40079F20403F
:103C9000012A06EA0E0218D1059B4FF0000899424E
:103CA0004C4615DCA5E0002D4FF000004FF0000160
:103CB000C8BF0120002EC8BF012101EA07020699F2
:103CC000079F08404FF0000802E04FF000084C4604
:103CD000BDF9261012B1614580F28B8018B10598AC
:103CE000814240F3868058464FF4807120F06CFD8D
:103CF000002804BF87F001005FEAC07000F08580F3
:103D000058464FF4007120F05FFD002804BF84F096
:103D100001005FEAC07078D058461FF0B9FD8346B5
:103D200000287FF4EFAE70E040461FF05BFF0546D1
:103D300040461FF0C5FDBAF9161003460C27404651
:103D40002A46009706F0D4F80546002640461FF0A4
:103D50001BFEC10705D1002E03DD0026410706D555
:103D600009E0810758BF26EAE676410703D4002D13
:103D700001DD002503E0000758BF25EAE575BAF923
:103D80001A10BAF9363001FA85F7BAF91800BAF9FB
:103D900034205C1A9F42B8BF2546BAF93A30B8BF02
:103DA00001FA84F79F42C8BF5D1A00FA86F1131A20
:103DB0009142B8BF1E46BAF93820B8BF00FA83F165
:103DC0009142C8BF161A31B22AB2404600F028FC10
:103DD0009AF80100800700F1FC80BAF81800BAF8E0
:103DE0001A103044AAF818004819AAF81A00F0E08E
:103DF000079FF8079AF840104FF00C0018BF0320F7
:103E000001F0F00108448AF84000DDF81080019CC0
:103E1000B8F1000F00F0DD809AF84000029900F040
:103E2000F00001F00F0108448AF840000020CAF8B1
:103E30001800404680214EF20105CAF82C8020F07F
:103E4000C3FCD0B140461FF0C5FE032821D0022894
:103E500039D0012849D1B8F8160041F6FF72013077
:103E600001B24046002306F065FAAAF83600B8F819
:103E7000160029B2013802B232E029B20AF1340048
:103E800041F6FF770A4641F6FF7300970AF074F98E
:103E900079E0B8F81600B8F81A100023091A0131B1
:103EA0008AB201EBD23109B200EB6104601C01B2AD
:103EB000404641F6FF7206F03DFAAAF83600601E51
:103EC000019C02B20BE0B8F91A10404641F6FF72AD
:103ED000002306F02FFAAAF83600B8F91A2029B202
:103EE0004046002306F026FA03E041F6FF70AAF8E8
:103EF0003650AAF83A0040461FF064FE032810D05E
:103F0000022828D0012838D1B8F91410404641F6CB
:103F1000FF72002306F078F9AAF83400B8F91420EB
:103F200025E0B8F81400B8F818100023091A013178
:103F30008AB201EBD23109B200EB6104601C01B21C
:103F4000404641F6FF7206F05FF9AAF83400601EA1
:103F5000019C02B20BE0B8F91810404641F6FF721E
:103F6000002306F051F9AAF83400B8F9182029B254
:103F70004046002306F048F903E041F6FF70AAF836
:103F80003450AAF83800BAF834000921002808BFD4
:103F9000AAF83450BAF838000022002804BF41F6CD
:103FA000FF70AAF83800BAF83600002808BFAAF84F
:103FB0003650BAF83A00002804BF41F6FF70AAF85C
:103FC0003A00404616F0DEFF9AF8010080077FF5C0
:103FD0002BAD0BB0BDE8F08F2DE9F04782B0C56A7C
:103FE000002D00F03A81044690F84000000700F0F0
:103FF000348119F013FC824600684021477E284630
:1040000020F0E2FB002804BF0020E06128461FF0FA
:10401000D9FD804628461FF0DDFD94F8401081460A
:1040200001F00F01032945D00C2940F01481E68BE3
:104030000020B9F1000FA0837DD019F0EFFB002E16
:104040004FF0000C00F0BF80006848F21F52407E25
:104050000027C0F16400C5F2EB1200BF10FB06F3AD
:1040600053FB02F3591101EBD3731904374400F0E9
:10407000AB8010FB03F151FB02F14E1106EBD17640
:1040800031041F4400F0A08010FB06F151FB02F147
:104090004B1103EBD1731904374400F0958010FBEA
:1040A00003F151FB02F14E1106EBD17631041F44AE
:1040B000D4D189E0A68B0020B8F1000FE0835ED058
:1040C00019F0ACFB002E4FF0000C00F09F80006850
:1040D00048F21F52407E0027C0F16400C5F2EB1287
:1040E00010FB06F353FB02F3591101EBD3731904D0
:1040F000374400F08C8010FB03F151FB02F14E11AC
:1041000006EBD17631041F4400F0818010FB06F1EC
:1041100051FB02F14B1103EBD1731904374476D0F4
:1041200010FB03F151FB02F14E1106EBD176310485
:104130001F44D5D16BE030B2C7F16401484348F267
:104140001F51C5F2EB1150FB01F0410901EBD0709A
:10415000E08328461FF0B4FB074628461FF042FDC7
:10416000B4F91E1002460C2628463B46009605F080
:10417000BFFE0246E08328460021002369E030B2FA
:10418000C7F16401484348F21F51C5F2EB1150FBDF
:1041900001F0410901EBD070A08328461FF026FCF6
:1041A000074628461FF09CFCB4F91C100346032662
:1041B00028463A46009605F09BFE0146A083284615
:1041C0000022002345E00027B4F91A00B4F93610A4
:1041D000B4F93A2000FA87F3A4F81EC00E1A8B42F5
:1041E000BCBF374600FA86F34EF201019342C8BFC6
:1041F000171A3BB2CFF6FF71284641F6FF7206F060
:1042000099F8384402B22846002121E00027B4F989
:104210001800B4F93410B4F9382000FA87F3A4F880
:104220001CC00E1A8B42BCBF374600FA86F34EF212
:1042300001019342C8BF171A3BB2CFF6FF7128465F
:1042400041F6FF7205F0E0FF384401B22846002233
:10425000012322F0F1F8A08B10B102B0BDE8F08785
:10426000E08B0028F9D1B9F1000F16D128461FF0D4
:10427000B9FC074628461FF023FB002FD8BF0128B2
:104280000BDB002F03D4B0F1FF3F06DC47423AB20C
:1042900028460021012322F0CFF8B8F1000F16D1F3
:1042A00028461FF0A3FB074628461FF019FC002FE5
:1042B000D8BF01280BDB002F03D4B0F1FF3F06DC91
:1042C000474239B228460022012322F0B5F8284699
:1042D0000A21524616F056FE60788007BDD494F845
:1042E000400000F0F00084F840000020E06202B0DE
:1042F000BDE8F087F0B585B004460D4620B90DF055
:1043000069FD0446002853D020460DF0EBFD00283F
:104310004ED094F8280040074AD40020CDB3029034
:1043200020460DF071FD0138ADF80C0020460DF06F
:10433000C1FD0138ADF80E00684602AA2946FEF715
:104340005FFCA8B32068017C890726D482690AB182
:1043500069469047B4F8500160B304F13005002776
:104360006E4600BF304629460022FEF777FCF8B9BA
:10437000B4F8501101378F4205F10805F2D31F2917
:1043800019D9DDE902020021A4F85011206362630B
:1043900017E0A4F8500105B0F0BD0298039920631E
:1043A0000120A4F850016068616308B127F002F8A9
:1043B00005B0F0BD0021DDE9002304EBC10002637C
:1043C0004363606801310028A4F8501118BF26F03B
:1043D000F1FF05B0F0BD0000F0B581B010B3456845
:1043E0000446FDB1002707E0002BA36014BF9F50D7
:1043F00067601CF0A7F8ADB1D4E9001328460A1D88
:10440000AD5883420AD0A66843588642ECD0002BB0
:1044100018BF9D5055B16B50EBE700BF65601DB1F3
:104420006F50E6E701B0F0BD0021A16001B0BDE82A
:10443000F0401CF087B80000002814BF406800203E
:1044400070470000B0B14268A2B10068011D0120B0
:104450005258002A08BF704752586AB15258002A71
:1044600004BF0230704752580430002A04BF01389C
:104470007047EDE70020704701307047006808443E
:10448000406870470068085870470000002814BF53
:1044900080680020704700000331002221F00301F2
:1044A000C0E900128260704710B504460068083009
:1044B0001BF062FE002808BF10BD21680022425098
:1044C000626843185A606268002A18BF5050A16899
:1044D0006060002908BFA06010BD000070B50446F0
:1044E00000284FF0000012D00D4681B1D4E900063B
:1044F00008301BF041FEAE420AD0E0B121686A5894
:104500000B1D002A18BFD05042506850C55070BDD6
:104510004FF0000278B121684250626843185A6037
:104520006268002A18BF5050A1686060002918BF57
:1045300070BDA06070BD002070BD000010B50446C5
:10454000006808301BF018FE002808BF10BD226864
:104550000023111D4350A3688350A268002A18BF8E
:1045600050506168A060002908BF606010BD000065
:1045700028B1416809B9806808B10020704701205E
:104580007047000080B5002808BF80BD42688A429D
:1045900013D0D0F800E0826851F80E308A4217D06C
:1045A0000EF1040C51F80C00002B18BF43F80C005E
:1045B000002818BF40F80E3080BD026811444968D9
:1045C0000029416007BF002181600020885080BD24
:1045D0000021002B836018BF0EEB0300416080BDFB
:1045E00010B50446006804E00068002808BF10BD4C
:1045F00020608268002AF7D0214690472068F3E7C0
:104600008068002814BFC08A002000B270470000F4
:10461000806800280EBF0020807E8009704700005F
:1046200070B50E4611431BD0154604461EF020F807
:10463000A0680123018A428A3144018251194182D2
:10464000204631462A4620F099FC20460B210022C4
:1046500016F098FC012818BF70BD204620F0DAFB48
:10466000012070BDF0B581B01446A8B162220646A3
:104670000F461FF0F5FE88B10546006880B1304650
:10468000394663221FF0ECFE01060BD02B68A1B265
:10469000C2B22846984706E0204604E0204602E0E1
:1046A000204600E02046C0EA040001B0F0BD000052
:1046B0002DE9F04F91B00446408CDDF868B040F031
:1046C0000400608422841646BBF8082020461F465A
:1046D0008A461FF0C5FE2784BBF808200546204601
:1046E00051461FF0BDFE618C814621F004004D450E
:1046F000608403D102D111B0BDE8F08F2684BBF8ED
:104700000820204651461FF0ABFE80462046514609
:10471000278406F041FF0068BBF80810424624F0E9
:1047200097FDBBF808000B2828D147F6FF76B04567
:1047300018BFB14522D120461FF0D6FF81B200EB51
:10474000D13000B2451020461FF028F881B200EBAE
:10475000D13000B2B0454FEA600005D1691C00F1CC
:1047600001084145B8BF884647F6FF71894505D124
:10477000691C00F101094945B8BF894640F258203B
:10478000C2F20000FFF790FED0B3C0E903890460D5
:104790000646BBF808006C46B0802046C6F808A064
:1047A00008F020FF42F61D50C0F60300019042F6CB
:1047B0004D70C0F60300029042F68D60C0F6030013
:1047C00003900020CDE90800FF200A90BBF800000C
:1047D000BBF802100B904842DBF80C100C909DF8CF
:1047E00042000791DBF8101000F0FE008DF8420047
:1047F00020460096069108F075FF11B0BDE8F08FD5
:10480000FEE7000040F25820C2F200001421FFF73A
:1048100043BE00002DE9F04782B00446408C10F4FE
:10482000FC7F00F026816FEA01086FEA02094FF071
:10483000000A01AD002709E04FF0020A608C00BFBA
:104840000137C0F3C5018F4280F01581E16801EBAB
:10485000C70252689301F3D492B212EA080302EA43
:104860000902B2FA82F24FEA521218BF01235340F2
:10487000E6D151F83760102130462A4624F064FA18
:10488000002840F0F380304611212A4624F05CFADB
:10489000002840F0EB80304612212A4624F054FADA
:1048A000002840F0E380304613212A4624F04CFAD9
:1048B000002840F0DB80304615212A4624F044FAD7
:1048C000002840F0D380304614212A4624F03CFAD8
:1048D000002840F0CB8030460A212A4624F034FAE2
:1048E000002840F0C38030466B212A4624F02CFA81
:1048F000002840F0BB8030466C212A4624F024FA80
:10490000002840F0B380304601212A4624F01CFAEA
:10491000002840F0AB80304604212A4624F014FAE7
:10492000002840F0A380304602212A4624F00CFAE9
:10493000002840F09B80304603212A4624F004FAE8
:10494000002840F09380304605212A4624F0FCF9E7
:10495000002840F08B80304606212A4624F0F4F9E6
:10496000002840F08380304632212A4624F0ECF9BA
:1049700000287BD130466E212A4624F0E5F9002834
:1049800074D130466D212A4624F0DEF900286DD11D
:10499000304669212A4624F0D7F900287FF44CAF2D
:1049A00030466A212A4624F0CFF900287FF444AF2C
:1049B00030466E212A4624F0C7F900287FF43CAF28
:1049C00030466D212A4624F0BFF900287FF434AF29
:1049D000304637212A4624F0B7F900287FF42CAF5F
:1049E000304638212A4624F0AFF900287FF424AF5E
:1049F000304635212A4624F0A7F900287FF41CAF61
:104A0000304640212A4624F09FF900287FF414AF55
:104A1000304645212A4624F097F900287FF40CAF50
:104A2000304641212A4624F08FF900287FF404AF54
:104A3000304642212A4624F087F900287FF4FCAE54
:104A4000304643212A4624F07FF900287FF4F4AE53
:104A5000304649212A4624F077F900287FF4ECAE4D
:104A6000BAF1000F08BF4FF0010AE7E64FF0030A62
:104A700001E04FF0000A5FFA8AF002B0BDE8F0876B
:104A800040F2B820C2F20000006870474EF6C03015
:104A9000C2F200000021C0E90011C0E90211C0E922
:104AA00004114EF6B430C2F2000001604EF6B83088
:104AB000C2F2000001607047C0F30410072828BF4D
:104AC000072070474FF6FF71884204BF1F207047D0
:104AD000002804BF00207047702805D843F2865193
:104AE000C0F60301085C704740F26421C2F2000185
:104AF000096851B140F26822C2F2000271381268AE
:104B000080B2824284BF085C70470020704700007A
:104B100080B540F27420C2F200001821FFF7BCFCFF
:104B20004EF6AC30C2F200000121017080BD0000E1
:104B30002DE9F04190B3164604460D46FBF783FB82
:104B400040F20C08C2F20008D8F8002007462046C0
:104B500029469047D8F80020054620443146904722
:104B6000391A8D421AD820440CE000BF9F78EE1C01
:104B70008E42977088BFBDE8F081DB7804358D42A6
:104B8000D3700BD8425D6B1C8B42625506D843191B
:104B90005F78AE1C62198E425770E7D9BDE8F0818C
:104BA0002DE9F04140F21408C2F200081446D8F88A
:104BB00000200F4619461D4606469047386040B112
:104BC0002868D8F800203044002190472060BDE8D4
:104BD000F08100202060BDE8F08100002DE9F04F59
:104BE00091B01A9C0546002C1E460F461CBF0020A3
:104BF0002080A5B3002F4FF0000000F077812978C6
:104C0000002900F073811B9810F0060F2BD00020B4
:104C1000012242F2014301E0397904300D2904D820
:104C200002FA01F71F4240F03A812F1879780D29D6
:104C300004D802FA01F61E4240F02E81B9780D29FF
:104C400004D802FA01F61E4240F02881F9780D29B5
:104C5000E2D802FA01F61E42DED003301FE1002046
:104C600011B0BDE8F08F0021012E0E91C0F22C8111
:104C700000F001000D900020069702922C464FF0A4
:104C8000000909900027019540F21400C2F20000CB
:104C9000026800201090204610A990478046E85DE9
:104CA000109900280F9100F0B280B0B2CDE90379DD
:104CB0000596079000234FF0FF304FF000090026C3
:104CC0004FF0000B099D4746DA460A930C90CDF849
:104CD0002C90CDF820800BE00125DDE90F0A09F1C9
:104CE0000109109014F80A004746002800F091804E
:104CF00040F21400C2F20000026820460FA990475B
:104D00000D99804679B1232F06D1002DE4D0022DD4
:104D100012D10025E1E700BF012D0AD1202F0CBFE1
:104D200002250125D9E7DA46069D0C9FDDF820B063
:104D30000DE0BB46099506E04FF0230B012D06BFA1
:104D4000002009900995CDF82C90069D0C9F2846CF
:104D50005946424616F09AFA01B2064402980029D2
:104D6000C8BF064431B2079A081A90425046D8BFCD
:104D70004FF0FF307A1C18BF3846BBF10A0F00F025
:104D80005680BBF10D0F00F05280ABF59C4245F20E
:104D9000A6139A42C0F04B80ABF120023F2A00F2EA
:104DA0002280DFE802F04420202020202020202044
:104DB0002020444444202020202020202020202087
:104DC000444420202020202020202020202020209B
:104DD00020202020202020202020202020202020D3
:104DE000202020202044DDF840B0421C14F80B2085
:104DF0000A9B08BF0B460F99002A09F1010910917F
:104E00007FF460AFDA46C346CDE90A391AE00021E3
:104E10002AE0CDF82C90059EDDE903790C9A0995DE
:104E2000C346501C14D0019D0A99F7B161E0BAF154
:104E3000000F07D1059EDDE90379421C05D1019DD4
:104E4000002208E0059EDDE903790246501CEAD104
:104E5000019D0A9952460B9830B1BBF10D0F08BF66
:104E6000B8F10A0F01D100BF109A89441AB328780B
:104E700017440A280E971ED00D281CD0E85D0D2877
:104E800017D00A2815D0B0B1701A06B2012E05EB62
:104E90000704BFF6F9AE0EE0013000E00230002951
:104EA00018BF013014B34FF6FF71218011B0BDE877
:104EB000F08F01370E97002F1A9C069F04D0002C0C
:104EC00018BFA4F8009010E040F21400C2F20000F5
:104ED00002680EA9284690473CB101463846002298
:104EE00016F0D4F98146A4F800900E9811B0BDE8F0
:104EF000F08F1A9CE3E700002DE9F04F83B0002803
:104F000000F090801646002A00F08C80074630465C
:104F10000D46FBF798F9002800F0848004463846D7
:104F20000196FBF790F9814640F20C00C2F20000B6
:104F300002683846294609EB04060297904700EBC1
:104F4000040C664513D2029914F003020844A4F13C
:104F5000010143D0019E012A334613F8017B00F87A
:104F6000017B3FD11E460C4603295BD34BE00299DF
:104F7000A4F1030E4A1E1519A4F1020A214600BF2E
:104F800002EB090309EB010893F801B0A8F101074E
:104F900005EB0906674586F801B0D4D312F80980FD
:104FA00009EB0A07674505F80980CCD313F8018C93
:104FB00009EB0E07674506F8018CC4D313F8023CD1
:104FC000043906F8023C09EB0103043AAEF1040E81
:104FD000043D6345AAF1040AD2D2B4E7019E032935
:104FE00020D310E07378022A00F8013B04D1023686
:104FF000023C032916D306E0B278033600F8012BF1
:10500000033C03290ED3311F043800BF11F8042FCD
:10501000043C00F8042F4A7842708A788270CA787B
:10502000C270F3D103B0BDE8F08F000003782329EC
:105030000BD1032B24BF00207047D9004FF0010C87
:105040002CFA01F22CEA030108E0012B1CBF00201E
:10505000704720294FF0010101D102220270084659
:10506000704700002DE9F04182B004460B46CDE9BF
:1050700000110020002122464FF0000826F0A6FE75
:10508000451C074628461BF077F858B100F8078002
:10509000019B29462246064626F098FE304602B07D
:1050A000BDE8F081FEE700002DE9F04702B3DDF82E
:1050B00020909A4614460F46804606E064F00100B0
:1050C0003044441C05EB0A0774B1660806FB0A75F8
:1050D00040462946C8470128F0DAB0F1FF3F344680
:1050E000F2DD2846BDE8F08700252846BDE8F087B8
:1050F0000020BDE8F08700002DE9F04F83B0129F3B
:105100000DF1300C1E46DDE910E59CE808188A46D2
:10511000814617F00200CDE9010256D14DB1F807E2
:1051200008D017F00C0018BF012040EA0C002D1A1F
:1051300000E00025F34518D2BBF11F0F15D86FEA28
:105140000B017144CBF11F02914238BF0A46541C37
:1051500003EB0B00214630229846FBF762F8DDF89E
:1051600040E0DDF838C04346A344F8072DD0AB45F6
:105170002BD2BBF11F0F28D8302000BF0BF101014B
:10518000A94203F80B0080F0AF80BBF11E0F00F2C4
:10519000AB800BF1020203EB0B01AA42487013D261
:1051A000BBF11D0F10D80BF10302AA4288700BD27D
:1051B000BBF11C0F08D80BF10402AA42C87003D23D
:1051C000BBF11C0F9346D9D39346F80635D50F98FB
:1051D000790510D4BBF1000F0DD0F34518BFAB45D6
:1051E00009D1BBF101010A4618BFABF10202102838
:1051F00018BF0A469346102807D117F020000BD19C
:10520000BBF1200F08D278200BE002280DD1BBF1B2
:105210001F0F0AD8622004E038B1BBF1200F04D27E
:10522000582003F80B000BF1010BBBF11F0F10D836
:10523000302003F80B000BF1010BBBF11F0F08D856
:10524000BCF1000F01D02D2008E0780703D4380707
:1052500003D4984607E02B2000E02020984603F86E
:105260000B000BF1010B029CB8070DD1029CAB4562
:105270000AD2029AA5EB0B07202051463346541C54
:10528000C847013F2246F7D1BBF1000F00950FD070
:10529000A8F1010818F80B00514622463346ABF13D
:1052A0000105671CC847002D3C46AB46F2D100E023
:1052B0002746019888B10299DDF80080781A4045A8
:1052C0000DD24D42202051463A4633467C1CC847F9
:1052D000281940452746F5D302E03C4600E03C460D
:1052E000204603B0BDE8F08F8B46F8063FF56FAF60
:1052F000A3E700009A4238BF885470477047000007
:105300002DE9F04F99B00E46229945F2FD271C4633
:105310009246C0F6000700251091002E18BF0746E0
:105320002078A946002800F0BA84252807D0314605
:105330004A46534609F10105B8470134F0E74FF0FA
:105340000008CDE90C7660782146A0F12003102BEF
:1053500000F270800122DFE803F0096D6D0B6D6DC6
:105360006D6D6D6D6D0D6D0F6D6D1100082205E099
:10537000102203E0042201E0022200BF887848EAFC
:105380000208A0F12003102B00F257800122DFE871
:1053900003F00954540B545454545454540D540FA2
:1053A00054541100082205E0102203E0042201E019
:1053B000022200BFC87848EA0208A0F12003102B9F
:1053C0003FD80122DFE803F0093D3D0B3D3D3D3D67
:1053D0003D3D3D0D3D0F3D3D1000082204E01022F3
:1053E00002E0042200E002220C4614F8040F48EA0E
:1053F0000208A0F12003102B27D80122DFE803F0D8
:105400000E2525122525252525252516250C25259E
:10541000090048EA020896E70222FAE7082248EA69
:10542000020890E7102248EA02088CE7042248EAC2
:10543000020888E701F1010B0AE001F1020B0131DA
:1054400006E001F1030B023102E001F1040B03312C
:10545000A0F13002109CD2B2092A43D80BF1020B02
:10546000002600BF06EB8601490051FA80F11BF8C7
:10547000010CA1F13006A0F13002D2B2092A00F2EB
:10548000E48006EB860100EB41019BF80000A1F1EE
:105490003006A0F13002D2B2092A00F2D88006EB21
:1054A000860100EB41019BF80100A1F13006A0F15B
:1054B0003002D2B2092A00F2248106EB860100EB09
:1054C00041019BF80200A1F13006A0F13001C9B200
:1054D0000A290BF1040BC5D3ABF1020B2E2800F007
:1054E000B98016E02A2810D154F8040B002806468B
:1054F00048BF4642002811F8020F48BF48F0020892
:105500008B462E2800F0A68003E000262E2800F00F
:10551000A1800022A0F168014FEA7103092B0E92CD
:105520000B9624D801214FF48072DFE803F0050EBA
:10553000122020201B20201B594611F8010F68283B
:1055400040F0E4800221C0220CE001214FF40072FF
:1055500008E0594611F8010F6C2840F0DB80022169
:105560004FF440721BF8010048EA02088B44A0F196
:105570002502532A00F2D78008211025DFE812F017
:10558000CE00D300D300D300D300D300D300D30088
:10559000D300D300D300D300D300D300D300D30073
:1055A000D300D300D300D300D300D300D300D30063
:1055B000D300D300D300D300D300D300D300D30053
:1055C000D300D300D300D300D300D300D300D30043
:1055D000D300D300D3005800D300D300D300D300AE
:1055E000D300D300D3003401D300D300D300D300C1
:1055F000D300D300D300D300D300DF00E200540077
:10560000D300D300D300D3005400D300D300D30081
:10561000D300D3003F015800D300D3000001D300D2
:105620005400D300D300340128F010080A25DBE031
:105630005A4612F8011F48F4887856294FF0100195
:1056400040F0D18056209346D9E0ABF1010B2E28D3
:105650007FF45FAF594611F8010F48F48068A0F15C
:105660003002D2B2092A40D80BF1020B002200BF4F
:1056700002EB8201490051FA80F19BF80000A0F191
:105680003002D2B2092AA1F130023FF643AF02EB59
:10569000820100EB41019BF80100A0F13002D2B27F
:1056A000092AA1F1300200F2628102EB820100EBD3
:1056B00041019BF80200A0F13002D2B2092AA1F107
:1056C000300200F2578102EB820100EB41019BF8AE
:1056D0000300A1F13002A0F13001C9B20A290BF197
:1056E000040BC5D3ABF1010B14E72A2806D154F8FB
:1056F000041B1BF8020F21EAE1720BE700228B4624
:1057000008E70BF1010B2E28A4D002E748F080082F
:105710008B462CE748F480788B4628E7109409F1F3
:105720000105252002E009F1010510940D9E0C9F52
:1057300031464A465346B8470BF10104F0E50221D1
:1057400062205CE018F0020640F0B9810B98022854
:10575000C0F01E82DDE90C781094411C4442002503
:105760000F9100BF09EB0502202041465346B84780
:10577000013560190130F5D1DDE90F84A9440AE251
:10578000CDF828A054F804AB0E9E9AF800005146BC
:105790000028109400F02282002E08BF4FF0FF3640
:1057A000A6F1030CB21E731E043E00250AEB05048D
:1057B0006178002918BFAB4200F08581A1780029EB
:1057C00018BFAA4200F00682E178002918BFAC4554
:1057D00000F0028221792C1D11B1AE422546E5D19F
:1057E0000AEB0401F9E1102540F00801582908BF2F
:1057F00048F02008642805D06928294602D028F0FE
:105800000C080D465FEA485148BF28F001085628A9
:1058100015D0692801D0642827D15FEA885035D493
:105820005FEAC85048D45FEA486000F1A680D4F827
:1058300000C05FEA086048BF0FFA8CFC9FE054F894
:10584000040B0D9E41680C9F0D6806EB0901119534
:105850000368AAEB0902384610940095FFF750FD43
:1058600000EB09050BF101045AE55FEA885033D4D7
:105870005FEAC85000F191805FEA486000F125813D
:1058800026685FEA086048BFB6B21FE1E01D20F05D
:1058900007000246436852F8080B50EA030108BFAC
:1058A00028F01008CDF828A0109261BB18F4806190
:1058B00029D01F46002255E054F804CBBCF1000F5C
:1058C00008BF28F01008BCF1000F109475D118F42F
:1058D000806072D00026ECE0E01D20F007004468F4
:1058E00050F8086B109056EA040008BF28F0100822
:1058F0000028CDF828A040F0828018F4806000F0E5
:105900007E800022A2E080EAE370B0EBE37408F04E
:10591000200083EAE37180F061001F4661EBE376CB
:10592000F6304FF0000A0F90204631462A460023F9
:10593000FAF746FC00FB154202F0FE030A2B0F9B10
:1059400038BF3023641B76F1000613440AF10102CC
:1059500011AE06F80A3005D3BAF11F0F924604467D
:105960000E46E1D3F80F11A9CDE9001272E00BF158
:10597000010BCFE50BF1020BCCE594F800C0BCF1B4
:10598000000F08BF28F01008BCF1000F10946BD175
:1059900018F4806068D0002688E054F8046B002E6C
:1059A00008BF28F01008002E109440F09A8018F4D8
:1059B000806000F096800023AEE008F0200181F0C6
:1059C0006101604601F1F60E0023BCF1000F48BFF3
:1059D000CCF10000B0FBF5F1724601FB150606F0B4
:1059E000FE040A2C38BF302232445E1CA84211A8A3
:1059F000C2545ED31F2B33460846EBD359E008F060
:105A0000200080F0610000F1F6074FF0000A00BFAF
:105A1000304621462A460023FAF7D2FB00FB1562E6
:105A200002F0FE030A2B3B4638BF3023761B74F18D
:105A3000000613440AF1010211AE06F80A3005D33C
:105A4000BAF11F0F924606460C46E1D311A8CDE9E4
:105A500000020020CDE902050E980C9F04900B98DF
:105A60000D9EDDF828A085E008F0200181F061019D
:105A7000604601F1F60E0022BCF1000F48BFCCF1E8
:105A8000000000BFB0FBF5F1734601FB150606F000
:105A9000FE040A2C38BF30233344561CA84211A8F8
:105AA000835403D31F2A32460846EBD310980430A0
:105AB000109011A94FEADC70CDE9001653E00C9F5D
:105AC0004FF0010867E0611C87E02678002E08BFD0
:105AD00028F0100810941EBB18F4806020D000221B
