:020000040800F2
:10000000E00101209D010008A5010008A7010008EA
:10001000A9010008AB010008AD01000800000000C4
:10002000000000000000000000000000AF01000818
:10003000B101000800000000B3010008813600088B
:10004000B7010008B7010008B7010008B7010008B0
:10005000B7010008B7010008B7010008B7010008A0
:10006000B7010008B7010008B7010008B701000890
:10007000B7010008B7010008B7010008B701000880
:10008000B7010008B7010008B7010008B701000870
:10009000B7010008B7010008B7010008B701000860
:1000A000B7010008B7010008B7010008B701000850
:1000B000B7010008B7010008B7010008B701000840
:1000C000B7010008B7010008B7010008B701000830
:1000D000B701000841390008B7010008B70100085E
:1000E000B7010008B7010008B7010008B701000810
:1000F000B7010008B7010008B7010008B701000800
:10010000B7010008B7010008B7010008B7010008EF
:10011000B7010008B7010008B7010008B7010008DF
:10012000B7010008B7010008B7010008B7010008CF
:10013000B7010008B7010008B7010008B7010008BF
:10014000B7010008B7010008B7010008B7010008AF
:10015000B7010008B7010008B7010008B70100089F
:10016000B7010008B7010008B7010008B70100088F
:10017000B7010008B7010008B7010008000000003F
:10018000B7010008B7010008DFF80CD000F0CEFE80
:100190000048004789D20208E00101200648804754
:1001A00006480047FEE7FEE7FEE7FEE7FEE7FEE75C
:1001B000FEE7FEE7FEE7FEE73937000889010008A1
:1001C0002DE9F05F0546002092469B46884606468C
:1001D000814640241BE0284641464746224600F01F
:1001E000C8FC53465A46C01A914110D311461846CE
:1001F000224600F0AFFC2D1A67EB01084F4622465D
:100200000120002100F0A6FC17EB00094E41201E42
:10021000A4F10104DFDC484631462A464346BDE8E6
:10022000F09FA0F14101192900D82030704700004B
:10023000014610B509683C22B1FBF2F302FB13132F
:10024000B1FBF2F11D480360B1FBF2F302FB1313A3
:10025000B1FBF2F118224360B1FBF2F302FB13137E
:10026000B1FBF2F183600A1D0723B2FBF3F403FB39
:10027000142282618A0040F2B55102F66C32B2FB60
:10028000F1F344334361B2FBF1F301FB132189081D
:10029000C1613B2903D3027D920700D0491C002293
:1002A000074C13460261E25C8A4203D8891A5B1C40
:1002B0000361F8E7491CC16010BD0000C0000020C8
:1002C000645C030840EA01039B0703D009E008C906
:1002D000121F08C0042AFAD203E011F8013B00F80B
:1002E000013B521EF9D27047D2B201E000F8012B57
:1002F000491EFBD270470022F6E710B513460A46A6
:1003000004461946FFF7F0FF204610BD421C10F8C6
:10031000011B0029FBD1801A704710B5002200E0B4
:10032000521C835C8C5CA34201D1002BF8D1D8B263
:10033000E1B2401A10BD034611F8012B00F8012B61
:10034000002AF9D11846704730B50546002003460B
:1003500000E05B1C934205D2EC5CC85C201A01D122
:10036000002CF6D130BD00000FB400B58DB010A93F
:1003700009900B9000914FF0FF300A9000200C90F4
:1003800005480690054807906A4609A80F9900F0AD
:1003900027FC0DB05DF814FBFD0B00081B0C0008DA
:1003A0002DE9FF5F1D464FF0FF3BD5E90146914621
:1003B0005F464FF00008A9697F1C01988847296AA9
:1003C000824688470028F6D1BAF1FF3F0CD024F4CA
:1003D000C064002E19DD600614D5BAF12B0F09D0C8
:1003E000BAF12D0F0ED103E0584604B0BDE8F09FDE
:1003F00044F48064A9697F1C01988847761E824670
:10040000002E02DDBAF1300F03D0B9F1000F26D073
:1004100032E0A969761E44F400747F1C0198884775
:100420008246002E05DDBAF1780F06D0BAF1580FDA
:1004300003D0B9F1000F10D01EE0B9F1000F02D0C7
:10044000B9F1100F18D1A969761E24F400747F1C2D
:10045000019888478246102002E0082000E00A2028
:10046000814609E008FB0908A969761E44F4007476
:100470007F1C019888478246002E05DD494650467C
:1004800000F099FB0028EDDAE96901988847A0059A
:1004900002D46FF00100A8E7E00725D1600613D56C
:1004A000600502D5C8F1000000E0404629680A1D39
:1004B0002A600968220501D5087015E0220701D5D8
:1004C000088011E008600FE02868011D29600068BD
:1004D000210502D580F8008006E0210702D5A0F8AA
:1004E000008001E0C0F8008038467EE72DE9FF4F2C
:1004F000087883B09946FF2805D0491C2D2804D0E0
:100500000024002008E000200BE00124F9E700EBC4
:10051000800003EB4000491C0B78FF2BF7D104B19E
:10052000404200230293147819461D462D2C01D019
:100530002B2C04D1521C2D2C13D000240294AA463B
:100540001478FF2C0FD00A25A3FB057801FB058149
:100550004FF0000C03FB0C11521CE3194AEB010194
:10056000EEE70124EAE7814453EA010002D019F5DD
:10057000C87F06DA03980021C0E9001107B0BDE882
:10058000F08F0025AE4E2F46DFF8B882184600F0F7
:1005900075FCCDE90001B9F1000002DAC9F10004EF
:1005A00000E004460023A74A1AEB030B42EB045A6F
:1005B00012E0E00707D02A4633463846414600F0AD
:1005C000ECF9074688462A4633461046194600F09D
:1005D000E4F905460E466410002CEAD1DDE900017D
:1005E000B9F1000F5A46534606DA00F0D8FB3A46F6
:1005F000434600F0D4FB05E000F0CFF93A4643460D
:1006000000F0CBF9029A0AB181F00041039AC2E9E5
:100610000001B3E72DE9FF4F1F468DB0D7E9014632
:100620004FF0FF382E2045464FF000090B90B96976
:100630006D1C0E988847396A824688470028F6D193
:10064000BAF1FF3F0AD024F4D064002E11DDBAF1D4
:100650002B0F08D0BAF12D0F0BD102E0404611B09C
:100660008DE744F48064B9696D1C0E988847824612
:10067000761E6946600501D52D2000E02B208DF8FF
:10068000000001F1010B0DF1200809E0B9696D1CB2
:100690000E98884782460F9844F40074761E0560D1
:1006A000002E02DDBAF1300FF0D00B998A453ED111
:1006B00044F0800406E00F99681CA9F1010944F494
:1006C00000740860B9696D1C761E0E9888478246D2
:1006D0003028F0D02BE00B998A4505D1200603D4B1
:1006E00044F08004761E18E0504634F0A7FE08B3AC
:1006F0000DF11302761EAAF1300044F40074934504
:1007000006D20BF8010B200607D5A9F1010003E082
:10071000200602D409F101008146A00502D50F99F7
:10072000681C0860B9696D1C0E9888478246002EC7
:10073000D1DC53E0002E51DDBAF1650F02D0BAF1E1
:10074000450F4BD1A00549D5B9696D1C24F44074FF
:10075000761E0E9888478246002E0CDD2B2804D08A
:10076000BAF12D0F07D144F48074B9696D1C0E984D
:1007700088478246761EE00501D52D2100E02B2119
:1007800008F8011BCDF82C8021E00DF12901761E1F
:1007900044F4007488450CD2AAF1300010F0FF0038
:1007A00088F8000002D10B99884509D908F10108A1
:1007B00006E0E00501D5244801E042F20F708146D1
:1007C000B9696D1C0E98884782460F980560002E07
:1007D00004DD504634F032FE0028D6D1F9690E9877
:1007E0008847FF208BF8000088F800000020069062
:1007F00007904B466A4608A906A8FFF777FEA005B2
:1008000002D46FF001002AE714F0240F0AD0E007A9
:1008100014D1DDE906123868031D3B600068C0E9A9
:1008200000120BE0DDE9060100F064FB0146E00781
:1008300004D13868021D3A600068016028460EE75E
:10084000000014400000F03FF1D8FFFF2DE9FE4FFB
:10085000804681EA0300C00F0C46009021F0004161
:1008600023F00045B8EB0200A94105D240462146DD
:1008700090461C460B46024623F00040104347D0EA
:10088000270DC7F30A00C3F30A510290401A0190E2
:1008900040286BDAC3F3130040F4801B00989246A3
:1008A00020B10023D2EB030A63EB0B0B01985946EE
:1008B000C0F14002504600F04DF906460D46504644
:1008C0005946019A00F065F910EB080061410024D7
:1008D00087EA115284EAE7731A4340D0009A62B360
:1008E000019A012A4FEA075215DC001B61EB020155
:1008F0004FF0004202EA0752CDE90042001C41F5E8
:10090000801132462B4600F0FCF903B0BDE8F08FB1
:1009100040462146F9E7001B61EB0201001C41F54E
:10092000801300185B412018A2F5001747EB030164
:1009300040EAD570B6196D4111E06D084FEA3606F0
:1009400045EAC0754FEA0752001B61EB0201001C2B
:1009500041F5801149084FEA3000001951413246F3
:100960002B4603B0BDE8F04F00F0BCB9009801225F
:1009700040000023D0EB020263EBE07300982146B5
:100980004FEAE074B8EB000061EB0401E9E783F0A3
:1009900000435BE781F0004158E72DE9FE4F81EA13
:1009A000030404F0004421F0004100944FF0000BD8
:1009B00023F0004350EA01045ED052EA03045BD006
:1009C000C3F30A54C1F30A552C44A4F2F33401943E
:1009D000A0FB0254C1F3130141F48011C3F31303CC
:1009E00043F4801301FB024400FB034E840A970A80
:1009F00044EA815447EA8357A4FB076802958D0AAD
:100A000005FB07854FEA932C04FB0C542705029D38
:100A10004FEA065847EA1637B5EB08056EEB070CA8
:100A2000870E920E47EA811742EA8312A7FB020162
:100A3000B6EB0B0164EB00042B0D43EA0C335E189C
:100A400044EB1C50DA465146E7FB0201C5F31304A0
:100A50004FEA0B3343EA14534FEA0432019C43EA52
:100A60000603A4F10C040294009CCDE900B400F04C
:100A700048F903B0BDE8F08F00200146F9E730B532
:100A8000041E71F1000404DB4FF00044404264EBAB
:100A90000101141E73F1000405DB1C464FF00043F6
:100AA000524263EB0403801A994101D3012030BD07
:100AB000002030BD30B5041E71F1000404DB4FF09E
:100AC0000044404264EB0101141E73F1000405DB95
:100AD0001C464FF00043524263EB0403101A8B4153
:100AE00001D3012030BD002030BD70B5C1F30A52E2
:100AF00001F000450024C1F3130140F2FF3341F43B
:100B000080119A4201DA002070BD40F233439A42CC
:100B1000A2F2334203DC524200F02BF800E0904096
:100B20002C43F1D0404270BD30B50B460146002049
:100B30002022012409E021FA02F59D4205D303FA9F
:100B400002F5491B04FA02F52844151EA2F1010220
:100B5000F1DC30BD202A04DB203A00FA02F100204B
:100B600070479140C2F1200320FA03F319439040EB
:100B70007047202A04DB203A21FA02F00021704756
:100B800021FA02F3D040C2F12002914008431946F5
:100B90007047202A06DBCB17203A41FA02F043EADD
:100BA000E07306E041FA02F3D040C2F12002914026
:100BB0000843194670473A2800D2303820F0200206
:100BC000412A01D3A2F13700884201D34FF0FF3010
:100BD000704700000268114413780160184670479E
:100BE000D16004495161044911620021116111462B
:100BF00000F0B4B9D50B0008510F0008426842B1AB
:100C0000016811F8013B23B1521EC0E900121846D9
:100C100070470121C160881E704742685AB1C3689D
:100C2000016843B983688B4205D0491E521CC0E954
:100C30000012002070474FF0FF3070470FB40B00D8
:100C400010B58AB00FA900910E994FF00004234A05
:100C5000CC60214CCDE9064200D004236FF0004265
:100C6000CDE901321E4A089202466B460020FFF78A
:100C7000D1FC0AB010BC5DF814FBF0B585B0074696
:100C80004FF0FF300091CDE901011E4600201546CE
:100C90000C4604903B466A46314604A8FFF7CEFF57
:100CA00004990346601825B109B1024600E02246C6
:100CB0002A6000290ED0002B02DD0099814209D064
:100CC0000094001BCDE901043B466A46314604A866
:100CD000FFF7B4FF05B0F0BDFD0B00081B0C0008CA
:100CE000510F000810B5141E73F1000408DA401CFF
:100CF00041F1000192185B411A4301D120F001003B
:100D000010BD2DE9F04D92469B4611B1B1FA81F22A
:100D100002E0B0FA80F220329046FFF71BFF044653
:100D20000F4640EA0A0041EA0B0153465A4608437F
:100D300013D0114653EA010019D0C8F140025046C1
:100D4000FFF717FF05460E46504659464246FFF745
:100D500001FF084305D0012004E020463946BDE8E4
:100D6000F08D0020054346EAE0762C4337430A988D
:100D70006305E40AA0EB08000022FD0A44EA475498
:100D80000A3002D500200146E9E701051019694142
:100D9000DDE9084500196941BDE8F04DA2E72DE9FC
:100DA000F04D81EA030404F0004B21F000451446A5
:100DB0004FF0000A23F0004150EA050220D054EA27
:100DC00001021DD0C5F30A570246C5F31303C1F350
:100DD0001300C1F30A5640F4801543F48013A7EBC7
:100DE0000608101BD64608F2FD3873EB050002D347
:100DF00008F1010801E092185B41B8F1000F03DA35
:100E000000200146BDE8F08D00204FF48011064619
:100E100084460EE0171B73EB050705D3121B63EB2B
:100E2000050306434CEA010C49084FEA30009218CA
:100E30005B4150EA0107EDD152EA030012D082EA89
:100E4000040083EA0501084305D0101BAB4106D21C
:100E50000122002306E000224FF0004302E06FF081
:100E6000010253101AEB06004CEB085110EB0A007C
:100E700041EB0B01BDE8F04DFFF734BF0EB540F27A
:100E8000334202920022CDE900221346FFF739FFD8
:100E900003B000BDC1F30A52C1F3130140F2FF33A6
:100EA00041F480119A4202DA00200146704740F274
:100EB00033439A42A2F2334202DC5242FFF759BE58
:100EC000FFF748BE30B5041E71F1000404DB4FF09B
:100ED0000044404264EB0101141E73F1000405DB81
:100EE0001C464FF00043524263EB0403994208BF93
:100EF000904230BD01F0004330B421F0004150EA8F
:100F0000010206D00A0DA2F56072C1F31301002A96
:100F100002DC30BC00207047440F44EAC104C10029
:100F2000E01830BC00EBC25000F0AEB9064C074DE3
:100F300006E0E06840F0010394E8070098471034A9
:100F4000AC42F6D3FFF724F994A30308B4A3030833
:100F5000C0B24FF4F05100F0CFB900002DE9F34FCB
:100F60008BB04FF0000801F10C000C464FF0010B64
:100F700046460DF1080A01906269012101989047E7
:100F8000051E2DD0252D2CD0216A8847C0B162695D
:100F9000012101989047216A88470028F7D1411E16
:100FA00062690198904700E0761CA1690B98884718
:100FB000216A88470028F7D1E1690B988847DBE769
:100FC000A1690B9888470746A84201D1761CD3E750
:100FD000E1690B9888477F1C02D1B8F1000F6FD0F0
:100FE00046E1002762693D463946019890472A2824
:100FF00004D162690121019890470125DFF88492AC
:101000006269012101989047A0F130010A290AD2B2
:101010004F45E5DC07EB870100EB4107303FDFD4AC
:1010200045F01005ECE7E90601D46FF000476C28A5
:101030000AD04C2814D0682815D06A280DD07428FE
:101040001CD07A281AD01DE06269012101989047CE
:101050006C2802D045F0040514E045F002050DE0CF
:1010600045F020050AE0626901210198904768284F
:1010700002D045F0080505E045F4006562690121EC
:1010800001989047C4E9015765283DD019DC5828DC
:101090007AD00CDC452837D004DC252826D041281E
:1010A00031D131E046282FD047282CD12CE05B28C5
:1010B00077D0612828D063287CD0642823D15AE0D7
:1010C000D0E06F2848D008DC66281DD067281BD0E8
:1010D000692821D06E2816D127E0702845D07328C2
:1010E00068D0752847D078280DD14DE0A1690B98BC
:1010F0008847054625283FF469AFE1690B98884782
:101100006D1C3FF46AAFB3E023466A466FF00100FE
:101110000B99FFF77FFA9EE045F040006060A8075A
:1011200023464FF0000236D43EE0E8077FF447AF95
:101130002068011D21600068290501D506701BE7A4
:10114000290701D5068017E7A90703D5F117C0E9DC
:10115000006111E706600FE745F040006060A807F6
:1011600023464FF0080216D41EE040F60E0125EA91
:101170000100606016E045F040006060A80723466B
:101180004FF00A0207D40FE045F040006060A80766
:1011900008D5234610226FF001000B99AFF30080B1
:1011A00059E007E0234610226FF001000B99FFF78A
:1011B000F7F850E04FF000094F464B46632802D045
:1011C0005B2806D040E0E80601D40120A06001279A
:1011D0003AE062690121019890475E2805D14FF0FD
:1011E00001096269494601989047216939B900218E
:1011F0000A46534643F82120491C0829FADBB0B3BC
:10120000216969B9C11700EBD16253110AEB83015F
:1012100022F01F02821A01200B68904003430B60EA
:1012200062690121019890475D28E8D1B9F1000F6A
:1012300009D00020514651F82020D24341F8202007
:10124000401C0828F7DB02AB224600976FF0010034
:101250000B99AFF3008000280CDA401C08D1BBF1D9
:10126000000F05D04FF0FF300DB0BDE8F08FFFE765
:101270004046F9E7E90701D108F1010806444FF0BB
:10128000000B79E6CCCCCC0C0029A8BF7047401CE1
:10129000490008BF20F00100704710B4B0FA80FC8C
:1012A00000FA0CF050EA010404BF10BC704749B1C9
:1012B000CCF1200421FA04F411FA0CF118BF012139
:1012C00021430843A3EB0C01CB1D4FEA00614FEA19
:1012D000102042BF002010BC704700EBC3501044E8
:1012E0000029A4BF10BC7047401C490008BF20F073
:1012F000010010BC704700007F2801D9002208E0DF
:10130000064A02EB5002C007127800D1120902F01F
:101310000F0201209040084070470000705C0308F5
:101320002DE9F04184B041F60004C4F20204002724
:1013300020464FF4004100228DF80A70ADF8087085
:1013400000F042FA40F24045C2F2000540F21001BE
:101350004FF00A08C2F2000102AA28460323CDF882
:10136000008001F053F920464FF40041012200F0C3
:101370002BFABDF809004FF4004100BA060D2046D3
:1013800000228DF80E70ADF80C7000F01DFA40F2DE
:101390001301C2F2000103AA28460323CDF80080FE
:1013A00001F034F920464FF40041012200F00CFA1C
:1013B00000EE106A9FED1A1AB8EE400ABDF80D0053
:1013C00020EE010A9FED171A00BA30EE010A000D57
:1013D000BDEEC00A10EE101A00EE100A9FED121AB0
:1013E000B8EE400A20EE010A9FED101A40F21415E3
:1013F00030EE010AC2F20005BDEEC00AE88010EE30
:10140000100A2980688020468021AE8000F0D6F93D
:10141000B0FA80F041090120297204B0BDE8F081E2
:10142000574D8B3E000038C2624F283E000010C26C
:10143000EFF3108072B600BFFEE70000B0B5B3F561
:10144000804F034616D153F822C00020CCF6F0702E
:101450000CEA000E91E83100D1F818C040EA0E0005
:1014600040EA0410C96840EA052040EA0C0040EA5E
:10147000014101E06FF07041002043F82210B0BD3F
:101480002DE9F04F83B00B68024650F8230001F1BC
:10149000240B20F0010042F82300D1E902C0D1E979
:1014A00000E301908869D1E9049A0290C86BD1E900
:1014B000077600909BE83008D1F8308052F82E0073
:1014C0008021CFF6F0710840BCF1080F08BF43F04F
:1014D00040030199194341EA090141EA0A013943EC
:1014E00031432143294341EA0B01029B41EA0801B0
:1014F0001943009B1943084340EA0C01002042F8BD
:101500002E1003B0BDE8F08FF0B500EB82025068FA
:10151000D1E902E400F0404CD1E90030D1E90456B1
:1015200043EA0C03002743EA0010CFF6F07740EAC5
:101530000E20896907EB055540EA04402843FE3632
:10154000084340EA066100205160F0BD70B5866D29
:10155000044600F03FF994F83510022925D10546DC
:101560002068216C026822F016020260426922F0B3
:101570008002426109B9A16C19B1016821F008012A
:101580000160016821F00101016000BF206800686E
:10159000C0070ED000F01EF9401B0628F6D320200D
:1015A0006065032084F835000CE080206065012030
:1015B00008E0E06D3F2101FA00F0B060012084F8FE
:1015C00035000020002184F8341070BD90F83510EB
:1015D000022909D1052180F835100068016821F041
:1015E00001010160002070478021416501207047A2
:1015F000B0B5044600F0EEF8054640F2B500C2F280
:1016000000000078611C18BF044400BF00F0E2F83D
:10161000401BA042FAD3B0BD2DE9F04F82B000F1DB
:101620003E4241F6004502F1FF77C4F2020508226E
:1016300043F6004E4FEAB726A84208BF0722C4F27D
:10164000010E072E38BF4FEAB722012500260027DA
:101650004FF00008009208E008F101080437B8F1E3
:10166000100F06F1020600F0A6800C6805FA08F9D2
:1016700014EA090FF0D0D1F804B003220BF0030CE8
:10168000ACF10104B240012C6FEA020A10D8826862
:10169000CC6802EA0A02B440224382604268CBF37B
:1016A000001422EA090204FA08F42243426005E029
:1016B000BCF1030F02D14FF0030C20E0C2688C682C
:1016C00002EA0A02B4402243BCF1020FC26016D102
:1016D0006FF0030202EA58020244D2F820C007F079
:1016E0001C050F230C69AB402CEA030304FA05F533
:1016F0002B431362D1F804B001250BF0030C0268F0
:101700000CFA06F302EA0A021A431BF4403F026095
:10171000A2D0002243F644030192C4F202031A68E5
:101720004FF6084C42F480421A601A68CFF6FF7CEC
:1017300002F480420192019A28F00302724452F8A6
:101740000C3007F00C050F24AC40A343009C04FAB6
:1017500005F52B4342F80C30DEF808204B6842EACE
:10176000090543F60C4CDC0258BF22EA0905CEF805
:101770000850C4F2010CDCF800209C0242EA090582
:1017800058BF22EA0905CCF80050DEF804209C037B
:1017900042EA090558BF22EA0905CEF80450DEF8EE
:1017A0000020DB0342EA090558BF22EA0905CEF80A
:1017B0000050012550E702B0BDE8F08F00690840F5
:1017C00018BF012070470000002A08BF090481618A
:1017D000704700004FF6D000C2F20000006870476A
:1017E00040F2B5004FF6D001C2F20000C2F2000193
:1017F00000780A68104408607047000080B543F61E
:101800000040C4F20200016841F400710160016807
:1018100041F480610160016841F48071016003203E
:1018200000F08CF8002000F005F800F02BF8002004
:1018300080BD0000B0B540F2B502C2F2000240F235
:1018400018011278C2F200014FF47A730968B3FBF1
:10185000F2F20446B1FBF2F1084601F083F80F2CD6
:101860004FF001050CD858B94FF0FF302146002247
:10187000002500F037F840F2B800C2F20000046022
:101880002846B0BD82B0002043F640010190C4F26A
:1018900002014A6842F480424A604A6802F4804287
:1018A0000192019A0090086840F080500860086832
:1018B00000F080500090009802B07047002848BFA8
:1018C0007047C1B200F01F00012202FA00F04EF290
:1018D0000012CEF2000242EAD10121F003010860B9
:1018E0007047000010B54EF60C5CCEF2000CDCF830
:1018F0000030C3F3022E8EF00704042C28BF04240A
:10190000BEF103034FF0FF3E0EFA04F438BF00238C
:10191000A14399400EFA03F39A43114300F00F02DA
:1019200000F160430901043A03F56443624400286E
:1019300048BF02F10C03197010BD00004EF60C51A7
:10194000CEF200010A684FF6FF031A4060F30A2244
:1019500042F0806040F0FD7008607047F0B581B0E3
:101960000446006810F0050F2DD06827C4F2472701
:1019700043F670060020C4F202063860FFF72AFF23
:10198000054600BF56F8700C000105D5FFF722FF91
:10199000401B0228F6D93FE0D4E90110000740EAD5
:1019A0008110706101203860FFF714FF054600BF09
:1019B00056F8700C000105D4FFF70CFF401B0228FD
:1019C000F6D929E0206880074FF0000057D543F68C
:1019D0007006C4F20206009056F8300C47F2000779
:1019E00040F0805046F8300C56F8300CC4F2000736
:1019F00000F0805000900098386840F480703860A3
:101A0000FFF7E8FE054600BF3868C00507D4FFF7BA
:101A1000E1FE401B0228F7D9032001B0F0BD306879
:101A200010F4407013D0E16801F4407188420ED088
:101A3000306840F64061C4F24721012220F4407032
:101A40000A6000220A6030603068C00719D1E0687F
:101A500056F8681C4FF6FF4300F4407221F4F81169
:101A6000C0F6FF730340B2F5407F08BF194346F844
:101A7000681C31686FF31F3008433060002001B0EC
:101A8000F0BDFFF7A7FE054641F2883730688007B2
:101A9000DDD4FFF79FFE401BB8424FF00300F5D99D
:101AA000EDE700002DE9F041002800F08B8043F6BF
:101AB0000808C4F202080446D8F8F8030D4600F0FE
:101AC0000700884207D288F8F853D8F8F80300F0E6
:101AD0000700A84276D12068810717D5410705D5B0
:101AE000D8F8001041F4E051C8F80010010705D5FE
:101AF000D8F8001041F46041C8F80010D8F8001080
:101B0000A26821F0F0011143C8F80010C0073FD1CE
:101B1000D8F8F80300F00700A84207D988F8F8536E
:101B2000D8F8F80300F00700A8424BD1206841071D
:101B300007D5D8F80010E26821F4E0511143C8F845
:101B40000010000708D5D8F80000216920F4604093
:101B500040EAC100C8F8000000F07CF8D8F8001096
:101B600045F6C842C1F30311C0F60302515C40F2CE
:101B7000180220FA01F140F2B800C2F20000006839
:101B8000C2F200021160FFF755FE0020BDE8F081AF
:101B90006068811E022907D258F8081C89015CBFC1
:101BA0000120BDE8F08110E0012807D158F8081C99
:101BB00089035CBF0120BDE8F08106E058F8081CED
:101BC000890702D40120BDE8F081D8F8001021F087
:101BD00003010843C8F80000FFF7FCFD064641F288
:101BE000883700BFD8F80000616800F00C00B0EB47
:101BF000810F8DD0FFF7EEFD801BB842F2D9032094
:101C0000BDE8F08140F2180043F60801C2F200007E
:101C1000C4F202010068096845F6D842C1F3822186
:101C2000C0F60302515CC8407047000040F2180043
:101C300043F60801C2F20000C4F20201006809681C
:101C400045F6D842C1F34231C0F60302515CC840A8
:101C50007047000010B543F60404C4F20204606843
:101C600000F00C0008280AD0042819BF42F20040F6
:101C7000C0F2F40047F64000C0F27D1010BD2068AD
:101C800021682368490247F64001C0F27D1100F047
:101C90003F02C3F388105CBF42F20041C0F2F4017E
:101CA000A1FB00010023FEF78BFA21680222C1F399
:101CB000014102EB4101B0FBF1F010BD2DE9F04113
:101CC00082B0002868D00446007843F60006C007BA
:101CD000C4F202060BD0B06800F00C00042840F0FB
:101CE0009C803068800302D56068002854D020783A
:101CF00080071AD5B06810F00C0F09D0B06800F05A
:101D00000C00082840F0A3807068400200F19F801A
:101D10003068800702D5E06801283DD1306821692C
:101D200020F0F80040EAC10030602078000737D486
:101D3000207840074BD4A56955B3B06800F00C007B
:101D4000082840F0B780012D26D07068E16900F4C2
:101D500080028A4220D1216A00F03F028A421BD1D0
:101D600047F6C071626A0140B1EB821F14D1A16ACB
:101D70004FF6FF73C903994300F44032A1F5803157
:101D80008A4209D1E16A00F07060B0EB016F03D1C3
:101D9000002002B0BDE8F081012002B0BDE8F08172
:101DA0006069002840F20000C4F2472072D001218F
:101DB000C0F8801EFFF70EFD054600BF706F80075C
:101DC000B6D4FFF707FD401B0228F7D9D7E0306CE7
:101DD00010F080580AD100200190306C40F0805003
:101DE0003064306C00F080500190019847F2000799
:101DF000C4F200073868C0053ED4386840F48070EB
:101E00003860FFF7E7FC05463868C00534D4FFF7B3
:101E1000E1FC401B0228F7D9B1E0B06800F00C00EB
:101E2000082803D1706840023FF55BAF6068B0F5E9
:101E3000803F07D0B0F5A02F40F08B80306840F491
:101E400080203060306840F4803030608BE0E068A3
:101E5000002851D00020C4F2472001210160FFF783
:101E6000B9FC0546306880073FF558AFFFF7B2FC74
:101E7000401B0228F6D982E0A068012805D0052879
:101E80004ED1306F40F004003067306F40F00100F9
:101E900030674FE00021C0F8801EFFF79BFC05462D
:101EA000706F80077FF544AFFFF794FC401B02285A
:101EB000F6D964E00027C4F2472700203866FFF710
:101EC00089FC022D05460BD1306880015BD5FFF7F8
:101ED00081FC401B02284FF00300F5D959E700BFF1
:101EE000306880017FF554AFFFF774FC401B022877
:101EF0004FF00300F4D94CE70020C4F24720002142
:101F00000160FFF767FC0546306880077FF50DAF7D
:101F1000FFF760FC401B02284FF00300F4D938E7BC
:101F2000316F002821F001013167316F21F0040188
:101F3000316749D0FFF74EFC054641F2883700BFB4
:101F4000306F800751D4FFF745FC401BB842F7D9EA
:101F500015E03168002821F480313160316821F4C6
:101F6000802131604AD0FFF735FC05463068800398
:101F70003FF5BDAEFFF72EFC401B6428F6D90320C9
:101F800002B0BDE8F08104F11C052FCD084340EA02
:101F90008210D9034FF6FF729143A1F5803140EAD8
:101FA00005600843706001203866FFF713FC0446A3
:101FB000306880013FF5ECAEFFF70CFC001B0228F7
:101FC0004FF00300F4D9E4E6FFF704FC054641F2C4
:101FD000883700BF306F800707D5FFF7FBFB401B3A
:101FE000B8424FF00300F5D9D3E6B8F1000F7FF403
:101FF000A2AE306C20F0805030649CE6FFF7EAFB24
:10200000054600BF306880037FF571AEFFF7E2FB45
:10201000401B64284FF00300F4D9BAE610B50068FD
:1020200040684FEA1043C0F3042E00F03F0CC0F3A9
:102030004234CB7081F801E081F802C00C700AB123
:10204000002010BDDCB2240904EB840403F00F036C
:1020500003EB4403020ACB704FEA1E1343EA8303E7
:1020600002F00F0202EB43024A704FEA1C1242EAEE
:10207000820200F00F0000EB42008870002010BDCB
:1020800010B50068836A4B6003696FF3DF338B60C0
:102090000068C0F30543C0F3062E00F07F0CC0F3C8
:1020A00080540B7081F801E081F802C0CC700AB155
:1020B000002010BD020C1B0943EA830302F00F024B
:1020C00002EB4302040A0A704FEA1E1202EB82027C
:1020D00004F00F0303EB42024A704FEA1C1202EBBA
:1020E000820200F00F0000EB42008870002010BD5B
:1020F000002804BF01207047B0B50446407F20B9D6
:1021000000202077204600F067F8022060772168E1
:10211000CA20486253204862C868400614D4C86880
:1021200040F08000C860FFF755FB2168CA6852067E
:102130000AD40546FFF74EFB401BB0F57A7F44D822
:102140002168C8684006F5D588684FF6BF72CFF69B
:102150008F7210408860D4E9010CD4E903356269BC
:1021600028438D681043284388600B61086940EA62
:102170000C400861C86820F08000C860886880064C
:1021800015D4C86820F0A000C860FFF723FB0546FF
:102190002168C86880060AD4FFF71CFB401BB0F515
:1021A0007A7FF5D904206077216801200AE0086C65
:1021B00020F480200864A0690A6C104308640120A0
:1021C00060770020FF224A62B0BD0420607721685A
:1021D000C8680120F6E7000080B584B0006842F6C8
:1021E0000002C4F20002002190420291019101D04C
:1021F00004B080BD022000904FF400700390684648
:10220000FFF7ACFB002818BFFFF712F940F63C605F
:10221000C4F247200121016004B080BD2DE9F041E6
:102220000446007F01284FF0020008BFBDE8F0819E
:1022300001232377607732B14878CA788F7800021B
:1022400040EA024842E04878C20642BF00F0EF0090
:102250000A304870CA780A2A0CD30A3AD3B2CD277A
:102260007B43DB0A03EB8307A2EB4702102707EB54
:10227000031300E000231A43D2B20A284FEA0242B5
:102280000CD30A38C3B2CD277B43DB0A03EB8307A9
:10229000A0EB4700102707EB031300E000230343E4
:1022A0008878DBB20A2842EA03280CD30A38C2B283
:1022B000CD235A43D20A02EB8203A0EB4300102342
:1022C00003EB021200E0002242EA00070E782168C8
:1022D000CA20486253204862C868400614D4C868BF
:1022E00040F08000C860FFF775FA2168CA6852069E
:1022F0000AD40546FFF76EFA401BB0F57A7F31D855
:102300002168C8684006F5D5F8B240EA08007203B3
:1023100020F0C00010434860C86820F08000C8600A
:102320008868800615D4C86820F0A000C860FFF750
:1023300051FA05462168C86880060AD4FFF74AFAB0
:10234000401BB0F57A7FF5D9042060772168012021
:1023500002E0012060770020FF224A6200212177FD
:10236000BDE8F081042060772168C8680120F3E7A8
:10237000F0B581B00446007F01284FF0020000F064
:10238000AF800D460121217760772168886800F0D1
:1023900040001AB1B0B90020E87015E0002804BF71
:1023A0000020E87028780A2818D30A38C2B2CD2352
:1023B0005A43D20A02EB8203A0EB4300102303EB43
:1023C00002120CE0E87880056B782A78AF781B025F
:1023D00043EA02423A4442EA000730E00022104356
:1023E0006A78C0B20A2A4FEA00400CD30A3AD3B244
:1023F000CD277B43DB0A03EB8307A2EB47021027C1
:1024000007EB031300E000231343AA78DBB20A2A88
:1024100040EA03200CD30A3AD3B2CD277B43DB0A30
:1024200003EB8307A2EB4702102707EB031300E03F
:1024300000231A43D2B2EB78104340EA8357CA20F4
:10244000486253204862C868400615D4C86840F006
:102450008000C860FFF7BEF92168CA6852060BD435
:10246000064600BFFFF7B6F9801BB0F57A7F39D872
:102470002168C8684006F5D547F67F70C0F27F0036
:1024800038400860886820F480208860D5E903021D
:102490008B68104318438860C86820F08000C860CB
:1024A0008868800615D4C86820F0A000C860FFF7CF
:1024B00091F905462168C86880060AD4FFF78AF9B1
:1024C000401BB0F57A7FF5D90420607721680120A0
:1024D00002E0012060770020FF224A62002121777C
:1024E00001B0F0BD042060772168C8680120F3E7DF
:1024F00070B538B10446406A30B10020206104F163
:10250000140007E0012070BD6068B0F5827F03D041
:1025100004F11C00002101600026A66294F851001D
:1025200020B9204684F8506000F03CF8022084F87E
:10253000510094E80F0001F48271056802F404422E
:1025400025F040050560114403F40062236911443D
:1025500003F002026369114403F00102A369E56913
:10256000114403F40072114405F03802256A114445
:1025700005F08002A56A114305F400521143016081
:10258000626A042101EA134102F010021144416021
:10259000C16921F40061C1610120666584F85100C0
:1025A000304670BD80B586B0016843F60000C4F2C5
:1025B0000000814201D006B080BD002143F6300208
:1025C0000191C4F20202136900F5F43043F4804330
:1025D0001361136903F480430193019B0191116816
:1025E00041F480711160116801F4807101910199C9
:1025F0000E2101910221CDE90211049105210591DD
:1026000001A9FFF709F806B080BD00002DE9F043ED
:1026100083B0044690F85000012803D1022003B093
:10262000BDE8F08301201E4615460F4684F8500091
:10263000FFF7D0F894F85110814601290AD060685C
:10264000B0F5827F70D1A06800284FF0020008BF6B
:1026500004296AD1002F4FF0010018BF002D64D06B
:10266000002E62D094F85100002104281CBF0520E0
:1026700084F851006165A563E687A6872763E6862F
:102680002068A686216461640168490603D4016854
:1026900041F0400101606168731EE268B1FA81F1A6
:1026A000B3FA83F3DDF8288049095B09B2F5006FBE
:1026B00041EA030142D131B137F8021BC1602763FF
:1026C000E08E0138E086012608F10105E08E10B9A0
:1026D000E08F00286ED02068816889070CD5E18ED4
:1026E00051B1012E08D1216B002631F8022BC260B6
:1026F0002163E18E0139E1868168C9070AD0E18F43
:1027000041B1C068A16B012621F8020BA163E08FE3
:102710000138E087FFF75EF8002DD7D0A0EB090065
:102720004045D3D3032000E00220012184F851105A
:10273000002184F8501003B0BDE8F08339B1397836
:102740000173206B01302063E08E0138E0860126A2
:1027500008F10105E08E08B9E08F58B32068816860
:1027600089070ED5E18E61B1012E0AD1216B0026B9
:1027700009780173216B206801312163E18E0139F1
:10278000E1868168C9070BD0E18F49B1C068A16BB0
:1027900001260870A06B0130A063E08F0138E0874C
:1027A000FFF718F8002DD5D0A0EB09004045D1D394
:1027B0000320BAE740F21800C2F20000006849F6B0
:1027C0008171C1F25E61A0FB0101480D4FF47A7185
:1027D000484302906068B0F5827F0ED12046802188
:1027E00042464B4600F0E4FE58B3606D40F02000D6
:1027F000606520206065012097E7029808B3029881
:10280000013802902068806800061AD50298C0B18D
:1028100002980138029020688068000611D502985D
:1028200078B102980138029020688068000608D5C7
:10283000029830B102980138029020688068000642
:10284000DBD4A06800284FF000007FF46EAF019049
:102850002168CA68019289680191019965E70000C1
:10286000002804BF0120704770B5044690F8490065
:1028700015460E4628B9002084F84800204600F08E
:102880001DF8206804F10801FEF7FAFD2068A2682F
:102890003146FEF739FED4E90102236B2946FEF7E3
:1028A000CDFD2068A16850F8212042F0010240F8D7
:1028B0002120012084F84900002070BD2DE9F0435B
:1028C00085B040F2F000C2F200000178002945D145
:1028D000012101704FF0000943F63800CDF8009057
:1028E000C4F20200026840F6004442F001020260B5
:1028F0000068C4F2020400F00100009000986D46E8
:1029000000914FF0020803270C2604F500602946C9
:10291000CDE9018903970496FEF77EFE4FF680709D
:102920008DE8010304F580602946CDE90376FEF7C2
:1029300073FE4CF233708DE8010320462946CDE941
:102940000376FEF769FE4FF480508DE8010304F52D
:1029500040602946CDE90376FEF75EFE05B0BDE88E
:10296000F0830000411E0020B0EB116F1CBF01205E
:1029700070474EF21002CEF2000251604EF6235123
:10298000CEF20001F0230B700721906011607047B8
:102990007047000070470000B0B582B00446006880
:1029A0000168C368426901F02F05202D03F020055E
:1029B00006D12DB1204602B0BDE8B04000F0CCBE3B
:1029C0005FEA017C1EBF02F0010E03F4907212EB6D
:1029D0000E0253D1226B012A05D111F0100218BF4B
:1029E00013F0100236D10A0622D513F080021FD050
:1029F00094F83D1021293FD1A168B1F5805F03D142
:102A00002169002900F06E82216A4A1C226209783D
:102A10004160E18C01390A04E1842DD1C16821F0C3
:102A20008001C160C16841F04001C16002B0B0BD29
:102A3000490621D513F040011ED0C16821F04001A4
:102A4000C1602021204684F83D1002B0BDE8B040AE
:102A500000F052BC0021019101680191416801918F
:102A600001994069400613D4A08DE18DE28D002AC2
:102A700018BF884240F0BA8102B0B0BDCA0718BF83
:102A800013F4807240F0B9804A0700F1BC80C1E0C5
:102A9000A16B0868426893B2002BEDD0A08D8342F1
:102AA000EAD2E285C969B1F5807F00F09D80206897
:102AB00050E8030F216820F4807041E80302DAB186
:102AC000206850E8030F216820F4807041E8030279
:102AD00092B1206850E8030F216820F4807041E82B
:102AE00003024AB1206850E8030F216820F4807087
:102AF00041E80302002ADAD1206850E8050F216876
:102B000020F0010041E80502DAB1206850E8050F25
:102B1000216820F0010041E8050292B1206850E8E8
:102B2000050F216820F0010041E805024AB1206844
:102B300050E8050F216820F0010041E80502002A55
:102B4000DAD1206850E8050F216820F0400041E804
:102B50000502DAB1206850E8050F216820F0400036
:102B600041E8050292B1206850E8050F216820F085
:102B7000400041E805024AB1206850E8050F21688D
:102B800020F0400041E80502002ADAD1202084F834
:102B90003E0000202063206850E8030F216820F0E9
:102BA000100041E80302DAB1206850E8030F216801
:102BB00020F0100041E8030292B1206850E8030FB2
:102BC000216820F0100041E803024AB1206850E873
:102BD000030F216820F0100041E80302002ADAD137
:102BE000A06BFEF7B3FCA08DE18D401A81B22046A8
:102BF00002B0BDE8B040FFF7CBBE226C42F001024C
:102C000022644A0706D5BEF1000F03D0226C42F0C1
:102C1000020222648A0706D5BEF1000F03D0226C9F
:102C200042F004022264BCF1000F09D545EA0E020D
:102C3000B2FA82F2520903D1226C42F008022264F5
:102C4000226C002A3FF418AF11F0200118BF002DAC
:102C500003D0204600F080FD20684069216C00F020
:102C6000400001F00801401800F0B380206850E8EF
:102C7000030F216820F4907041E80302BAB3206882
:102C800050E8030F216820F4907041E8030272B30A
:102C9000206850E8030F216820F4907041E8030297
:102CA0002AB3206850E8030F216820F4907041E8AF
:102CB0000302002ADAD11AE0206850E8050F2168E3
:102CC00020F0010041E80502DAB1206850E8050F64
:102CD000216820F0010041E8050292B1206850E827
:102CE000050F216820F0010041E805024AB1206883
:102CF00050E8050F216820F0010041E80502002A94
:102D0000DAD1206B012824D1206850E8030F216814
:102D100020F0100041E80302DAB1206850E8030F08
:102D2000216820F0100041E8030292B1206850E8C9
:102D3000030F216820F0100041E803024AB1206827
:102D400050E8030F216820F0100041E80302002A38
:102D5000DAD1202084F83E000020206320684069FA
:102D600040063DD5206850E8050F216820F040005E
:102D700041E80502DAB1206850E8050F216820F02B
:102D8000400041E8050292B1206850E8050F216833
:102D900020F0400041E805024AB1206850E8050FE4
:102DA000216820F0400041E80502002ADAD1A06B3A
:102DB000B0B143F24D71C0F600010165FEF706FCAB
:102DC00000283FF459AEA06B016D02B0BDE8B040E1
:102DD00008472046FFF7DEFD0020206402B0B0BDAA
:102DE000204602B0BDE8B040FFF7D4BD401A2168CC
:102DF00051E8031F226821F4907142E80313DBB10C
:102E0000216851E8031F226821F4907142E80313FE
:102E100093B1216851E8031F226821F4907142E8C0
:102E200003134BB1216851E8031F226821F490710C
:102E300042E80313002BDAD1216851E8051F22680C
:102E400021F0010142E80513DBB1216851E8051FBB
:102E5000226821F0010142E8051393B1216851E88D
:102E6000051F226821F0010142E805134BB12168DA
:102E700051E8051F226821F0010142E80513002BEB
:102E8000DAD1202184F83E1000212163216851E825
:102E9000031F226821F0100142E80313002B3FF4C6
:102EA000A5AE216851E8031F226821F0100142E815
:102EB0000313002B3FF49AAE216851E8031F2268E8
:102EC00021F0100142E80313002B3FF48FAE21687C
:102ED00051E8031F226821F0100142E80313002B80
:102EE000D4D183E6216A31F8022B6FF35F2242606E
:102EF00021628EE5002804BF0120704710B504460A
:102F000090F83D0028B9002084F83C00204600F0ED
:102F100021F8242084F83D002068C16821F4005184
:102F2000C160204600F096FC2068016921F49041C0
:102F30000161416921F02A014161C16841F40051F8
:102F4000C16000202021206484F83D1084F83E10E8
:102F500010BD000080B586B0016841F20000C4F2E7
:102F60000100814201D006B080BD002143F630024D
:102F70000191C4F20202536900F5704043F010035E
:102F80005361536903F010030193019B019113688E
:102F900043F001031360126802F001020192019AEA
:102FA0004FF4C06201920222CDE902210321049173
:102FB0000721059101A9FEF72FFB25200021002202
:102FC000FEF790FC2520FEF779FC06B080BD0000DE
:102FD00090F83E30202B0BD100294FF0010318BF91
:102FE000002A01D11846704790F83C30012B01D1DE
:102FF0000220704700230363816222218285C285FB
:10300000036480F83E100269016880F83C301AB110
:10301000C86840F48070C8604869002340F001002F
:103020004861C86840F02000C8601846704700003A
:10303000006841F20001C4F20101884218BF7047E4
:103040004FF6400CC2F2000CBCF800000122431CF9
:103050004EF640406FF39F23C2F20000C11840F2C9
:10306000E840C2F20000ACF80030FFF7B1BF00004A
:103070002DE9F04381B0044690F83D0020280DD1A1
:103080000D4600294FF0010000F032811646002A5B
:1030900000F02E8194F83C00012803D1022001B0F9
:1030A000BDE8F083012084F83C000020206421204A
:1030B000984684F83D00FEF78DFBA684E684A1685F
:1030C0008146B1F5805F01D1206910B12F460025FE
:1030D00000E00027002084F83C00E08C002800F08D
:1030E0008380206808F101060AE000BF87B117F865
:1030F000011B4160E18C0139E184E18C002974D02D
:1031000001680906F2D44EB1B8F1000F17D11FE0E3
:1031100035F8021B00276FF35F21EAE70168090613
:10312000E4D466B901680906E0D446B90168090625
:10313000DCD426B901680906D8D4002EEED0FEF7FB
:1031400049FBA0EB0900404502D82068E6E700BF34
:10315000206850E8030F216820F4D07041E8030292
:10316000E2B1206850E8030F216820F4D07041E8F4
:1031700003029AB1206850E8030F216820F4D07050
:1031800041E8030252B1206850E8030F216820F49F
:10319000D07041E80302002ADAD100BF206850E86D
:1031A000050F216820F0010041E805023AB32068CC
:1031B00050E8050F216820F0010041E80502F2B156
:1031C000206850E8050F216820F0010041E8050261
:1031D000AAB1206850E8050F216820F0010041E8FD
:1031E0000502002ADAD10AE02068016849067BD48A
:1031F00018F101055ED0B8F1000F0CD06BE0202073
:1032000084F83D0084F83E00002084F83C00032050
:1032100001B0BDE8F083206850E8030F216820F476
:10322000D07041E80302D2B3206850E8030F216850
:1032300020F4D07041E803028AB3206850E8030FFD
:10324000216820F4D07041E8030242B3206850E8BE
:10325000030F216820F4D07041E80302002ADAD17C
:103260001DE0206850E8050F216820F0010041E8CA
:103270000502002AC3D0206850E8050F216820F01D
:10328000010041E80502002AB9D0206850E8050F86
:10329000216820F0010041E80502002AAFD0206833
:1032A00050E8050F216820F0010041E80502002ADE
:1032B000D7D1A4E70168490616D465B90168490663
:1032C00012D445B9016849060ED425B901684906EA
:1032D0000AD4002DEED0FEF77DFAA0EB09004045A0
:1032E0003FF699AF2068E5E7202084F83D000020F4
:1032F00001B0BDE8F08300007047000010B54FF04A
:10330000D84C4FF02A0E0224ACF800E04FEA102E01
:10331000C6F60044C0B2A4F800E02080100A208065
:10332000D0B220802B20ACF80000080A2080C8B260
:103330002080180A2080D8B2208010BD80B588B0C7
:1033400040F29840C2F200004FF0204240F20413D5
:10335000CAF200034FF0060C002180E80C104FF475
:103360008052C0E90A21022201920F220292042215
:103370004FF0100ECDE903211122C0E90311C0E97D
:1033800005E1C1614164C0E90811C0E90C11816324
:10339000CDE9062101A90022CDF814E0FFF760FA7B
:1033A000002818BFFEF744F808B080BDF0B587B01C
:1033B000002643F63000CDE905660196C4F202000E
:1033C000016841F6000441F0040101600168C4F2A3
:1033D000020401F0040101910199019601680022A3
:1033E00041F02001016001684FF4004701F0200125
:1033F000019101990196016841F080010160016825
:1034000001F08001019101990196016841F01001DC
:103410000160016801F010010191019901960168B4
:1034200041F008010160016801F008010191019972
:103430000196016841F040010160016801F040011E
:10344000019101990196016841F001010160016853
:1034500001F00101019101990196016841F4807127
:10346000016000684FF4004100F480700190019801
:103470002046FEF7A9F9802002ADCDE902062046DC
:1034800029460496FEF7C8F80120CDE90306204638
:10349000294602970596FEF7BFF807B0F0BD000079
:1034A00010B586B040F2204042F600010024C2F27E
:1034B0000000C4F200017F22C0E9001400F10801FD
:1034C000CDE90244CDE90044FF231CC1C0E9054415
:1034D000FEF70EFE002818BFFDF7AAFF40F22040BD
:1034E000C2F2000001A90022ADF804408DF80640A8
:1034F000CDE90444FEF73CFF002818BFFDF798FF14
:1035000041F20120C1F20470009040F22040C2F26A
:10351000000069460022FEF781FE002818BFFDF773
:1035200087FF06B010BD000080B540F2404043F672
:103530000001C2F20000C4F200014FF482720023C5
:1035400080E80E0000F114014FF4007C4FF0280ECB
:1035500081E808500A21C0E90333C0E90833C0E913
:103560000A31FEF7C5FF002808BF80BDBDE88040D6
:10357000FDF75EBF80B540F2E84041F20001C2F2C3
:103580000000C4F2010100234FF00C0C4FF4E132B3
:1035900080E80E00C0E90333C0E905C3C361FFF74B
:1035A000A9FC002808BF80BDBDE88040FDF740BFF2
:1035B0002DE9F04381B01E4690460D468146FEF748
:1035C00009F9301A00EB0807FEF704F940F2180178
:1035D000C2F200010968C1F3CB3179430091D9F8F7
:1035E00000108A682A40AA421AD1064608F101044E
:1035F00004E000BF88682840A84211D1002CF9D00F
:10360000FEF7E8F8801BB8420ED200980099002817
:10361000A1F101010091D9F8001008BF0746E9E7C0
:10362000002001B0BDE8F083D9E900014268B1F59E
:10363000827F22F0E00242600BD1D9F80810B1F588
:10364000004F02D0B1F5806F03D1016821F0400135
:103650000160D9F82810B1F5005F07D1016821F4A5
:1036600000510160016841F400510160012089F8B6
:103670005100002089F85000032001B0BDE8F0831C
:10368000FEF7AEB8B0B592B0002443F640000A94FD
:10369000CDE908440594CDE90344CDE90144009403
:1036A000C4F202000168022541F080510160006807
:1036B00000F080500090009847F200000094C4F29F
:1036C0000000016841F480410160006800F480401E
:1036D00000900098092006904FF480300790012058
:1036E0000B904FF480000D9019200E904FF4A870AD
:1036F000CDE90F050420119006A80C95FEF7DEFA1F
:1037000018B1EFF3108072B6FEE70F20CDE9010586
:103710004FF4A05004904FF48050059001A805216B
:103720000394FEF7BFF920B1EFF3108072B600BF2B
:10373000FEE712B0B0BD00004EF68850CEF2000099
:10374000016841F47001016070470000806B002146
:10375000C185C184FFF71EB981B090F83E102229BF
:1037600020D183680246B3F5805F08D152F8281F44
:1037700052F8183C002B61D003685B6809E052F8EE
:10378000281F13B90369002BF6D003685B6803F0A8
:103790007F030B70116801311160C18D01390A047A
:1037A000C18501D001B070470168CA6822F02002CB
:1037B000CA60CA6822F48072CA604A6922F00102B3
:1037C0004A61202180F83E10016B01293ED1002181
:1037D000016300BF016851E8031F026821F0100176
:1037E00042E80313DBB1016851E8031F026821F0CE
:1037F000100142E8031393B1016851E8031F026806
:1038000021F0100142E803134BB1016851E8031F96
:10381000026821F0100142E80313002BDAD101689D
:103820000A68D20606D5002200920A68009249680A
:1038300000910099818D01B0FFF7AAB80268526823
:103840006FF35F2221F8022B8162A6E701B0FFF738
:10385000EFBB000010B504460068D4E902C223693A
:10386000016921F4405111430161626943EA0C018D
:10387000E3691143C268194349F20C639A43114347
:10388000C1604169A26921F4407141F200431143D2
:1038900040F48062C4F201039A42416102D1FEF712
:1038A000C5F901E0FEF7AEF9E16963681922B1F5E7
:1038B000004FA0FB020121D15A00DB0FFCF780FC76
:1038C00048F21F51C5F2EB11A0FB01235A094FF634
:1038D0009C73C0F6FF7303F1805302FB0300322395
:1038E00003EBC000A0FB01014FF4F87000EA1110D7
:1038F00000EB0210C1F3421108441DE09A009B0F37
:10390000FCF75EFC48F21F51C5F2EB11A0FB01234E
:103910005A094FF69C73C0F6FF7302FB0300322373
:1039200003EB0010A0FB0101F02000EA511000EBB6
:103930000210C1F3431108442168886010BD0000E3
:1039400040F2E840C2F20000FFF726B870B540F23E
:103950002C14C2F200042046442101F0FDFC46F67E
:103960007930C0F600001421002228F013FE40F246
:103970003816C2F2000640F2C8253060C2F20005D7
:1039800001202870204601F0B7FC0146306811B1D3
:1039900028F022FF01E028F00FFF0020287070BD02
:1039A0002DE9F041B1F900C0B2F90460B44511DC71
:1039B000B1F904E0B2F90040A6450BDBB1F90250C1
:1039C000B2F90680454505DCB1F90670B2F902305E
:1039D0009F4203DAFF2358B2BDE8F081A44509DB1A
:1039E000AB4207DCB64505DC474503DC002358B293
:1039F000BDE8F0815C1B24B2012CA7EB05060ADBB5
:103A0000A0F800C04580A0F804E0C380B2F80680AA
:103A10004D88012300E00023A6EB08042C4424B2C7
:103A2000012C14DBB1F906400FFA88F7A7420EDA31
:103A30000C888F88354400EBC30620F83340A6F885
:103A40000280B780F5804D88B2F806800133B2F964
:103A500002402DB2AC42C8BF2546B1F906600FFA4C
:103A600088F7B2F800800C88B742B8BF3E46A8EB92
:103A700004073FB2012FAEEB0C0C0DDB771B3FB2FE
:103A8000012F09DB00EBC30720F833407D80A7F846
:103A90000480FE800C8801339188ACEB0102224443
:103AA00012B2012A09DB04EB0C0200EBC30720F879
:103AB000331001337D80BA80FE8058B2BDE8F081BA
:103AC00070B50346B1F90000B2F90040B1F902C087
:103AD000B2F90250B1F904E0B2F90460A042B1F9C0
:103AE0000610B2F90620C8BF0446AC451C80C8BF0A
:103AF0006546B6455D80B8BF764691429E80B8BFA8
:103B00000A460020B4424FF00001D8BF012195427F
:103B1000D8BF01200840DA8070BD00002DE9F043D5
:103B200081B00C46B0F90070B1F900108F423DDB56
:103B3000B0F90260B4F902108E4237DBB0F904909C
:103B4000B4F90410894531DCB0F90680B4F90600F7
:103B500080452BDC15466AB3694620462A46ADF8F7
:103B60000070ADF8026000F097F8F8B169462046A1
:103B70002A46ADF80090ADF8026000F08DF8A8B1CB
:103B8000694620462A46ADF80070ADF8028000F084
:103B900083F858B1694620462A46ADF80090ADF842
:103BA000028000F079F801B0BDE8F083002001B098
:103BB000BDE8F083012001B0BDE8F083B0F900203A
:103BC000B1F904309A4213DCB0F90420B1F90030A5
:103BD0009A420DDBB0F90220B1F906309A4207DCB7
:103BE000B0F90600B1F902108842A4BF0120704765
:103BF000002070472DE9F04381B00C46B0F9046015
:103C0000B1F900108E4211DBB0F90670B4F9021060
:103C10008F420BDBB0F90080B4F90410884505DC55
:103C2000B0F90290B4F90600814503DD012001B02E
:103C3000BDE8F0831546EAB1694620462A46ADF84C
:103C40000080ADF8029000F027F898B96946204648
:103C50002A46ADF80060ADF8029000F01DF848B9B2
:103C6000694620462A46ADF80080ADF8027000F0A3
:103C700013F818B1002001B0BDE8F0836946204672
:103C80002A46ADF80060ADF8027000F005F880F04B
:103C9000010001B0BDE8F0832DE9F041B1F9003039
:103CA000B0F90040A3420DDBB0F904E0734509DC34
:103CB000B1F902C0B0F902108C4503DBB0F906502F
:103CC000AC4502DD0020BDE8F081012A52DBAEEBFD
:103CD0000400013086B200EBD63006B2681A01301B
:103CE00087B200EBD73007B24FEA66087810B8EB1E
:103CF000670FB8BF70109042A8BF1046021917B2E4
:103D00004218BB4216B2D8BFB44515DD2A1ABB42D1
:103D100012B22ADC944528DB391809B2091B01EBE1
:103D2000D1714F1004EB6106604402EB61019B1BF3
:103D3000401A07FB07F10EE0384400B2001B00EB0D
:103D4000D070421004EB600701EB6000DB1BACEBB2
:103D5000000002FB02F113FB03F210FB0022002023
:103D60008A4298BF0120BDE8F081AEEB000424B286
:103D7000A34202DA0120BDE8F081944516DAB44589
:103D8000F8DC201A02B2AEEB020202EBD27200EBB8
:103D90006200181A01EB62015710ACEB010110FB35
:103DA00000F007FB07F211FB010113E0211A0CB22E
:103DB000AEEB040707EBD77701EB6701591A6044B4
:103DC00002EB67027E10801A11FB01F106FB06F27E
:103DD00010FB00110020914298BF0120BDE8F08146
:103DE00070B5B1F90030B2F90040B1F902C0B2F9D2
:103DF0000250B1F904E0B2F90460A342B1F906102F
:103E0000B2F90620B8BF1C46AC450480B8BF654671
:103E1000B6454580C8BF764686809142C8BF0A46EF
:103E2000C28070BD2DE9F04F93B0044628F04EFBE0
:103E300000210A9104900CB1E06801E00FF0D6F97E
:103E400040F2FC2B0169C2F2000BCBF800000846DF
:103E500024F06CFBDBF80010486918B124F066FB15
:103E6000DBF80010C86924F061FBDBF80000006A91
:103E700024F05CFBDBF800000169002900F0DE8023
:103E8000B0F85011002959D000274FF001080DF16A
:103E90002C09012204E000BF01378F420A464DD2AF
:103EA000C31993F83031002BF6D1002AF4D0002545
:103EB00007E000BFDBF800000135B0F850118D427B
:103EC000EAD2411991F830110029F3D1BD42F1D065
:103ED00000F1300101EBC70001EBC501FFF76EFEF9
:103EE0000028E7D0DBF80000303000EBC70100EB22
:103EF000C5024846FFF774FF48460BF00FFBDBF89E
:103F00000010044601EBC70030300BF007FBDBF874
:103F10000010064601EBC50030300BF0FFFA3044CC
:103F20008442C7D2DBF80000DDE90B2300EBC701B8
:103F300028440A634B6380F83081BBE701680A7C40
:103F4000D20700F0A780C9684968002900F0A28064
:103F500000F5AC7001F06CFA002840F09B80DBF8B3
:103F600000000168C9680B688A689A4208BF4B68FC
:103F7000CDE908320FF054F9DBF800100790B1F8E2
:103F800050210020002ACDE91100CDE90F00CDE934
:103F90000D00CDE90B0057D00BAEA6F1080A4FF08B
:103FA000000907E0DBF8001009F10109B1F8500140
:103FB000814549D201EB090090F830010028F1D188
:103FC00001F5AC7001F098F90028EBD004460CE044
:103FD000DBF80000214600F5AC7001F033FA204612
:103FE0001DF0BEFC002D2C46DCD0DBF80000214685
:103FF00000F5AC7001F0A2F9DBF80010054601EB0A
:10400000C90000F1300230462146FFF7C9FC411CCF
:10401000E8D00128DCDB5FFA80F85746DBF80000C7
:10402000214600F5AC7001F0B9F957F8081FB8F156
:1040300001087A6801604260F0D1C9E70021A0F868
:10404000501113B0BDE8F08F01F5AC7001F054F9D8
:104050000DF11C0898E86001B0B10446DBF80000DF
:10406000414600682A46C06B2346876BCDE9006550
:104070000294B847DBF80000214600F5AC7001F06F
:104080005DF904460028E9D1DBF8000000F5AC70CA
:1040900001F002F9DBF800104EF62448B1F8509117
:1040A000C2F200080020B9F1000FC8F8000000F0CB
:1040B000B281B9F1010F1ADB01EB090090F82F2151
:1040C000C2B1B9F1020F12DB90F82E21AAB1B9F1F9
:1040D000030F0CDB90F82D2192B1B9F1040F06DB30
:1040E00090F82C01A9F104090028E2D10AE04FF070
:1040F000000907E0A9F1010904E0A9F1020901E0C2
:10410000A9F103090868426B1AB19047DBF8001067
:104110000868C068826922F0010282610868C0688C
:10412000826922F002028261B1F8502191F82800E0
:10413000002A40F0040281F8282000F06881002461
:10414000CDF814901CE08169554662F3410181610C
:104150003046B5602AF014FADBF8000000EBC4002A
:1041600030300BF0DBF9D8F800100844DBF8001011
:10417000C8F80000B1F850010134844280F0FC809E
:10418000081990F830010028F4D14C4505D1086891
:10419000C068826942F001028261086801EBC40ACA
:1041A000C068826922F0020282610868C268C66B38
:1041B00092683260007C80070AF130001FD082468E
:1041C00008460FF02DF8DBF80010451E08460FF0EA
:1041D0007DF8013807B22BB20BA80021002200970E
:1041E0000BAD0BF0D5F9DBF8000075600168D1E983
:1041F000030182698907A6D542F00201A7E73AF8D0
:10420000328F524632F8029F5546CDE90820008889
:1042100035F9047F079008460FF058F88742069456
:1042200001DA2C8804E0DBF800000FF04FF8441EA0
:10423000DBF8001007980968A9EB0000CB68013093
:10424000DB68A7EB080200B20132B3FBF0F089692A
:104250000FFA82F84045B8BF804619B300204746A0
:104260000B90ADF8300000BF7D1EDBF80000ADF80C
:10427000325000680BA982699047BDF93200BDF841
:104280002E10411A013109B2884503DA2FB2002FEE
:10429000EADC05E039B2012902DB00F1010801E0A6
:1042A0004FF00008BAF9000025B208EB00014A1EE1
:1042B0000BAFAA4280B202DD4FF0000935E0CDF825
:1042C0001C800AE030462AF05BF90798444600FA61
:1042D0008AF14A1EAA42504626DC099B8A461B8860
:1042E0000FFA82F9ADF82C30089B4D451B88ADF8CC
:1042F0002E00DBF80000ADF83030ADF832207760EA
:10430000B7600068A2B2C068A04681683160BCBFD7
:10431000ADF83240A1461FFA89F18A42D2D18169B3
:1043200041F002018161CDE750464EF624481FFA64
:1043300089F1A2B2C2F200088A421AD0099909880A
:10434000ADF82C1008990988ADF82E00DBF80000B4
:10435000ADF83010ADF832407760B7600068C068E3
:1043600081683160816941F00201816130462AF043
:1043700007F9DDE90594EFE691F82820002802F01E
:10438000FB0281F8282046D00868027CD2071ED0A4
:10439000C0684068D8B130244FF4987508E000BF79
:1043A000B1F85001A5F22F120834013582420ED225
:1043B000485D0028F4D101F5AC7001F01FF8DBF87E
:1043C00000100A1952680B5942600360E8E701F1D6
:1043D00030004FF480711DF07DFFDBF800002021DC
:1043E00000F598701DF076FFDBF800000021A0F8C2
:1043F0005011049828F064F80A90DBF80000006877
:10440000436A43B10A99D8F80020984703E000F0C6
:10441000FB0081F828001DF0E1F800F04DF900F0F4
:1044200007F94EF60C46C2F200067469E4BB0EF0C2
:10443000DDFE0EF00DFF1BF0BFFB7F2100220446C6
:1044400023F0A0FF20460021002223F08FFF20460A
:104450004FF6FF71002223F0D1FF204603210022F6
:1044600023F0C0FF20460321002223F0A9FF2046AD
:104470000321002223F0AAFF20460321002223F07B
:10448000ABFF20460321002223F0B2FF49F6C161B1
:10449000C0F6030120461CF09FFC204606210022A6
:1044A00000231EF077FF7461306828F009F8800857
:1044B0004A280DD8D8F8000041F28931884236D315
:1044C0000A98D6E901120844511CC6E901012EE000
:1044D00027F0FCFFDBF800103060496829B108685C
:1044E0004FF47A71B1FBF0F500E03225B16828464F
:1044F00041B170684FF47A72002808BF012051431F
:10450000B1FBF0F00021C6E90111A84238BF054611
:10451000D6E9031028443061481CF06028F060F8A8
:10452000C0F1640335A120462A461CF093FC4EF6E8
:104530000845C2F200052C68BCBB0EF057FE0EF019
:1045400087FE1BF039FB7F210022044623F01AFF6F
:1045500020460021002223F009FF20464FF6FF717C
:10456000002223F04BFF20460321002223F03AFFD4
:1045700020460321002223F023FF204603210022AE
:1045800023F024FF20460321002223F025FF49F6D3
:10459000C161C0F6030120461CF01EFC2046042128
:1045A000002200231EF0F6FE2C604EF60445C2F2F7
:1045B0000005286827F084FFB0F5967F1AD927F008
:1045C00085FF28600BA81DF0F9F90B980D999DF84F
:1045D0004570401A40F2FE31820A08404AF2A101B9
:1045E00048439DF84410830D009108A1204601978F
:1045F0001CF030FC13B0BDE8F08F00BF25752046DD
:1046000050530A25752525204350550025752E2524
:1046100075206B422075736564202825642025254C
:10462000290A2564252520667261672E0000000096
:1046300010B540F23C14C2F200042068002818BFF4
:104640001DF08EF920461C211DF044FEE069002873
:1046500018BF1DF085F904F11C001C211DF03AFE65
:10466000A06B002818BF1DF07BF904F138001C2155
:104670001DF030FE606D002818BF1DF071F904F1C7
:1046800054001C21BDE810401DF024BE40F20C4136
:10469000C2F20001096804E00A7E42F001020A76D3
:1046A0004969002908BF70474A688242F4D00A6805
:1046B0008242F5D1F0E700007047000040F2382058
:1046C000C2F20000042100F047BE000040F2482082
:1046D000C2F20000202100F03FBE00002DE9F04FA3
:1046E00085B00E9E1D46002B834608BFB6F5807F21
:1046F00069D0DDF83C800023019301A8ADF80810D3
:10470000CDF80A30ADF80E20ADF81010ADF812203B
:10471000294632464346071D00F1080900F10C0AFC
:1047200023F05AFF384629463246434623F054FFC9
:10473000484629463246434623F04EFF5046294616
:104740003246434623F048FFBDF90410BDF9083056
:10475000BDF90C60BDF9104099421F46BDF9062015
:10476000BDF90A00B8BF0F46A6422546B8BF354678
:10477000AF42B8BF3D46AF1E9942ABF80070C8BF0C
:104780000B46A642C8BF3446A342C8BF1C46BDF96B
:104790000E70BDF9125082420346B8BF1346AF42B5
:1047A0002E46B8BF3E46B342B8BF1E468242C8BF7F
:1047B0001046AF42C8BF3D46A11CB31EA842C8BFA9
:1047C0000546A81C04E00023ABF800300139501E58
:1047D000ABF80230ABF80410ABF8060005B0BDE84A
:1047E000F08F0000F0B581B016460C46074627F062
:1047F0006DFEA2B240F25424C2F2000405462046E7
:104800003946334619F0DAFC58B1E0690021A1625B
:1048100078B9284627F054FE002808BF0120E0613F
:1048200007E020462C211DF055FD4FF00040A0620E
:104830000024204601B0F0BD10B540F28024C2F241
:1048400000042046142100F087FD204600F08CFD76
:10485000B0B1142104461DF03DFD4DF24560C0F697
:1048600001004DF235714DF6BD224DF20D63C0F6DB
:104870000101C0F60102C0F601030FC410BD00BF64
:10488000FEE70000B0B50C460546084610211DF0B5
:1048900021FD28680178042908D0022908D00129BF
:1048A00008D1A98A2180E98A618003E00A2100E019
:1048B000E96861604268002A08BFB0BD2146BDE8D2
:1048C000B04010472DE9F04F8BB00446824634F8D3
:1048D000140F20B9BAF81600002800F0DA82DAF8CE
:1048E0002C80B8F1000F49D04FF480760027454660
:1048F000284600216E2220F0C1FF074428460021EF
:104900006D2220F0BBFF01B2C90D50FA81F000B258
:1049100000124643284620F0C9F905460028E7D191
:10492000380403D1B0B2B0F5807F0DD030B24FF46F
:10493000803292FBF0F079420022089209B202B272
:1049400008AB204623F048FE9AF8400000F00F0024
:10495000032840F04981404620F0D0FA0546404601
:1049600020F052FAB4F900100246032740462B46C5
:10497000009706F07BFB0646002547E11AF05AF93E
:104980000068BAF81410BAF81820037E5018AAF874
:104990001800BAF81600BAF81A10DAF824B0084469
:1049A000BBF1000FAAF81A0000F07382584205907C
:1049B000002001944FF000080490002000270024FC
:1049C00003930290A1464FF4807600245D46CDF813
:1049D000288000BF284600216E2220F04FFF0444AB
:1049E000284600216D2220F049FF00B270430612D4
:1049F000284620F05BF905460028EBD1DAF81800CC
:104A00002104099008BFB6F5807F0FD04FF48031A4
:104A1000604291FBF6F201B209A80AAB23F0DCFD7B
:104A2000BDF82400BDF8261001E000BF010C02B261
:104A300080EAE230A0EBE2300AB281EAE231A1EB97
:104A4000E23180B289B288424FF000004FF000019D
:104A50004C4688BF012098BF012141EA0904074361
:104A60005846102121F0BEF8002800F09C805846DE
:104A7000079720F097F9814600F0040004EA9007B8
:104A800009F0080004EAD0000690584620F0B8FA71
:104A90000646584620F022F90546584620F0B4F95B
:104AA0008046584620F02AFA002ED8BF012D11DB8F
:104AB000BDF92610DDF80CC00FB1614504DA069A85
:104AC00052B1059A914207DC0C2102915946CDF86A
:104AD00010B001E0DDF80CC0B8F1000FD8BF00281D
:104AE00041DDBE46079F09F0020209EA070111F005
:104AF0000103BDF9241007EA520201D0614503DA2F
:104B00003AB1059FB94204DC5F460327CDF810B0E7
:104B10000297A1460024B8F1000FC8BF012423402A
:104B2000012B02D1614580F2C38000284FF00003C1
:104B3000C8BF0123002D4FF00000C8BF0120002E88
:104B40004FF00006C8BF0126069C1A40079F204070
:104B5000012A06EA0E0218D1059B4FF0000899427F
:104B60004C4615DCA5E0002D4FF000004FF0000191
:104B7000C8BF0120002EC8BF012101EA0702069923
:104B8000079F08404FF0000802E04FF000084C4635
:104B9000BDF9261012B1614580F28B8018B10598DD
:104BA000814240F3868058464FF4807121F01AF814
:104BB000002804BF87F001005FEAC07000F0858024
:104BC00058464FF4007121F00DF8002804BF84F01E
:104BD00001005FEAC07078D0584620F067F883463D
:104BE00000287FF4EFAE70E0404620F009FA054659
:104BF000404620F073F8BAF9161003460C274046D9
:104C00002A46009706F032FA05460026404620F074
:104C1000C9F8C10705D1002E03DD0026410706D5DE
:104C200009E0810758BF26EAE676410703D4002D44
:104C300001DD002503E0000758BF25EAE575BAF954
:104C40001A10BAF9363001FA85F7BAF91800BAF92C
:104C500034205C1A9F42B8BF2546BAF93A30B8BF33
:104C600001FA84F79F42C8BF5D1A00FA86F1131A51
:104C70009142B8BF1E46BAF93820B8BF00FA83F196
:104C80009142C8BF161A31B22AB2404600F028FC41
:104C90009AF80100800700F1FC80BAF81800BAF811
:104CA0001A103044AAF818004819AAF81A00F0E0BF
:104CB000079FF8079AF840104FF00C0018BF032028
:104CC00001F0F00108448AF84000DDF81080019CF2
:104CD000B8F1000F00F0DD809AF84000029900F072
:104CE000F00001F00F0108448AF840000020CAF8E3
:104CF0001800404680214EF20105CAF82C8020F0B1
:104D000071FFD0B1404620F073F9032821D002286A
:104D100039D0012849D1B8F8160041F6FF720130A8
:104D200001B24046002306F0DBFBAAF83600B8F8D3
:104D3000160029B2013802B232E029B20AF1340079
:104D400041F6FF770A4641F6FF7300970AF020FC10
:104D500079E0B8F81600B8F81A100023091A0131E2
:104D60008AB201EBD23109B200EB6104601C01B2DE
:104D7000404641F6FF7206F0B3FBAAF83600601E0B
:104D8000019C02B20BE0B8F91A10404641F6FF72DE
:104D9000002306F0A5FBAAF83600B8F91A2029B2BC
:104DA0004046002306F09CFB03E041F6FF70AAF8A2
:104DB0003650AAF83A00404620F012F9032810D0E5
:104DC000022828D0012838D1B8F91410404641F6FD
:104DD000FF72002306F0EEFAAAF83400B8F91420A6
:104DE00025E0B8F81400B8F818100023091A0131AA
:104DF0008AB201EBD23109B200EB6104601C01B24E
:104E0000404641F6FF7206F0D5FAAAF83400601E5B
:104E1000019C02B20BE0B8F91810404641F6FF724F
:104E2000002306F0C7FAAAF83400B8F9182029B20E
:104E30004046002306F0BEFA03E041F6FF70AAF8F0
:104E40003450AAF83800BAF834000921002808BF05
:104E5000AAF83450BAF838000022002804BF41F6FE
:104E6000FF70AAF83800BAF83600002808BFAAF880
:104E70003650BAF83A00002804BF41F6FF70AAF88D
:104E80003A00404617F08AFA9AF8010080077FF549
:104E90002BAD0BB0BDE8F08F2DE9F04782B0C56AAD
:104EA000002D00F03A81044690F84000000700F021
:104EB000348119F0BFFE824600684021477E2846B3
:104EC00020F090FE002804BF0020E061284620F07A
:104ED00087F88046284620F08BF894F840108146E9
:104EE00001F00F01032945D00C2940F01481E68B15
:104EF0000020B9F1000FA0837DD019F09BFE002E99
:104F00004FF0000C00F0BF80006848F21F52407E56
:104F10000027C0F16400C5F2EB1200BF10FB06F3DE
:104F200053FB02F3591101EBD3731904374400F01A
:104F3000AB8010FB03F151FB02F14E1106EBD17671
:104F400031041F4400F0A08010FB06F151FB02F178
:104F50004B1103EBD1731904374400F0958010FB1B
:104F600003F151FB02F14E1106EBD17631041F44DF
:104F7000D4D189E0A68B0020B8F1000FE0835ED089
:104F800019F058FE002E4FF0000C00F09F800068D2
:104F900048F21F52407E0027C0F16400C5F2EB12B8
:104FA00010FB06F353FB02F3591101EBD373190401
:104FB000374400F08C8010FB03F151FB02F14E11DD
:104FC00006EBD17631041F4400F0818010FB06F11E
:104FD00051FB02F14B1103EBD1731904374476D026
:104FE00010FB03F151FB02F14E1106EBD1763104B7
:104FF0001F44D5D16BE030B2C7F16401484348F299
:105000001F51C5F2EB1150FB01F0410901EBD070CB
:10501000E08328461FF062FE074628461FF0F0FF97
:10502000B4F91E1002460C2628463B46009606F0B0
:105030001DF80246E08328460021002369E030B2D3
:10504000C7F16401484348F21F51C5F2EB1150FB10
:1050500001F0410901EBD070A08328461FF0D4FE77
:10506000074628461FF04AFFB4F91C1003460326E2
:1050700028463A46009605F0F9FF0146A0832846E7
:105080000022002345E00027B4F91A00B4F93610D5
:10509000B4F93A2000FA87F3A4F81EC00E1A8B4226
:1050A000BCBF374600FA86F34EF201019342C8BFF7
:1050B000171A3BB2CFF6FF71284641F6FF7206F091
:1050C0000FFA384402B22846002121E00027B4F943
:1050D0001800B4F93410B4F9382000FA87F3A4F8B2
:1050E0001CC00E1A8B42BCBF374600FA86F34EF244
:1050F00001019342C8BF171A3BB2CFF6FF71284691
:1051000041F6FF7206F056F9384401B228460022F3
:10511000012322F09FFBA08B10B102B0BDE8F08705
:10512000E08B0028F9D1B9F1000F16D128461FF005
:1051300067FF074628461FF0D1FD002FD8BF012882
:105140000BDB002F03D4B0F1FF3F06DC47423AB23D
:1051500028460021012322F07DFBB8F1000F16D173
:1051600028461FF051FE074628461FF0C7FE002FB5
:10517000D8BF01280BDB002F03D4B0F1FF3F06DCC2
:10518000474239B228460022012322F063FB284619
:105190000A21524617F002F960788007BDD494F8CE
:1051A000400000F0F00084F840000020E06202B00F
:1051B000BDE8F087F0B585B004460D4620B90EF085
:1051C00015F80446002853D020460EF097F8002822
:1051D0004ED094F8280040074AD40020CDB3029066
:1051E00020460EF01DF80138ADF80C0020460EF0F8
:1051F0006DF80138ADF80E00684602AA2946FEF7A0
:105200005FFCA8B32068017C890726D482690AB1B3
:1052100069469047B4F8500160B304F130050027A7
:105220006E4600BF304629460022FEF777FCF8B9EB
:10523000B4F8501101378F4205F10805F2D31F2948
:1052400019D9DDE902020021A4F85011206362633C
:1052500017E0A4F8500105B0F0BD0298039920634F
:105260000120A4F850016068616308B127F0B4FA26
:1052700005B0F0BD0021DDE9002304EBC1000263AD
:105280004363606801310028A4F8501118BF27F06B
:10529000A3FA05B0F0BD0000F0B581B010B34568C9
:1052A0000446FDB1002707E0002BA36014BF9F5008
:1052B00067601CF055FBADB1D4E9001328460A1D08
:1052C000AD5883420AD0A66843588642ECD0002BE2
:1052D00018BF9D5055B16B50EBE700BF65601DB125
:1052E0006F50E6E701B0F0BD0021A16001B0BDE85C
:1052F000F0401CF035BB0000002814BF40680020BF
:1053000070470000B0B14268A2B10068011D0120E1
:105310005258002A08BF704752586AB15258002AA2
:1053200004BF0230704752580430002A04BF0138CD
:105330007047EDE70020704701307047006808446F
:10534000406870470068085870470000002814BF84
:1053500080680020704700000331002221F0030123
:10536000C0E900128260704710B50446006808303A
:105370001CF010F9002808BF10BD2168002242501F
:10538000626843185A606268002A18BF5050A168CA
:105390006060002908BFA06010BD000070B5044621
:1053A00000284FF0000012D00D4681B1D4E900066C
:1053B00008301CF0EFF8AE420AD0E0B121686A581C
:1053C0000B1D002A18BFD05042506850C55070BD08
:1053D0004FF0000278B121684250626843185A6069
:1053E0006268002A18BF5050A1686060002918BF89
:1053F00070BDA06070BD002070BD000010B50446F7
:10540000006808301CF0C6F8002808BF10BD2268EC
:105410000023111D4350A3688350A268002A18BFBF
:1054200050506168A060002908BF606010BD000096
:1054300028B1416809B9806808B10020704701208F
:105440007047000080B5002808BF80BD42688A42CE
:1054500013D0D0F800E0826851F80E308A4217D09D
:105460000EF1040C51F80C00002B18BF43F80C008F
:10547000002818BF40F80E3080BD0268114449680A
:105480000029416007BF002181600020885080BD55
:105490000021002B836018BF0EEB0300416080BD2C
:1054A00010B50446006804E00068002808BF10BD7D
:1054B00020608268002AF7D0214690472068F3E7F1
:1054C0008068002814BFC08A002000B27047000026
:1054D000806800280EBF0020807E80097047000091
:1054E00070B50E4611431BD0154604461EF0CEFA89
:1054F000A0680123018A428A314401825119418204
:10550000204631462A4620F047FF20460B21002244
:1055100016F044FF012818BF70BD204620F088FE19
:10552000012070BDF0B581B01446A8B162220646D4
:105530000F4620F0A3F988B10546006880B13046D7
:105540003946632220F09AF901060BD02B68A1B2EC
:10555000C2B22846984706E0204604E0204602E012
:10556000204600E02046C0EA040001B0F0BD000083
:105570002DE9F04F91B00446408CDDF868B040F062
:105580000400608422841646BBF8082020461F468B
:105590008A4620F073F92784BBF808200546204688
:1055A000514620F06BF9618C814621F004004D4595
:1055B000608403D102D111B0BDE8F08F2684BBF81E
:1055C00008202046514620F059F980462046514691
:1055D000278407F025F90068BBF80810424625F03B
:1055E00049F8BBF808000B2828D147F6FF76B045EC
:1055F00018BFB14522D1204620F084FA81B200EBD9
:10560000D13000B2451020461FF0D6FA81B200EB2F
:10561000D13000B2B0454FEA600005D1691C00F1FD
:1056200001084145B8BF884647F6FF71894505D155
:10563000691C00F101094945B8BF894640F29C2028
:10564000C2F20000FFF790FED0B3C0E90389046006
:105650000646BBF808006C46B0802046C6F808A095
:1056600009F0CCF944F62110C0F60300019044F68D
:105670005130C0F60300029044F69120C0F60300BA
:1056800003900020CDE90800FF200A90BBF800003D
:10569000BBF802100B904842DBF80C100C909DF800
:1056A00042000791DBF8101000F0FE008DF8420078
:1056B00020460096069109F021FA11B0BDE8F08F5E
:1056C000FEE7000040F29C20C2F200001421FFF728
:1056D00043BE00002DE9F04782B00446408C10F430
:1056E000FC7F00F026816FEA01086FEA02094FF0A3
:1056F000000A01AD002709E04FF0020A608C00BFEC
:105700000137C0F3C5018F4280F01581E16801EBDC
:10571000C70252689301F3D492B212EA080302EA74
:105720000902B2FA82F24FEA521218BF0123534023
:10573000E6D151F83760102130462A4624F016FD94
:10574000002840F0F380304611212A4624F00EFD57
:10575000002840F0EB80304612212A4624F006FD56
:10576000002840F0E380304613212A4624F0FEFC56
:10577000002840F0DB80304615212A4624F0F6FC54
:10578000002840F0D380304614212A4624F0EEFC55
:10579000002840F0CB8030460A212A4624F0E6FC5F
:1057A000002840F0C38030466B212A4624F0DEFCFE
:1057B000002840F0BB8030466C212A4624F0D6FCFD
:1057C000002840F0B380304601212A4624F0CEFC68
:1057D000002840F0AB80304604212A4624F0C6FC65
:1057E000002840F0A380304602212A4624F0BEFC67
:1057F000002840F09B80304603212A4624F0B6FC66
:10580000002840F09380304605212A4624F0AEFC63
:10581000002840F08B80304606212A4624F0A6FC62
:10582000002840F08380304632212A4624F09EFC36
:1058300000287BD130466E212A4624F097FC0028B0
:1058400074D130466D212A4624F090FC00286DD199
:10585000304669212A4624F089FC00287FF44CAFA9
:1058600030466A212A4624F081FC00287FF444AFA8
:1058700030466E212A4624F079FC00287FF43CAFA4
:1058800030466D212A4624F071FC00287FF434AFA5
:10589000304637212A4624F069FC00287FF42CAFDB
:1058A000304638212A4624F061FC00287FF424AFDA
:1058B000304635212A4624F059FC00287FF41CAFDD
:1058C000304640212A4624F051FC00287FF414AFD2
:1058D000304645212A4624F049FC00287FF40CAFCD
:1058E000304641212A4624F041FC00287FF404AFD1
:1058F000304642212A4624F039FC00287FF4FCAED1
:10590000304643212A4624F031FC00287FF4F4AECF
:10591000304649212A4624F029FC00287FF4ECAEC9
:10592000BAF1000F08BF4FF0010AE7E64FF0030A93
:1059300001E04FF0000A5FFA8AF002B0BDE8F0879C
:1059400040F2FC20C2F20000006870474EF60C40A6
:10595000C2F200000021C0E90011C0E90211C0E953
:1059600004114EF60440C2F2000001604EF60840F9
:10597000C2F2000001607047C0F30410072828BF7E
:10598000072070474FF6FF71884204BF1F20704701
:10599000002804BF00207047702805D845F6F6514E
:1059A000C0F60301085C704740F2A821C2F2000172
:1059B000096851B140F2AC22C2F20002713812689B
:1059C00080B2824284BF085C7047002070470000AC
:1059D00080B540F2B820C2F200001821FFF7BCFCED
:1059E0004EF6FC30C2F200000121017080BD0000C3
:1059F0002DE9F04190B3164604460D46FAF786FCB1
:105A000040F21C08C2F20008D8F8002007462046E1
:105A100029469047D8F80020054620443146904753
:105A2000391A8D421AD820440CE000BF9F78EE1C32
:105A30008E42977088BFBDE8F081DB7804358D42D7
:105A4000D3700BD8425D6B1C8B42625506D843194C
:105A50005F78AE1C62198E425770E7D9BDE8F081BD
:105A60002DE9F04140F22408C2F200081446D8F8AB
:105A700000200F4619461D4606469047386040B143
:105A80002868D8F800203044002190472060BDE805
:105A9000F08100202060BDE8F08100002DE9F04F8A
:105AA00091B01A9C0546002C1E460F461CBF0020D4
:105AB0002080A5B3002F4FF0000000F077812978F7
:105AC000002900F073811B9810F0060F2BD00020E6
:105AD000012242F2014301E0397904300D2904D852
