:020000040800F2
:1000000030F3002029020008310200083302000802
:10001000350200083702000839020008000000001D
:100020000000000000000000000000003B0200088B
:100030003D020008000000003F020008B91D000852
:10004000430200084302000843020008430200087C
:10005000430200084302000843020008430200086C
:10006000430200084302000843020008430200085C
:10007000430200084302000843020008430200084C
:10008000430200084302000843020008430200083C
:100090004302000843020008430200081506000856
:1000A000430200084302000843020008430200081C
:1000B000430200084302000843020008430200080C
:1000C00043020008430200084302000843020008FC
:1000D00043020008430200084302000843020008EC
:1000E00043020008430200084302000843020008DC
:1000F00043020008430200084302000843020008CC
:1001000043020008430200084302000843020008BB
:1001100043020008430200084302000843020008AB
:100120004302000843020008FD05000843020008DE
:10013000430200084302000843020008430200088B
:10014000430200084302000843020008430200087B
:1001500043020008430200080906000843020008A1
:10016000430200084302000843020008430200085B
:100170004302000843020008430200080000000098
:10018000430200084302000800F002F800F03CF8C7
:100190000AA090E8000C82448344AAF10107DA45E2
:1001A00001D100F031F8AFF2090EBAE80F0013F0F8
:1001B000010F18BFFB1A43F001031847E042030088
:1001C00000430300103A24BF78C878C1FAD8520718
:1001D00024BF30C830C144BF04680C6070470000C1
:1001E0000023002400250026103A28BF78C1FBD840
:1001F000520728BF30C148BF0B6070471FB52FF0B2
:1002000042FE1FBD10B510BD00F08BF91146FFF77F
:10021000F5FF28F0FDFD00F0A9F903B4FFF7F2FFA8
:1002200003BC00F077F900000948804709480047FF
:10023000FEE7FEE7FEE7FEE7FEE7FEE7FEE7FEE796
:10024000FEE7FEE704480549054A064B70470000F3
:10025000711E00088901000830ED002030F30020F5
:1002600030EF002030EF002053EA020C00F06980EC
:100270002DE9F04B4FF00006002B1FBFB3FA83F5BA
:1002800003FA05F424FA05F65E4012BF1643B2FAEB
:1002900082F502FA05F4C5F120051EBF22FA05FC1D
:1002A00044EA0C04203556EA044C4FEA144418BFC3
:1002B000641C4FF000084FF00009904271EB030CF2
:1002C00039D3002919BFB1FA81F701FA07F6B0FA5C
:1002D00080F700FA07F6C7F120071EBF20FA07FCD7
:1002E00046EA0C062037B6FBF4FCA7EB0507103FE7
:1002F00007F01F0BCBF120062CFA06F60CFA0BFBCD
:1003000044BFB3460026202FA4BF5E464FF0000B2B
:100310005BEA060C08BF4FF0010B19EB0B0948EB29
:100320000608ABFB027C06FB02CC0BFB03CCC01B1C
:1003300071EB0C01C1E70B46024641464846BDE859
:10034000F08B13B5084318BF4FF0FF300146AFF3F1
:100350000080BDE81C40704740EA0103024630B50A
:100360009B0710D14FF0013400E008C208C91D1BE3
:100370009D4315EAC41FF8D013F0FF0102F8011BDA
:100380000DD01B0AF8E711F8013B002B02F8013BE6
:1003900005D011F8013B002B02F8013BF3D130BD31
:1003A00010B5431C02E010F8011B71B18107FAD1AE
:1003B0004FF0013202C88C1A8C4314EAC211F9D0F2
:1003C000C01A0A0603D0C01E10BDC01A10BD0A0410
:1003D00001D0801E10BD0902FCD0401E10BD02F0ED
:1003E000FF0343EA032242EA024200F00AB802F0A5
:1003F000FF0343EA032242EA024200F024B84FF02E
:1004000000020429C0F0128010F0030C00F01B80E1
:10041000CCF1040CBCF1020F18BF00F8012BA8BFEF
:1004200020F8022BA1EB0C0100F00DB85FEAC17CB3
:1004300024BF00F8012B00F8012B48BF00F8012B66
:1004400070474FF0000200B5134694469646203997
:1004500022BFA0E80C50A0E80C50B1F12001BFF47D
:10046000F7AF090728BFA0E80C5048BF0CC05DF8E3
:1004700004EB890028BF40F8042B08BF704748BF31
:1004800020F8022B11F0804F18BF00F8012B7047A5
:1004900030B44FF0013C50F8042B51F8043BCCFA37
:1004A00052F4D51A20D1FCB950F8042B51F8043B72
:1004B000CCFA52F4D51A17D1B4B950F8042B51F82C
:1004C000043BCCFA52F4D51A0ED16CB950F8042B77
:1004D00051F8043BCCFA52F4D51A05D1002CDAD0ED
:1004E00030BC4FF00000704729BAB1FA81F111F029
:1004F0001801D1F120008440F2D1CA40CB4012F063
:10050000FF0213F0FF0330BCD01A704770477047EA
:100510007047000001491820ABBEFEE7260002002C
:100520007047754600F02CF8AE4605006946534604
:1005300020F00700854618B020B5FFF783FEBDE820
:1005400020404FF000064FF000074FF000084FF03A
:10055000000BAC46ACE8C009ACE8C009ACE8C00987
:10056000ACE8C00921F007018D46704710B504467C
:10057000AFF300802046BDE81040FFF74EBE0000FC
:1005800000487047A800002010B5082000F056FA77
:1005900040F23014C2F20004201DA11D01F00EFB38
:1005A000A0889FED121A00EE100AB8EE400A9FEDE7
:1005B000102A20EE010A30EE020AE088BDEEC00AE1
:1005C00010EE101A00EE100A9FED0A1AB8EE400A5B
:1005D00020EE010A9FED081A218030EE010ABDEEDF
:1005E000C00A10EE101A0120618010BD574D8B3EDD
:1005F000000038C2624F283E000010C240F2344072
:10060000C2F2000000F098B840F29440C2F200003C
:1006100000F092B8802000F037BA0000EFF31080AD
:1006200072B600BFFEE70000B0B5B3F5804F0346D9
:1006300016D153F822C00020CCF6F0700CEA000E60
:1006400091E83100D1F818C040EA0E0040EA0410E9
:10065000C96840EA052040EA0C0040EA014101E097
:100660006FF07041002043F82210B0BD2DE9F04F2B
:1006700083B00B68024650F8230001F1240B20F0F0
:10068000010042F82300D1E902C0D1E900E3019062
:100690008869D1E9049A0290C86BD1E90776009085
:1006A0009BE83008D1F8308052F82E008021CFF638
:1006B000F0710840BCF1080F08BF43F040030199F6
:1006C000194341EA090141EA0A013943314321430F
:1006D000294341EA0B01029B41EA08011943009BAF
:1006E0001943084340EA0C01002042F82E1003B0E1
:1006F000BDE8F08FF0B500EB82025068D1E902E46A
:1007000000F0404CD1E90030D1E9045643EA0C0333
:10071000002743EA0010CFF6F07740EA0E208969FF
:1007200007EB055540EA04402843FE36084340EAFB
:10073000066100205160F0BDF0B581B00446002094
:10074000009040F20800C2F200000268D4E916608E
:1007500048F2B51337680821C1F64E33814039425B
:10076000A2FB03250CD0226813685B0708D5136829
:1007700023F004031360B160616D41F00101616514
:1007800001218140394208D022685269120604D5FD
:10079000B160616D41F0020161650421814039421F
:1007A00008D022681268920704D5B160616D41F0EB
:1007B0000401616510218140394215D0206802682A
:1007C000120711D5B16002680168520306D4C90549
:1007D00006D4016821F00801016001E008033FD45C
:1007E000216C09B120468847E16D202000FA01F212
:1007F0003A4241D020680368DB063DD5B26094F8E8
:1008000035300268052B1BD122F0160202604269C6
:1008100022F080024261226C0AB9A26C1AB102680D
:1008200022F0080202603F208840B060012084F876
:100830003500216D0020002984F8340052D156E0A3
:100840000168520310D4C90512D4016821F01001C7
:100850000160012084F83500002084F8340007E0AE
:10086000A16C0029BED1BFE7080301D4616C00E090
:10087000E16B09B120468847606DC0B3606DC00769
:100880002ED0052084F835002068A90A026822F0DD
:1008900001020260009A01328A4200921AD802686C
:1008A000D20717D0009A01328A42009212D8026809
:1008B000D2070FD0009A01328A4200920AD8026809
:1008C000D20707D0009A01328A42009202D8026809
:1008D000D207DFD1012084F83500002084F83400ED
:1008E000E16C21B1204601B0BDE8F040084701B0FD
:1008F000F0BD00002DE9F041044600F0AFF9C4B1AD
:100900000546022084F835000020216884F8340070
:10091000086820F00100086021680868C0070BD053
:1009200000F09CF9401B0528F6D90325202303205D
:1009300064E00120BDE8F081086848F23F02CFF290
:100940001002D4E9013500EA020C04F10C0898E821
:10095000C10143EA0C032B431843D4E9072E30436B
:1009600038431043626A40EA0E00042A40EA080352
:100970001CD1206BD4E90A2E40EA0E00184308600F
:100980004869BEF1000F20F0030040EA020040F089
:10099000040C11D0B8F5005F35D0B8F1000F42D18A
:1009A000022A43D0012A38D032B93FE00B604869AF
:1009B00020F0070040EA020C01F0F8004AF6AB22F2
:1009C0001038CAF6AA22A0FB02231A0940F28003BB
:1009D000C0F603039A5C40F2FF335F284FF03F00FC
:1009E000C1F814C021EA030100FA02F088BF043103
:1009F000C4E916128860002301250020636584F88D
:100A00003550BDE8F081032AD6D8012540230120C6
:100A1000DFE802F0020C0203F0E7AEF1C070B0FABA
:100A200080F0400904E0032A04D3C5D1CEF300606E
:100A30000028C1D0012540230120DFE7B0B50446DE
:100A400000F00CF9054640F29900C2F2000000786F
:100A5000611C18BF044400BF00F000F9401BA04215
:100A6000FAD3B0BD80B541F60000C4F20200802187
:100A700000F0E8F8B0FA80F040F230114009C2F21C
:100A80000001087280BD000043F61441C4F2010168
:100A90000A68024214BF08607047FFF7E3BF000016
:100AA0002DE9F04F82B000F13E4241F6004502F1DF
:100AB000FF77C4F20205082243F6004E4FEAB7263C
:100AC000A84208BF0722C4F2010E072E38BF4FEA22
:100AD000B7220125002600274FF00008009208E009
:100AE00008F101080437B8F1100F06F1020600F012
:100AF000A6800C6805FA08F914EA090FF0D0D1F8BD
:100B000004B003220BF0030CACF10104B240012C41
:100B10006FEA020A10D88268CC6802EA0A02B4407E
:100B2000224382604268CBF3001422EA090204FAED
:100B300008F42243426005E0BCF1030F02D14FF0FC
:100B4000030C20E0C2688C6802EA0A02B440224327
:100B5000BCF1020FC26016D16FF0030202EA580224
:100B60000244D2F820C007F01C050F230C69AB40EB
:100B70002CEA030304FA05F52B431362D1F804B001
:100B800001250BF0030C02680CFA06F302EA0A02D4
:100B90001A431BF4403F0260A2D0002243F64403F4
:100BA0000192C4F202031A684FF6084C42F48042E4
:100BB0001A601A68CFF6FF7C02F480420192019A13
:100BC00028F00302724452F80C3007F00C050F2491
:100BD000AC40A343009C04FA05F52B4342F80C30CB
:100BE000DEF808204B6842EA090543F60C4CDC02AB
:100BF00058BF22EA0905CEF80850C4F2010CDCF80F
:100C000000209C0242EA090558BF22EA0905CCF8F7
:100C10000050DEF804209C0342EA090558BF22EA8E
:100C20000905CEF80450DEF80020DB0342EA09058E
:100C300058BF22EA0905CEF80050012550E702B05E
:100C4000BDE8F08F0069084018BF01207047000020
:100C5000002A08BF09048161704700004EF6285041
:100C6000C2F200000068704740F299004EF6285129
:100C7000C2F20000C2F2000100780A681044086065
:100C80007047000080B543F60040C4F202000168DE
:100C900041F400710160016841F480610160016804
:100CA00041F480710160032000F08CF8002000F016
:100CB00005F800F02BF8002080BD0000B0B540F230
:100CC0009902C2F2000240F208011278C2F2000159
:100CD0004FF47A730968B3FBF2F20446B1FBF2F108
:100CE000084600F075FD0F2C4FF001050CD858B9DF
:100CF0004FF0FF3021460022002500F037F840F287
:100D00009C00C2F2000004602846B0BD82B0002002
:100D100043F640010190C4F202014A6842F4804265
:100D20004A604A6802F480420192019A0090086881
:100D300040F080500860086800F0805000900098F3
:100D400002B07047002848BF7047C1B200F01F00D2
:100D5000012202FA00F04EF20012CEF2000242EA44
:100D6000D10121F0030108607047000010B54EF674
:100D70000C5CCEF2000CDCF80030C3F3022E8EF0D7
:100D80000704042C28BF0424BEF103034FF0FF3EE8
:100D90000EFA04F438BF0023A14399400EFA03F37E
:100DA0009A43114300F00F0200F160430901043A35
:100DB00003F564436244002848BF02F10C03197034
:100DC00010BD00004EF60C51CEF200010A684FF63D
:100DD000FF031A4060F30A2242F0806040F0FD7089
:100DE000086070472DE9F041002800F08B8043F641
:100DF0000808C4F202080446D8F8F8030D4600F0CB
:100E00000700884207D288F8F853D8F8F80300F0B2
:100E10000700A84276D12068810717D5410705D57C
:100E2000D8F8001041F4E051C8F80010010705D5CA
:100E3000D8F8001041F46041C8F80010D8F800104C
:100E4000A26821F0F0011143C8F80010C0073FD19B
:100E5000D8F8F80300F00700A84207D988F8F8533B
:100E6000D8F8F80300F00700A8424BD120684107EA
:100E700007D5D8F80010E26821F4E0511143C8F812
:100E80000010000708D5D8F80000216920F4604060
:100E900040EAC100C8F8000000F07CF8D8F8001063
:100EA0004FF6B862C1F30311C0F60202515C40F282
:100EB000080220FA01F140F29C00C2F20000006832
:100EC000C2F200021160FFF7F9FE0020BDE8F081D8
:100ED0006068811E022907D258F8081C89015CBF8E
:100EE0000120BDE8F08110E0012807D158F8081C66
:100EF00089035CBF0120BDE8F08106E058F8081CBA
:100F0000890702D40120BDE8F081D8F8001021F053
:100F100003010843C8F80000FFF7A0FE064641F2AF
:100F2000883700BFD8F80000616800F00C00B0EB13
:100F3000810F8DD0FFF792FE801BB842F2D90320BB
:100F4000BDE8F08140F2080043F60801C2F200005B
:100F5000C4F20201006809684FF6C862C1F3822139
:100F6000C0F60202515CC8407047000040F2080021
:100F700043F60801C2F20000C4F2020100680968E9
:100F80004FF6C862C1F34231C0F60202515CC8405C
:100F90007047000010B543F60404C4F20204606810
:100FA00000F00C0008280AD0042819BF42F20040C3
:100FB000C0F2F40047F64000C0F27D1010BD20687A
:100FC00021682368490247F64001C0F27D1100F014
:100FD0003F02C3F388105CBF42F20041C0F2F4014B
:100FE000A1FB00010023FFF73FF921680222C1F3B2
:100FF000014102EB4101B0FBF1F010BD2DE9F041E0
:1010000082B0002868D00446007843F60006C00786
:10101000C4F202060BD0B06800F00C00042840F0C7
:101020009C803068800302D56068002854D0207806
:1010300080071AD5B06810F00C0F09D0B06800F026
:101040000C00082840F0A3807068400200F19F80E7
:101050003068800702D5E06801283DD130682169F9
:1010600020F0F80040EAC10030602078000737D453
:10107000207840074BD4A56955B3B06800F00C0048
:10108000082840F0B780012D26D07068E16900F48F
:1010900080028A4220D1216A00F03F028A421BD19D
:1010A00047F6C071626A0140B1EB821F14D1A16A98
:1010B0004FF6FF73C903994300F44032A1F5803124
:1010C0008A4209D1E16A00F07060B0EB016F03D190
:1010D000002002B0BDE8F081012002B0BDE8F0813F
:1010E0006069002840F20000C4F2472072D001215C
:1010F000C0F8801EFFF7B2FD054600BF706F800785
:10110000B6D4FFF7ABFD401B0228F7D9D7E0306C0F
:1011100010F080580AD100200190306C40F08050CF
:101120003064306C00F080500190019847F2000765
:10113000C4F200073868C0053ED4386840F48070B7
:101140003860FFF78BFD05463868C00534D4FFF7DB
:1011500085FD401B0228F7D9B1E0B06800F00C0013
:10116000082803D1706840023FF55BAF6068B0F5B6
:10117000803F07D0B0F5A02F40F08B80306840F45E
:1011800080203060306840F4803030608BE0E06870
:10119000002851D00020C4F2472001210160FFF750
:1011A0005DFD0546306880073FF558AFFFF756FDF7
:1011B000401B0228F6D982E0A068012805D0052846
:1011C0004ED1306F40F004003067306F40F00100C6
:1011D00030674FE00021C0F8801EFFF73FFD054655
:1011E000706F80077FF544AFFFF738FD401B022882
:1011F000F6D964E00027C4F2472700203866FFF7DD
:101200002DFD022D05460BD1306880015BD5FFF71F
:1012100025FD401B02284FF00300F5D959E700BF18
:10122000306880017FF554AFFFF718FD401B02289E
:101230004FF00300F4D94CE70020C4F2472000210E
:101240000160FFF70BFD0546306880077FF50DAFA5
:10125000FFF704FD401B02284FF00300F4D938E7E4
:10126000316F002821F001013167316F21F0040155
:10127000316749D0FFF7F2FC054641F2883700BFDD
:10128000306F800751D4FFF7E9FC401BB842F7D913
:1012900015E03168002821F480313160316821F493
:1012A000802131604AD0FFF7D9FC054630688003C1
:1012B0003FF5BDAEFFF7D2FC401B6428F6D90320F2
:1012C00002B0BDE8F08104F11C052FCD084340EACF
:1012D0008210D9034FF6FF729143A1F5803140EAA5
:1012E00005600843706001203866FFF7B7FC0446CC
:1012F000306880013FF5ECAEFFF7B0FC001B022820
:101300004FF00300F4D9E4E6FFF7A8FC054641F2EC
:10131000883700BF306F800707D5FFF79FFC401B61
:10132000B8424FF00300F5D9D3E6B8F1000F7FF4CF
:10133000A2AE306C20F0805030649CE6FFF78EFC4B
:10134000054600BF306880037FF571AEFFF786FC6D
:10135000401B64284FF00300F4D9BAE670B538B1E9
:101360000446406A30B10020206104F1140007E017
:10137000012070BD6068B0F5827F03D004F11C00CD
:10138000002101600026A66294F8510020B9204691
:1013900084F8506000F03CF8022084F8510094E892
:1013A0000F0001F48271056802F4044225F0400543
:1013B0000560114403F400622369114403F0020242
:1013C0006369114403F00102A369E569114403F460
:1013D0000072114405F03802256A114405F08002BC
:1013E000A56A114305F4005211430160626A0421A9
:1013F00001EA134102F0100211444160C16921F475
:101400000061C1610120666584F85100304670BDFD
:1014100080B586B0016843F60000C4F20000814246
:1014200001D006B080BD002143F630020191C4F224
:101430000202136900F5F43043F480431361136929
:1014400003F480430193019B0191116841F4807181
:101450001160116801F48071019101990E210191CF
:101460000221CDE9021104910521059101A9FFF79F
:1014700017FB06B080BD00002DE9F04383B00446A1
:1014800090F85000012803D1022003B0BDE8F0839A
:1014900001201E4615460F4684F85000FFF7DEFB7C
:1014A00094F85110814601290AD06068B0F5827F16
:1014B00070D1A06800284FF0020008BF04296AD14B
:1014C000002F4FF0010018BF002D64D0002E62D015
:1014D00094F85100002104281CBF052084F8510015
:1014E0006165A563E687A6872763E6862068A686EA
:1014F000216461640168490603D4016841F0400138
:1015000001606168731EE268B1FA81F1B3FA83F396
:10151000DDF8288049095B09B2F5006F41EA030153
:1015200042D131B137F8021BC1602763E08E013828
:10153000E086012608F10105E08E10B9E08F002851
:101540006ED02068816889070CD5E18E51B1012EDB
:1015500008D1216B002631F8022BC2602163E18E95
:101560000139E1868168C9070AD0E18F41B1C068BD
:10157000A16B012621F8020BA163E08F0138E087FF
:10158000FFF76CFB002DD7D0A0EB09004045D3D36B
:10159000032000E00220012184F85110002184F88A
:1015A000501003B0BDE8F08339B139780173206B76
:1015B00001302063E08E0138E086012608F1010544
:1015C000E08E08B9E08F58B32068816889070ED58E
:1015D000E18E61B1012E0AD1216B002609780173D9
:1015E000216B206801312163E18E0139E186816838
:1015F000C9070BD0E18F49B1C068A16B0126087003
:10160000A06B0130A063E08F0138E087FFF726FB75
:10161000002DD5D0A0EB09004045D1D30320BAE777
:1016200040F20800C2F20000006849F68171C1F280
:101630005E61A0FB0101480D4FF47A7148430290AE
:101640006068B0F5827F0ED12046802142464B462D
:1016500000F04AFB58B3606D40F020006065202028
:101660006065012097E7029808B30298013802905C
:101670002068806800061AD50298C0B10298013827
:10168000029020688068000611D5029878B102980F
:101690000138029020688068000608D5029830B1B1
:1016A000029801380290206880680006DBD4A068A8
:1016B00000284FF000007FF46EAF01902168CA68E7
:1016C000019289680191019965E70000002804BF33
:1016D0000120704770B5044690F8490015460E4643
:1016E00028B9002084F84800204600F01DF8206842
:1016F00004F10801FEF7BAFF2068A2683146FEF740
:10170000F9FFD4E90102236B2946FEF78DFF20681B
:10171000A16850F8212042F0010240F82120012068
:1017200084F84900002070BD2DE9F04385B040F2F7
:101730000C10C2F200000178002945D1012101708E
:101740004FF0000943F63800CDF80090C4F20200D3
:10175000026840F6004442F0010202600068C4F2F0
:10176000020400F00100009000986D4600914FF0D7
:10177000020803270C2604F500602946CDE90189FB
:1017800003970496FFF78CF94FF680708DE80103FC
:1017900004F580602946CDE90376FFF781F94CF224
:1017A00033708DE8010320462946CDE90376FFF723
:1017B00077F94FF480508DE8010304F54060294625
:1017C000CDE90376FFF76CF905B0BDE8F0830000C2
:1017D000411E0020B0EB116F1CBF012070474EF27C
:1017E0001002CEF2000251604EF62351CEF20001FB
:1017F000F0230B700721906011607047002804BF30
:101800000120704710B5044690F83D0028B900202B
:1018100084F83C00204600F021F8242084F83D00A4
:101820002068C16821F40051C160204600F02AFB05
:101830002068016921F490410161416921F02A0188
:101840004161C16841F40051C16000202021206441
:1018500084F83D1084F83E1010BD00002DE9F043DF
:1018600085B00446016841F20000C4F201008142E3
:1018700002D005B0BDE8F083002643F630010096A3
:10188000C4F202014A6946F2404842F010024A613D
:101890004A6900F5704002F010020092009A00962A
:1018A0000A68C4F2020842F001020A60096801F005
:1018B0000101009100994FF4C06100910221CDE92E
:1018C000011603210391072104916946FFF7E8F807
:1018D00040F23445C2F200054FF000674FF48069D2
:1018E0002846C5E90087C5E90266C5E90496C5E949
:1018F0000666C5E90866FEF7FDFF002818BFFEF77B
:101900008DFEA563AC6340F2944508F17800C2F205
:1019100000054021C5E9000705F1080080E8420202
:101920002846C5E90566C5E907666E62FEF7E2FF6F
:10193000002818BFFEF772FE6563AC6305B0BDE812
:10194000F083000010B54FF0D84C4FF02A0E02245F
:10195000ACF800E04FEA102EC6F60044C0B2A4F87E
:1019600000E02080100A2080D0B220802B20ACF82C
:101970000000080A2080C8B22080180A2080D8B24F
:10198000208010BD80B582B00020019043F6300069
:10199000C4F202000168002241F480010160006885
:1019A000002100F48000019001983A20FFF7DEF951
:1019B0003A20FFF7C7F9462000210022FFF7D6F9A9
:1019C000462002B0BDE88040FFF7BCB980B588B0C2
:1019D00040F24C50C2F200004FF0204240F204139B
:1019E000CAF200034FF0060C002180E80C104FF4FF
:1019F0008052C0E90A21022201920F22029204229F
:101A00004FF0100ECDE903211122C0E90311C0E906
:101A100005E1C1614164C0E90811C0E90C118163AD
:101A2000CDE9062101A90022CDF814E0FFF74EFE12
:101A3000002818BFFEF7F2FD08B080BD2DE9F04187
:101A400086B0002643F63000CDE904660096C4F265
:101A50000200016841F6000441F0200101600168C4
:101A6000C4F2020401F0200100910099009601687F
:101A7000002241F08001016001684FF4004801F04C
:101A80008001009100990096016841F01001016009
:101A9000016801F01001009100990096016841F081
:101AA00008010160016801F00801009100990096A9
:101AB000016841F040010160016801F040010091BE
:101AC00000990096016841F001010160016801F090
:101AD0000101009100990096016841F48071016054
:101AE00000684FF4004100F4807000900098204698
:101AF000FFF7AEF8802001904FF4441001AD029042
:101B00000127204629460397FEF7CAFF20462946AB
:101B1000CDE90187CDE90366FEF7C2FF172000215A
:101B20000022FFF723F91720FFF70CF906B0BDE8F4
:101B3000F081000080B540F2F44043F60001C2F2AB
:101B40000000C4F200014FF48272002380E80E000E
:101B500000F114014FF4007C4FF0280E81E808508A
:101B60000A21C0E90333C0E90833C0E90A31FFF7AD
:101B7000F5FB002808BF80BDBDE88040FEF74EBDE4
:101B800080B540F29C5041F20001C2F20000C4F264
:101B9000010100234FF00C0C4FF4E13280E80E00FD
:101BA000C0E90333C0E905C3C361FFF727FE00287E
:101BB00008BF80BDBDE88040FEF730BD2DE9F04F85
:101BC00087B041F60006C4F20206CDE90101002506
:101BD00030464FF4004100228DF80E50ADF80C5005
:101BE000FFF736F840F2F44740F20004C2F2000773
:101BF000C2F200044FF00A0A03AA38462146032322
:101C0000CDF800A0FFF738FC30464FF40041012228
:101C1000FFF71EF8BDF80D004FF4004190FA80F870
:101C2000304600228DF81250ADF81050FFF710F832
:101C300040F2030BC2F2000B04AA384659460323B4
:101C4000CDF800A0FFF718FC30464FF40041012208
:101C5000FEF7FEFFBDF811004FF4004190FA80F945
:101C6000304600228DF81650ADF81450FEF7F0FF04
:101C700005AA384621460323CDF800A0FFF7FCFB58
:101C800030464FF400410122FEF7E2FFBDF8150097
:101C90004FF4004100BA040D304600228DF81A506E
:101CA000ADF81850FEF7D4FF06AA3846594603236C
:101CB000CDF800A0FFF7E0FB30464FF400410122D1
:101CC000FEF7C6FFBDF8190004EB185100BA019ADF
:101CD000000D4908118000EB1950029A41080120BB
:101CE000118007B0BDE8F08F2DE9F04381B01E46AA
:101CF00090460D468146FEF7B1FF301A00EB08070B
:101D0000FEF7ACFF40F20801C2F200010968C1F31E
:101D1000CB3179430091D9F800108A682A40AA4251
:101D20001AD1064608F1010404E000BF8868284083
:101D3000A84211D1002CF9D0FEF790FF801BB842C9
:101D40000ED2009800990028A1F101010091D9F864
:101D5000001008BF0746E9E7002001B0BDE8F083A6
:101D6000D9E900014268B1F5827F22F0E0024260C9
:101D70000BD1D9F80810B1F5004F02D0B1F5806F42
:101D800003D1016821F040010160D9F82810B1F5B4
:101D9000005F07D1016821F400510160016841F43E
:101DA00000510160012089F85100002089F850009D
:101DB000032001B0BDE8F083FEF756BFB0B592B086
:101DC000002443F64000CDE90A44CDE908440594D7
:101DD000CDE90344CDE901440094C4F20200016856
:101DE000022541F080510160006800F080500090B1
:101DF000009847F200000094C4F20000016841F42A
:101E000080410160006800F480400090009801204B
:101E100006904FF4803007904FF480000D90192009
:101E20000E904FF4A870CDE90F050420119006A87C
:101E30000C95FFF7E3F820B1EFF3108072B600BF06
:101E4000FEE70F20CDE901054FF4A05004904FF4B8
:101E50008050059001A805210394FEF7C3FF20B12F
:101E6000EFF3108072B600BFFEE712B0B0BD000005
:101E70004EF68850CEF20000016841F47001016016
:101E80007047000010B504460068D4E902C2236917
:101E9000016921F4405111430161626943EA0C0177
:101EA000E3691143C268194349F20C639A43114331
:101EB000C1604169A26921F4407141F200431143BC
:101EC00040F48062C4F201039A42416102D1FFF7FB
:101ED0004DF801E0FFF736F8E16963681922B1F5C2
:101EE000004FA0FB020121D15A00DB0FFEF7BCF925
:101EF00048F21F51C5F2EB11A0FB01235A094FF61E
:101F00009C73C0F6FF7303F1805302FB030032237E
:101F100003EBC000A0FB01014FF4F87000EA1110C0
:101F200000EB0210C1F3421108441DE09A009B0F20
:101F3000FEF79AF948F21F51C5F2EB11A0FB0123FD
:101F40005A094FF69C73C0F6FF7302FB030032235D
:101F500003EB0010A0FB0101F02000EA511000EBA0
:101F60000210C1F3431108442168886010BD0000CD
:101F700070B540F24814C2F200042046442101F03A
:101F800065F844F62900C0F600001E21002226F064
:101F9000C5F840F25416C2F2000640F2E425306063
:101FA000C2F2000501202870204601F01FF801460A
:101FB000306811B126F0D4F901E026F0C1F9002013
:101FC000287070BD2DE9F041B1F900C0B2F904608C
:101FD000B44511DCB1F904E0B2F90040A6450BDBD1
:101FE000B1F90250B2F90680454505DCB1F9067039
:101FF000B2F902309F4203DAFF2358B2BDE8F08104
:10200000A44509DBAB4207DCB64505DC474503DCEC
:10201000002358B2BDE8F0815C1B24B2012CA7EB71
:1020200005060ADBA0F800C04580A0F804E0C380E4
:10203000B2F806804D88012300E00023A6EB0804D7
:102040002C4424B2012C14DBB1F906400FFA88F7B6
:10205000A7420EDA0C888F88354400EBC30620F8BF
:102060003340A6F80280B780F5804D88B2F806802C
:102070000133B2F902402DB2AC42C8BF2546B1F9D6
:1020800006600FFA88F7B2F800800C88B742B8BF34
:102090003E46A8EB04073FB2012FAEEB0C0C0DDB64
:1020A000771B3FB2012F09DB00EBC30720F8334059
:1020B0007D80A7F80480FE800C8801339188ACEB0A
:1020C0000102224412B2012A09DB04EB0C0200EBEC
:1020D000C30720F8331001337D80BA80FE8058B2E8
:1020E000BDE8F08170B50346B1F90000B2F90040D7
:1020F000B1F902C0B2F90250B1F904E0B2F90460DA
:10210000A042B1F90610B2F90620C8BF0446AC459A
:102110001C80C8BF6546B6455D80B8BF7646914213
:102120009E80B8BF0A460020B4424FF00001D8BFDD
:1021300001219542D8BF01200840DA8070BD00001F
:102140002DE9F04381B00C46B0F90070B1F90010F0
:102150008F423DDBB0F90260B4F902108E4237DBEA
:10216000B0F90490B4F90410894531DCB0F9068067
:10217000B4F9060080452BDC15466AB36946204653
:102180002A46ADF80070ADF8026000F097F8F8B19B
:10219000694620462A46ADF80090ADF8026000F08E
:1021A0008DF8A8B1694620462A46ADF80070ADF812
:1021B000028000F083F858B1694620462A46ADF8FF
:1021C0000090ADF8028000F079F801B0BDE8F0832E
:1021D000002001B0BDE8F083012001B0BDE8F0832C
:1021E000B0F90020B1F904309A4213DCB0F90420B0
:1021F000B1F900309A420DDBB0F90220B1F9063096
:102200009A4207DCB0F90600B1F902108842A4BF77
:1022100001207047002070472DE9F04381B00C4643
:10222000B0F90460B1F900108E4211DBB0F906700C
:10223000B4F902108F420BDBB0F90080B4F904103E
:10224000884505DCB0F90290B4F90600814503DD4C
:10225000012001B0BDE8F0831546EAB16946204689
:102260002A46ADF80080ADF8029000F027F898B942
:10227000694620462A46ADF80060ADF8029000F0AD
:102280001DF848B9694620462A46ADF80080ADF8E9
:10229000027000F013F818B1002001B0BDE8F0831F
:1022A000694620462A46ADF80060ADF8027000F09D
:1022B00005F880F0010001B0BDE8F0832DE9F041A0
:1022C000B1F90030B0F90040A3420DDBB0F904E0F1
:1022D000734509DCB1F902C0B0F902108C4503DB8B
:1022E000B0F90650AC4502DD0020BDE8F081012ABE
:1022F00052DBAEEB0400013086B200EBD63006B202
:10230000681A013087B200EBD73007B24FEA66088F
:102310007810B8EB670FB8BF70109042A8BF104696
:10232000021917B24218BB4216B2D8BFB44515DD28
:102330002A1ABB4212B22ADC944528DB391809B2AA
:10234000091B01EBD1714F1004EB6106604402EBF5
:1023500061019B1B401A07FB07F10EE0384400B2F5
:10236000001B00EBD070421004EB600701EB600033
:10237000DB1BACEB000002FB02F113FB03F210FBD2
:10238000002200208A4298BF0120BDE8F081AEEB18
:10239000000424B2A34202DA0120BDE8F081944592
:1023A00016DAB445F8DC201A02B2AEEB020202EBF8
:1023B000D27200EB6200181A01EB62015710ACEB0D
:1023C000010110FB00F007FB07F211FB010113E014
:1023D000211A0CB2AEEB040707EBD77701EB6701CC
:1023E000591A604402EB67027E10801A11FB01F15A
:1023F00006FB06F210FB00110020914298BF01205D
:10240000BDE8F08170B5B1F90030B2F90040B1F922
:1024100002C0B2F90250B1F904E0B2F90460A3427B
:10242000B1F90610B2F90620B8BF1C46AC450480CD
:10243000B8BF6546B6454580C8BF7646868091429E
:10244000C8BF0A46C28070BD2DE9F04F93B0044664
:1024500025F000FE00210A9104900CB1E06801E033
:102460000DF0ECFB40F2183B0169C2F2000BCBF817
:102470000000084621F00EFFDBF80010486918B193
:1024800021F008FFDBF80010C86921F003FFDBF83A
:102490000000006A21F0FEFEDBF80000016900295F
:1024A00000F0DE80B0F85011002959D000274FF01D
:1024B00001080DF12C09012204E000BF01378F4211
:1024C0000A464DD2C31993F83031002BF6D1002AB9
:1024D000F4D0002507E000BFDBF800000135B0F8BC
:1024E00050118D42EAD2411991F830110029F3D1EF
:1024F000BD42F1D000F1300101EBC70001EBC50195
:10250000FFF76EFE0028E7D0DBF80000303000EB6C
:10251000C70100EBC5024846FFF774FF484609F0C3
:102520005BFEDBF80010044601EBC700303009F019
:1025300053FEDBF80010064601EBC500303009F011
:102540004BFE30448442C7D2DBF80000DDE90B23A8
:1025500000EBC70128440A634B6380F83081BBE776
:1025600001680A7CD20700F0A780C9684968002981
:1025700000F0A28000F5AC7000F0D4FD002840F01F
:102580009B80DBF800000168C9680B688A689A4282
:1025900008BF4B68CDE908320DF06AFBDBF800108C
:1025A0000790B1F850210020002ACDE91100CDE9B3
:1025B0000F00CDE90D00CDE90B0057D00BAEA6F111
:1025C000080A4FF0000907E0DBF8001009F10109E3
:1025D000B1F85001814549D201EB090090F8300172
:1025E0000028F1D101F5AC7000F000FD0028EBD01F
:1025F00004460CE0DBF80000214600F5AC7000F06A
:102600009BFD20461BF01AF9002D2C46DCD0DBF890
:102610000000214600F5AC7000F00AFDDBF8001068
:10262000054601EBC90000F1300230462146FFF7B4
:10263000C9FC411CE8D00128DCDB5FFA80F8574672
:10264000DBF80000214600F5AC7000F021FD57F8E2
:10265000081FB8F101087A6801604260F0D1C9E74B
:102660000021A0F8501113B0BDE8F08F01F5AC7057
:1026700000F0BCFC0DF11C0898E86001B0B1044604
:10268000DBF80000414600682A46C06B2346876B92
:10269000CDE900650294B847DBF80000214600F55B
:1026A000AC7000F0C5FC04460028E9D1DBF800005E
:1026B00000F5AC7000F06AFCDBF800104EF6B04894
:1026C000B1F85091C2F200080020B9F1000FC8F82B
:1026D000000000F0B281B9F1010F1ADB01EB090033
:1026E00090F82F21C2B1B9F1020F12DB90F82E2120
:1026F000AAB1B9F1030F0CDB90F82D2192B1B9F119
:10270000040F06DB90F82C01A9F104090028E2D19E
:102710000AE04FF0000907E0A9F1010904E0A9F17E
:10272000020901E0A9F103090868426B1AB1904758
:10273000DBF800100868C068826922F0010282613B
:102740000868C068826922F002028261B1F85021F3
:1027500091F82800002A40F0040281F8282000F0B7
:1027600068810024CDF814901CE08169554662F31D
:10277000410181613046B56026F08EFFDBF8000034
:1027800000EBC400303009F027FDD8F800100844F1
:10279000DBF80010C8F80000B1F8500101348442A1
:1027A00080F0FC80081990F830010028F4D14C45E5
:1027B00005D10868C068826942F001028261086838
:1027C00001EBC40AC068826922F0020282610868D3
:1027D000C268C66B92683260007C80070AF13000E4
:1027E0001FD0824608460DF043FADBF80010451E64
:1027F00008460DF093FA013807B22BB20BA800215E
:10280000002200970BAD09F021FDDBF80000756098
:102810000168D1E9030182698907A6D542F0020166
:10282000A7E73AF8328F524632F8029F5546CDE973
:102830000820008835F9047F079008460DF06EFAED
:102840008742069401DA2C8804E0DBF800000DF0E2
:1028500065FA441EDBF8001007980968A9EB000030
:10286000CB680130DB68A7EB080200B20132B3FB92
:10287000F0F089690FFA82F84045B8BF804619B375
:10288000002047460B90ADF8300000BF7D1EDBF8FE
:102890000000ADF8325000680BA982699047BDF97D
:1028A0003200BDF82E10411A013109B2884503DA11
:1028B0002FB2002FEADC05E039B2012902DB00F17A
:1028C000010801E04FF00008BAF9000025B208EB5A
:1028D00000014A1E0BAFAA4280B202DD4FF0000990
:1028E00035E0CDF81C800AE0304626F0D5FE07988A
:1028F000444600FA8AF14A1EAA42504626DC099B49
:102900008A461B880FFA82F9ADF82C30089B4D459A
:102910001B88ADF82E00DBF80000ADF83030ADF8C4
:1029200032207760B7600068A2B2C068A0468168B4
:102930003160BCBFADF83240A1461FFA89F18A422E
:10294000D2D1816941F002018161CDE750464EF656
:10295000B0481FFA89F1A2B2C2F200088A421AD026
:1029600009990988ADF82C1008990988ADF82E004E
:10297000DBF80000ADF83010ADF832407760B7609A
:102980000068C06881683160816941F0020181613D
:10299000304626F081FEDDE90594EFE691F8282027
:1029A000002802F0FB0281F8282046D00868027C4B
:1029B000D2071ED0C0684068D8B130244FF4987553
:1029C00008E000BFB1F85001A5F22F12083401351C
:1029D00082420ED2485D0028F4D101F5AC7000F0BF
:1029E00087FBDBF800100A1952680B59426003603C
:1029F000E8E701F130004FF480711BF0D9FBDBF800
:102A00000000202100F598701BF0D2FBDBF80000DD
:102A10000021A0F85011049825F016FB0A90DBF86D
:102A200000000068436A43B10A99D8F8002098472B
:102A300003E000F0FB0081F828001AF03DFD00F0F3
:102A40004DF900F007F94EF69846C2F20006746997
:102A5000E4BB0DF0F3F80DF023F919F043F87F21F2
:102A60000022044621F048FB20460021002221F0EC
:102A700037FB20464FF6FF71002221F073FB204602
:102A80000321002221F062FB20460321002221F0D5
:102A90004BFB20460321002221F04CFB2046032162
:102AA000002221F04DFB20460321002221F054FB9F
:102AB00044F20A01C0F6030120461AF023F9204629
:102AC0000621002200231CF0D3FB7461306825F03E
:102AD000BBFA80084A280DD8D8F8000041F28931A5
:102AE000884236D30A98D6E901120844511CC6E937
:102AF00001012EE025F0AEFADBF8001030604968E5
:102B000029B108684FF47A71B1FBF0F500E0212596
:102B1000B168284641B170684FF47A72002808BF46
:102B200001205143B1FBF0F00021C6E90111A84298
:102B300038BF0546D6E9031028443061481CF060D0
:102B400025F012FBC0F1640335A120462A461AF095
:102B500017F94EF69445C2F200052C68BCBB0DF087
:102B60006DF80DF09DF818F0BDFF7F21002204469E
:102B700021F0C2FA20460021002221F0B1FA2046BD
:102B80004FF6FF71002221F0EDFA204603210022CA
:102B900021F0DCFA20460321002221F0C5FA20466C
:102BA0000321002221F0C6FA20460321002221F051
:102BB000C7FA44F20A01C0F6030120461AF0A2F84F
:102BC00020460421002200231CF052FB2C604EF60C
:102BD0009045C2F20005286825F036FAB0F5967FD8
:102BE0001AD925F037FA28600BA81AF055FE0B9871
:102BF0000D999DF84570401A40F2FE31820A084056
:102C00004AF2A10148439DF84410830D009108A1A8
:102C1000204601971AF0B4F813B0BDE8F08F00BF5A
:102C20002575204650530A2575252520435055000B
:102C300025752E2575206B42207573656420282527
:102C400064202525290A2564252520667261672EC2
:102C50000000000010B540F25814C2F200042068D1
:102C6000002818BF1AF0EAFD20461C211BF0A0FA2C
:102C7000E069002818BF1AF0E1FD04F11C001C21D6
:102C80001BF096FAA06B002818BF1AF0D7FD04F1CC
:102C900038001C211BF08CFA606D002818BF1AF058
:102CA000CDFD04F154001C21BDE810401BF080BA9A
:102CB00040F22841C2F20001096804E00A7E42F0B5
:102CC00001020A764969002908BF70474A688242B2
:102CD000F4D00A688242F5D1F0E7000070470000A6
:102CE00040F25420C2F20000042100F0AFB900000D
:102CF00040F26420C2F20000202100F0A7B90000D9
:102D00002DE9F04F85B00E9E1D46002B834608BF6F
:102D1000B6F5807F69D0DDF83C800023019301A8DF
:102D2000ADF80810CDF80A30ADF80E20ADF810104F
:102D3000ADF81220294632464346071D00F1080926
:102D400000F10C0A21F0FCFA384629463246434687
:102D500021F0F6FA484629463246434621F0F0FA79
:102D6000504629463246434621F0EAFABDF904109E
:102D7000BDF90830BDF90C60BDF9104099421F46FD
:102D8000BDF90620BDF90A00B8BF0F46A642254688
:102D9000B8BF3546AF42B8BF3D46AF1E9942ABF80B
:102DA0000070C8BF0B46A642C8BF3446A342C8BF86
:102DB0001C46BDF90E70BDF9125082420346B8BFE1
:102DC0001346AF422E46B8BF3E46B342B8BF1E467A
:102DD0008242C8BF1046AF42C8BF3D46A11CB31EC9
:102DE000A842C8BF0546A81C04E00023ABF8003089
:102DF0000139501EABF80230ABF80410ABF80600F6
:102E000005B0BDE8F08F0000F0B581B016460C4665
:102E1000074625F01FF9A2B240F27024C2F2000466
:102E2000054620463946334617F024FE58B1E0697E
:102E30000021A16278B9284625F006F9002808BFCC
:102E40000120E06107E020462C211BF0B1F94FF092
:102E50000040A0620024204601B0F0BD10B540F251
:102E60009C24C2F200042046142100F0EFF8204612
:102E700000F0F4F8B0B1142104461BF099F949F6BA
:102E8000FD60C0F6010049F6ED714AF2753249F66F
:102E9000C563C0F60101C0F60102C0F601030FC40C
:102EA00010BD00BFFEE70000F0B585B004460D463A
:102EB00020B90CF0C3FE0446002853D020460CF085
:102EC00045FF00284ED094F8280040074AD400203F
:102ED000CDB3029020460CF0CBFE0138ADF80C00CB
:102EE00020460CF01BFF0138ADF80E00684602AA20
:102EF0002946FFF7F7F8A8B32068017C890726D494
:102F000082690AB169469047B4F8500160B304F190
:102F1000300500276E4600BF304629460022FFF7E5
:102F20000FF9F8B9B4F8501101378F4205F10805CF
:102F3000F2D31F2919D9DDE902020021A4F85011AA
:102F40002063626317E0A4F8500105B0F0BD029859
:102F5000039920630120A4F850016068616308B1FF
:102F600025F0FEF905B0F0BD0021DDE9002304EBFA
:102F7000C10002634363606801310028A4F8501166
:102F800018BF25F0EDF905B0F0BD0000F0B581B037
:102F900010B345680446FDB1002707E0002BA3608D
:102FA00014BF9F5067601AF049FCADB1D4E900131B
:102FB00028460A1DAD5883420AD0A6684358864267
:102FC000ECD0002B18BF9D5055B16B50EBE700BF04
:102FD00065601DB16F50E6E701B0F0BD0021A16052
:102FE00001B0BDE8F0401AF029BC0000002814BF71
:102FF0004068002070470000B0B14268A2B100688C
:10300000011D01205258002A08BF704752586AB16A
:103010005258002A04BF0230704752580430002A28
:1030200004BF01387047EDE700207047013070475A
:1030300000680844406870470068085870470000FE
:10304000002814BF80680020704700000331002270
:1030500021F00301C0E900128260704710B50446F8
:10306000006808301AF004FA002808BF10BD216873
:1030700000224250626843185A606268002A18BFF2
:103080005050A1686060002908BFA06010BD00001A
:1030900070B5044600284FF0000012D00D4681B1F3
:1030A000D4E9000608301AF0E3F9AE420AD0E0B1E4
:1030B00021686A580B1D002A18BFD0504250685032
:1030C000C55070BD4FF0000278B12168425062686F
:1030D00043185A606268002A18BF5050A1686060A7
:1030E000002918BF70BDA06070BD002070BD000039
:1030F00010B50446006808301AF0BAF9002808BF75
:1031000010BD22680023111D4350A3688350A2689C
:10311000002A18BF50506168A060002908BF606095
:1031200010BD000028B1416809B9806808B10020CD
:10313000704701207047000080B5002808BF80BD9F
:1031400042688A4213D0D0F800E0826851F80E300D
:103150008A4217D00EF1040C51F80C00002B18BF56
:1031600043F80C00002818BF40F80E3080BD0268FC
:10317000114449680029416007BF00218160002097
:10318000885080BD0021002B836018BF0EEB030028
:10319000416080BD10B50446006804E00068002866
:1031A00008BF10BD20608268002AF7D021469047F2
:1031B0002068F3E78068002814BFC08A002000B2AE
:1031C00070470000806800280EBF0020807E8009C4
:1031D00070470000F0B581B01446A8B162220646DF
:1031E0000F461EF0A9FA88B10546006880B1304646
:1031F000394663221EF0A0FA01060BD02B68A1B25B
:10320000C2B22846984706E0204604E0204602E085
:10321000204600E02046C0EA040001B0F0BD0000F6
:103220002DE9F04F91B00446408CDDF868B040F0D5
:103230000400608422841646BBF8082020461F46FE
:103240008A461EF079FA2784BBF8082005462046F6
:1032500051461EF071FA618C814621F004004D4503
:10326000608403D102D111B0BDE8F08F2684BBF891
:103270000820204651461EF05FFA804620465146FF
:10328000278406F063FC0068BBF80810424623F070
:103290008DF8BBF808000B2828D147F6FF76B0451B
:1032A00018BFB14522D120461EF08AFB81B200EB47
:1032B000D13000B2451020461DF0ECFB81B200EB8E
:1032C000D13000B2B0454FEA600005D1691C00F171
:1032D00001084145B8BF884647F6FF71894505D1C9
:1032E000691C00F101094945B8BF894640F2B82080
:1032F000C2F20000FFF7B2FED0B3C0E90389046058
:103300000646BBF808006C46B0802046C6F808A008
:1033100008F0D2F94FF69500C0F6020001904FF682
:10332000C520C0F6020002904FF60520C0F602004C
:1033300003900020CDE90800FF200A90BBF80000B0
:10334000BBF802100B904842DBF80C100C909DF873
:1033500042000791DBF8101000F0FE008DF84200EB
:1033600020460096069108F027FA11B0BDE8F08FCC
:10337000FEE7000040F2B820C2F200001421FFF77F
:1033800065BE00002DE9F04782B00446408C10F481
:10339000FC7F00F026816FEA01086FEA02094FF016
:1033A000000A01AD002709E04FF0020A608C00BF5F
:1033B0000137C0F3C5018F4280F01581E16801EB50
:1033C000C70252689301F3D492B212EA080302EAE8
:1033D0000902B2FA82F24FEA521218BF0123534097
:1033E000E6D151F83760102130462A4622F05AFDC6
:1033F000002840F0F380304611212A4622F052FD89
:10340000002840F0EB80304612212A4622F04AFD87
:10341000002840F0E380304613212A4622F042FD86
:10342000002840F0DB80304615212A4622F03AFD84
:10343000002840F0D380304614212A4622F032FD85
:10344000002840F0CB8030460A212A4622F02AFD8F
:10345000002840F0C38030466B212A4622F022FD2E
:10346000002840F0BB8030466C212A4622F01AFD2D
:10347000002840F0B380304601212A4622F012FD98
:10348000002840F0AB80304604212A4622F00AFD95
:10349000002840F0A380304602212A4622F002FD97
:1034A000002840F09B80304603212A4622F0FAFC97
:1034B000002840F09380304605212A4622F0F2FC95
:1034C000002840F08B80304606212A4622F0EAFC94
:1034D000002840F08380304632212A4622F0E2FC68
:1034E00000287BD130466E212A4622F0DBFC0028E2
:1034F00074D130466D212A4622F0D4FC00286DD1CB
:10350000304669212A4622F0CDFC00287FF44CAFDA
:1035100030466A212A4622F0C5FC00287FF444AFD9
:1035200030466E212A4622F0BDFC00287FF43CAFD5
:1035300030466D212A4622F0B5FC00287FF434AFD6
:10354000304637212A4622F0ADFC00287FF42CAF0C
:10355000304638212A4622F0A5FC00287FF424AF0B
:10356000304635212A4622F09DFC00287FF41CAF0E
:10357000304640212A4622F095FC00287FF414AF03
:10358000304645212A4622F08DFC00287FF40CAFFE
:10359000304641212A4622F085FC00287FF404AF02
:1035A000304642212A4622F07DFC00287FF4FCAE02
:1035B000304643212A4622F075FC00287FF4F4AE01
:1035C000304649212A4622F06DFC00287FF4ECAEFB
:1035D000BAF1000F08BF4FF0010AE7E64FF0030A07
:1035E00001E04FF0000A5FFA8AF002B0BDE8F08710
:1035F00040F21830C2F20000006870474EF6984062
:10360000C2F200000021C0E90011C0E90211C0E9C6
:1036100004114EF69040C2F2000001604EF6944054
:10362000C2F2000001607047C0F30410072828BFF1
:10363000072070474FF6FF71884204BF1F20704774
:10364000002804BF00207047702805D84FF6E671A7
:10365000C0F60201085C704740F2C421C2F20001CA
:10366000096851B140F2C822C2F2000271381268F2
:1036700080B2824284BF085C70470020704700001F
:1036800080B540F2D420C2F200001821FFF7DEFC22
:103690004EF68840C2F200000121017080BD00009A
:1036A0002DE9F04190B3164604460D46FCF778FE2E
:1036B00040F20C08C2F20008D8F800200746204665
:1036C00029469047D8F800200546204431469047C7
:1036D000391A8D421AD820440CE000BF9F78EE1CA6
:1036E0008E42977088BFBDE8F081DB7804358D424B
:1036F000D3700BD8425D6B1C8B42625506D84319C0
:103700005F78AE1C62198E425770E7D9BDE8F08130
:103710002DE9F04140F21408C2F200081446D8F82E
:1037200000200F4619461D4606469047386040B1B6
:103730002868D8F800203044002190472060BDE878
:10374000F08100202060BDE8F08100002DE9F04FFD
:1037500091B01A9C0546002C1E460F461CBF002047
:103760002080A5B3002F4FF0000000F0778129786A
:10377000002900F073811B9810F0060F2BD0002059
:10378000012242F2014301E0397904300D2904D8C5
:1037900002FA01F71F4240F03A812F1879780D297B
:1037A00004D802FA01F61E4240F02E81B9780D29A4
:1037B00004D802FA01F61E4240F02881F9780D295A
:1037C000E2D802FA01F61E42DED003301FE10020EB
:1037D00011B0BDE8F08F0021012E0E91C0F22C81B6
:1037E00000F001000D900020069702922C464FF049
:1037F000000909900027019540F21400C2F2000070
:10380000026800201090204610A990478046E85D8D
:10381000109900280F9100F0B280B0B2CDE9037981
:103820000596079000234FF0FF304FF00009002667
:103830004FF0000B099D4746DA460A930C90CDF8ED
:103840002C90CDF820800BE00125DDE90F0A09F16D
:103850000109109014F80A004746002800F09180F2
:1038600040F21400C2F20000026820460FA99047FF
:103870000D99804679B1232F06D1002DE4D0022D79
:1038800012D10025E1E700BF012D0AD1202F0CBF86
:1038900002250125D9E7DA46069D0C9FDDF820B008
:1038A0000DE0BB46099506E04FF0230B012D06BF46
:1038B000002009900995CDF82C90069D0C9F284674
:1038C0005946424615F016FC01B2064402980029FA
:1038D000C8BF064431B2079A081A90425046D8BF72
:1038E0004FF0FF307A1C18BF3846BBF10A0F00F0CA
:1038F0005680BBF10D0F00F05280ABF59C4245F2B3
:10390000A6139A42C0F04B80ABF120023F2A00F28E
:103910002280DFE802F044202020202020202020E8
:10392000202044444420202020202020202020202B
:10393000444420202020202020202020202020203F
:103940002020202020202020202020202020202077
:10395000202020202044DDF840B0421C14F80B2029
:103960000A9B08BF0B460F99002A09F10109109123
:103970007FF460AFDA46C346CDE90A391AE0002188
:103980002AE0CDF82C90059EDDE903790C9A099583
:10399000C346501C14D0019D0A99F7B161E0BAF1F9
:1039A000000F07D1059EDDE90379421C05D1019D79
:1039B000002208E0059EDDE903790246501CEAD1A9
:1039C000019D0A9952460B9830B1BBF10D0F08BF0B
:1039D000B8F10A0F01D100BF109A89441AB32878B0
:1039E00017440A280E971ED00D281CD0E85D0D281C
:1039F00017D00A2815D0B0B1701A06B2012E05EB07
:103A00000704BFF6F9AE0EE0013000E002300029F5
:103A100018BF013014B34FF6FF71218011B0BDE81B
:103A2000F08F01370E97002F1A9C069F04D0002CB0
:103A300018BFA4F8009010E040F21400C2F2000099
:103A400002680EA9284690473CB10146384600223C
:103A500015F050FB8146A4F800900E9811B0BDE817
:103A6000F08F1A9CE3E700002DE9F04F83B00028A7
:103A700000F090801646002A00F08C800746304601
:103A80000D46FCF78DFC002800F084800446384683
:103A90000196FCF785FC814640F20C00C2F2000062
:103AA00002683846294609EB04060297904700EB66
:103AB000040C664513D2029914F003020844A4F1E1
:103AC000010143D0019E012A334613F8017B00F81F
:103AD000017B3FD11E460C4603295BD34BE0029984
:103AE000A4F1030E4A1E1519A4F1020A214600BFD3
:103AF00002EB090309EB010893F801B0A8F10107F3
:103B000005EB0906674586F801B0D4D312F80980A1
:103B100009EB0A07674505F80980CCD313F8018C37
:103B200009EB0E07674506F8018CC4D313F8023C75
:103B3000043906F8023C09EB0103043AAEF1040E25
:103B4000043D6345AAF1040AD2D2B4E7019E0329D9
:103B500020D310E07378022A00F8013B04D102362A
:103B6000023C032916D306E0B278033600F8012B95
:103B7000033C03290ED3311F043800BF11F8042F72
:103B8000043C00F8042F4A7842708A788270CA7820
:103B9000C270F3D103B0BDE8F08F00000378232991
:103BA0000BD1032B24BF00207047D9004FF0010C2C
:103BB0002CFA01F22CEA030108E0012B1CBF0020C3
:103BC000704720294FF0010101D1022202700846FE
:103BD000704700002DE9F04182B004460B46CDE964
:103BE00000110020002122464FF0000825F0C4F803
:103BF000451C0746284619F03BFC58B100F80780E1
:103C0000019B29462246064625F0B6F8304602B00A
:103C1000BDE8F081FEE700002DE9F04702B3DDF8D2
:103C200020909A4614460F46804606E064F0010054
:103C30003044441C05EB0A0774B1660806FB0A759C
:103C400040462946C8470128F0DAB0F1FF3F344624
:103C5000F2DD2846BDE8F08700252846BDE8F0875C
:103C60000020BDE8F08700002DE9F04F83B0129FDF
:103C70000DF1300C1E46DDE910E59CE808188A4677
:103C8000814617F00200CDE9010256D14DB1F80787
:103C900008D017F00C0018BF012040EA0C002D1AC4
:103CA00000E00025F34518D2BBF11F0F15D86FEACD
:103CB0000B017144CBF11F02914238BF0A46541CDC
:103CC00003EB0B00214630229846FCF788FBDDF819
:103CD00040E0DDF838C04346A344F8072DD0AB459B
:103CE0002BD2BBF11F0F28D8302000BF0BF10101F0
:103CF000A94203F80B0080F0AF80BBF11E0F00F269
:103D0000AB800BF1020203EB0B01AA42487013D205
:103D1000BBF11D0F10D80BF10302AA4288700BD221
:103D2000BBF11C0F08D80BF10402AA42C87003D2E1
:103D3000BBF11C0F9346D9D39346F80635D50F989F
:103D4000790510D4BBF1000F0DD0F34518BFAB457A
:103D500009D1BBF101010A4618BFABF102021028DC
:103D600018BF0A469346102807D117F020000BD140
:103D7000BBF1200F08D278200BE002280DD1BBF157
:103D80001F0F0AD8622004E038B1BBF1200F04D223
:103D9000582003F80B000BF1010BBBF11F0F10D8DB
:103DA000302003F80B000BF1010BBBF11F0F08D8FB
:103DB000BCF1000F01D02D2008E0780703D43807AC
:103DC00003D4984607E02B2000E02020984603F813
:103DD0000B000BF1010B029CB8070DD1029CAB4507
:103DE0000AD2029AA5EB0B07202051463346541CF9
:103DF000C847013F2246F7D1BBF1000F00950FD015
:103E0000A8F1010818F80B00514622463346ABF1E1
:103E10000105671CC847002D3C46AB46F2D100E0C7
:103E20002746019888B10299DDF80080781A40454C
:103E30000DD24D42202051463A4633467C1CC8479D
:103E4000281940452746F5D302E03C4600E03C46B1
:103E5000204603B0BDE8F08F8B46F8063FF56FAF04
:103E6000A3E700009A4238BF8854704770470000AB
:103E70002DE9F04F99B00E46229943F66D671C4626
:103E80009246C0F6000700251091002E18BF074685
:103E90002078A946002800F0BA84252807D03146AA
:103EA0004A46534609F10105B8470134F0E74FF09F
:103EB0000008CDE90C7660782146A0F12003102B94
:103EC00000F270800122DFE803F0096D6D0B6D6D6B
:103ED0006D6D6D6D6D0D6D0F6D6D1100082205E03E
:103EE000102203E0042201E0022200BF887848EAA1
:103EF0000208A0F12003102B00F257800122DFE816
:103F000003F00954540B545454545454540D540F46
:103F100054541100082205E0102203E0042201E0BD
:103F2000022200BFC87848EA0208A0F12003102B43
:103F30003FD80122DFE803F0093D3D0B3D3D3D3D0B
:103F40003D3D3D0D3D0F3D3D1000082204E0102297
:103F500002E0042200E002220C4614F8040F48EAB2
:103F60000208A0F12003102B27D80122DFE803F07C
:103F70000E2525122525252525252516250C252543
:103F8000090048EA020896E70222FAE7082248EA0E
:103F9000020890E7102248EA02088CE7042248EA67
:103FA000020888E701F1010B0AE001F1020B01317F
:103FB00006E001F1030B023102E001F1040B0331D1
:103FC000A0F13002109CD2B2092A43D80BF1020BA7
:103FD000002600BF06EB8601490051FA80F11BF86C
:103FE000010CA1F13006A0F13002D2B2092A00F290
:103FF000E48006EB860100EB41019BF80000A1F193
:104000003006A0F13002D2B2092A00F2D88006EBC5
:10401000860100EB41019BF80100A1F13006A0F1FF
:104020003002D2B2092A00F2248106EB860100EBAD
:1040300041019BF80200A1F13006A0F13001C9B2A4
:104040000A290BF1040BC5D3ABF1020B2E2800F0AB
:10405000B98016E02A2810D154F8040B002806462F
:1040600048BF4642002811F8020F48BF48F0020836
:104070008B462E2800F0A68003E000262E2800F0B4
:10408000A1800022A0F168014FEA7103092B0E9272
:104090000B9624D801214FF48072DFE803F0050E5F
:1040A000122020201B20201B594611F8010F6828E0
:1040B00040F0E4800221C0220CE001214FF40072A4
:1040C00008E0594611F8010F6C2840F0DB8002210E
:1040D0004FF440721BF8010048EA02088B44A0F13B
:1040E0002502532A00F2D78008211025DFE812F0BC
:1040F000CE00D300D300D300D300D300D300D3002D
:10410000D300D300D300D300D300D300D300D30017
:10411000D300D300D300D300D300D300D300D30007
:10412000D300D300D300D300D300D300D300D300F7
:10413000D300D300D300D300D300D300D300D300E7
:10414000D300D300D3005800D300D300D300D30052
:10415000D300D300D3003401D300D300D300D30065
:10416000D300D300D300D300D300DF00E20054001B
:10417000D300D300D300D3005400D300D300D30026
:10418000D300D3003F015800D300D3000001D30077
:104190005400D300D300340128F010080A25DBE0D6
:1041A0005A4612F8011F48F4887856294FF010013A
:1041B00040F0D18056209346D9E0ABF1010B2E2878
:1041C0007FF45FAF594611F8010F48F48068A0F101
:1041D0003002D2B2092A40D80BF1020B002200BFF4
:1041E00002EB8201490051FA80F19BF80000A0F136
:1041F0003002D2B2092AA1F130023FF643AF02EBFE
:10420000820100EB41019BF80100A0F13002D2B223
:10421000092AA1F1300200F2628102EB820100EB77
:1042200041019BF80200A0F13002D2B2092AA1F1AB
:10423000300200F2578102EB820100EB41019BF852
:104240000300A1F13002A0F13001C9B20A290BF13B
:10425000040BC5D3ABF1010B14E72A2806D154F89F
:10426000041B1BF8020F21EAE1720BE700228B46C8
:1042700008E70BF1010B2E28A4D002E748F08008D4
:104280008B462CE748F480788B4628E7109409F198
:104290000105252002E009F1010510940D9E0C9FF7
:1042A00031464A465346B8470BF10104F0E5022176
:1042B00062205CE018F0020640F0B9810B980228F9
:1042C000C0F01E82DDE90C781094411C44420025A8
:1042D0000F9100BF09EB0502202041465346B84725
:1042E000013560190130F5D1DDE90F84A9440AE2F6
:1042F000CDF828A054F804AB0E9E9AF80000514661
:104300000028109400F02282002E08BF4FF0FF36E4
:10431000A6F1030CB21E731E043E00250AEB050431
:104320006178002918BFAB4200F08581A17800298F
:1043300018BFAA4200F00682E178002918BFAC45F8
:1043400000F0028221792C1D11B1AE422546E5D143
:104350000AEB0401F9E1102540F00801582908BFD3
:1043600048F02008642805D06928294602D028F0A2
:104370000C080D465FEA485148BF28F0010856284E
:1043800015D0692801D0642827D15FEA885035D438
:104390005FEAC85048D45FEA486000F1A680D4F8CC
:1043A00000C05FEA086048BF0FFA8CFC9FE054F839
:1043B000040B0D9E41680C9F0D6806EB09011195D9
:1043C0000368AAEB0902384610940095FFF750FDE8
:1043D00000EB09050BF101045AE55FEA885033D47C
:1043E0005FEAC85000F191805FEA486000F12581E2
:1043F00026685FEA086048BFB6B21FE1E01D20F002
:1044000007000246436852F8080B50EA030108BF50
:1044100028F01008CDF828A0109261BB18F4806134
:1044200029D01F46002255E054F804CBBCF1000F00
:1044300008BF28F01008BCF1000F109475D118F4D3
:10444000806072D00026ECE0E01D20F00700446898
:1044500050F8086B109056EA040008BF28F01008C6
:104460000028CDF828A040F0828018F4806000F089
:104470007E800022A2E080EAE370B0EBE37408F0F3
:10448000200083EAE37180F061001F4661EBE37670
:10449000F6304FF0000A0F90204631462A4600239E
:1044A000FBF7E2FE00FB154202F0FE030A2B0F9B16
:1044B00038BF3023641B76F1000613440AF1010271
:1044C00011AE06F80A3005D3BAF11F0F9246044622
:1044D0000E46E1D3F80F11A9CDE9001272E00BF1FD
:1044E000010BCFE50BF1020BCCE594F800C0BCF159
:1044F000000F08BF28F01008BCF1000F10946BD11A
:1045000018F4806068D0002688E054F8046B002E10
:1045100008BF28F01008002E109440F09A8018F47C
:10452000806000F096800023AEE008F0200181F06A
:104530006101604601F1F60E0023BCF1000F48BF97
:10454000CCF10000B0FBF5F1724601FB150606F058
:10455000FE040A2C38BF302232445E1CA84211A847
:10456000C2545ED31F2B33460846EBD359E008F004
:10457000200080F0610000F1F6074FF0000A00BF54
:10458000304621462A460023FBF76EFE00FB1562EB
:1045900002F0FE030A2B3B4638BF3023761B74F132
:1045A000000613440AF1010211AE06F80A3005D3E1
:1045B000BAF11F0F924606460C46E1D311A8CDE989
:1045C00000020020CDE902050E980C9F04900B9884
:1045D0000D9EDDF828A085E008F0200181F0610142
:1045E000604601F1F60E0022BCF1000F48BFCCF18D
:1045F000000000BFB0FBF5F1734601FB150606F0A5
:10460000FE040A2C38BF30233344561CA84211A89C
:10461000835403D31F2A32460846EBD31098043044
:10462000109011A94FEADC70CDE9001653E00C9F01
:104630004FF0010867E0611C87E02678002E08BF74
:1046400028F0100810941EBB18F4806020D00022BF
:104650003AE008F0200080F0610000F1F60C002242
:10466000B6FBF5F0614600FB156303F0FE040A2C6F
:1046700038BF30211944531CAE4211AEB15403D39C
:104680001F2A1A460646EBD311A8CDE9000321E004
:1046900008F0200080F0610000F1F60C002300BF5C
:1046A000B6FBF5F0614600FB156202F0FE040A2C31
:1046B00038BF302111445A1CAE4211AEF15403D31D
:1046C0001F2B13460646EBD310980430109011A808
:1046D000CDE900020020CDE902050E980C9F049060
:1046E0000B980D9E0590384631464A465346CDF804
:1046F0001880FFF7B9FA05460BF10104FFF7C8BBB4
:104700000C9F4FF0020814F8040B0D994A465346CB
:1047100009F10105B84710947EB10B9880450CD281
:104720000D9EA0EB080400BF2A46202031465346C8
:104730000135B847013CF7D1B6E50D9E0BF10104F8
:10474000FFF7A6BBA11C00E0E11C0E9EA1EB0A0234
:1047500008F48063B242314638BF1146002B0F93F4
:1047600008BF114618F002081CD10B9A914218D2CA
:10477000CDF82080DDF82880DDE90C76501C551A34
:104780000024099009EB0402202031464346B84733
:104790000134A542F6D19AF80000DDF82080A1444A
:1047A00003E00131DDE90C760991C8B10AF1010499
:1047B000DDF828A00DE000BF01390E91C0B23146EE
:1047C0004A46534609F10105B84714F8010BA946BA
:1047D00048B10F990029F1D00E990029ECD101E0E0
:1047E000DDF828A04D46B8F1000F3FF45DAD0B9801
:1047F00009998142BFF458AD441A00BF2A462020CF
:10480000314653460135B847013CF7D14CE54A469D
:10481000002031465346D14528BFAAF10102B847CE
:10482000484619B0BDE8F08F2DE9F04F81B040F255
:10483000F058C2F20008D8F8000023F005FC40F25E
:10484000E529C2F2000999F80010044681F0010040
:1048500089F8000040F24810C2F20000FEF7C6FBE3
:10486000002800F0AD8040F2E42740F2481B0646E5
:10487000C2F200074FF0000AC2F2000B08E000BFCE
:1048800058463146FEF7D4FB0646002800F09880D3
:1048900096F8420099F80010C0F380028A4287F827
:1048A00000A000F0858000F0FB0242EA81010207CF
:1048B00086F842101AD4316B002917DC091915D477
:1048C000C00709D1716939B130468847316AB26A87
:1048D000014410443162B062B16809B13046884782
:1048E00096F8420040F0080086F84200306B00194C
:1048F00030635DD4F16A8842C8BF3163F1693046E4
:104900008847726A904205D07268014670620AB1A7
:1049100030689047D6E90B01814249DB96F8421096
:10492000B6F8403011F0020207D133B14FF6FF75EF
:10493000AB421CBF013BA6F840301B0406D0D6E9B1
:104940000E356D4235639BB31AB105E0B36B73B19D
:104950006AB9726B5242326381F0020186F84210EA
:10496000B16A326A3162C6E90A23B06320E0584670
:104970003146FEF7E1FB012038705846FEF736FB62
:10498000014640F25410C2F20000006811B123F059
:10499000E7FC01E023F0D4FCF16809B13046884718
:1049A000316909B130468847304618F047FF00BFEB
:1049B000387801287FF464AF5846FEF717FB63E7A9
:1049C00023F048FBC8F8000001B0BDE8F08F0000FC
:1049D000B0B5044640680D4610B12946FFF7F8FF10
:1049E0002268002A08BFB0BD20462946BDE8B04075
:1049F0001047000089B207F0F3BA000089B207F04F
:104A00005DBB0000B0B5002941D080290B460BD317
:104A1000B1FA81F2C2F11A024FF0FF3303FA02F247
:104A2000D24353187F2B34D89A08002300EB830518
:104A3000D5F814C04FF0FF3505FA02F212EA0C0265
:104A400011D092FAA2F2B2FA82FE00EBC31202EB8C
:104A50008E0454F83C2FD2B1556825F003058D42E1
:104A600026D200BFFEE70269013305FA03F31A40BC
:104A70000DD092FAA2F2B2FA82F300EB8302D2F8DE
:104A800014C0BCF1000F6246DBD100BFFEE700207E
:104A9000B0BD0022B2EB134F24D1B3FA83F5C5F1B8
:104AA0001A0223FA02F282F02002C5F11903BDE7CF
:104AB000D568CDB19168C9B1CD60A960256895422E
:104AC00010D1814221600DD1012101FA0EF52CEAAD
:104AD000050500EB8304656125B90569994025EA60
:104AE000010101611046B0BDFEE700BFFEE7000016
:104AF000F0B54A68032A09D922F003030A1D9B185E
:104B000006D05D68EC0704D10846F0BDFEE700BFA3
:104B1000FEE725F003047F2C04D84FEA950E4FF0F2
:104B2000000C09E0B4FA84FCCCF11A0524FA05F56E
:104B300085F0200ECCF1190CDD686DB39C686CB368
:104B4000E560AC6000EBCC1505EB8E0555F83C6FCD
:104B50009E4211D184422C600ED100EB8C050127BE
:104B60006E6907FA0EF4A6436E612EB9066907FA5C
:104B70000CF726EA070707614868032810D95B6825
:104B800023F0030318440430032848600AD920F0B6
:104B9000030081500846F0BDFEE700BFFEE700BFFE
:104BA000FEE700BFFEE7000070B531B122B14B68EF
:104BB000DC0704D1FEE700BFFEE7002070BD23F054
:104BC000030502F11004A5420ED2032B7CD923F079
:104BD000030201F10800835823F0020383504A685E
:104BE00022F001024A6070BD01F1040C0CEB020ED0
:104BF0000EF10B040EF1080324F00304A34200D0CD
:104C0000FEE7AC1ADEF80450043C05F0030525432A
:104C10000B2CCEF804502BD94C6804F0030422432B
:104C20004A60DEF80420032A24D922F003055A59E9
:104C300042F002025A51DEF804202B4442F00104F3
:104C4000CEF804404C6843F804EC032C14D924F04B
:104C5000030343F80C1022F0030342F003057F2BFB
:104C6000CEF8045009D84FEA920C00230EE000BFA2
:104C7000FEE700BFFEE700BFFEE7B3FA83F2C2F132
:104C80001A05EB4083F0200CC2F1190300EBC312AC
:104C900002EB8C0252F83C4FC4B1CEE90240C4F89A
:104CA0000CE00124056904FA03F63543056100EBC5
:104CB0008300436904FA0CF6334343614B68C2F83E
:104CC00000E0032B3FF683AFFEE700BFFEE70000E6
:104CD000B0B582B0044616F0CDFB054616F00AFCCE
:104CE00038B1208FE08620461DF0ACF9012002B0DB
:104CF000B0BD606A01211CF0D3FE18B1204613F04C
:104D0000BFFE2AE0204601211BF05AF84FF6FF7142
:104D1000606A618701211AF091F920462021002262
:104D200014F064F8218FE08E81420BD0208701902F
:104D300001AA20461C2114F059F80128D7D1204699
:104D40001DF080F9284616F0E1FB042805D1204625
:104D50001BF09AFE002115F015F8012002B0B0BD3D
:104D6000B0B514F03FF804461BF00EFF0546204690
:104D700008F0A6FB014628460022BDE8B04022F01C
:104D800001B900002DE9F04F8DB00792CDE909304F
:104D90000891C8784CF25D214CF26922C0F60001FE
:104DA000C0F6000210F0010008BF0A464CF20121D3
:104DB000DDF86890C0F6000104924CF2CD120B466B
:104DC000C0F6000208BF1346D9F810E00693002889
:104DD00008BF0A46059203E05FEACC7000F0BB8092
:104DE000BEF1000F00F0B780B9F80200B9F8041066
:104DF000D9F80C30AEF10102032AA0EB010A11D25E
:104E0000002400221EF003076AD004EB840003EBA9
:104E10008000067CF6073DD180890244012F3ED1F7
:104E20005EE000BF2EF0030703F1300600240022ED
:104E300007E000BF308B02440434A74206F150065D
:104E4000E0D016F8200CC00704D136F8240C024438
:104E500004E000BF36F8280CAAEB000A16F80C0C88
:104E6000C00703D136F8100C024403E036F8140CE6
:104E7000AAEB000A307AC00702D1B088024402E0EF
:104E80003088AAEB000A307FC007D3D0B08AAAEBE3
:104E9000000AD1E70089AAEB000A012F20D0601C8C
:104EA00000EB800003EB8000067CF60704D18089CC
:104EB0000244022F05D113E00089AAEB000A022F59
:104EC0000ED0A01C00EB800003EB8000037CDB070E
:104ED00002D18089024403E00089AAEB000A00BFE6
:104EE000BEF1000F37D0D9F80C80002300264FF018
:104EF000000C0CE008EB03008189AAEB050A521AAA
:104F000005810136764503F11403BFF465AF08EB64
:104F10000304207CC507F4D115041BD015B20FFA89
:104F20008AFB9BFBF5F5E168B4F904706943B4F9B9
:104F3000065009B2A942B8BF0D46BD42D8BF3D4692
:104F40008D42D7D040F001002074D9E9038E4FF094
:104F5000010CCFE7FEE70A9C0021204616224FF005
:104F6000000B1CF0E9FBDDF820A0D9F808109AF836
:104F700000600AB2F71EFFB2022A3346B8BF02230E
:104F8000032F4FF0FF3728BF334657FA83F7042F1C
:104F90000BD8B9F80230DFE807F0030A131F2B0023
:104FA00018990026A1EB030B2FE000262DE0189A9C
:104FB00019B2511A01EBD1714FEA610B002624E0BE
:104FC000189AD21A4FF4803303EB014112B209143C
:104FD00092FBF1FB5E4618E01899C91A09B291FBE1
:104FE000F2F6B1B206EBD13109B24FEA610B0CE037
:104FF000189A4FF0000BD21A0023CFF6FF7303EB81
:10500000014112B2091492FBF1F69AF80310079DC0
:10501000C907C7B208D0DDF82480012F06D1204689
:105020001BF0B4FC834401E0DDF8248020462946CF
:105030001BF02AFC002818BF454502D10DB0BDE881
:10504000F08F0446199830440126C0F206060990F4
:10505000204631461CF02CFD60B19AF80300400751
:1050600000F15C810A988068416801358D42C0F288
:105070005B81E3E740F21610C2F20000028820468E
:1050800000211CF059FB000626D0D9F8101041B3BE
:10509000D9F80C00BC464A4200F13C03032153F806
:1050A0003C7CA7421FD05718022F13D053F8286C0E
:1050B000A6421AD0012F0DD053F8146CA64216D078
:1050C00047B11F68A74213D004315718032F03F1CB
:1050D0005003E4D1002010E0608C20F4C0606084B4
:1050E0003EE000200AE0033902E0023900E0013925
:1050F00001EB810100EB81000089674607909AF877
:105100000310608CC9074FF4806120F4C06008BFB1
:105110004FF4007108440699608404F114000646B7
:105120008847079980B281421AD020461CF08AFF36
:105130006069A169049ACDE90B01079801B2304674
:105140009047204629210BAA13F050FE20461BF061
:105150001BFD2221224613F049FE20461CF072FF5F
:105160009AF8010001280FD0022815D1B9F90000E2
:105170000599013020F0010604F114008847301A27
:1051800000EBD070401008E00599B9F8006004F118
:1051900014008847301A00E0002007909AF80300B6
:1051A0000197C00707D0012F05D1069904F114001B
:1051B0008847ABEB000B204600216B22CDF808B0EE
:1051C0001CF0BAFA0646204600216C221CF0B4FA04
:1051D000074620461CF0F4FB834620461BF05AFC91
:1051E00006F4C041B1F5005F17D131B221F4C041DE
:1051F000B1F5FA6FBE4611DCB1F57A7FC8BFC1F5D3
:105200007A7148F21F5201FB0BF1C5F2EB1251FB10
:1052100002F14A1102EBD17600E0BE460EF4C04125
:10522000B1F5005F039618D10FFA8EF1DDF808B0E2
:1052300021F4C041B1F5FA6F11DCB1F57A7FC8BF36
:10524000C1F57A71484348F21F51C5F2EB1150FB8A
:1052500001F0411101EBD07E01E0DDF808B02146FC
:1052600031F8142F9AF803004F88009002975F4698
:1052700010F00100079B08BF1F46169EDDF80CC00A
:1052800000286644A6EB02021744179A08BF5B4643
:10529000029E7244921BD61847EA0602120421D0DD
:1052A000204607911CF0CEFEA08A218B3844A082B4
:1052B000C819E18A20838819618BE082881960838C
:1052C00020461CF0BFFE39B232B2204600231CF04B
:1052D0006DFF9AF8033007990A9C019F012603F09D
:1052E000010003E00A9C019F0126009BC0F2060614
:1052F00028B1012F03D10998ABEB000B09E0084658
:105300000699884709999AF8033001EB0B0202EBE2
:10531000000B580702D4A068A6E600BF012DFFF6D7
:105320008DAE0A98013D8068006850F82540002C39
:105330003FF484AE45457FF48BAE7FE610B5022A7C
:105340003BD9C1F3C42CC0F3C423634400F01F0E47
:10535000C1F34514C0F345104FF01F0C1F2B28BF9D
:1053600063462044DB023F2828BF3F2043EA401029
:1053700001F01F0373441F2B38BF9C46FF2A40EAED
:105380000C0008BF10BD4FF61F0301EA030401F42F
:10539000FC6144EA01410340043200F4FC605B1A02
:1053A000D20803EB0040504301EB50104FF61F01B1
:1053B000C0F2E071084040EA1041084610BD00000C
:1053C000022A3AD980B5C0F3C42CC1F3C42303FB2D
:1053D0000CFC00F01F0E01F01F0303FB0EFEC0F3D8
:1053E0004510C1F3451358436FF01F0303EA500003
:1053F0002CF01F039B0143EA5E131844FF2ABDE80B
:10540000804008BF70474FF61F030B4001F4FC615A
:1054100043EA014120F4FC63043200F4FC605B1AAF
:10542000D20803EB0040504301EB50104FF61F0130
:10543000C0F2E071084040EA1041084670470000A1
:10544000022A3CD980B5C1F3C42CC0F3C423ACEB11
:10545000030300F01F0CC1F3451EC0F3451023EAFF
:10546000E373AEEB0000DB0220EAE07060F34A1366
:1054700001F01F00A0EB0C0020EAE0701843FF2AA7
:10548000BDE8804008BF70474FF61F0C01EA0C03CF
:1054900001F4FC6143EA014100EA0C03043200F428
:1054A000FC605B1AD20803EB0040504301EB501044
:1054B0004FF61F01C0F2E071084040EA1041084673
:1054C0007047000070B582B0044613F08BFC0546AF
:1054D000204613F06FFC064628461BF055FB0A2EAB
:1054E000044609D02B2E4CD1618D2046002202B0FB
:1054F000BDE8704021F046BD15F0BCFF10B1007949
:1055000001283ED001A928461BF0C2FB94F82C00CC
:1055100010F00C0F18D028461BF038FA054686B25A
:105520002046002116221CF007F905EBD632C1B245
:10553000BDF9040012B201294FEA620114BF084408
:10554000081A90FBF5F00CE028461BF003FA81B234
:10555000BDF9062000EBD13109B202EB610191FBEC
:10556000F0F000B220EAE075668D2046294601225F
:1055700021F008FDB54204D020461C21002213F082
:1055800035FC02B070BD000010B582B090F8542018
:1055900002F001038B4222D0002918BF012102F042
:1055A000FE021144426A80F85410B0F848C0918A53
:1055B000B0F84CE001EB0C03ADF80030D28AB0F843
:1055C0004E30B0F84A407144ADF80410D11814447C
:1055D000ADF806106946ADF802401CF063FD02B05C
:1055E00010BD000088B2114609F0FCBA70470000F7
:1055F0002DE9F041164640F22B02C2F20002127869
:10560000804692B10D46B1F90000B1F90210B5F92A
:105610000420B5F90630FCF795F92AF013FCB5F92A
:105620000270B5F90600874204DD4046BDE8F0414E
:105630000AF0FEBAA98804E002B2974207F1010716
:10564000F3DAB5F900200BB29A42F5DC541E023EA3
:1056500036F8020F2AF0F0FBB5F904000134844259
:10566000F6DB81B2E8880236E6E700002DE9F04F6C
:105670009BB00E46C9780329C0F00B82B6F92070A2
:105680008246138851889088D288022FADF8643002
:10569000ADF86610ADF86800ADF86A201BDB96F82F
:1056A0002270FD2F17D33788AFB196F82370C7F358
:1056B000C0052B44ADF86430C7F380031944ADF83E
:1056C0006610C7F30011401AADF86800C7F3400038
:1056D000101AADF86A00DAF8082017A819A9FCF723
:1056E00001FD002800F0D581F07B062110F00700B5
:1056F00008BF0421775A71890DF164087C1A18BF1C
:10570000044640460BF060FDB178B6F800C00025B5
:105710000028CDE91555CDE91355CDE91155109562
:105720008DF85910ADF8487008BFBCF1000F00F0BB
:10573000768106F1060EF678BDF86810BDF8642093
:105740000294FC2E88BF4FF0FF36891ABDF86A20FC
:10575000BDF8663001310FFA81FBD11A01310FB269
:105760003B46BB45B8BF5B46BDF86010BDF85C204A
:105770000FFA8CF9B9EB630FA8BF4FEA63098B1AD4
:105780005C1C0023B9F1000FC8BF01230343012BA8
:105790000FFA84F8CDE9040A17D14046744617F091
:1057A000C1FE0DF1280A05460FFA89F219A95046E3
:1057B00000230CF083FA504600210BF05BFABDF891
:1057C0005C20BDF86010A64601E04FF6FF70019026
:1057D00008A810901590FF20ADF82020ADF82410F7
:1057E0008DF85800704659463A46139513F052FF0B
:1057F000029B039068B1D8B202280AD10398BDF980
:105800005C108068BDF9642000EB4100A0EB420011
:1058100011900498D8B3BDF95E40BDF96200DDF87F
:105820000CA0844200F31F813146DEB2CFB20DF1ED
:1058300040090AE0059849460DF024FBBDF96200D5
:10584000844204F1010480F20E8128463946424622
:10585000ADF82240ADF8264018F0FCFBBDF95C1015
:1058600022B2284643460BF05DFC012808BF022007
:10587000012E8DF85000DDD1DAF80800BDF9661070
:10588000A0EB410030F81400ADF84800D2E70FFA61
:1058900089F001285FDB02984FF0000BF7B2C0B22D
:1058A000049007E0059810A90DF0ECFA0BF1010B3C
:1058B000D94550D0BDF86600BDF95E10584404B219
:1058C000BDF86A008C42A0EB0B000FFA80FA03DAF5
:1058D000BDF962008245E9DC28463946424618F0A7
:1058E000B9FBBDF920102846224643460BF01AFCAE
:1058F000BDF95E10012808BF02208C428DF85000CF
:1059000013DB0498ADF822400128ADF8264008D1F9
:105910000399BDF966008968201A31F81000ADF8C6
:105920004800059810A90DF0ADFABDF96200824556
:10593000BCDC0498ADF822A00128ADF826A0B1D1B6
:105940000399BDF966008968AAEB000031F81000E0
:10595000ADF84800A6E7BDF86400BDF86610ADF8E4
:105960001800BDF86800B346ADF81C0001EB090053
:10597000BDF86A10ADF81A00A1EB0900ADF81E00E1
:1059800006A80BF021FC029B0646002808BF5FEA30
:10599000036053D0BDF96A00BDF96610DDF80CA0B4
:1059A000A0EB090201EB090494424FF001028DF8CB
:1059B00058B08DF8502056DC401AA0EB4900471C27
:1059C0005FFA8BF95FFA83FB08E000BF059810A926
:1059D0000DF058FA013F04F1010444D06EB128469D
:1059E0004946424618F036FBBDF95C1022B2284603
:1059F00043460BF097FB8DF850005046BBF1010F6A
:105A0000ADF82240ADF82640E0D18068BDF96610BF
:105A1000A0EB410030F81400ADF84800D6E72106AD
:105A20007FF487AEF07810A98DF858005046CDF875
:105A300040800DF027FA1BB0BDE8F08FBDF866007E
:105A4000BDF86A104844ADF82200A1EB0900ADF89A
:105A50002600002013900598DDF80CA010A98DF801
:105A600058B00DF00FFA15B1284617F08BFE019AC9
:105A70004FF6FF7190B2884205D010B20CF010FCC6
:105A80000AA80BF081FBBAF1000F02D0504613F0C8
:105A9000F9FD1BB0BDE8F08F2DE9F04F93B00D4636
:105AA0000969002900F0D5808046A87E0328C0F04F
:105AB000D0801646D8F8082011AC20463146FCF7B5
:105AC00011FB002800F0C580D8F80890C8F80840FD
:105AD000286915F0C1FC02284DD1D5E90412002730
