:020000040800F2
:1000000038FB002069020008710200087302000832
:10001000750200087702000879020008000000005D
:100020000000000000000000000000007B0200084B
:100030007D020008000000007F0200088D1100080A
:10004000830200088302000883020008830200087C
:10005000830200088302000883020008830200086C
:10006000830200088302000883020008830200085C
:10007000830200088302000883020008830200084C
:10008000830200088302000883020008830200083C
:10009000830200088302000883020008830200082C
:1000A000830200088302000883020008830200081C
:1000B000830200088302000883020008830200080C
:1000C00083020008830200088302000883020008FC
:1000D00083020008830200088302000883020008EC
:1000E00083020008830200088302000883020008DC
:1000F00083020008830200088302000883020008CC
:1001000083020008830200088302000883020008BB
:1001100083020008830200088302000883020008AB
:10012000830200088302000883020008830200089B
:10013000830200088302000883020008830200088B
:10014000830200088302000883020008830200087B
:10015000830200088302000883020008830200086B
:10016000830200088302000883020008830200085B
:1001700083020008830200088302000800000000D8
:10018000830200088302000800F002F800F05CF827
:100190000AA090E8000C82448344AAF10107DA45E2
:1001A00001D100F051F8AFF2090EBAE80F0013F0D8
:1001B000010F18BFFB1A43F001031847B0A5040054
:1001C000D0A504000A444FF0000C10F8013B13F0D6
:1001D000070408BF10F8014B1D1108BF10F8015BA0
:1001E000641E05D010F8016B641E01F8016BF9D193
:1001F00013F0080F1EBF10F8014BAD1C0C1B09D1EA
:100200006D1E58BF01F801CBFAD505E014F8016B5B
:1002100001F8016B6D1EF9D59142D6D370470000ED
:100220000023002400250026103A28BF78C1FBD8FF
:10023000520728BF30C148BF0B6070471FB530F070
:10024000BEFE1FBD10B510BD00F08BF91146FFF7C3
:10025000F5FF28F089FF00F0A9F903B4FFF7F2FFDA
:1002600003BC00F077F900000948804709480047BF
:10027000FEE7FEE7FEE7FEE7FEE7FEE7FEE7FEE756
:10028000FEE7FEE704480549054A064B70470000B3
:10029000411200088901000838F5002038FB0020D1
:1002A00038F7002038F7002053EA020C00F069808C
:1002B0002DE9F04B4FF00006002B1FBFB3FA83F57A
:1002C00003FA05F424FA05F65E4012BF1643B2FAAB
:1002D00082F502FA05F4C5F120051EBF22FA05FCDD
:1002E00044EA0C04203556EA044C4FEA144418BF83
:1002F000641C4FF000084FF00009904271EB030CB2
:1003000039D3002919BFB1FA81F701FA07F6B0FA1B
:1003100080F700FA07F6C7F120071EBF20FA07FC96
:1003200046EA0C062037B6FBF4FCA7EB0507103FA6
:1003300007F01F0BCBF120062CFA06F60CFA0BFB8C
:1003400044BFB3460026202FA4BF5E464FF0000BEB
:100350005BEA060C08BF4FF0010B19EB0B0948EBE9
:100360000608ABFB027C06FB02CC0BFB03CCC01BDC
:1003700071EB0C01C1E70B46024641464846BDE819
:10038000F08B13B5084318BF4FF0FF300146AFF3B1
:100390000080BDE81C40704740EA0103024630B5CA
:1003A0009B0710D14FF0013400E008C208C91D1BA3
:1003B0009D4315EAC41FF8D013F0FF0102F8011B9A
:1003C0000DD01B0AF8E711F8013B002B02F8013BA6
:1003D00005D011F8013B002B02F8013BF3D130BDF1
:1003E00010B5431C02E010F8011B71B18107FAD16E
:1003F0004FF0013202C88C1A8C4314EAC211F9D0B2
:10040000C01A0A0603D0C01E10BDC01A10BD0A04CF
:1004100001D0801E10BD0902FCD0401E10BD02F0AC
:10042000FF0343EA032242EA024200F00AB802F064
:10043000FF0343EA032242EA024200F024B84FF0ED
:1004400000020429C0F0128010F0030C00F01B80A1
:10045000CCF1040CBCF1020F18BF00F8012BA8BFAF
:1004600020F8022BA1EB0C0100F00DB85FEAC17C73
:1004700024BF00F8012B00F8012B48BF00F8012B26
:1004800070474FF0000200B5134694469646203957
:1004900022BFA0E80C50A0E80C50B1F12001BFF43D
:1004A000F7AF090728BFA0E80C5048BF0CC05DF8A3
:1004B00004EB890028BF40F8042B08BF704748BFF1
:1004C00020F8022B11F0804F18BF00F8012B704765
:1004D00030B44FF0013C50F8042B51F8043BCCFAF7
:1004E00052F4D51A20D1FCB950F8042B51F8043B32
:1004F000CCFA52F4D51A17D1B4B950F8042B51F8EC
:10050000043BCCFA52F4D51A0ED16CB950F8042B36
:1005100051F8043BCCFA52F4D51A05D1002CDAD0AC
:1005200030BC4FF00000704729BAB1FA81F111F0E8
:100530001801D1F120008440F2D1CA40CB4012F022
:10054000FF0213F0FF0330BCD01A704770477047AA
:100550007047000001491820ABBEFEE726000200EC
:100560007047754600F02CF8AE46050069465346C4
:1005700020F00700854618B020B5FFF783FEBDE8E0
:1005800020404FF000064FF000074FF000084FF0FA
:10059000000BAC46ACE8C009ACE8C009ACE8C00947
:1005A000ACE8C00921F007018D46704710B504463C
:1005B000AFF300802046BDE81040FFF74EBE0000BC
:1005C0000048704728080020EFF3108072B600BF83
:1005D000FEE70000B0B5B3F5804F034616D153F8DF
:1005E00022C00020CCF6F0700CEA000E91E8310039
:1005F000D1F818C040EA0E0040EA0410C96840EA89
:10060000052040EA0C0040EA014101E06FF0704132
:10061000002043F82210B0BD2DE9F04F83B00B68E5
:10062000024650F8230001F1240B20F0010042F8AB
:100630002300D1E902C0D1E900E301908869D1E942
:10064000049A0290C86BD1E9077600909BE83008C5
:10065000D1F8308052F82E008021CFF6F07108409A
:10066000BCF1080F08BF43F040030199194341EA68
:10067000090141EA0A01394331432143294341EA4F
:100680000B01029B41EA08011943009B19430843EF
:1006900040EA0C01002042F82E1003B0BDE8F08FB4
:1006A000F0B500EB82025068D1E902E400F0404C62
:1006B000D1E90030D1E9045643EA0C03002743EAAC
:1006C0000010CFF6F07740EA0E20896907EB055558
:1006D00040EA04402843FE36084340EA0661002011
:1006E0005160F0BDB0B5044600F0E2F8054640F6B2
:1006F0001900C2F200000078611C18BF044400BF5A
:1007000000F0D6F8401BA042FAD3B0BD2DE9F04F5F
:1007100082B000F13E4241F6004502F1FF77C4F29B
:100720000205082243F6004E4FEAB726A84208BF4A
:100730000722C4F2010E072E38BF4FEAB722012567
:10074000002600274FF00008009208E008F1010899
:100750000437B8F1100F06F1020600F0A6800C680D
:1007600005FA08F914EA090FF0D0D1F804B0032211
:100770000BF0030CACF10104B240012C6FEA020A49
:1007800010D88268CC6802EA0A02B4402243826030
:100790004268CBF3001422EA090204FA08F4224367
:1007A000426005E0BCF1030F02D14FF0030C20E0E2
:1007B000C2688C6802EA0A02B4402243BCF1020F0C
:1007C000C26016D16FF0030202EA58020244D2F866
:1007D00020C007F01C050F230C69AB402CEA030373
:1007E00004FA05F52B431362D1F804B001250BF090
:1007F000030C02680CFA06F302EA0A021A431BF41D
:10080000403F0260A2D0002243F644030192C4F2AA
:1008100002031A684FF6084C42F480421A601A68C4
:10082000CFF6FF7C02F480420192019A28F0030285
:10083000724452F80C3007F00C050F24AC40A3436F
:10084000009C04FA05F52B4342F80C30DEF8082032
:100850004B6842EA090543F60C4CDC0258BF22EA19
:100860000905CEF80850C4F2010CDCF800209C0207
:1008700042EA090558BF22EA0905CCF80050DEF823
:1008800004209C0342EA090558BF22EA0905CEF874
:100890000450DEF80020DB0342EA090558BF22EAD3
:1008A0000905CEF80050012550E702B0BDE8F08FF1
:1008B0004FF23450C2F200000068704740F6190051
:1008C0004FF23451C2F20000C2F2000100780A680F
:1008D000104408607047000080B543F60040C4F241
:1008E0000200016841F400710160016841F4806117
:1008F0000160016841F480710160032000F078F824
:10090000002000F005F800F02BF8002080BD00006A
:10091000B0B540F61902C2F2000240F200011278AE
:10092000C2F200014FF47A730968B3FBF2F2044695
:10093000B1FBF2F1084600F081FB0F2C4FF00105EE
:100940000CD858B94FF0FF3021460022002500F0A6
:1009500023F840F61C00C2F2000004602846B0BD37
:1009600082B0002043F640010190C4F202014A68BF
:1009700042F480424A604A6802F480420192019A3D
:100980000090086840F080500860086800F08050CF
:100990000090009802B0704710B54EF60C5CCEF295
:1009A000000CDCF80030C3F3022E8EF00704042C98
:1009B00028BF0424BEF103034FF0FF3E0EFA04F4F7
:1009C00038BF0023A14399400EFA03F39A43114321
:1009D00000F00F0200F160430901043A03F564439B
:1009E0006244002848BF02F10C03197010BD0000DA
:1009F0004EF60C51CEF200010A684FF6FF031A4082
:100A000060F30A2242F0806040F0FD700860704799
:100A10002DE9F041002800F08B8043F60808C4F26D
:100A200002080446D8F8F8030D4600F00700884293
:100A300007D288F8F853D8F8F80300F00700A84266
:100A400076D12068810717D5410705D5D8F8001061
:100A500041F4E051C8F80010010705D5D8F800109E
:100A600041F46041C8F80010D8F80010A26821F0E5
:100A7000F0011143C8F80010C0073FD1D8F8F803BF
:100A800000F00700A84207D988F8F853D8F8F8030F
:100A900000F00700A8424BD12068410707D5D8F8DD
:100AA0000010E26821F4E0511143C8F8001000077B
:100AB00008D5D8F80000216920F4604040EAC10060
:100AC000C8F8000000F054F8D8F8001040F6F072B2
:100AD000C1F30311C0F60302515C40F2000220FA98
:100AE00001F140F61C00C2F200000068C2F20002F0
:100AF0001160FFF70DFF0020BDE8F0816068811EE6
:100B0000022907D258F8081C89015CBF0120BDE802
:100B1000F08110E0012807D158F8081C89035CBF58
:100B20000120BDE8F08106E058F8081C890702D4CE
:100B30000120BDE8F081D8F8001021F0030108433E
:100B4000C8F80000FFF7B4FE064641F2883700BF40
:100B5000D8F80000616800F00C00B0EB810F8DD078
:100B6000FFF7A6FE801BB842F2D90320BDE8F08152
:100B700010B543F60404C4F20204606800F00C00EF
:100B800008280AD0042819BF42F20040C0F2F4003D
:100B900047F64000C0F27D1010BD20682168236830
:100BA000490247F64001C0F27D1100F03F02C3F355
:100BB00088105CBF42F20041C0F2F401A1FB0001C9
:100BC0000023FFF771FB21680222C1F3014102EB10
:100BD0004101B0FBF1F010BD2DE9F04182B00028D9
:100BE00068D00446007843F60006C007C4F2020647
:100BF0000BD0B06800F00C00042840F09C803068F6
:100C0000800302D56068002854D0207880071AD568
:100C1000B06810F00C0F09D0B06800F00C00082884
:100C200040F0A3807068400200F19F803068800728
:100C300002D5E06801283DD13068216920F0F80034
:100C400040EAC10030602078000737D420784007A0
:100C50004BD4A56955B3B06800F00C00082840F0EB
:100C6000B780012D26D07068E16900F480028A42C5
:100C700020D1216A00F03F028A421BD147F6C071A1
:100C8000626A0140B1EB821F14D1A16A4FF6FF7373
:100C9000C903994300F44032A1F580318A4209D159
:100CA000E16A00F07060B0EB016F03D1002002B088
:100CB000BDE8F081012002B0BDE8F0816069002844
:100CC00040F20000C4F2472072D00121C0F8801E1B
:100CD000FFF7EEFD054600BF706F8007B6D4FFF743
:100CE000E7FD401B0228F7D9D7E0306C10F08058A0
:100CF0000AD100200190306C40F080503064306C9C
:100D000000F080500190019847F20007C4F20007FC
:100D10003868C0053ED4386840F480703860FFF70A
:100D2000C7FD05463868C00534D4FFF7C1FD401B38
:100D30000228F7D9B1E0B06800F00C00082803D110
:100D4000706840023FF55BAF6068B0F5803F07D048
:100D5000B0F5A02F40F08B80306840F480203060E8
:100D6000306840F4803030608BE0E068002851D07B
:100D70000020C4F2472001210160FFF799FD0546DC
:100D8000306880073FF558AFFFF792FD401B0228FF
:100D9000F6D982E0A068012805D005284ED1306F31
:100DA00040F004003067306F40F0010030674FE0E2
:100DB0000021C0F8801EFFF77BFD0546706F80079D
:100DC0007FF544AFFFF774FD401B0228F6D964E0BD
:100DD0000027C4F2472700203866FFF769FD022D7F
:100DE00005460BD1306880015BD5FFF761FD401BE4
:100DF00002284FF00300F5D959E700BF30688001A1
:100E00007FF554AFFFF754FD401B02284FF003005D
:100E1000F4D94CE70020C4F2472000210160FFF71D
:100E200047FD0546306880077FF50DAFFFF740FDB1
:100E3000401B02284FF00300F4D938E7316F002837
:100E400021F001013167316F21F00401316749D090
:100E5000FFF72EFD054641F2883700BF306F80074F
:100E600051D4FFF725FD401BB842F7D915E0316892
:100E7000002821F480313160316821F48021316013
:100E80004AD0FFF715FD0546306880033FF5BDAE3B
:100E9000FFF70EFD401B6428F6D9032002B0BDE821
:100EA000F08104F11C052FCD084340EA8210D903DC
:100EB0004FF6FF729143A1F5803140EA0560084387
:100EC000706001203866FFF7F3FC0446306880014B
:100ED0003FF5ECAEFFF7ECFC001B02284FF00300DF
:100EE000F4D9E4E6FFF7E4FC054641F2883700BF99
:100EF000306F800707D5FFF7DBFC401BB8424FF08F
:100F00000300F5D9D3E6B8F1000F7FF4A2AE306C40
:100F100020F0805030649CE6FFF7CAFC054600BF15
:100F2000306880037FF571AEFFF7C2FC401B642878
:100F30004FF00300F4D9BAE6002804BF012070473F
:100F400070B5044690F8490015460E4628B90020B1
:100F500084F84800204600F01DF8206804F10801DC
:100F6000FFF75AFB2068A2683146FFF799FBD4E9E6
:100F70000102236B2946FFF72DFB2068A16850F87A
:100F8000212042F0010240F82120012084F849008C
:100F9000002070BD2DE9F04385B040F68C00C2F210
:100FA00000000178002945D1012101704FF00009AE
:100FB00043F63800CDF80090C4F20200026840F613
:100FC000004442F0010202600068C4F2020400F032
:100FD0000100009000986D4600914FF00208032731
:100FE0000C2604F500602946CDE901890397049693
:100FF000FFF78CFB4FF680708DE8010304F58060ED
:101000002946CDE90376FFF781FB4CF233708DE87A
:10101000010320462946CDE90376FFF777FB4FF41D
:1010200080508DE8010304F540602946CDE9037640
:10103000FFF76CFB05B0BDE8F0830000411E002007
:10104000B0EB116F1CBF012070474EF21002CEF2C0
:10105000000251604EF62351CEF20001F0230B70D6
:10106000072190601160704710B54FF0D84C4FF0D9
:101070002A0E0224ACF800E04FEA102EC6F6004417
:10108000C0B2A4F800E02080100A2080D0B22080F6
:101090002B20ACF80000080A2080C8B22080180A73
:1010A0002080D8B2208010BD80B588B040F6A8302E
:1010B00040F20412C2F200004FF0204CCAF20002CB
:1010C00006230021C0E900C24FF48052C0E902317A
:1010D000C0E90A210F22FF234FF0100ECDE90122B3
:1010E000CDE903321122C0E9041EC0E906114164B2
:1010F000C0E90811C0E90C118163CDE9062101A9FD
:101100000022CDF814E0FFF717FF002818BFFFF703
:101110005BFA08B080BD000081B0002143F63000CA
:101120000091C4F20200026842F0200202600268EC
:1011300002F020020092009A0091026842F08002C0
:101140000260026802F080020092009A0091026838
:1011500042F010020260026802F010020092009A4F
:101160000091026842F008020260026802F0080280
:101170000092009A0091016841F04001016000680E
:1011800000F040000090009801B07047FFF796BB58
:10119000B0B592B0002443F64000CDE90A44CDE951
:1011A00008440594CDE90344CDE901440094C4F218
:1011B00002000168022541F080510160006800F0E2
:1011C00080500090009847F200000094C4F20000A4
:1011D000016841F480410160006800F480400090A3
:1011E0000098012006904FF4803007904FF4800063
:1011F0000D9019200E904FF4A870CDE90F05042032
:10120000119006A80C95FFF7E7FC20B1EFF31080D2
:1012100072B600BFFEE70F20CDE901054FF4A050E4
:10122000CDE9040001A805210394FFF7F1FB20B1EB
:10123000EFF3108072B600BFFEE712B0B0BD000041
:101240004EF68850CEF20000016841F47001016052
:101250007047000070B540F6B004C2F200042046AA
:10126000442100F071FF43F6FD00C0F600001E218E
:10127000002227F013FA40F6BC06C2F2000640F640
:1012800048253060C2F2000501202870204600F099
:101290002BFF0146306811B127F036FA01E027F044
:1012A00023FA0020287070BD2DE9F041B1F900C08B
:1012B000B2F90460B44511DCB1F904E0B2F90040C0
:1012C000A6450BDBB1F90250B2F90680454505DCB5
:1012D000B1F90670B2F902309F4203DAFF2358B227
:1012E000BDE8F081A44509DBAB4207DCB64505DC6F
:1012F000474503DC002358B2BDE8F0815C1B24B2F3
:10130000012CA7EB05060ADBA0F800C04580A0F879
:1013100004E0C380B2F806804D88012300E000237A
:10132000A6EB08042C4424B2012C14DBB1F90640CE
:101330000FFA88F7A7420EDA0C888F88354400EB45
:10134000C30620F83340A6F80280B780F5804D88A8
:10135000B2F806800133B2F902402DB2AC42C8BFE8
:101360002546B1F906600FFA88F7B2F800800C88BC
:10137000B742B8BF3E46A8EB04073FB2012FAEEB21
:101380000C0C0DDB771B3FB2012F09DB00EBC30711
:1013900020F833407D80A7F80480FE800C8801335C
:1013A0009188ACEB0102224412B2012A09DB04EB62
:1013B0000C0200EBC30720F8331001337D80BA80A4
:1013C000FE8058B2BDE8F08170B50346B1F9000067
:1013D000B2F90040B1F902C0B2F90250B1F904E02B
:1013E000B2F90460A042B1F90610B2F90620C8BFF4
:1013F0000446AC451C80C8BF6546B6455D80B8BF95
:10140000764691429E80B8BF0A460020B4424FF013
:101410000001D8BF01219542D8BF01200840DA80E1
:1014200070BD00002DE9F04381B00C46B0F90070AA
:10143000B1F900108F423DDBB0F90260B4F902103F
:101440008E4237DBB0F90490B4F90410894531DCE1
:10145000B0F90680B4F9060080452BDC15466AB366
:10146000694620462A46ADF80070ADF8026000F0EB
:1014700097F8F8B1694620462A46ADF80090ADF8D5
:10148000026000F08DF8A8B1694620462A46ADF802
:101490000070ADF8028000F083F858B1694620462C
:1014A0002A46ADF80090ADF8028000F079F801B05E
:1014B000BDE8F083002001B0BDE8F083012001B059
:1014C000BDE8F083B0F90020B1F904309A4213DC92
:1014D000B0F90420B1F900309A420DDBB0F90220D6
:1014E000B1F906309A4207DCB0F90600B1F90210F2
:1014F0008842A4BF01207047002070472DE9F043C7
:1015000081B00C46B0F90460B1F900108E4211DBD5
:10151000B0F90670B4F902108F420BDBB0F900800D
:10152000B4F90410884505DCB0F90290B4F906005E
:10153000814503DD012001B0BDE8F0831546EAB125
:10154000694620462A46ADF80080ADF8029000F0CA
:1015500027F898B9694620462A46ADF80060ADF8EC
:10156000029000F01DF848B9694620462A46ADF8B9
:101570000080ADF8027000F013F818B1002001B03F
:10158000BDE8F083694620462A46ADF80060ADF814
:10159000027000F005F880F0010001B0BDE8F083B2
:1015A0002DE9F041B1F90030B0F90040A3420DDB64
:1015B000B0F904E0734509DCB1F902C0B0F90210DA
:1015C0008C4503DBB0F90650AC4502DD0020BDE8D8
:1015D000F081012A52DBAEEB0400013086B200EB51
:1015E000D63006B2681A013087B200EBD73007B2A6
:1015F0004FEA66087810B8EB670FB8BF70109042DA
:10160000A8BF1046021917B24218BB4216B2D8BF83
:10161000B44515DD2A1ABB4212B22ADC944528DBF8
:10162000391809B2091B01EBD1714F1004EB6106A7
:10163000604402EB61019B1B401A07FB07F10EE0BF
:10164000384400B2001B00EBD070421004EB60077E
:1016500001EB6000DB1BACEB000002FB02F113FBB3
:1016600003F210FB002200208A4298BF0120BDE84F
:10167000F081AEEB000424B2A34202DA0120BDE8FF
:10168000F081944516DAB445F8DC201A02B2AEEBCC
:10169000020202EBD27200EB6200181A01EB620147
:1016A0005710ACEB010110FB00F007FB07F211FB38
:1016B000010113E0211A0CB2AEEB040707EBD77758
:1016C00001EB6701591A604402EB67027E10801A31
:1016D00011FB01F106FB06F210FB00110020914204
:1016E00098BF0120BDE8F08170B5B1F90030B2F9C2
:1016F0000040B1F902C0B2F90250B1F904E0B2F908
:101700000460A342B1F90610B2F90620B8BF1C4626
:10171000AC450480B8BF6546B6454580C8BF76462F
:1017200086809142C8BF0A46C28070BD80B510B99C
:101730000EF048FA08B1406880BD002080BD00006E
:101740002DE9F04F93B0044626F02AFF40F68C2B8B
:101750000021C2F2000B0A91049044B1E068CBF87A
:101760000000204626F0C0FFDBF8000003E00EF08A
:1017700029FACBF80000006922F044FEDBF80010E3
:10178000486918B122F03EFEDBF80010C86922F06B
:1017900039FEDBF80000006A22F034FEDBF80000BE
:1017A0000169002900F0DE80B0F85011002959D0FD
:1017B00000274FF001080DF12C09012204E000BFC1
:1017C00001378F420A464DD2C31993F83031002BAE
:1017D000F6D1002AF4D0002507E000BFDBF80000B6
:1017E0000135B0F850118D42EAD2411991F830110B
:1017F0000029F3D1BD42F1D000F1300101EBC70067
:1018000001EBC501FFF75EFE0028E7D0DBF8000022
:10181000303000EBC70100EBC5024846FFF764FF1C
:1018200048460AF081FCDBF80010044601EBC700D3
:1018300030300AF079FCDBF80010064601EBC500F9
:1018400030300AF071FC30448442C7D2DBF800002B
:10185000DDE90B2300EBC70128440A634B6380F8E2
:101860003081BBE701680A7CD20700F0A780C96815
:101870004968002900F0A28000F5AC7000F0D0FCAF
:10188000002840F09B80DBF800000168C9680B6805
:101890008A689A4208BF4B68CDE908320EF0ACF96D
:1018A000DBF800100790B1F850210020002ACDE9A4
:1018B0001100CDE90F00CDE90D00CDE90B0057D0A7
:1018C0000BAEA6F1080A4FF0000907E0DBF80010A4
:1018D00009F10109B1F85001814549D201EB090034
:1018E00090F830010028F1D101F5AC7000F0FCFB5C
:1018F0000028EBD004460CE0DBF80000214600F5A0
:10190000AC7000F097FC20461CF096F8002D2C4699
:10191000DCD0DBF80000214600F5AC7000F006FCDE
:10192000DBF80010054601EBC90000F1300230463B
:101930002146FFF7B9FC411CE8D00128DCDB5FFA47
:1019400080F85746DBF80000214600F5AC7000F047
:101950001DFC57F8081FB8F101087A680160426061
:10196000F0D1C9E70021A0F8501113B0BDE8F08F05
:1019700001F5AC7000F0B8FB0DF11C0898E86001AF
:10198000B0B10446DBF80000414600682A46C06B4F
:101990002346876BCDE900650294B847DBF8000069
:1019A000214600F5AC7000F0C1FB04460028E9D1E7
:1019B000DBF8000000F5AC7000F066FBDBF800100F
:1019C0004FF29848B1F85091C2F200080020B9F1E6
:1019D000000FC8F8000000F0B281B9F1010F1ADB66
:1019E00001EB090090F82F21C2B1B9F1020F12DB0F
:1019F00090F82E21AAB1B9F1030F0CDB90F82D213C
:101A000092B1B9F1040F06DB90F82C01A9F1040999
:101A10000028E2D10AE04FF0000907E0A9F101092E
:101A200004E0A9F1020901E0A9F103090868426B89
:101A30001AB19047DBF800100868C068826922F08C
:101A4000010282610868C068826922F00202826134
:101A5000B1F8502191F82800002A40F0040281F8E2
:101A6000282000F068810024CDF814901CE08169E2
:101A7000554662F3410181613046B56028F060FB54
:101A8000DBF8000000EBC40030300AF04DFBD8F862
:101A900000100844DBF80010C8F80000B1F850014D
:101AA0000134844280F0FC80081990F8300100284D
:101AB000F4D14C4505D10868C068826942F0010242
:101AC0008261086801EBC40AC068826922F00202E0
:101AD00082610868C268C66B92683260007C8007C9
:101AE0000AF130001FD0824608460EF085F8DBF878
:101AF0000010451E08460EF0D5F8013807B22BB28B
:101B00000BA80021002200970BAD0AF047FBDBF881
:101B1000000075600168D1E9030182698907A6D5D3
:101B200042F00201A7E73AF8328F524632F8029F9C
:101B30005546CDE90820008835F9047F079008460E
:101B40000EF0B0F88742069401DA2C8804E0DBF846
:101B500000000EF0A7F8441EDBF800100798096893
:101B6000A9EB0000CB680130DB68A7EB080200B2EC
:101B70000132B3FBF0F089690FFA82F84045B8BF33
:101B8000804619B3002047460B90ADF8300000BFE7
:101B90007D1EDBF80000ADF8325000680BA98269A9
:101BA0009047BDF93200BDF82E10411A013109B23B
:101BB000884503DA2FB2002FEADC05E039B20129AB
:101BC00002DB00F1010801E04FF00008BAF9000063
:101BD00025B208EB00014A1E0BAFAA4280B202DD1B
:101BE0004FF0000935E0CDF81C800AE0304628F0BF
:101BF000A7FA0798444600FA8AF14A1EAA425046BC
:101C000026DC099B8A461B880FFA82F9ADF82C3036
:101C1000089B4D451B88ADF82E00DBF80000ADF8A1
:101C20003030ADF832207760B7600068A2B2C0688B
:101C3000A04681683160BCBFADF83240A1461FFAB2
:101C400089F18A42D2D1816941F002018161CDE7F7
:101C500050464FF298481FFA89F1A2B2C2F200082A
:101C60008A421AD009990988ADF82C100899098878
:101C7000ADF82E00DBF80000ADF83010ADF83240C2
:101C80007760B7600068C06881683160816941F041
:101C900002018161304628F053FADDE90594EFE650
:101CA00091F82820002802F0FB0281F8282046D075
:101CB0000868027CD2071ED0C0684068D8B13024C2
:101CC0004FF4987508E000BFB1F85001A5F22F124B
:101CD0000834013582420ED2485D0028F4D101F566
:101CE000AC7000F083FADBF800100A1952680B5947
:101CF00042600360E8E701F130004FF480711CF0AE
:101D0000EFFADBF80000202100F598701CF0E8FAEB
:101D1000DBF800000021A0F85011049826F024FC04
:101D20000A90DBF800000068436A43B10A99D8F8CA
:101D30000020984703E000F0FB0081F828001BF02A
:101D4000B9FC00F049F800F003F813B0BDE8F08FDB
:101D500010B540F6C004C2F200042068002818BF85
:101D60001BF06AFE20461C211CF0BAFAE06900282C
:101D700018BF1BF061FE04F11C001C211CF0B0FA1E
:101D8000A06B002818BF1BF057FE04F138001C217F
:101D90001CF0A6FA606D002818BF1BF04DFE04F180
:101DA00054001C21BDE810401CF09ABA40F69C314A
:101DB000C2F20001096804E00A7E42F001020A76DC
:101DC0004969002908BF70474A688242F4D00A680E
:101DD0008242F5D1F0E700007047000040F6BC10E9
:101DE000C2F20000042100F0AFB9000040F6CC10B0
:101DF000C2F20000202100F0A7B900002DE9F04F49
:101E000085B00E9E1D46002B834608BFB6F5807F29
:101E100069D0DDF83C800023019301A8ADF80810DB
:101E2000CDF80A30ADF80E20ADF81010ADF8122044
:101E3000294632464346071D00F1080900F10C0A05
:101E400022F036FB384629463246434622F030FB24
:101E5000484629463246434622F02AFB5046294648
:101E60003246434622F024FBBDF90410BDF9083088
:101E7000BDF90C60BDF9104099421F46BDF906201E
:101E8000BDF90A00B8BF0F46A6422546B8BF354681
:101E9000AF42B8BF3D46AF1E9942ABF80070C8BF15
:101EA0000B46A642C8BF3446A342C8BF1C46BDF974
:101EB0000E70BDF9125082420346B8BF1346AF42BE
:101EC0002E46B8BF3E46B342B8BF1E468242C8BF88
:101ED0001046AF42C8BF3D46A11CB31EA842C8BFB2
:101EE0000546A81C04E00023ABF800300139501E61
:101EF000ABF80230ABF80410ABF8060005B0BDE853
:101F0000F08F0000F0B581B016460C46074626F06B
:101F100047FBA2B240F6D814C2F2000405462046A0
:101F20003946334618F06AFD58B1E0690021A162D4
:101F300078B9284626F018FB002808BF0120E06188
:101F400007E020462C211CF0CBF94FF00040A062A6
:101F50000024204601B0F0BD10B540F60424C2F2C2
:101F600000042046142100F0EFF8204600F0F4F8B9
:101F7000B0B1142104461CF0B3F949F68560C0F6EF
:101F8000010049F675714AF2FD2249F64D63C0F62B
:101F90000101C0F60102C0F601030FC410BD00BF6D
:101FA000FEE70000F0B585B004460D4620B90DF0FF
:101FB00009FE0446002853D020460DF08BFE002871
:101FC0004ED094F8280040074AD40020CDB30290A8
:101FD00020460DF011FE0138ADF80C0020460DF042
:101FE00061FE0138ADF80E00684602AA2946FFF7E7
:101FF000EBF9A8B32068017C890726D482690AB16D
:1020000069469047B4F8500160B304F130050027E9
:102010006E4600BF304629460022FFF703FAF8B9A2
:10202000B4F8501101378F4205F10805F2D31F298A
:1020300019D9DDE902020021A4F85011206362637E
:1020400017E0A4F8500105B0F0BD02980399206391
:102050000120A4F850016068616308B126F054FBC8
:1020600005B0F0BD0021DDE9002304EBC1000263EF
:102070004363606801310028A4F8501118BF26F0AE
:1020800043FB05B0F0BD0000F0B581B010B345686A
:102090000446FDB1002707E0002BA36014BF9F504A
:1020A00067601BF0C9FCADB1D4E9001328460A1DD6
:1020B000AD5883420AD0A66843588642ECD0002B24
:1020C00018BF9D5055B16B50EBE700BF65601DB167
:1020D0006F50E6E701B0F0BD0021A16001B0BDE89E
:1020E000F0401BF0A9BC0000002814BF406800208D
:1020F00070470000B0B14268A2B10068011D012024
:102100005258002A08BF704752586AB15258002AE4
:1021100004BF0230704752580430002A04BF01380F
:102120007047EDE7002070470130704700680844B1
:10213000406870470068085870470000002814BFC6
:1021400080680020704700000331002221F0030165
:10215000C0E900128260704710B50446006808307C
:102160001BF084FA002808BF10BD216800224250ED
:10217000626843185A606268002A18BF5050A1680C
:102180006060002908BFA06010BD000070B5044663
:1021900000284FF0000012D00D4681B1D4E90006AE
:1021A00008301BF063FAAE420AD0E0B121686A58E9
:1021B0000B1D002A18BFD05042506850C55070BD4A
:1021C0004FF0000278B121684250626843185A60AB
:1021D0006268002A18BF5050A1686060002918BFCB
:1021E00070BDA06070BD002070BD000010B5044639
:1021F000006808301BF03AFA002808BF10BD2268BA
:102200000023111D4350A3688350A268002A18BF01
:1022100050506168A060002908BF606010BD0000D8
:1022200028B1416809B9806808B1002070470120D1
:102230007047000080B5002808BF80BD42688A4210
:1022400013D0D0F800E0826851F80E308A4217D0DF
:102250000EF1040C51F80C00002B18BF43F80C00D1
:10226000002818BF40F80E3080BD0268114449684C
:102270000029416007BF002181600020885080BD97
:102280000021002B836018BF0EEB0300416080BD6E
:1022900010B50446006804E00068002808BF10BDBF
:1022A00020608268002AF7D0214690472068F3E733
:1022B0008068002814BFC08A002000B27047000068
:1022C000806800280EBF0020807E800970470000D3
:1022D000F0B581B01446A8B1622206460F461FF041
:1022E000DDFA88B10546006880B130463946632280
:1022F0001FF0D4FA01060BD02B68A1B2C2B2284657
:10230000984706E0204604E0204602E0204600E030
:102310002046C0EA040001B0F0BD00002DE9F04FF6
:1023200091B00446408CDDF868B040F00400608451
:1023300022841646BBF8082020461F468A461FF016
:10234000ADFA2784BBF808200546204651461FF009
:10235000A5FA618C814621F004004D45608403D1CB
:1023600002D111B0BDE8F08F2684BBF808202046CA
:1023700051461FF093FA804620465146278406F0C6
:102380007BFF0068BBF80810424624F0DBF8BBF87E
:1023900008000B2828D147F6FF76B04518BFB14595
:1023A00022D120461FF0BEFB81B200EBD13000B23B
:1023B000451020461EF020FC81B200EBD13000B267
:1023C000B0454FEA600005D1691C00F101084145A4
:1023D000B8BF884647F6FF71894505D1691C00F1F1
:1023E00001094945B8BF894640F62020C2F20000E5
:1023F000FFF7B2FED0B3C0E9038904600646BBF81C
:1024000008006C46B0802046C6F808A009F0EEF837
:1024100040F29170C0F60300019040F6C110C0F682
:102420000300029040F60110C0F603000390002064
:10243000CDE90800FF200A90BBF80000BBF80210AD
:102440000B904842DBF80C100C909DF8420007916D
:10245000DBF8101000F0FE008DF8420020460096D8
:10246000069109F043F911B0BDE8F08FFEE70000D6
:1024700040F62020C2F200001421FFF765BE0000E4
:102480002DE9F04782B00446408C10F4FC7F00F048
:1024900026816FEA01086FEA02094FF0000A01ADD8
:1024A000002709E04FF0020A608C00BF0137C0F33B
:1024B000C5018F4280F01581E16801EBC7025268C7
:1024C0009301F3D492B212EA080302EA0902B2FAC3
:1024D00082F24FEA521218BF01235340E6D151F85D
:1024E0003760102130462A4623F094FD002840F042
:1024F000F380304611212A4623F08CFD002840F05D
:10250000EB80304612212A4623F084FD002840F05B
:10251000E380304613212A4623F07CFD002840F05A
:10252000DB80304615212A4623F074FD002840F058
:10253000D380304614212A4623F06CFD002840F059
:10254000CB8030460A212A4623F064FD002840F063
:10255000C38030466B212A4623F05CFD002840F002
:10256000BB8030466C212A4623F054FD002840F001
:10257000B380304601212A4623F04CFD002840F06C
:10258000AB80304604212A4623F044FD002840F069
:10259000A380304602212A4623F03CFD002840F06B
:1025A0009B80304603212A4623F034FD002840F06A
:1025B0009380304605212A4623F02CFD002840F068
:1025C0008B80304606212A4623F024FD002840F067
:1025D0008380304632212A4623F01CFD00287BD11F
:1025E00030466E212A4623F015FD002874D130466E
:1025F0006D212A4623F00EFD00286DD13046692159
:102600002A4623F007FD00287FF44CAF30466A21AC
:102610002A4623F0FFFC00287FF444AF30466E21A9
:102620002A4623F0F7FC00287FF43CAF30466D21AA
:102630002A4623F0EFFC00287FF434AF30463721E0
:102640002A4623F0E7FC00287FF42CAF30463821DF
:102650002A4623F0DFFC00287FF424AF30463521E2
:102660002A4623F0D7FC00287FF41CAF30464021D7
:102670002A4623F0CFFC00287FF414AF30464521D2
:102680002A4623F0C7FC00287FF40CAF30464121D6
:102690002A4623F0BFFC00287FF404AF30464221D5
:1026A0002A4623F0B7FC00287FF4FCAE30464321D5
:1026B0002A4623F0AFFC00287FF4F4AE30464921CF
:1026C0002A4623F0A7FC00287FF4ECAEBAF1000FF5
:1026D00008BF4FF0010AE7E64FF0030A01E04FF0B0
:1026E000000A5FFA8AF002B0BDE8F08740F68C205D
:1026F000C2F200000068704770470000C0F3041089
:10270000072828BF072070474FF6FF71884204BF93
:102710001F207047002804BF00207047702805D88C
:1027200041F21611C0F60301085C704740F62C21F7
:10273000C2F20001096851B140F63022C2F2000233
:102740007138126880B2824284BF085C70470020F2
:102750007047000080B540F63820C2F20000182112
:10276000FFF7F2FC4FF28C40C2F200000121017031
:1027700080BD00002DE9F04190B3164604460D4699
:10278000FDF72EFE40F20408C2F20008D8F800203F
:102790000746204629469047D8F8002005462044A1
:1027A00031469047391A8D421AD820440CE000BFB8
:1027B0009F78EE1C8E42977088BFBDE8F081DB7871
:1027C00004358D42D3700BD8425D6B1C8B42625531
:1027D00006D843195F78AE1C62198E425770E7D94C
:1027E000BDE8F0812DE9F04140F20C08C2F200088A
:1027F0001446D8F800200F4619461D460646904755
:10280000386040B12868D8F8002030440021904753
:102810002060BDE8F08100202060BDE8F08100006C
:102820002DE9F04F91B01A9C0546002C1E460F462C
:102830001CBF00202080A5B3002F4FF0000000F047
:1028400077812978002900F073811B9810F0060F1A
:102850002BD00020012242F2014301E039790430FB
:102860000D2904D802FA01F71F4240F03A812F18CF
:1028700079780D2904D802FA01F61E4240F02E8123
:10288000B9780D2904D802FA01F61E4240F02881D9
:10289000F9780D29E2D802FA01F61E42DED00330A3
:1028A0001FE1002011B0BDE8F08F0021012E0E9134
:1028B000C0F22C8100F001000D90002006970292DA
:1028C0002C464FF0000909900027019540F20C00BA
:1028D000C2F20000026800201090204610A9904724
:1028E0008046E85D109900280F9100F0B280B0B2E8
:1028F000CDE903790596079000234FF0FF304FF0A4
:10290000000900264FF0000B099D4746DA460A935E
:102910000C90CDF82C90CDF820800BE00125DDE95E
:102920000F0A09F10109109014F80A00474600281F
:1029300000F0918040F20C00C2F2000002682046D4
:102940000FA990470D99804679B1232F06D1002D0C
:10295000E4D0022D12D10025E1E700BF012D0AD1FC
:10296000202F0CBF02250125D9E7DA46069D0C9FD2
:10297000DDF820B00DE0BB46099506E04FF0230BD3
:10298000012D06BF002009900995CDF82C90069DD9
:102990000C9F28465946424616F070FB01B2064489
:1029A00002980029C8BF064431B2079A081A90421B
:1029B0005046D8BF4FF0FF307A1C18BF3846BBF1E5
:1029C0000A0F00F05680BBF10D0F00F05280ABF5FE
:1029D0009C4245F2A6139A42C0F04B80ABF1200214
:1029E0003F2A00F22280DFE802F04420202020204D
:1029F000202020202020444444202020202020206B
:102A0000202020204444202020202020202020207E
:102A100020202020202020202020202020202020B6
:102A200020202020202020202044DDF840B0421C1F
:102A300014F80B200A9B08BF0B460F99002A09F1D6
:102A4000010910917FF460AFDA46C346CDE90A3937
:102A50001AE000212AE0CDF82C90059EDDE90379EB
:102A60000C9A0995C346501C14D0019D0A99F7B1E0
:102A700061E0BAF1000F07D1059EDDE90379421C40
:102A800005D1019D002208E0059EDDE9037902469B
:102A9000501CEAD1019D0A9952460B9830B1BBF106
:102AA0000D0F08BFB8F10A0F01D100BF109A894479
:102AB0001AB3287817440A280E971ED00D281CD068
:102AC000E85D0D2817D00A2815D0B0B1701A06B2EB
:102AD000012E05EB0704BFF6F9AE0EE0013000E071
:102AE0000230002918BF013014B34FF6FF71218066
:102AF00011B0BDE8F08F01370E97002F1A9C069F8A
:102B000004D0002C18BFA4F8009010E040F20C0094
:102B1000C2F2000002680EA9284690473CB1014667
:102B20003846002216F0AAFA8146A4F800900E98C2
:102B300011B0BDE8F08F1A9CE3E700002DE9F04FDB
:102B400083B0002800F090801646002A00F08C80A8
:102B5000074630460D46FDF743FC002800F0848010
:102B6000044638460196FDF73BFC814640F20400DE
:102B7000C2F2000002683846294609EB04060297B3
:102B8000904700EB040C664513D2029914F003023F
:102B90000844A4F1010143D0019E012A334613F8F1
:102BA000017B00F8017B3FD11E460C4603295BD315
:102BB0004BE00299A4F1030E4A1E1519A4F1020A72
:102BC000214600BF02EB090309EB010893F801B0AD
:102BD000A8F1010705EB0906674586F801B0D4D3D3
:102BE00012F8098009EB0A07674505F80980CCD37C
:102BF00013F8018C09EB0E07674506F8018CC4D366
:102C000013F8023C043906F8023C09EB0103043ACC
:102C1000AEF1040E043D6345AAF1040AD2D2B4E732
:102C2000019E032920D310E07378022A00F8013BAB
:102C300004D10236023C032916D306E0B2780336EB
:102C400000F8012B033C03290ED3311F043800BFC9
:102C500011F8042F043C00F8042F4A7842708A7857
:102C60008270CA78C270F3D103B0BDE8F08F000063
:102C7000037823290BD1032B24BF00207047D900F0
:102C80004FF0010C2CFA01F22CEA030108E0012BB1
:102C90001CBF0020704720294FF0010101D1022202
:102CA00002700846704700002DE9F04182B00446EA
:102CB0000B46CDE900110020002122464FF000080C
:102CC00026F006FA451C074628461AF0CFFC58B1F4
:102CD00000F80780019B29462246064626F0F8F9AF
:102CE000304602B0BDE8F081FEE700002DE9F04774
:102CF00002B3DDF820909A4614460F46804606E05F
:102D000064F001003044441C05EB0A0774B1660806
:102D100006FB0A7540462946C8470128F0DAB0F19B
:102D2000FF3F3446F2DD2846BDE8F08700252846FF
:102D3000BDE8F0870020BDE8F08700002DE9F04FE6
:102D400083B0129F0DF1300C1E46DDE910E59CE8C2
:102D500008188A46814617F00200CDE9010256D1D3
:102D60004DB1F80708D017F00C0018BF012040EA59
:102D70000C002D1A00E00025F34518D2BBF11F0FFF
:102D800015D86FEA0B017144CBF11F02914238BF95
:102D90000A46541C03EB0B00214630229846FDF7EF
:102DA0003EFBDDF840E0DDF838C04346A344F807B9
:102DB0002DD0AB452BD2BBF11F0F28D8302000BF40
:102DC0000BF10101A94203F80B0080F0AF80BBF1C9
:102DD0001E0F00F2AB800BF1020203EB0B01AA42C3
:102DE000487013D2BBF11D0F10D80BF10302AA4299
:102DF00088700BD2BBF11C0F08D80BF10402AA4259
:102E0000C87003D2BBF11C0F9346D9D39346F80682
:102E100035D50F98790510D4BBF1000F0DD0F345CF
:102E200018BFAB4509D1BBF101010A4618BFABF190
:102E30000202102818BF0A469346102807D117F03F
:102E400020000BD1BBF1200F08D278200BE0022824
:102E50000DD1BBF11F0F0AD8622004E038B1BBF1DD
:102E6000200F04D2582003F80B000BF1010BBBF12B
:102E70001F0F10D8302003F80B000BF1010BBBF132
:102E80001F0F08D8BCF1000F01D02D2008E07807F3
:102E900003D4380703D4984607E02B2000E0202015
:102EA000984603F80B000BF1010B029CB8070DD1FB
:102EB000029CAB450AD2029AA5EB0B072020514693
:102EC0003346541CC847013F2246F7D1BBF1000FDF
:102ED00000950FD0A8F1010818F80B0051462246C2
:102EE0003346ABF10105671CC847002D3C46AB4695
:102EF000F2D100E02746019888B10299DDF8008000
:102F0000781A40450DD24D42202051463A4633466C
:102F10007C1CC847281940452746F5D302E03C46AB
:102F200000E03C46204603B0BDE8F08F8B46F80633
:102F30003FF56FAFA3E700009A4238BF885470474F
:102F4000704700002DE9F04F99B00E46229942F6E5
:102F500041771C469246C0F6000700251091002ECE
:102F600018BF07462078A946002800F0BA84252813
:102F700007D031464A46534609F10105B8470134A6
:102F8000F0E74FF00008CDE90C7660782146A0F11B
:102F90002003102B00F270800122DFE803F0096D9E
:102FA0006D0B6D6D6D6D6D6D6D0D6D0F6D6D11003A
:102FB000082205E0102203E0042201E0022200BF03
:102FC000887848EA0208A0F12003102B00F257800D
:102FD0000122DFE803F00954540B54545454545460
:102FE000540D540F54541100082205E0102203E040
:102FF000042201E0022200BFC87848EA0208A0F1DA
:103000002003102B3FD80122DFE803F0093D3D0BE0
:103010003D3D3D3D3D3D3D0D3D0F3D3D10000822F8
:1030200004E0102202E0042200E002220C4614F820
:10303000040F48EA0208A0F12003102B27D8012230
:10304000DFE803F00E252512252525252525251643
:10305000250C2525090048EA020896E70222FAE72E
:10306000082248EA020890E7102248EA02088CE7A2
:10307000042248EA020888E701F1010B0AE001F1A5
:10308000020B013106E001F1030B023102E001F114
:10309000040B0331A0F13002109CD2B2092A43D8AC
:1030A0000BF1020B002600BF06EB8601490051FA26
:1030B00080F11BF8010CA1F13006A0F13002D2B270
:1030C000092A00F2E48006EB860100EB41019BF83F
:1030D0000000A1F13006A0F13002D2B2092A00F2BC
:1030E000D88006EB860100EB41019BF80100A1F1BD
:1030F0003006A0F13002D2B2092A00F2248106EB98
:10310000860100EB41019BF80200A1F13006A0F11D
:103110003001C9B20A290BF1040BC5D3ABF1020B84
:103120002E2800F0B98016E02A2810D154F8040B9C
:103130000028064648BF4642002811F8020F48BF43
:1031400048F002088B462E2800F0A68003E00026F7
:103150002E2800F0A1800022A0F168014FEA71033F
:10316000092B0E920B9624D801214FF48072DFE8D0
:1031700003F0050E122020201B20201B594611F8B9
:10318000010F682840F0E4800221C0220CE00121F8
:103190004FF4007208E0594611F8010F6C2840F016
:1031A000DB8002214FF440721BF8010048EA02085C
:1031B0008B44A0F12502532A00F2D7800821102564
:1031C000DFE812F0CE00D300D300D300D300D30049
:1031D000D300D300D300D300D300D300D300D30057
:1031E000D300D300D300D300D300D300D300D30047
:1031F000D300D300D300D300D300D300D300D30037
:10320000D300D300D300D300D300D300D300D30026
:10321000D300D300D300D300D3005800D300D30091
:10322000D300D300D300D300D3003401D300D300A4
:10323000D300D300D300D300D300D300D300DF00EA
:10324000E2005400D300D300D300D3005400D300D5
:10325000D300D300D300D3003F015800D300D300E4
:103260000001D3005400D300D300340128F010082B
:103270000A25DBE05A4612F8011F48F488785629DF
:103280004FF0100140F0D18056209346D9E0ABF1C9
:10329000010B2E287FF45FAF594611F8010F48F457
:1032A0008068A0F13002D2B2092A40D80BF1020B9B
:1032B000002200BF02EB8201490051FA80F19BF825
:1032C0000000A0F13002D2B2092AA1F130023FF68B
:1032D00043AF02EB820100EB41019BF80100A0F13A
:1032E0003002D2B2092AA1F1300200F2628102EB6F
:1032F000820100EB41019BF80200A0F13002D2B242
:10330000092AA1F1300200F2578102EB820100EBA1
:1033100041019BF80300A1F13002A0F13001C9B2D4
:103320000A290BF1040BC5D3ABF1010B14E72A28D2
:1033300006D154F8041B1BF8020F21EAE1720BE7D7
:1033400000228B4608E70BF1010B2E28A4D002E7E0
:1033500048F080088B462CE748F480788B4628E7B5
:10336000109409F10105252002E009F101051094EE
:103370000D9E0C9F31464A465346B8470BF1010457
:10338000F0E5022162205CE018F0020640F0B9810D
:103390000B980228C0F01E82DDE90C781094411CC5
:1033A000444200250F9100BF09EB05022020414651
:1033B0005346B847013560190130F5D1DDE90F8476
:1033C000A9440AE2CDF828A054F804AB0E9E9AF85E
:1033D000000051460028109400F02282002E08BF01
:1033E0004FF0FF36A6F1030CB21E731E043E0025FB
:1033F0000AEB05046178002918BFAB4200F0858113
:10340000A178002918BFAA4200F00682E1780029BD
:1034100018BFAC4500F0028221792C1D11B1AE42DB
:103420002546E5D10AEB0401F9E1102540F0080139
:10343000582908BF48F02008642805D06928294683
:1034400002D028F00C080D465FEA485148BF28F02A
:103450000108562815D0692801D0642827D15FEAD1
:10346000885035D45FEAC85048D45FEA486000F11C
:10347000A680D4F800C05FEA086048BF0FFA8CFC51
:103480009FE054F8040B0D9E41680C9F0D6806EBFD
:10349000090111950368AAEB0902384610940095BA
:1034A000FFF750FD00EB09050BF101045AE55FEA57
:1034B000885033D45FEAC85000F191805FEA4860D9
:1034C00000F1258126685FEA086048BFB6B21FE1B7
:1034D000E01D20F007000246436852F8080B50EA4E
:1034E000030108BF28F01008CDF828A0109261BB96
:1034F00018F4806129D01F46002255E054F804CB0F
:10350000BCF1000F08BF28F01008BCF1000F1094A8
:1035100075D118F4806072D00026ECE0E01D20F038
:103520000700446850F8086B109056EA040008BF82
:1035300028F010080028CDF828A040F0828018F468
:10354000806000F07E800022A2E080EAE370B0EBB1
:10355000E37408F0200083EAE37180F061001F4605
:1035600061EBE376F6304FF0000A0F9020463146CB
:103570002A460023FCF798FE00FB154202F0FE03EA
:103580000A2B0F9B38BF3023641B76F100061344CF
:103590000AF1010211AE06F80A3005D3BAF11F0F85
:1035A000924604460E46E1D3F80F11A9CDE9001268
:1035B00072E00BF1010BCFE50BF1020BCCE594F8B7
:1035C00000C0BCF1000F08BF28F01008BCF1000FCC
:1035D00010946BD118F4806068D0002688E054F80D
:1035E000046B002E08BF28F01008002E109440F045
:1035F0009A8018F4806000F096800023AEE008F016
:10360000200181F06101604601F1F60E0023BCF15A
:10361000000F48BFCCF10000B0FBF5F1724601FB92
:10362000150606F0FE040A2C38BF302232445E1C18
:10363000A84211A8C2545ED31F2B33460846EBD3D1
:1036400059E008F0200080F0610000F1F6074FF02B
:10365000000A00BF304621462A460023FCF724FE1C
:1036600000FB156202F0FE030A2B3B4638BF3023F5
:10367000761B74F1000613440AF1010211AE06F83C
:103680000A3005D3BAF11F0F924606460C46E1D325
:1036900011A8CDE900020020CDE902050E980C9F8B
:1036A00004900B980D9EDDF828A085E008F020011D
:1036B00081F06101604601F1F60E0022BCF1000FBD
:1036C00048BFCCF1000000BFB0FBF5F1734601FB31
:1036D000150606F0FE040A2C38BF30233344561C6E
:1036E000A84211A8835403D31F2A32460846EBD3BD
:1036F00010980430109011A94FEADC70CDE9001643
:1037000053E00C9F4FF0010867E0611C87E02678CA
:10371000002E08BF28F0100810941EBB18F480601B
:1037200020D000223AE008F0200080F0610000F193
:10373000F60C0022B6FBF5F0614600FB156303F0C2
:10374000FE040A2C38BF30211944531CAE4211AE7E
:10375000B15403D31F2A1A460646EBD311A8CDE96C
:10376000000321E008F0200080F0610000F1F60C79
:10377000002300BFB6FBF5F0614600FB156202F0C6
:10378000FE040A2C38BF302111445A1CAE4211AE3F
:10379000F15403D31F2B13460646EBD31098043085
:1037A000109011A8CDE900020020CDE902050E9885
:1037B0000C9F04900B980D9E0590384631464A4662
:1037C0005346CDF81880FFF7B9FA05460BF101040E
:1037D000FFF7C8BB0C9F4FF0020814F8040B0D99BB
:1037E0004A46534609F10105B84710947EB10B983B
:1037F00080450CD20D9EA0EB080400BF2A46202075
:10380000314653460135B847013CF7D1B6E50D9E28
:103810000BF10104FFF7A6BBA11C00E0E11C0E9E0A
:10382000A1EB0A0208F48063B242314638BF114668
:10383000002B0F9308BF114618F002081CD10B9AF9
:10384000914218D2CDF82080DDF82880DDE90C7691
:10385000501C551A0024099009EB0402202031461F
:103860004346B8470134A542F6D19AF80000DDF886
:103870002080A14403E00131DDE90C760991C8B153
:103880000AF10104DDF828A00DE000BF01390E9116
:10389000C0B231464A46534609F10105B84714F80B
:1038A000010BA94648B10F990029F1D00E990029C2
:1038B000ECD101E0DDF828A04D46B8F1000F3FF44F
:1038C0005DAD0B9809998142BFF458AD441A00BF11
:1038D0002A462020314653460135B847013CF7D1EE
:1038E0004CE54A46002031465346D14528BFAAF14F
:1038F0000102B847484619B0BDE8F08F2DE9F04FF6
:1039000081B040F60448C2F20008D8F8000024F064
:103910002BFE40F65029C2F2000999F80010044627
:1039200081F0010089F8000040F6B000C2F200000A
:10393000FEF7DAFB002800F0AD8040F6482740F69D
:10394000B00B0646C2F200074FF0000AC2F2000BAD
:1039500008E000BF58463146FEF7E8FB064600285F
:1039600000F0988096F8420099F80010C0F38002A9
:103970008A4287F800A000F0858000F0FB0242EA4E
:103980008101020786F842101AD4316B002917DC36
:10399000091915D4C00709D1716939B13046884772
:1039A000316AB26A014410443162B062B16809B14F
:1039B0003046884796F8420040F0080086F84200FA
:1039C000306B001930635DD4F16A8842C8BF31633F
:1039D000F16930468847726A904205D072680146A4
:1039E00070620AB130689047D6E90B01814249DB29
:1039F00096F84210B6F8403011F0020207D133B108
:103A00004FF6FF75AB421CBF013BA6F840301B04CC
:103A100006D0D6E90E356D4235639BB31AB105E089
:103A2000B36B73B16AB9726B5242326381F00201B7
:103A300086F84210B16A326A3162C6E90A23B0637D
:103A400020E058463146FEF7F5FB01203870584615
:103A5000FEF74AFB014640F6BC00C2F200000068D7
:103A600011B124F051FE01E024F03EFEF16809B1ED
:103A700030468847316909B130468847304619F0E9
:103A8000DBFF00BF387801287FF464AF5846FEF7AB
:103A90002BFB63E724F084FDC8F8000001B0BDE80B
:103AA000F08F0000B0B5044640680D4610B12946BD
:103AB000FFF7F8FF2268002A08BFB0BD204629465C
:103AC000BDE8B0401047000089B208F031BA0000EC
:103AD00089B208F02DBA000089B208F097BA000048
:103AE0002DE9F04F91B04FF29C4A49F6B85808259D
:103AF000C2F2000AC0F60408E9468FE081B200EB8A
:103B0000D13000B2411006294FF00601C8BF411064
:103B1000DAF800304FF00602B8BF421058F8230020
:103B2000891AB0FBF1F606FB1100591C10443F291D
:103B300088BF0021CAF800100FFA8BF102B22046AC
:103B400020F0BCF94FF2A8412046C2F200014FF428
:103B500000321BF05FFBDAF8000040F2011358F866
:103B60002010C1F200030A09A2FB03231A0C12055C
:103B7000A2EB13420130A1EB02113F2888BF0020C5
:103B80004FF4FC624FF6FF7BCAF800004FF4784018
:103B900002EA511227EA0B0300EA11201A44C1F38A
:103BA000C40110444718204639464FF4003220F033
:103BB00043FB2046002108F029FADAF8000048F219
:103BC0001F5258F82010C5F2EB12A1FB02239A09EC
:103BD000C823013002FB13113F2888BF0020CAF818
:103BE0000000484601F1320607F000FD43F6D120FF
:103BF000C0F6000001900020CDE9080040F26710F7
:103C0000CDE90A06484600940E96ADF840B007F09C
:103C10006DFD204604F020FA013D43D04FF2A44050
:103C2000C2F20000006807F0F3FD4FF6FF720021BA
:103C3000C0F20F0204461FF00FFD0BF0C3FF0BF0A4
:103C4000DBFF20F001010C2902D14FF0060B1EE032
:103C500081B200EBD13000B2411006294FF00601CD
:103C6000C8BF4110DAF800304FF00602B8BF42106A
:103C700058F82300891AB0FBF1F606FB110000EB9F
:103C8000020B581C3F2888BF0020CAF800000BF028
:103C900099FF0BF0B1FF20F001010C297FF42EAF4A
:103CA000062049E711B0BDE8F08F000010B54FF2D3
:103CB000A844C2F20004204622F0A0FB20460D21B9
:103CC00022F0C0FB40F22C10C2F2000000787F21ED
:103CD0000028204608BFFF2122F0ACFBBDE81040C1
:103CE000FFF7FEBE10B54FF2A844C2F20004204612
:103CF00022F084FB2046022122F0A4FB40F22C108B
:103D0000C2F2000000787F210028204608BFFF2172
:103D100022F090FBBDE81040FFF7E2BE2DE9F04134
:103D200082B00BF04FFF4FF2A042C2F200021278B5
:103D3000016849F21923C0F602034B62AAB1406838
:103D400040B1016840F68822C2F2000211600121F0
:103D500024F0E0FC07F044FC016840F64C22C2F27B
:103D600000021160012124F0D5FC0BF02BFF0BF0B9
:103D70007DFF4FF6FF75C0F20F0500212A4604466D
:103D800000261FF069FC2046FF21002220F06CFA7B
:103D9000204617F08BFF4FF22C57C2F20007042188
:103DA0000422386020F016F8204617F07FFF4FF20B
:103DB000EC483968C2F200080D220023C8F8000060
:103DC00000961BF0FBFA20461CF0F6F84FF2A447D1
:103DD000C2F2000700212A4638601FF03DFC3D6812
:103DE00020461DF09FFE064620461CF005FFD8F831
:103DF0000010498B401A043802B22846314620F0A0
:103E00005DF838680521002200231BF0C9FA4FF243
:103E1000A840C2F2000022F0AFF9204602B0BDE88F
:103E2000F04120F0EFBA0000B0B5002941D0802960
:103E30000B460BD3B1FA81F2C2F11A024FF0FF33F5
:103E400003FA02F2D24353187F2B34D89A08002386
:103E500000EB8305D5F814C04FF0FF3505FA02F2E8
:103E600012EA0C0211D092FAA2F2B2FA82FE00EB30
:103E7000C31202EB8E0454F83C2FD2B1556825F0E2
:103E800003058D4226D200BFFEE70269013305FA21
:103E900003F31A400DD092FAA2F2B2FA82F300EBC9
:103EA0008302D2F814C0BCF1000F6246DBD100BF20
:103EB000FEE70020B0BD0022B2EB134F24D1B3FACD
:103EC00083F5C5F11A0223FA02F282F02002C5F14D
:103ED0001903BDE7D568CDB19168C9B1CD60A960BE
:103EE0002568954210D1814221600DD1012101FA4E
:103EF0000EF52CEA050500EB8304656125B905691B
:103F0000994025EA010101611046B0BDFEE700BFFE
:103F1000FEE70000F0B54A68032A09D922F003033E
:103F20000A1D9B1806D05D68EC0704D10846F0BD59
:103F3000FEE700BFFEE725F003047F2C04D84FEA1C
:103F4000950E4FF0000C09E0B4FA84FCCCF11A0590
:103F500024FA05F585F0200ECCF1190CDD686DB35F
:103F60009C686CB3E560AC6000EBCC1505EB8E058E
:103F700055F83C6F9E4211D184422C600ED100EB6B
:103F80008C0501276E6907FA0EF4A6436E612EB9FF
:103F9000066907FA0CF726EA07070761486803284D
:103FA00010D95B6823F003031844043003284860E9
:103FB0000AD920F0030081500846F0BDFEE700BF9B
:103FC000FEE700BFFEE700BFFEE7000070B531B1BD
:103FD00022B14B68DC0704D1FEE700BFFEE70020FA
:103FE00070BD23F0030502F11004A5420ED2032B8D
:103FF0007CD923F0030201F10800835823F0020367
:1040000083504A6822F001024A6070BD01F1040C3D
:104010000CEB020E0EF10B040EF1080324F0030466
:10402000A34200D0FEE7AC1ADEF80450043C05F0D1
:10403000030525430B2CCEF804502BD94C6804F013
:10404000030422434A60DEF80420032A24D922F024
:1040500003055A5942F002025A51DEF804202B445B
:1040600042F00104CEF804404C6843F804EC032C01
:1040700014D924F0030343F80C1022F0030342F098
:1040800003057F2BCEF8045009D84FEA920C002389
:104090000EE000BFFEE700BFFEE700BFFEE7B3FA99
:1040A00083F2C2F11A05EB4083F0200CC2F1190330
:1040B00000EBC31202EB8C0252F83C4FC4B1CEE9C4
:1040C0000240C4F80CE00124056904FA03F6354304
:1040D000056100EB8300436904FA0CF63343436146
:1040E0004B68C2F800E0032B3FF683AFFEE700BF4A
:1040F000FEE7000010B54FF2A844C2F200042046CB
:1041000022F07CF92046032122F0C4F940F22C1061
:10411000C2F2000000787F210028204608BFFF215E
:1041200022F0ACF9BDE8104025F0BABE10B54FF250
:10413000A844C2F20004204622F060F9204647F667
:10414000FF7122F0CDFA2046032122F0A3F940F2BC
:104150002C10C2F2000000787F210028204608BF02
:10416000FF2122F08BF9BDE8104025F099BE000038
:1041700010B54FF2A844C2F20004204622F03EF9E6
:104180002046082122F0ACFA2046032122F082F9D1
:1041900040F22C10C2F2000000787F210028204657
:1041A00008BFFF2122F06AF92046042122F06EF9AF
:1041B000BDE8104025F074BE10B54FF2A844C2F21D
:1041C0000004204622F01AF92046082122F088FA3D
:1041D0002046032122F05EF940F22C10C2F20000CA
:1041E00000787F210028204608BFFF2122F046F9F1
:1041F00020460C2122F04AF9BDE8104025F050BEBF
:1042000010B54FF2A844C2F20004204622F0F6F89E
:104210002046082122F064FA2046032122F03AF9D0
:1042200040F22C10C2F2000000787F2100282046C6
:1042300008BFFF2122F022F9BDE8104025F030BE72
:1042400010B54FF2A844C2F20004204622F0D6F87E
:104250002046082122F044FA2046032122F01AF9D0
:1042600040F22C10C2F2000000787F210028204686
:1042700008BFFF2122F002F92046032122F006F9AF
:10428000BDE8104025F00CBE10B54FF2A844C2F2B4
:104290000004204622F0B2F82046082122F020FA3D
:1042A0002046032122F0F6F840F22C10C2F2000062
:1042B00000787F210028204608BFFF2122F0DEF889
:1042C0002046022122F0E2F8BDE8104025F0E8BDCA
:1042D00010B54FF2A844C2F20004204622F08EF836
:1042E0002046082122F0FCF92046032122F0D2F8D2
:1042F00040F22C10C2F2000000787F2100282046F6
:1043000008BFFF2122F0BAF82046062122F0BEF8AD
:10431000BDE8104025F0C4BDB0B582B0044617F02A
:104320008DF9054617F0CAF938B1208FE08620468E
:104330001DF03AFF012002B0B0BD606A01211DF0FE
:1043400061FC18B1204614F05FFB2AE020460121F1
:104350001BF0E8FD4FF6FF71606A618701211AF0DA
:1043600005FF20462021002214F004FD218FE08E5D
:1043700081420BD02087019001AA20461C2114F015
:10438000F9FC0128D7D120461DF00EFF284617F072
:10439000A1F9042805D120461CF028FC002115F0C5
:1043A000B5FC012002B0B0BDB0B514F0DFFC04468E
:1043B0001CF09CFC0546204609F02AF801462846D8
:1043C0000022BDE8B04023F045B800002DE9F04FD1
:1043D0008DB00792CDE909300891C8784CF2AD1143
:1043E0004CF2B912C0F60001C0F6000210F0010054
:1043F00008BF0A464CF25111DDF86890C0F6000182
:1044000004924CF21D120B46C0F6000208BF134680
:10441000D9F810E00693002808BF0A46059203E089
:104420005FEACC7000F0BB80BEF1000F00F0B780F7
:10443000B9F80200B9F80410D9F80C30AEF1010255
:10444000032AA0EB010A11D2002400221EF0030768
:104450006AD004EB840003EB8000067CF6073DD1B4
:1044600080890244012F3ED15EE000BF2EF0030799
:1044700003F130060024002207E000BF308B024425
:104480000434A74206F15006E0D016F8200CC0070D
:1044900004D136F8240C024404E000BF36F8280C9E
:1044A000AAEB000A16F80C0CC00703D136F8100C62
:1044B000024403E036F8140CAAEB000A307AC00775
:1044C00002D1B088024402E03088AAEB000A307FB3
:1044D000C007D3D0B08AAAEB000AD1E70089AAEBC3
:1044E000000A012F20D0601C00EB800003EB80004D
:1044F000067CF60704D180890244022F05D113E01F
:104500000089AAEB000A022F0ED0A01C00EB80004D
:1045100003EB8000037CDB0702D18089024403E0C7
:104520000089AAEB000A00BFBEF1000F37D0D9F80E
:104530000C80002300264FF0000C0CE008EB030079
:104540008189AAEB050A521A05810136764503F1E5
:104550001403BFF465AF08EB0304207CC507F4D156
:1045600015041BD015B20FFA8AFB9BFBF5F5E16829
:10457000B4F904706943B4F9065009B2A942B8BF4E
:104580000D46BD42D8BF3D468D42D7D040F0010018
:104590002074D9E9038E4FF0010CCFE7FEE70A9CA7
:1045A0000021204616224FF0000B1DF077F9DDF8B0
:1045B00020A0D9F808109AF800600AB2F71EFFB2DE
:1045C000022A3346B8BF0223032F4FF0FF3728BF1C
:1045D000334657FA83F7042F0BD8B9F80230DFE8D7
:1045E00007F0030A131F2B0018990026A1EB030BF9
:1045F0002FE000262DE0189A19B2511A01EBD17163
:104600004FEA610B002624E0189AD21A4FF4803347
:1046100003EB014112B2091492FBF1FB5E4618E074
:104620001899C91A09B291FBF2F6B1B206EBD13171
:1046300009B24FEA610B0CE0189A4FF0000BD21A46
:104640000023CFF6FF7303EB014112B2091492FB72
:10465000F1F69AF80310079DC907C7B208D0DDF834
:104660002480012F06D120461CF042FA834401E049
:10467000DDF82480204629461CF0B8F9002818BF30
:10468000454502D10DB0BDE8F08F0446199830447D
:104690000126C0F206060990204631461DF0BAFAFE
:1046A00060B19AF80300400700F15C810A988068C5
:1046B000416801358D42C0F25B81E3E740F6960028
:1046C000C2F200000288204600211DF0E7F8000633
:1046D00026D0D9F8101041B3D9F80C00BC464A4294
:1046E00000F13C03032153F83C7CA7421FD057182C
:1046F000022F13D053F8286CA6421AD0012F0DD0E8
:1047000053F8146CA64216D047B11F68A74213D0C5
:1047100004315718032F03F15003E4D1002010E0B7
:10472000608C20F4C06060843EE000200AE0033921
:1047300002E0023900E0013901EB810100EB810068
:104740000089674607909AF80310608CC9074FF4F8
:10475000806120F4C06008BF4FF4007108440699DE
:10476000608404F1140006468847079980B28142AC
:104770001AD020461DF018FD6069A169049ACDE9A0
:104780000B01079801B230469047204629210BAA19
:1047900014F0F0FA20461CF0A9FA2221224614F067
:1047A000E9FA20461DF000FD9AF8010001280FD01B
:1047B000022815D1B9F900000599013020F0010651
:1047C00004F114008847301A00EBD070401008E064
:1047D0000599B9F8006004F114008847301A00E028
:1047E000002007909AF803000197C00707D0012F17
:1047F00005D1069904F114008847ABEB000B204665
:1048000000216B22CDF808B01DF048F8064620467E
:1048100000216C221DF042F8074620461DF082F967
:10482000834620461CF0E8F906F4C041B1F5005F6C
:1048300017D131B221F4C041B1F5FA6FBE4611DC97
:10484000B1F57A7FC8BFC1F57A7148F21F5201FBFA
:104850000BF1C5F2EB1251FB02F14A1102EBD176DA
:1048600000E0BE460EF4C041B1F5005F039618D1DA
:104870000FFA8EF1DDF808B021F4C041B1F5FA6FFE
:1048800011DCB1F57A7FC8BFC1F57A71484348F2AF
:104890001F51C5F2EB1150FB01F0411101EBD07E2D
:1048A00001E0DDF808B0214631F8142F9AF8030032
:1048B0004F88009002975F4610F00100079B08BFE9
:1048C0001F46169EDDF80CC000286644A6EB0202C7
:1048D0001744179A08BF5B46029E7244921BD61873
:1048E00047EA0602120421D0204607911DF05CFC25
:1048F000A08A218B3844A082C819E18A20838819B4
:10490000618BE0828819608320461DF04DFC39B22E
:1049100032B2204600231DF0FBFC9AF803300799C1
:104920000A9C019F012603F0010003E00A9C019FFD
:104930000126009BC0F2060628B1012F03D1099879
:10494000ABEB000B09E008460699884709999AF8ED
:10495000033001EB0B0202EB000B580702D4A068F6
:10496000A6E600BF012DFFF68DAE0A98013D8068D6
:10497000006850F82540002C3FF484AE45457FF494
:104980008BAE7FE610B5022A3BD9C1F3C42CC0F32D
:10499000C423634400F01F0EC1F34514C0F3451057
:1049A0004FF01F0C1F2B28BF63462044DB023F281B
:1049B00028BF3F2043EA401001F01F0373441F2B20
:1049C00038BF9C46FF2A40EA0C0008BF10BD4FF6D6
:1049D0001F0301EA030401F4FC6144EA01410340BE
:1049E000043200F4FC605B1AD20803EB0040504331
:1049F00001EB50104FF61F01C0F2E071084040EA91
:104A00001041084610BD0000022A3AD980B5C0F313
:104A1000C42CC1F3C42303FB0CFC00F01F0E01F0F7
:104A20001F0303FB0EFEC0F34510C1F345135843AB
:104A30006FF01F0303EA50002CF01F039B0143EAB1
:104A40005E131844FF2ABDE8804008BF70474FF648
:104A50001F030B4001F4FC6143EA014120F4FC63B5
:104A6000043200F4FC605B1AD20803EB00405043B0
:104A700001EB50104FF61F01C0F2E071084040EA10
:104A80001041084670470000022A3CD980B5C1F3A6
:104A9000C42CC0F3C423ACEB030300F01F0CC1F320
:104AA000451EC0F3451023EAE373AEEB0000DB02C2
:104AB00020EAE07060F34A1301F01F00A0EB0C0045
:104AC00020EAE0701843FF2ABDE8804008BF704725
:104AD0004FF61F0C01EA0C0301F4FC6143EA0141AB
:104AE00000EA0C03043200F4FC605B1AD20803EB0A
:104AF0000040504301EB50104FF61F01C0F2E0712F
:104B0000084040EA104108467047000070B582B086
:104B1000044614F02BF90546204614F00FF906461A
:104B200028461CF0E3F80A2E044609D02B2E4CD15F
:104B3000618D2046002202B0BDE8704022F08ABCA0
:104B400016F07CFD10B1007901283ED001A928465D
:104B50001CF050F994F82C0010F00C0F18D02846D7
:104B60001BF0C6FF054686B22046002116221CF027
:104B700095FE05EBD632C1B2BDF9040012B201298F
:104B80004FEA620114BF0844081A90FBF5F00CE0EC
:104B900028461BF091FF81B2BDF9062000EBD13110
:104BA00009B202EB610191FBF0F000B220EAE0757E
:104BB000668D20462946012222F04CFCB54204D0E5
:104BC00020461C21002214F0D5F802B070BD000070
:104BD00010B582B090F8542002F001038B4222D02D
:104BE000002918BF012102F0FE021144426A80F838
:104BF0005410B0F848C0918AB0F84CE001EB0C03B7
:104C0000ADF80030D28AB0F84E30B0F84A40714466
:104C1000ADF80410D1181444ADF806106946ADF88B
:104C200002401DF0F1FA02B010BD000088B211463A
:104C300009F080BF2DE9F041164640F22302C2F28E
:104C400000021278804692B10D46B1F90000B1F928
:104C50000210B5F90420B5F90630FCF705FA2CF07E
:104C60008DF9B5F90270B5F90600874204DD4046BA
:104C7000BDE8F0410AF0A0BFA98804E002B2974263
:104C800007F10107F3DAB5F900200BB29A42F5DC1F
:104C9000541E023E36F8020F2CF06AF9B5F90400F2
:104CA00001348442F6DB81B2E8880236E6E7000090
:104CB0002DE9F04F9BB00E46C9780329C0F00B8256
:104CC000B6F920708246138851889088D288022FC6
:104CD000ADF86430ADF86610ADF86800ADF86A2044
:104CE0001BDB96F82270FD2F17D33788AFB196F8EB
:104CF0002370C7F3C0052B44ADF86430C7F38003BD
:104D00001944ADF86610C7F30011401AADF86800F9
:104D1000C7F34000101AADF86A00DAF8082017A8A7
:104D200019A9FCF751FB002800F0D581F07B062182
:104D300010F0070008BF0421775A71890DF164084B
:104D40007C1A18BF044640460CF002FAB178B6F857
:104D500000C000250028CDE91555CDE91355CDE952
:104D6000115510958DF85910ADF8487008BFBCF179
:104D7000000F00F0768106F1060EF678BDF8681097
:104D8000BDF864200294FC2E88BF4FF0FF36891ACC
:104D9000BDF86A20BDF8663001310FFA81FBD11AE7
:104DA00001310FB23B46BB45B8BF5B46BDF8601052
:104DB000BDF85C200FFA8CF9B9EB630FA8BF4FEA7E
:104DC00063098B1A5C1C0023B9F1000FC8BF0123D3
:104DD0000343012B0FFA84F8CDE9040A17D14046AA
:104DE000744618F09DFC0DF1280A05460FFA89F269
:104DF00019A9504600230CF025FF504600210BF066
:104E0000FDFEBDF85C20BDF86010A64601E04FF63F
:104E1000FF70019008A810901590FF20ADF8202099
:104E2000ADF824108DF85800704659463A4613954F
:104E300014F0F4FB029B039068B1D8B202280AD1A7
:104E40000398BDF95C108068BDF9642000EB410057
:104E5000A0EB420011900498D8B3BDF95E40BDF9B3
:104E60006200DDF80CA0844200F31F813146DEB2FF
:104E7000CFB20DF140090AE0059849460DF0C6FF92
:104E8000BDF96200844204F1010480F20E812846DB
:104E900039464246ADF82240ADF8264019F072F985
:104EA000BDF95C1022B2284643460CF0FFF80128F9
:104EB00008BF0220012E8DF85000DDD1DAF808007D
:104EC000BDF96610A0EB410030F81400ADF84800C1
:104ED000D2E70FFA89F001285FDB02984FF0000B50
:104EE000F7B2C0B2049007E0059810A90DF08EFF4C
:104EF0000BF1010BD94550D0BDF86600BDF95E102D
:104F0000584404B2BDF86A008C42A0EB0B000FFAC3
:104F100080FA03DABDF962008245E9DC28463946A9
:104F2000424619F02FF9BDF9201028462246434683
:104F30000CF0BCF8BDF95E10012808BF02208C42BD
:104F40008DF8500013DB0498ADF822400128ADF82D
:104F5000264008D10399BDF966008968201A31F806
:104F60001000ADF84800059810A90DF04FFFBDF9ED
:104F700062008245BCDC0498ADF822A00128ADF89F
:104F800026A0B1D10399BDF966008968AAEB00009B
:104F900031F81000ADF84800A6E7BDF86400BDF890
:104FA0006610ADF81800BDF86800B346ADF81C00F7
:104FB00001EB0900BDF86A10ADF81A00A1EB090079
:104FC000ADF81E0006A80CF0C3F8029B06460028A8
:104FD00008BF5FEA036053D0BDF96A00BDF96610EF
:104FE000DDF80CA0A0EB090201EB090494424FF09C
:104FF00001028DF858B08DF8502056DC401AA0EB15
:105000004900471C5FFA8BF95FFA83FB08E000BF99
:10501000059810A90DF0FAFE013F04F1010444D0F7
:105020006EB128464946424619F0ACF8BDF95C100D
:1050300022B2284643460CF039F88DF8500050460D
:10504000BBF1010FADF82240ADF82640E0D18068F9
:10505000BDF96610A0EB410030F81400ADF848002F
:10506000D6E721067FF487AEF07810A98DF85800B6
:105070005046CDF840800DF0C9FE1BB0BDE8F08F62
:10508000BDF86600BDF86A104844ADF82200A1EBF7
:105090000900ADF82600002013900598DDF80CA05B
:1050A00010A98DF858B00DF0B1FE15B1284618F0D2
:1050B00067FC019A4FF6FF7190B2884205D010B29A
:1050C0000DF0B2F80AA80CF023F8BAF1000F02D0E4
:1050D000504614F09BFA1BB0BDE8F08F2DE9F04F5D
:1050E00093B00D460969002900F0D5808046A87E5E
:1050F0000328C0F0D0801646D8F8082011AC20460E
:105100003146FCF761F9002800F0C580D8F8089016
:10511000C8F80840286916F083FA02284DD1D5E96D
:105120000412002741F6FF70CDE9007010A800239B
:10513000029723F0A7FD3088B18806AC091A013127
:105140008AB201EBD231BDF8402009B200EB610018
:1051500002EBD23109B2A0EB6100ADF83800104487
:105160007188F2880138ADF83C00501A013082B2E3
:1051700000EBD230BDF8422000B201EB600002EB40
:10518000D23109B2A0EB6100ADF83A001044013809
:10519000ADF83E0020460BF09DFCD5E90430A97E19
:1051A0000690288B8DF83210ADF824000EAA4046E8
:1051B000214600970BF066F96BE0286910AC214698
:1051C00015F0E6FB012864D106A80BF047F99DF81D
:1051D0002400A9782F7F01F00F0100F0F000AA7ED3
:1051E000EB7E0844298B8DF82400ADF820108DF853
:1051F00022308DF82320C7B19DF84310BDF841201F
:10520000B6F902C0B6F9060042EA014E0CEB5E3177
:105210004B1E8445CDF81090ADF83AC00590ADF81E
:105220003E303BDDDDF8109033E03088B188BDF8CA
:105230004130091A01318AB201EBD2319DF8432085
:1052400009B200EB610043EA0241C3F3C902801ACC
:105250007288F788C3F38A03BF1A0137BEB207EB1F
:10526000D637ADF838003FB2A2EB9132184402EBCA
:1052700067020138ADF83C0002EB513001382B6970
:10528000ADF83A20ADF83E0006A90EAA40460AF055
:1052900067FFC8F8089013B0BDE8F08FB288671CAC
:1052A0004FEA5E340DF1180A0DF1380B0DE000BF26
:1052B0000CEB04000FFA80FCADF83A00059823448B
:1052C00000B28445ADF83E30ACDCB6F90010CEF348
:1052D0008A000FFA82F908444945A0F10100ADF8AF
:1052E0003810ADF83C00E3DC2B69404651465A4685
:1052F0000AF036FF3988BDF83820C1F38A039C18BC
:10530000BDF83C20B8781344B6F90420ADF8384015
:1053100024B29442ADF83C30E6DD41EA004EBDF8DF
:105320003AC0BDF83E30F088CEF34A340590BFE76E
:105330002DE9F04FA7B0329EDDE93089834608465B
:105340001C4615460F460BF003FF58EA040182463F
:1053500008BFBAF1000F2AD0DBF808201EA8394692
:10536000FCF732F8002800F00583BDF87C00BDF89A
:105370007810CDF83CB0401A013006B220A81C21AC
:1053800018F0AEFF304618F0CBF9012CCB46239035
:105390000A967ADB0DF16009484639462246002319
:1053A0000CF050FC484600210BF028FC6FE020A8D0
:1053B0001C21CDF83CB018F093FFB7F90240B5F9C5
:1053C00002A018A8ADF888908DF89860B7F9006031
:1053D000B7F90410B7F90680B5F900B0B5F90420A3
:1053E000B5F906902090AAF101005445ADF860602F
:1053F000ADF86410ADF86240ADF86600CDE90D215E
:1054000002DD4046494605E00F9820A90DF0FEFC5C
:10541000E988F8880131C845ADF86210ADF866003A
:1054200008DB0F9820A9A84635460DF0EFFCB8F828
:105430000600454639882A88ADF86010511E2A4674
:105440005445C8BF3A4652885E45DDF83CB0ADF8D9
:105450006410ADF86220ADF8660003DC20A9584660
:105460000DF0D4FCA888DDE90D210130ADF8600015
:10547000B8889142ADF86400C0F27C8220A95846F9
:105480000DF0C4FC27B0BDE8F08F4FF6FF700DF1B2
:1054900048090990329E48462946424601230CF0AD
:1054A000D1FB484600210BF0A9FB0B9010A82090DF
:1054B0002590B7F90000B7F90410B5F90090B7F9D5
:1054C00002C000EB040EB5F90480ADF888B08DF889
:1054D0009860B7F90620B5F90260CE45A1EB040B40
:1054E0000D90B5F90630D8BFCE46C3450CEB04008D
:1054F0000C91A8BFC346B042D8BF30461146121B1C
:1055000008909A423398A8BF1A46BAF1000F8DF856
:1055100099000E961ED0BDF87800BDF97A50ADF80E
:105520004000BDF97E008E46BDF87C100A9F854282
:10553000ADF8441040F3838112A80BF0E9FD0B98FD
:105540000CF072FE099C4FF6FF71A0B2884240F049
:1055500008820CE28A4699424FF000004FF00001A9
:1055600005920793B8BF0120B445C8BF01210D9A29
:105570004A454FF00002C8BF01220C9BCDF81880AD
:1055800043454FF00003B8BF01231A431143ABEB6F
:105590000E02013212B2312A4FF0000240EA01003D
:1055A000C8BF012240EA02086046B4454FF001003E
:1055B000CDF80CC08DF89000CDF810B0CDF808E013
:1055C00012DCB8F1000F0FD0039820A9ADF842000B
:1055D000701EADF846000F98ADF840E0ADF844B04D
:1055E0000DF014FCDDF810B007990020CDF804A0F0
:1055F0008A45B8BF012088F0010108430FD1029805
:10560000F988ADF84000E888ADF846100130ADF8F3
:1056100042000F9820A9ADF844B00DF0F7FB0D9BA8
:10562000069E4B4511DC38882988ADF84000481E9D
:10563000ADF84400089820A9ADF842000598ADF8EF
:1056400046000F980DF0E2FB0D9B0C98DDF828B09A
:10565000B04211DBA888B9880130ADF84000089845
:10566000ADF84410ADF84200059820A9ADF8460009
:105670000F980DF0CBFB0D9BBDF87810BDF87C00AA
:10568000B8F1000FADF8401000F01481029A00B29A
:1056900012B2013A8242B8BF1046411A01314F4658
:1056A0000CB2DDF80C900F9D012CADF8440055DBD9
:1056B0004FF00008BB42D8BF4FF0010802DD0E9842
:1056C00081451FDC0898BDF97A7006B2BE4219DD2B
:1056D0000DF1800A23982146ADF84270ADF846706E
:1056E00018F03CFE2398BDF940103AB223460BF067
:1056F000DDFC8DF89000284651460DF087FB013700
:10570000BE42E7D10199079A00209142A8BF01202B
:1057100040EA0800012821D10599BDF97E000EB2AA
:1057200086421BDA20AF00BF239801362146ADF830
:105730004260ADF8466018F011FE2398BDF94010A4
:1057400032B223460BF0B2FC8DF890002846394661
:105750000DF05CFBBDF97E008642E5DB0499BDF9E6
:10576000780009B201318142C8BF0846BDF87C10FB
:10577000ADF84000081A013004B2012CADF8441015
:10578000C0F2E8800C9806994FF000088842A8BF44
:105790004FF001080F9D02DA0E98814520DC089831
:1057A000BDF97A7006B2BE421ADD0DF1800900BF64
:1057B00023982146ADF84270ADF8467018F0CEFD42
:1057C0002398BDF940103AB223460BF06FFC8DF8D8
:1057D0009000284649460DF019FB0137BE42E7D13B
:1057E0000199079A00209142A8BF012040EA0800D1
:1057F000012840F0AF800599BDF97E000EB28642C7
:1058000080F2A88020AD00BF239801362146ADF874
:105810004260ADF8466018F0A1FD2398BDF9401034
:1058200032B223460BF042FC8DF890000F982946C7
:105830000DF0ECFABDF97E008642E5DB8AE04FF020
:10584000000A9E45B8BF4FF0010A089964460FFA56
:1058500081FB0FFA82F90DF1800826E04D454FF0EB
:105860000000C8BF01201AEA000F7FF465AE23983C
:105870003946ADF84250ADF8465018F06FFD239808
:10588000BDF978102AB23B460BF010FC8DF8900061
:105890000F9841460DF0BAFA0E9EBDF87E0001B297
:1058A0008D4205F10105BFF647AEB442D6DD5D4538
:1058B000F5DBD3E7B5F90210B7F90220891AA14246
:1058C000C8BF0C4621040129ADF8440042DB1FFA91
:1058D00084F900240DF18008B9F1010FD8BF4FF011
:1058E000010902E00134A14534D07888BDF97A106D
:1058F000204405B2F8888D42A0EB040006B203DA1A
:10590000BDF97E008642EDDC2398594618F026FD4D
:105910002398BDF940102A465B460BF0C7FBBDF942
:105920007A108DF890008D4207DB0F984146ADF854
:105930004250ADF846500DF069FABDF97E0086423E
:10594000D0DC0F984146ADF84260ADF846600DF0EE
:105950005DFAC7E712A80BF0DBFB0B980CF064FCB8
:10596000099C18A80BF0D4FB20B20CF05DFC239826
:1059700018F006F827B0BDE8F08F00002DE9F04FD1
:1059800091B088464FF6FF718A424CD0446A9146E6
:10599000B4F820A006469A4504D0608C238440F0D9
:1059A0000400608420464FF4802157221BF076FFCC
:1059B000054620464FF4802159221BF06FFF074611
:1059C000706A2D8900211FFA87FB1BF00FF8E91977
:1059D00007EBDB33C08A01FB09F21BB2A2EB6302C7
:1059E0001044ADF83E000844716A0138ADF8420039
:1059F000888A098B01ADADF83C002846ADF840100F
:105A00000CF03CFC20464FF480212A461CF06CFA36
:105A10000FAA404629460CF01BFC608CA4F820A07D
:105A200020F00400608411B0BDE8F08F2DE9F0474C
:105A30008EB088464FF6FF718A4260D0456A16469E
:105A4000B5F820900746994504D0688C2B8440F027
:105A50000400688406AC20460BF03CF828464FF45E
:105A6000802122461CF088F928464FF480215922D3
:105A70001BF014FF796AADF82A0000293FD00846D0
:105A800000211AF0B3FFD0B307460698BDF82A10DC
:105A90000089FA8A084401EBD13109B2A2EB610115
:105AA00000FB061102AE0844ADF812100138A98AB5
:105AB000ADF81600288BADF81010D8F80810ADF826
:105AC000140004AA3046FBF77FFC90B1D8F808A078
:105AD000384607F11404C8F8086016F01BFD0346A9
