:020000040800F2
:10000000701D01209D010008A5010008A70100083E
:10001000A9010008AB010008AD01000800000000C4
:10002000000000000000000000000000AF01000818
:10003000B101000800000000B301000811440008ED
:10004000B7010008B7010008B7010008B7010008B0
:10005000B7010008B7010008B7010008B7010008A0
:10006000B7010008B7010008B7010008B701000890
:10007000B7010008B7010008B7010008B701000880
:10008000B7010008B7010008B7010008B701000870
:10009000B7010008B7010008B7010008B701000860
:1000A000B7010008B7010008B7010008B701000850
:1000B000B7010008B7010008B7010008B701000840
:1000C000B7010008B7010008B7010008B701000830
:1000D000B7010008D1460008B7010008B7010008C1
:1000E000B7010008B7010008B7010008B701000810
:1000F000B7010008B7010008B7010008B701000800
:10010000B7010008B7010008B7010008B7010008EF
:10011000B7010008B7010008B7010008B7010008DF
:10012000B7010008B7010008B7010008B7010008CF
:10013000B7010008B7010008B7010008B7010008BF
:10014000B7010008B7010008B7010008B7010008AF
:10015000B7010008B7010008B7010008B70100089F
:10016000B7010008B7010008B7010008B70100088F
:10017000B7010008B7010008B7010008000000003F
:10018000B7010008B7010008DFF80CD000F056FDF9
:1001900000480047C9D00208701D0120064880476A
:1001A00006480047FEE7FEE7FEE7FEE7FEE7FEE75C
:1001B000FEE7FEE7FEE7FEE7C94400088901000804
:1001C0002DE9F05F0546002092469B46884606468C
:1001D000814640241BE0284641464746224600F01F
:1001E00006FC53465A46C01A914110D31146184690
:1001F000224600F0EDFB2D1A67EB01084F46224620
:100200000120002100F0E4FB17EB00094E41201E05
:10021000A4F10104DFDC484631462A464346BDE8E6
:10022000F09FD2B201E000F8012B491EFBD27047CB
:100230000022F6E710B513460A4604461946FFF7B2
:10024000F0FF204610BD421C10F8011B0029FBD115
:10025000801A704710B5002200E0521C835C8C5C51
:10026000A34201D1002BF8D1D8B2E1B2401A10BD9F
:10027000034611F8012B00F8012B002AF9D118468A
:10028000704700000FB400B58DB010A909900B9015
:1002900000914FF0FF300A9000200C900548069026
:1002A000054807906A4609A80F9900F0C9FB0DB0F0
:1002B0005DF814FB5D0A00087B0A00082DE9FF4F7A
:1002C000087883B09946FF2805D0491C2D2804D012
:1002D0000024002008E000200BE00124F9E700EBF7
:1002E000800003EB4000491C0B78FF2BF7D104B1D1
:1002F000404200230293147819461D462D2C01D04C
:100300002B2C04D1521C2D2C13D000240294AA466D
:100310001478FF2C0FD00A25A3FB057801FB05817B
:100320004FF0000C03FB0C11521CE3194AEB0101C6
:10033000EEE70124EAE7814453EA010002D019F50F
:10034000C87F06DA03980021C0E9001107B0BDE8B4
:10035000F08F0025AE4E2F46DFF8B882184600F029
:1003600031FCCDE90001B9F1000002DAC9F1000465
:1003700000E004460023A74A1AEB030B42EB045AA1
:1003800012E0E00707D02A4633463846414600F0DF
:10039000ECF9074688462A4633461046194600F0CF
:1003A000E4F905460E466410002CEAD1DDE90001AF
:1003B000B9F1000F5A46534606DA00F048FA3A46B9
:1003C000434600F044FA05E000F0CFF93A464346D0
:1003D00000F0CBF9029A0AB181F00041039AC2E918
:1003E0000001B3E72DE9FF4F1F468DB0D7E9014665
:1003F0004FF0FF382E2045464FF000090B90B969A9
:100400006D1C0E988847396A824688470028F6D1C5
:10041000BAF1FF3F0AD024F4D064002E11DDBAF106
:100420002B0F08D0BAF12D0F0BD102E0404611B0CE
:100430008DE744F48064B9696D1C0E988847824644
:10044000761E6946600501D52D2000E02B208DF831
:10045000000001F1010B0DF1200809E0B9696D1CE4
:100460000E98884782460F9844F40074761E056003
:10047000002E02DDBAF1300FF0D00B998A453ED143
:1004800044F0800406E00F99681CA9F1010944F4C6
:1004900000740860B9696D1C761E0E988847824604
:1004A0003028F0D02BE00B998A4505D1200603D4E3
:1004B00044F08004761E18E0504634F0ABF908B3DF
:1004C0000DF11302761EAAF1300044F40074934536
:1004D00006D20BF8010B200607D5A9F1010003E0B5
:1004E000200602D409F101008146A00502D50F992A
:1004F000681C0860B9696D1C0E9888478246002EFA
:10050000D1DC53E0002E51DDBAF1650F02D0BAF113
:10051000450F4BD1A00549D5B9696D1C24F4407431
:10052000761E0E9888478246002E0CDD2B2804D0BC
:10053000BAF12D0F07D144F48074B9696D1C0E987F
:1005400088478246761EE00501D52D2100E02B214B
:1005500008F8011BCDF82C8021E00DF12901761E51
:1005600044F4007488450CD2AAF1300010F0FF006A
:1005700088F8000002D10B99884509D908F10108D3
:1005800006E0E00501D5244801E042F20F70814603
:10059000B9696D1C0E98884782460F980560002E39
:1005A00004DD504634F036F90028D6D1F9690E98AA
:1005B0008847FF208BF8000088F800000020069094
:1005C00007904B466A4608A906A8FFF777FEA005E4
:1005D00002D46FF001002AE714F0240F0AD0E007DC
:1005E00014D1DDE906123868031D3B600068C0E9DC
:1005F00000120BE0DDE9060100F0B8F90146E00762
:1006000004D13868021D3A600068016028460EE790
:10061000000014400000F03FF1D8FFFF2DE9FE4F2D
:10062000804681EA0300C00F0C46009021F0004193
:1006300023F00045B8EB0200A94105D2404621460F
:1006400090461C460B46024623F00040104347D01C
:10065000270DC7F30A00C3F30A510290401A019014
:1006600040286BDAC3F3130040F4801B00989246D5
:1006700020B10023D2EB030A63EB0B0B0198594620
:10068000C0F14002504600F0A3F906460D46504620
:100690005946019A00F0BBF910EB080061410024B3
:1006A00087EA115284EAE7731A4340D0009A62B392
:1006B000019A012A4FEA075215DC001B61EB020187
:1006C0004FF0004202EA0752CDE90042001C41F51A
:1006D000801132462B4600F027FA03B0BDE8F08FB8
:1006E00040462146F9E7001B61EB0201001C41F581
:1006F000801300185B412018A2F5001747EB030197
:1007000040EAD570B6196D4111E06D084FEA360622
:1007100045EAC0754FEA0752001B61EB0201001C5D
:1007200041F5801149084FEA300000195141324625
:100730002B4603B0BDE8F04F00F0E7B90098012266
:1007400040000023D0EB020263EBE07300982146E7
:100750004FEAE074B8EB000061EB0401E9E783F0D5
:1007600000435BE781F0004158E72DE9FE4F81EA45
:10077000030404F0004421F0004100944FF0000B0A
:1007800023F0004350EA01045ED052EA03045BD038
:10079000C3F30A54C1F30A552C44A4F2F334019470
:1007A000A0FB0254C1F3130141F48011C3F31303FE
:1007B00043F4801301FB024400FB034E840A970AB2
:1007C00044EA815447EA8357A4FB076802958D0ADF
:1007D00005FB07854FEA932C04FB0C542705029D6B
:1007E0004FEA065847EA1637B5EB08056EEB070CDB
:1007F000870E920E47EA811742EA8312A7FB020195
:10080000B6EB0B0164EB00042B0D43EA0C335E18CE
:1008100044EB1C50DA465146E7FB0201C5F31304D2
:100820004FEA0B3343EA14534FEA0432019C43EA84
:100830000603A4F10C040294009CCDE900B400F07E
:1008400073F903B0BDE8F08F00200146F9E72DE908
:10085000F04D81EA030404F0004B21F000451446FA
:100860004FF0000A23F0004150EA050220D054EA7C
:1008700001021DD0C5F30A570246C5F31303C1F3A5
:100880001300C1F30A5640F4801543F48013A7EB1C
:100890000608101BD64608F2FD3873EB050002D39C
:1008A00008F1010801E092185B41B8F1000F03DA8A
:1008B00000200146BDE8F08D00204FF4801106466F
:1008C00084460EE0171B73EB050705D3121B63EB81
:1008D000050306434CEA010C49084FEA3000921820
:1008E0005B4150EA0107EDD152EA030012D082EADF
:1008F000040083EA0501084305D0101BAB4106D272
:100900000122002306E000224FF0004302E06FF0D6
:10091000010253101AEB06004CEB085110EB0A00D1
:1009200041EB0B01BDE8F04D00F0EFB80EB540F221
:10093000334102910021CDE900110A460B4600F037
:10094000F3F803B000BD00F0004230F000400AD0E0
:10095000C10D01F56071C0F3160042EA0151C208F1
:1009600040071143704700200146704701F00043E3
:1009700030B421F0004150EA010206D00A0DA2F580
:100980006072C1F31301002A02DC30BC0020704702
:10099000440F44EAC104C100E01830BC00EBC2506F
:1009A00000F07CB830B50B4601460020202201241F
:1009B00009E021FA02F59D4205D303FA02F5491B2D
:1009C00004FA02F52844151EA2F10102F1DC30BD43
:1009D000202A04DB203A00FA02F1002070479140FF
:1009E000C2F1200320FA03F3194390407047202AF4
:1009F00004DB203A21FA02F00021704721FA02F3C9
:100A0000D040C2F120029140084319467047202A85
:100A100006DBCB17203A41FA02F043EAE07306E026
:100A200041FA02F3D040C2F1200291400843194636
:100A3000704700000268114413780160184670473F
:100A4000D1600449516104491162002111611146CC
:100A500000F00CB9350A0008610C0008426842B188
:100A6000016811F8013B23B1521EC0E9001218467B
:100A700070470121C160881E704742685AB1C3683F
:100A8000016843B983688B4205D0491E521CC0E9F6
:100A90000012002070474FF0FF3070470029A8BFB8
:100AA0007047401C490008BF20F00100704710B497
:100AB000B0FA80FC00FA0CF050EA010404BF10BC4C
:100AC000704749B1CCF1200421FA04F411FA0CF179
:100AD00018BF012121430843A3EB0C01CB1D4FEAB2
:100AE00000614FEA102042BF002010BC704700EBAD
:100AF000C35010440029A4BF10BC7047401C4900DB
:100B000008BF20F0010010BC704710B5141E73F12F
:100B1000000408DA401C41F1000192185B411A43BD
:100B200001D120F0010010BD2DE9F04D92469B4609
:100B300011B1B1FA81F202E0B0FA80F220329046AF
:100B4000FFF746FF04460F4640EA0A0041EA0B0160
:100B500053465A46084313D0114653EA010019D0B0
:100B6000C8F140025046FFF742FF05460E46504688
:100B700059464246FFF72CFF084305D0012004E008
:100B800020463946BDE8F08D0020054346EAE07670
:100B90002C4337430A986305E40AA0EB08000022BF
:100BA000FD0A44EA47540A3002D500200146E9E72D
:100BB000010510196941DDE9084500196941BDE8E1
:100BC000F04DA2E70EB540F2334202920022CDE989
:100BD00000221346FFF7A8FF03B000BDC1F30A527D
:100BE000C1F3130140F2FF3341F480119A4202DA5B
:100BF00000200146704740F233439A42A2F233424A
:100C000002DC5242FFF7F3BEFFF7E2BE30B5041E2E
:100C100071F1000404DB4FF00044404264EB010139
:100C2000141E73F1000405DB1C464FF000435242D2
:100C300063EB0403994208BF904230BD064C074D58
:100C400006E0E06840F0010394E80700984710349C
:100C5000AC42F6D3FFF79CFAB0950308D095030891
:100C6000C0B24FF4F05100F097B900002DE9F34FF6
:100C70008BB04FF0000801F10C000C464FF0010B57
:100C800046460DF1080A01906269012101989047DA
:100C9000051E2DD0252D2CD0216A8847C0B1626950
:100CA000012101989047216A88470028F7D1411E09
:100CB00062690198904700E0761CA1690B9888470B
:100CC000216A88470028F7D1E1690B988847DBE75C
:100CD000A1690B9888470746A84201D1761CD3E743
:100CE000E1690B9888477F1C02D1B8F1000F6FD0E3
:100CF00046E1002762693D463946019890472A2817
:100D000004D162690121019890470125DFF884929E
:100D10006269012101989047A0F130010A290AD2A5
:100D20004F45E5DC07EB870100EB4107303FDFD49F
:100D300045F01005ECE7E90601D46FF000476C2898
:100D40000AD04C2814D0682815D06A280DD07428F1
:100D50001CD07A281AD01DE06269012101989047C1
:100D60006C2802D045F0040514E045F002050DE0C2
:100D700045F020050AE06269012101989047682842
:100D800002D045F0080505E045F4006562690121DF
:100D900001989047C4E9015765283DD019DC5828CF
:100DA0007AD00CDC452837D004DC252826D0412811
:100DB00031D131E046282FD047282CD12CE05B28B8
:100DC00077D0612828D063287CD0642823D15AE0CA
:100DD000D0E06F2848D008DC66281DD067281BD0DB
:100DE000692821D06E2816D127E0702845D07328B5
:100DF00068D0752847D078280DD14DE0A1690B98AF
:100E00008847054625283FF469AFE1690B98884774
:100E10006D1C3FF46AAFB3E023466A466FF00100F1
:100E20000B99FFF7DFFA9EE045F040006060A807ED
:100E300023464FF0000236D43EE0E8077FF447AF88
:100E40002068011D21600068290501D506701BE797
:100E5000290701D5068017E7A90703D5F117C0E9CF
:100E6000006111E706600FE745F040006060A807E9
:100E700023464FF0080216D41EE040F60E0125EA84
:100E80000100606016E045F040006060A80723465E
:100E90004FF00A0207D40FE045F040006060A80759
:100EA00008D5234610226FF001000B99AFF30080A4
:100EB00059E007E0234610226FF001000B99AFF3D1
:100EC000008050E04FF000094F464B46632802D0A7
:100ED0005B2806D040E0E80601D40120A06001278D
:100EE0003AE062690121019890475E2805D14FF0F0
:100EF00001096269494601989047216939B9002181
:100F00000A46534643F82120491C0829FADBB0B3AE
:100F1000216969B9C11700EBD16253110AEB830152
:100F200022F01F02821A01200B68904003430B60DD
:100F300062690121019890475D28E8D1B9F1000F5D
:100F400009D00020514651F82020D24341F82020FA
:100F5000401C0828F7DB02AB224600976FF0010027
:100F60000B99AFF3008000280CDA401C08D1BBF1CC
:100F7000000F05D04FF0FF300DB0BDE8F08FFFE758
:100F80004046F9E7E90701D108F1010806444FF0AE
:100F9000000B79E6CCCCCC0C7F2801D9002208E0EC
:100FA000064A02EB5002C007127800D1120902F083
:100FB0000F0201209040084070470000724F030864
:100FC0002DE9F04383B041F60004C4F202044FF06F
:100FD000000820464FF4004100228DF80680ADF84D
:100FE000048000F04FFA40F2B446C2F2000640F22C
:100FF00000014FF00A09C2F2000101AA30460323A2
:10100000CDF8009002F02AF820464FF4004101226A
:10101000012500F037FABDF805004FF4004100BA91
:10102000070D204600228DF80A80ADF8088000F0F8
:1010300029FA40F20301C2F2000102AA304603235A
:10104000CDF8009002F00AF820464FF4004101224A
:1010500000F018FA00EE107A9FED201AB8EE400A60
:10106000BDF8090020EE010A9FED1D1A00BA30EE0E
:10107000010A000DBDEEC00A10EE101A00EE100AB3
:101080009FED181AB8EE400A20EE010A9FED161ADD
:1010900040F2F00630EE010AC2F20006BDEEC00AD0
:1010A000F08010EE100A3180708020468021B780D9
:1010B00000F0E2F93188B0FA80F04009B1F5F07F34
:1010C000307203D87088B0F5887F02D90025C6F841
:1010D0000080284603B0BDE8F08300BF574D8B3E2B
:1010E000000038C2624F283E000010C2EFF31080AB
:1010F00072B600BFFEE70000B0B5B3F5804F0346FF
:1011000016D153F822C00020CCF6F0700CEA000E85
:1011100091E83100D1F818C040EA0E0040EA04100E
:10112000C96840EA052040EA0C0040EA014101E0BC
:101130006FF07041002043F82210B0BD2DE9F04F50
:1011400083B00B68024650F8230001F1240B20F015
:10115000010042F82300D1E902C0D1E900E3019087
:101160008869D1E9049A0290C86BD1E907760090AA
:101170009BE83008D1F8308052F82E008021CFF65D
:10118000F0710840BCF1080F08BF43F0400301991B
:10119000194341EA090141EA0A0139433143214334
:1011A000294341EA0B01029B41EA08011943009BD4
:1011B0001943084340EA0C01002042F82E1003B006
:1011C000BDE8F08FF0B500EB82025068D1E902E48F
:1011D00000F0404CD1E90030D1E9045643EA0C0359
:1011E000002743EA0010CFF6F07740EA0E20896925
:1011F00007EB055540EA04402843FE36084340EA21
:10120000066100205160F0BD70B5866D044600F0A7
:101210003FF994F83510022925D105462068216C44
:10122000026822F016020260426922F080024261E6
:1012300009B9A16C19B1016821F0080101600168C8
:1012400021F00101016000BF20680068C0070ED0D6
:1012500000F01EF9401B0628F6D32020606503200D
:1012600084F835000CE080206065012008E0E06D26
:101270003F2101FA00F0B060012084F83500002021
:10128000002184F8341070BD90F83510022909D17E
:10129000052180F835100068016821F00101016026
:1012A000002070478021416501207047B0B5044699
:1012B00000F0EEF8054640F2BA00C2F200000078F5
:1012C000611C18BF044400BF00F0E2F8401BA042BC
:1012D000FAD3B0BD2DE9F04F82B000F13E4241F6A5
:1012E000004502F1FF77C4F20205082243F6004EE2
:1012F0004FEAB726A84208BF0722C4F2010E072E04
:1013000038BF4FEAB7220125002600274FF000081A
:10131000009208E008F101080437B8F1100F06F157
:10132000020600F0A6800C6805FA08F914EA090F15
:10133000F0D0D1F804B003220BF0030CACF101049F
:10134000B240012C6FEA020A10D88268CC6802EA27
:101350000A02B440224382604268CBF3001422EABE
:10136000090204FA08F42243426005E0BCF1030FCD
:1013700002D14FF0030C20E0C2688C6802EA0A0236
:10138000B4402243BCF1020FC26016D16FF00302D9
:1013900002EA58020244D2F820C007F01C050F23CD
:1013A0000C69AB402CEA030304FA05F52B431362E6
:1013B000D1F804B001250BF0030C02680CFA06F317
:1013C00002EA0A021A431BF4403F0260A2D0002244
:1013D00043F644030192C4F202031A684FF6084C24
:1013E00042F480421A601A68CFF6FF7C02F4804211
:1013F0000192019A28F00302724452F80C3007F06F
:101400000C050F24AC40A343009C04FA05F52B43C4
:1014100042F80C30DEF808204B6842EA090543F632
:101420000C4CDC0258BF22EA0905CEF80850C4F281
:10143000010CDCF800209C0242EA090558BF22EAB0
:101440000905CCF80050DEF804209C0342EA0905A7
:1014500058BF22EA0905CEF80450DEF80020DB036D
:1014600042EA090558BF22EA0905CEF800500125D5
:1014700050E702B0BDE8F08F0069084018BF0120B6
:1014800070470000002A08BF09048161704700000E
:101490004FF66C50C2F200000068704770B5B8B3E8
:1014A000044690F83D0028B9002084F83C0020460E
:1014B00000F0F4FE242084F83D002068016821F04B
:1014C00001010160016841F400410160016821F4FB
:1014D0000041016001F028F948F28041C0F21E018C
:1014E00040F60013D4F804E088424FF00001C0F247
:1014F0003D0348F2A16C4FF0000238BF0121984231
:10150000C0F2010C38BF0122E64538BF0A460AB1D5
:10151000012070BD4DF68361C4F21B31A0FB0112A6
:101520002168950C4B684FF4967623F03F0343EA0D
:101530009243754344F6D3564B60C1F262060B6A80
:10154000A5FB0656B50923F03F03E64538BF950CC9
:101550006A1C1A430A62CA6948F2A0664CF6FF7315
:10156000C0F20106B64522EA03020BD801384FEA61
:101570004E03B0FBF3F001306FF31F30042898BF27
:1015800004201CE0A36801385BB119230EFB03F3B0
:10159000B0FBF3F001306FF31F3068B100F580400D
:1015A00007E00EEB4E03B0FBF3F001306FF31F309A
:1015B00020B100F5004002E0012000E001201043CE
:1015C000C8610868D4E9072320F0C000104318431D
:1015D0000860886848F2FF3204F10C0690434CCE54
:1015E00018431043A5698860C86820F0FF003043A5
:1015F0002843C860086840F00100086000202021EE
:10160000206484F83D10206384F83E0070BD000023
:101610002DE9F04381B01F46164688460446FFF781
:1016200037FF94F83D1020291DD1DDF820900546A4
:1016300020688169890712D5FFF72AFF401B1A2805
:10164000F6D300202021206384F83D1084F83E006A
:10165000216C41F02001216484F83C0003E094F8FF
:101660003C10012903D1022001B0BDE8F083012123
:1016700084F83C100168C90703D1016841F00101F9
:101680000160016821F400610160222184F83D10AD
:10169000102184F83E100021216466626785618D07
:1016A00021850021CFF6FF71E162E16A026811F540
:1016B000803F42F48062026018BF012947D101686F
:1016C00041F4807101604169C90712D109F1010635
:1016D00003E000BF4169C9070BD1002EFAD0FFF724
:1016E000D7FEB9F1000F7AD0401B484577D8206863
:1016F000F0E72169B1F5804F03D148F00101C9B28B
:1017000084E0062101EAD81606F1F00101610146E4
:1017100051F8142F120720D409F1010705E02068C1
:10172000014651F8142F120717D44269520500F1EF
:10173000A380002FF4D0FFF7ABFEB9F1000F4FF0FC
:10174000200100F0A180401B4845E8D99CE0082911
:10175000B5D0216B1129B2D0B5E75FFA88F10161EC
:10176000014651F8142F920718D409F1010705E03A
:101770002068014651F8142F92070FD44269520590
:101780007AD4002FF5D0FFF783FEB9F1000F4FF0A8
:10179000200179D0401B4845EAD975E0002100912D
:1017A00041690091816900910099016841F480715B
:1017B00001604169C90727D109F1010703E000BFB2
:1017C0004169C90720D1002FFAD0FFF761FEB9F1B6
:1017D000000F04D0401B484501D82068F0E70020E6
:1017E0002021206384F83D1084F83E00216C41F0F4
:1017F00020012164216884F83C000868C00544BFCA
:101800004FF40070206443E146F0F10101610146AC
:1018100051F8142F920719D409F1010606E000BF10
:101820002068014651F8142F92070FD442695205DF
:1018300022D4002EF5D0FFF72BFEB9F1000F4FF0A8
:10184000200121D0401B4845EAD91DE0218D31B34C
:1018500002293AD0012940D1026822F48062026054
:10186000002200924269009282690092009A026806
:1018700042F4007202603BE0026842F400720260CF
:101880006FF480600860042100202022206384F827
:101890003D2084F83E00226C11432164F6E00021D3
:1018A000009141690091816900910099016841F4BA
:1018B00000710160202084F83D00002084F83E0083
:1018C00084F83C0001B0BDE8F083026822F4806235
:1018D0000260026842F4006202E0026842F4806240
:1018E0000260002200924269009280690090009894
:1018F00088B2042816D2022826D001283BD12068BD
:101900004169490600F19A804169C90600F1A68043
:10191000FFF7BEFDB9F1000F00F0AC80401B484559
:10192000EDD9A7E02068416949063AD44169C90662
:1019300000F19480FFF7ACFDB9F1000F00F09A8040
:10194000401B4845EED995E020684169490761D4BC
:1019500009F1010603E02068416949075AD4002EC5
:10196000FAD0FFF795FDB9F1000F00F09580401B0C
:101970004845F0D990E020684169490724D409F12D
:10198000010603E02068416949071DD4002EFAD002
:10199000FFF77EFDB9F1000F7ED0401B4845F1D91D
:1019A0007AE00069616A0870606A218D013001394E
:1019B000606221852268638D013B638553695B0703
:1019C00048D5116901703CE0016821F48061016033
:1019D0000069616A0870606A218D013001396062B6
:1019E00021852068618D013961854169490711D4DC
:1019F00009F1010603E02068416949070AD4002E75
:101A0000FAD0FFF745FDB9F1000F45D0401B48451E
:101A1000F1D941E0016841F4007101600069616A37
:101A20000870606A2268411C6162218D013921853C
:101A3000618D013961851169417002E00069616A57
:101A40000870606A218D0130013960622185608DE6
:101A50000138608508047FF44BAF2BE76FF010016D
:101A6000416100202021206384F83D1084F83E006D
:101A7000206C09E000202021206384F83D1084F8C8
:101A80003E00206C40F020002064002084F83C00E0
:101A9000012001B0BDE8F08300202021206384F8FC
:101AA0003D1084F83E00216C41F02001F5E6000075
:101AB0002DE9F04381B01F46164688460446FFF7DD
:101AC000E7FC94F83D1020291AD1DDF82090054656
:101AD00020688169890715D5FFF7DAFC401B1A28B1
:101AE000F6D300202021206384F83D1084F83E00C6
:101AF000216C022641F02001216484F83C0006E0BC
:101B0000022604E094F83C10012904D10226304654
:101B100001B0BDE8F083012184F83C100168C907D9
:101B200003D1016841F001010160016821F4006105
:101B30000160212184F83D10102184F83E1000211D
:101B4000216466626785618D21850021CFF6FF7172
:101B5000E162E16A11F5803F18BF012946D10168B1
:101B600041F4807101604169C90714D109F101068E
:101B700003E000BF4169C9070DD1002EFAD0FFF77D
:101B800087FCB9F1000F00F0CE80401B484500F201
:101B9000CA802068EEE72169B1F5804F01D1FE21AE
:101BA0002BE0062101EAD811F0310161014651F81C
:101BB000142F120720D409F1010605E02068014620
:101BC00051F8142F120717D44269520500F1F3801F
:101BD000002EF4D0FFF75CFCB9F1000F4FF02001AC
:101BE00000F0F180401B4845E8D9ECE00829B6D068
:101BF000216B1229B3D0B6E7FF2101EA0801016188
:101C0000014651F8142F92071BD409F1010604E094
:101C1000014651F8142F920713D44269520500F17E
:101C20009880002EF4D0FFF733FCB9F1000F4FF08D
:101C3000200100F09680401B484500F29280206809
:101C4000E6E70026009641690091816900910099BC
:101C5000218D00295BD009F1010700BF014651F831
:101C6000142F120612D44269520500F18880002F09
:101C7000F4D0FFF70DFCB9F1000F4FF0200100F098
:101C80008280401B48457ED82068E7E7D4F824E0EE
:101C9000714611F8012B02616162618D0139618524
:101CA000B4F828C00146ACF10102228551F8143F76
:101CB0005B070DD513040BD09EF8012002610EF1D5
:101CC00002026262628D013A6285ACF102022285F3
:101CD0000B685B0708D51104C0D118E020680146E5
:101CE00051F8142F52070FD44269520579D4002FAE
:101CF000F5D0FFF7CDFBB9F1000F4FF0200174D004
:101D0000401B4845EAD970E0228D1104A6D1016834
:101D100041F400710160202084F83D0084F83E60A9
:101D200084F83C60F3E600202021206384F83D1015
:101D300084F83E00216C012641F0200121642168D5
:101D400084F83C000868C00544BF4FF4007020646C
:101D5000DDE6026842F4007202606FF480600860A1
:101D6000042100202022206384F83D2084F83E00D6
:101D7000226C01261143216484F83C00C7E66FF40D
:101D800080600860042100202022206384F83D2028
:101D900084F83E00226C1143216484F83C00206CDE
:101DA000042806D120680126016841F40071016011
:101DB000ADE60126ABE6026842F4007202606FF401
:101DC00080600860042100202022206384F83D20E8
:101DD00084F83E00226C01261143216484F83C0003
:101DE00095E66FF4806008600421002020222063C3
:101DF00084F83D2084F83E00226C1143216484F86D
:101E00003C00206C042806D120680126016841F4BA
:101E1000007101607BE6012679E600002DE9F04FB4
:101E200085B0984617460E460446FFF731FB94F8F6
:101E30003D10202925D1DDF84090DDE90EAB0546A7
:101E400020688169890717D5FFF722FB401B1A28F4
:101E5000F6D300202021206384F83D1084F83E0052
:101E6000206C04F13C0240F020002064022000219C
:101E7000117005B0BDE8F08F224612F83C1F012911
:101E800003D1022005B0BDE8F08F0121039211704B
:101E90000168C90703D1016841F0010101600168CF
:101EA0003A4621F400610160222084F83D00402080
:101EB00084F83E0000202064C4F824A0A4F82AB0CE
:101EC000608D314620850020CFF6FF70E06220460D
:101ED0004346CDF80090019501F0F0FD18B10120C6
:101EE00005B0BDE8F08F208DA0B1022825D00128D3
:101EF0002FD121680A6822F480620A6000220492CD
:101F00004A6904928A690492049A0A6842F4007247
:101F10000A6026E0002004902068416904918169EC
:101F200004910499016841F400710160202084F853
:101F30003D00002084F83E00CFE021680A6822F4CA
:101F400080620A600A6842F400620A600022049219
:101F500002E00021049121684A6904928969049190
:101F6000049909F1010680B2042819D202282BD065
:101F7000012838D1039A20684169490600F185801B
:101F80004169C90600F1AB80FFF782FA039AB9F103
:101F9000000F00F0B080401B4845ECD9ABE000BF1B
:101FA0002068416949062AD44169C90600F1888040
:101FB000FFF76EFAB9F1000F77D0401B4845EFD913
:101FC00073E0401B484570D820684169490748D4F0
:101FD000002EFAD0FFF75CFAB9F1000FF1D164E0FE
:101FE000401B484561D820684169490719D4002E33
:101FF000FAD0FFF74DFAB9F1000FF1D155E00069C1
:10200000616A0870606A2268411C208D6162013833
:102010002085638D013B638553695B0741D510695A
:1020200035E0016821F4806101600069616A08702F
:10203000606A218D01300139606221852068618DDF
:1020400001396185416949070BD4002EFAD0FFF7A9
:102050001FFAB9F1000F28D0401B484525D8206849
:10206000F0E7016841F4007101600069616A08707D
:10207000606A2268411C6162218D01392185618D70
:10208000013961851169417002E00069616A087077
:10209000606A218D01306062481E2085618D0139A2
:1020A000618501047FF45FAF40E7002020212063B9
:1020B00084F83D1084F83E00206C40F020000AE0D7
:1020C0006FF01001416100202021206384F83D1051
:1020D00084F83E00206C20640120039AC7E66FF06C
:1020E0001001416100202021206384F83D1084F814
:1020F0003E00206C09E000202021206384F83D1080
:1021000084F83E00206C40F0200020640120AEE600
:102110002DE9F04F83B0994616460F460446FFF767
:10212000B7F994F83D1020291FD1DDF83880DDE99A
:102130000CBA054620688169890712D5FFF7A8F90E
:10214000401B1A28F6D300202021206384F83D107C
:1021500084F83E00216C41F02001216484F83C00A9
:1021600003E094F83C10012903D1022003B0BDE83C
:10217000F08F012184F83C100168C90703D1016880
:1021800041F0010101600168324621F40061016003
:10219000212084F83D00402084F83E000020206487
:1021A000C4F824B0A4F82AA0608D39462085002008
:1021B000CFF6FF70E06220464B46CDF800800195D7
:1021C00001F09CFD18B1012003B0BDE8F08F208D17
:1021D000A0B3206808F10106014651F8142F120639
:1021E00010D4426952053FD4002EF5D0FFF750F9C4
:1021F000B8F1000F4FF020013AD0401B404537D8CE
:102200002068E9E7626A114611F8013B0361238DFA
:102210006162591E2185678D013F678547697F0788
:102220000AD50F0408D051780161911C6162991E92
:102230002185628D013A62850904CDD1204641464F
:102240002A4601F035FEF8B92068016841F40071B2
:102250000160202084F83D00002084F83E0084F8CE
:102260003C0003B0BDE8F08F6FF48060086004218B
:1022700000202022206384F83D2084F83E00226C58
:102280001143216484F83C00206C04289BD1206811
:10229000016841F40071016095E70000B0B586B0B7
:1022A000016845F20040C4F20000814201D006B04E
:1022B000B0BD002443F630050194C4F2020529683C
:1022C00000F5D83041F002012960296801F00201CF
:1022D00001910199C02101911221CDE9021403213C
:1022E00004910421059101A9FEF7F4FF00942869E7
:1022F00040F400102861286900F400100090009854
:1023000006B0B0BD40F2BA004FF66C51C2F2000008
:10231000C2F2000100780A681044086070470000AB
:1023200080B543F60040C4F20200016841F4007138
:102330000160016841F480610160016841F48071CD
:102340000160032000F08CF8002000F005F800F098
:102350002BF8002080BD0000B0B540F2BA02C2F2F6
:10236000000240F20C011278C2F200014FF47A73BD
:102370000968B3FBF2F20446B1FBF2F1084601F042
:1023800019F80F2C4FF001050CD858B94FF0FF3059
:1023900021460022002500F037F840F2BC00C2F2CE
:1023A000000004602846B0BD82B0002043F6400122
:1023B0000190C4F202014A6842F480424A604A68CD
:1023C00002F480420192019A0090086840F0805027
:1023D0000860086800F080500090009802B07047D4
:1023E000002848BF7047C1B200F01F00012202FA66
:1023F00000F04EF20012CEF2000242EAD10121F0CA
:10240000030108607047000010B54EF60C5CCEF278
:10241000000CDCF80030C3F3022E8EF00704042C0D
:1024200028BF0424BEF103034FF0FF3E0EFA04F46C
:1024300038BF0023A14399400EFA03F39A43114396
:1024400000F00F0200F160430901043A03F5644310
:102450006244002848BF02F10C03197010BD00004F
:102460004EF60C51CEF200010A684FF6FF031A40F7
:1024700060F30A2242F0806040F0FD70086070470F
:10248000F0B581B00446006810F0050F2DD0682724
:10249000C4F2472743F670060020C4F202063860F3
:1024A000FEF7F6FF054600BF56F8700C000105D593
:1024B000FEF7EEFF401B0228F6D93FE0D4E90110F9
:1024C000000740EA8110706101203860FEF7E0FFEC
:1024D000054600BF56F8700C000105D4FEF7D8FF82
:1024E000401B0228F6D929E0206880074FF0000041
:1024F00057D543F67006C4F20206009056F8300C29
:1025000047F2000740F0805046F8300C56F8300C87
:10251000C4F2000700F0805000900098386840F442
:1025200080703860FEF7B4FF054600BF3868C0050C
:1025300007D4FEF7ADFF401B0228F7D9032001B0F6
:10254000F0BD306810F4407013D0E16801F44071C0
:1025500088420ED0306840F64061C4F24721012223
:1025600020F440700A6000220A6030603068C007C2
:1025700019D1E06856F8681C4FF6FF4300F440722A
:1025800021F4F811C0F6FF730340B2F5407F08BF95
:10259000194346F8681C31686FF31F3008433060F8
:1025A000002001B0F0BDFEF773FF054641F2883709
:1025B00030688007DDD4FEF76BFF401BB8424FF058
:1025C0000300F5D9EDE700002DE9F041002800F007
:1025D0008B8043F60808C4F202080446D8F8F803D2
:1025E0000D4600F00700884207D288F8F853D8F863
:1025F000F80300F00700A84276D12068810717D5BC
:10260000410705D5D8F8001041F4E051C8F8001092
:10261000010705D5D8F8001041F46041C8F8001052
:10262000D8F80010A26821F0F0011143C8F800109A
:10263000C0073FD1D8F8F80300F00700A84207D937
:1026400088F8F853D8F8F80300F00700A8424BD1F7
:102650002068410707D5D8F80010E26821F4E0515E
:102660001143C8F80010000708D5D8F80000216908
:1026700020F4604040EAC100C8F8000000F07CF897
:10268000D8F8001044F6CC72C1F30311C0F603026F
:10269000515C40F20C0220FA01F140F2BC00C2F29F
:1026A00000000068C2F200021160FFF755FE002032
:1026B000BDE8F0816068811E022907D258F8081C25
:1026C00089015CBF0120BDE8F08110E0012807D13D
:1026D00058F8081C89035CBF0120BDE8F08106E0C2
:1026E00058F8081C890702D40120BDE8F081D8F809
:1026F000001021F003010843C8F80000FEF7C8FEEF
:10270000064641F2883700BFD8F80000616800F043
:102710000C00B0EB810F8DD0FEF7BAFE801BB842E3
:10272000F2D90320BDE8F08140F20C0043F6080125
:10273000C2F20000C4F202010068096844F6DC72CB
:10274000C1F38221C0F60302515CC840704700000B
:1027500040F20C0043F60801C2F20000C4F202018C
:102760000068096844F6DC72C1F34231C0F6030226
:10277000515CC8407047000010B543F60404C4F231
:102780000204606800F00C0008280AD0042819BF71
:1027900042F20040C0F2F40047F64000C0F27D1063
:1027A00010BD206821682368490247F64001C0F245
:1027B0007D1100F03F02C3F388105CBF42F200417C
:1027C000C0F2F401A1FB00010023FDF7F9FC216830
:1027D0000222C1F3014102EB4101B0FBF1F010BD57
:1027E0002DE9F04182B0002868D00446007843F615
:1027F0000006C007C4F202060BD0B06800F00C005F
:10280000042840F09C803068800302D5606800286E
:1028100054D0207880071AD5B06810F00C0F09D07A
:10282000B06800F00C00082840F0A38070684002F7
:1028300000F19F803068800702D5E06801283DD113
:102840003068216920F0F80040EAC100306020784B
:10285000000737D4207840074BD4A56955B3B0683A
:1028600000F00C00082840F0B780012D26D07068D9
:10287000E16900F480028A4220D1216A00F03F021F
:102880008A421BD147F6C071626A0140B1EB821FD8
:1028900014D1A16A4FF6FF73C903994300F4403283
:1028A000A1F580318A4209D1E16A00F07060B0EB95
:1028B000016F03D1002002B0BDE8F081012002B019
:1028C000BDE8F0816069002840F20000C4F24720B2
:1028D00072D00121C0F8801EFEF7DAFD054600BF68
:1028E000706F8007B6D4FEF7D3FD401B0228F7D9DE
:1028F000D7E0306C10F080580AD100200190306C85
:1029000040F080503064306C00F0805001900198AD
:1029100047F20007C4F200073868C0053ED43868A3
:1029200040F480703860FEF7B3FD05463868C00596
:1029300034D4FEF7ADFD401B0228F7D9B1E0B068F2
:1029400000F00C00082803D1706840023FF55BAF2F
:102950006068B0F5803F07D0B0F5A02F40F08B80C5
:10296000306840F480203060306840F4803030605F
:102970008BE0E068002851D00020C4F247200121FC
:102980000160FEF785FD0546306880073FF558AFCA
:10299000FEF77EFD401B0228F6D982E0A0680128E0
:1029A00005D005284ED1306F40F004003067306FFD
:1029B00040F0010030674FE00021C0F8801EFEF7B4
:1029C00067FD0546706F80077FF544AFFEF760FD39
:1029D000401B0228F6D964E00027C4F247270020F4
:1029E0003866FEF755FD022D05460BD13068800193
:1029F0005BD5FEF74DFD401B02284FF00300F5D9D3
:102A000059E700BF306880017FF554AFFEF740FD05
:102A1000401B02284FF00300F4D94CE70020C4F219
:102A2000472000210160FEF733FD0546306880072E
:102A30007FF50DAFFEF72CFD401B02284FF0030081
:102A4000F4D938E7316F002821F001013167316F87
:102A500021F00401316749D0FEF71AFD054641F225
:102A6000883700BF306F800751D4FEF711FD401B3F
:102A7000B842F7D915E03168002821F4803131607F
:102A8000316821F4802131604AD0FEF701FD05460E
:102A9000306880033FF5BDAEFEF7FAFC401B6428AA
:102AA000F6D9032002B0BDE8F08104F11C052FCD5A
:102AB000084340EA8210D9034FF6FF729143A1F513
:102AC000803140EA05600843706001203866FEF7F7
:102AD000DFFC0446306880013FF5ECAEFEF7D8FC21
:102AE000001B02284FF00300F4D9E4E6FEF7D0FC07
:102AF000054641F2883700BF306F800707D5FEF7E3
:102B0000C7FC401BB8424FF00300F5D9D3E6B8F13B
:102B1000000F7FF4A2AE306C20F0805030649CE651
:102B2000FEF7B6FC054600BF306880037FF571AE46
:102B3000FEF7AEFC401B64284FF00300F4D9BAE660
:102B4000002804BF01207047B0B50446407F20B97B
:102B500000202077204600F067F802206077216887
:102B6000CA20486253204862C868400614D4C86826
:102B700040F08000C860FEF78BFC2168CA685206EE
:102B80000AD40546FEF784FC401BB0F57A7F44D892
:102B90002168C8684006F5D588684FF6BF72CFF641
:102BA0008F7210408860D4E9010CD4E90335626962
:102BB00028438D681043284388600B61086940EA08
:102BC0000C400861C86820F08000C86088688006F2
:102BD00015D4C86820F0A000C860FEF759FC05466F
:102BE0002168C86880060AD4FEF752FC401BB0F585
:102BF0007A7FF5D904206077216801200AE0086C0B
:102C000020F480200864A0690A6C10430864012045
:102C100060770020FF224A62B0BD042060772168FF
:102C2000C8680120F6E7000080B584B0006842F66D
:102C30000002C4F20002002190420291019101D0F1
:102C400004B080BD022000904FF4007003906846ED
:102C5000FFF716FC002818BFFEF748FA40F63C6064
:102C6000C4F247200121016004B080BD2DE9F0418C
:102C70000446007F01284FF0020008BFBDE8F08144
:102C800001232377607732B14878CA788F780002C1
:102C900040EA024842E04878C20642BF00F0EF0036
:102CA0000A304870CA780A2A0CD30A3AD3B2CD2720
:102CB0007B43DB0A03EB8307A2EB4702102707EBFA
:102CC000031300E000231A43D2B20A284FEA02425B
:102CD0000CD30A38C3B2CD277B43DB0A03EB83074F
:102CE000A0EB4700102707EB031300E0002303438A
:102CF0008878DBB20A2842EA03280CD30A38C2B229
:102D0000CD235A43D20A02EB8203A0EB43001023E7
:102D100003EB021200E0002242EA00070E7821686D
:102D2000CA20486253204862C868400614D4C86864
:102D300040F08000C860FEF7ABFB2168CA6852060D
:102D40000AD40546FEF7A4FB401BB0F57A7F31D8C4
:102D50002168C8684006F5D5F8B240EA0800720359
:102D600020F0C00010434860C86820F08000C860B0
:102D70008868800615D4C86820F0A000C860FEF7F7
:102D800087FB05462168C86880060AD4FEF780FBE9
:102D9000401BB0F57A7FF5D90420607721680120C7
:102DA00002E0012060770020FF224A6200212177A3
:102DB000BDE8F081042060772168C8680120F3E74E
:102DC000F0B581B00446007F01284FF0020000F00A
:102DD000AF800D460121217760772168886800F077
:102DE00040001AB1B0B90020E87015E0002804BF17
:102DF0000020E87028780A2818D30A38C2B2CD23F8
:102E00005A43D20A02EB8203A0EB4300102303EBE8
:102E100002120CE0E87880056B782A78AF781B0204
:102E200043EA02423A4442EA000730E000221043FB
:102E30006A78C0B20A2A4FEA00400CD30A3AD3B2E9
:102E4000CD277B43DB0A03EB8307A2EB4702102766
:102E500007EB031300E000231343AA78DBB20A2A2E
:102E600040EA03200CD30A3AD3B2CD277B43DB0AD6
:102E700003EB8307A2EB4702102707EB031300E0E5
:102E800000231A43D2B2EB78104340EA8357CA209A
:102E9000486253204862C868400615D4C86840F0AC
:102EA0008000C860FEF7F4FA2168CA6852060BD4A5
:102EB000064600BFFEF7ECFA801BB0F57A7F39D8E2
:102EC0002168C8684006F5D547F67F70C0F27F00DC
:102ED00038400860886820F480208860D5E90302C3
:102EE0008B68104318438860C86820F08000C86071
:102EF0008868800615D4C86820F0A000C860FEF776
:102F0000C7FA05462168C86880060AD4FEF7C0FAE9
:102F1000401BB0F57A7FF5D9042060772168012045
:102F200002E0012060770020FF224A620021217721
:102F300001B0F0BD042060772168C8680120F3E784
:102F400070B538B10446406A30B10020206104F108
:102F5000140007E0012070BD6068B0F5827F03D0E7
:102F600004F11C00002101600026A66294F85100C3
:102F700020B9204684F8506000F03CF8022084F824
:102F8000510094E80F0001F48271056802F40442D4
:102F900025F040050560114403F4006223691144E3
:102FA00003F002026369114403F00102A369E569B9
:102FB000114403F40072114405F03802256A1144EB
:102FC00005F08002A56A114305F400521143016027
:102FD000626A042101EA134102F0100211444160C7
:102FE000C16921F40061C1610120666584F8510066
:102FF000304670BD80B586B0016843F60000C4F26B
:103000000000814201D006B080BD002143F63002AD
:103010000191C4F20202136900F5F43043F48043D5
:103020001361136903F480430193019B01911168BB
:1030300041F480711160116801F48071019101996E
:103040000E2101910221CDE9021104910521059182
:1030500001A9FEF73FF906B080BD00002DE9F0435D
:1030600083B0044690F85000012803D1022003B039
:10307000BDE8F08301201E4615460F4684F8500037
:10308000FEF706FA94F85110814601290AD06068CB
:10309000B0F5827F70D1A06800284FF0020008BF11
:1030A00004296AD1002F4FF0010018BF002D64D011
:1030B000002E62D094F85100002104281CBF052086
:1030C00084F851006165A563E687A6872763E686D5
:1030D0002068A686216461640168490603D40168FA
:1030E00041F0400101606168731EE268B1FA81F14C
:1030F000B3FA83F3DDF8288049095B09B2F5006F64
:1031000041EA030142D131B137F8021BC1602763A4
:10311000E08E0138E086012608F10105E08E10B945
:10312000E08F00286ED02068816889070CD5E18E79
:1031300051B1012E08D1216B002631F8022BC2605B
:103140002163E18E0139E1868168C9070AD0E18FE8
:1031500041B1C068A16B012621F8020BA163E08F89
:103160000138E087FEF794F9002DD7D0A0EB0900D5
:103170004045D3D3032000E00220012184F8511000
:10318000002184F8501003B0BDE8F08339B13978DC
:103190000173206B01302063E08E0138E086012648
:1031A00008F10105E08E08B9E08F58B32068816806
:1031B00089070ED5E18E61B1012E0AD1216B00265F
:1031C00009780173216B206801312163E18E013997
:1031D000E1868168C9070BD0E18F49B1C068A16B56
:1031E00001260870A06B0130A063E08F0138E087F2
:1031F000FEF74EF9002DD5D0A0EB09004045D1D304
:103200000320BAE740F20C00C2F20000006849F661
:103210008171C1F25E61A0FB0101480D4FF47A712A
:10322000484302906068B0F5827F0ED1204680212D
:1032300042464B4601F084F858B3606D40F02000E0
:10324000606520206065012097E7029808B3029826
:10325000013802902068806800061AD50298C0B133
:1032600002980138029020688068000611D5029803
:1032700078B102980138029020688068000608D56D
:10328000029830B1029801380290206880680006E8
:10329000DBD4A06800284FF000007FF46EAF0190EF
:1032A0002168CA68019289680191019965E7000067
:1032B000002804BF0120704770B5044690F849000B
:1032C00015460E4628B9002084F84800204600F034
:1032D0001DF8206804F10801FDF730FF2068A2689E
:1032E0003146FDF76FFFD4E90102236B2946FDF754
:1032F00003FF2068A16850F8212042F0010240F845
:103300002120012084F84900002070BD2DE9F04300
:1033100085B040F2CC00C2F200000178002945D10E
:10332000012101704FF0000943F63800CDF80090FC
:10333000C4F20200026840F6004442F0010202605A
:103340000068C4F2020400F00100009000986D468D
:1033500000914FF0020803270C2604F5006029466F
:10336000CDE9018903970496FDF7B4FF4FF680700D
:103370008DE8010304F580602946CDE90376FDF769
:10338000A9FF4CF233708DE8010320462946CDE9B0
:103390000376FDF79FFF4FF480508DE8010304F59D
:1033A00040602946CDE90376FDF794FF05B0BDE8FE
:1033B000F0830000411E0020B0EB116F1CBF012004
:1033C00070474EF21002CEF2000251604EF62351C9
:1033D000CEF20001F0230B7007219060116070475E
:1033E0007047000070470000B0B582B00446006826
:1033F0000168C368426901F02F05202D03F0200504
:1034000006D12DB1204602B0BDE8B04001F06CB845
:103410005FEA017C1EBF02F0010E03F4907212EB12
:103420000E0253D1226B012A05D111F0100218BFF0
:1034300013F0100236D10A0622D513F080021FD0F5
:1034400094F83D1021293FD1A168B1F5805F03D1E7
:103450002169002900F06E82216A4A1C22620978E3
:103460004160E18C01390A04E1842DD1C16821F069
:103470008001C160C16841F04001C16002B0B0BDCF
:10348000490621D513F040011ED0C16821F040014A
:10349000C1602021204684F83D1002B0BDE8B04054
:1034A00000F00ABB0021019101680191416801917E
:1034B00001994069400613D4A08DE18DE28D002A68
:1034C00018BF884240F0BA8102B0B0BDCA0718BF29
:1034D00013F4807240F0B9804A0700F1BC80C1E06B
:1034E000A16B0868426893B2002BEDD0A08D834297
:1034F000EAD2E285C969B1F5807F00F09D8020683D
:1035000050E8030F216820F4807041E80302DAB12B
:10351000206850E8030F216820F4807041E803021E
:1035200092B1206850E8030F216820F4807041E8D0
:1035300003024AB1206850E8030F216820F480702C
:1035400041E80302002ADAD1206850E8050F21681B
:1035500020F0010041E80502DAB1206850E8050FCB
:10356000216820F0010041E8050292B1206850E88E
:10357000050F216820F0010041E805024AB12068EA
:1035800050E8050F216820F0010041E80502002AFB
:10359000DAD1206850E8050F216820F0400041E8AA
:1035A0000502DAB1206850E8050F216820F04000DC
:1035B00041E8050292B1206850E8050F216820F02B
:1035C000400041E805024AB1206850E8050F216833
:1035D00020F0400041E80502002ADAD1202084F8DA
:1035E0003E0000202063206850E8030F216820F08F
:1035F000100041E80302DAB1206850E8030F2168A7
:1036000020F0100041E8030292B1206850E8030F57
:10361000216820F0100041E803024AB1206850E818
:10362000030F216820F0100041E80302002ADAD1DC
:10363000A06BFDF7E9FDA08DE18D401A81B2204617
:1036400002B0BDE8B040FFF7CBBE226C42F00102F1
:1036500022644A0706D5BEF1000F03D0226C42F067
:10366000020222648A0706D5BEF1000F03D0226C45
:1036700042F004022264BCF1000F09D545EA0E02B3
:10368000B2FA82F2520903D1226C42F0080222649B
:10369000226C002A3FF418AF11F0200118BF002D52
:1036A00003D0204600F020FF20684069216C00F024
:1036B000400001F00801401800F0B380206850E895
:1036C000030F216820F4907041E80302BAB3206828
:1036D00050E8030F216820F4907041E8030272B3B0
:1036E000206850E8030F216820F4907041E803023D
:1036F0002AB3206850E8030F216820F4907041E855
:103700000302002ADAD11AE0206850E8050F216888
:1037100020F0010041E80502DAB1206850E8050F09
:10372000216820F0010041E8050292B1206850E8CC
:10373000050F216820F0010041E805024AB1206828
:1037400050E8050F216820F0010041E80502002A39
:10375000DAD1206B012824D1206850E8030F2168BA
:1037600020F0100041E80302DAB1206850E8030FAE
:10377000216820F0100041E8030292B1206850E86F
:10378000030F216820F0100041E803024AB12068CD
:1037900050E8030F216820F0100041E80302002ADE
:1037A000DAD1202084F83E000020206320684069A0
:1037B00040063DD5206850E8050F216820F0400004
:1037C00041E80502DAB1206850E8050F216820F0D1
:1037D000400041E8050292B1206850E8050F2168D9
:1037E00020F0400041E805024AB1206850E8050F8A
:1037F000216820F0400041E80502002ADAD1A06BE0
:10380000B0B144F2DD41C0F600010165FDF73CFDB9
:1038100000283FF459AEA06B016D02B0BDE8B04086
:1038200008472046FFF7DEFD0020206402B0B0BD4F
:10383000204602B0BDE8B040FFF7D4BD401A216871
:1038400051E8031F226821F4907142E80313DBB1B1
:10385000216851E8031F226821F4907142E80313A4
:1038600093B1216851E8031F226821F4907142E866
:1038700003134BB1216851E8031F226821F49071B2
:1038800042E80313002BDAD1216851E8051F2268B2
:1038900021F0010142E80513DBB1216851E8051F61
:1038A000226821F0010142E8051393B1216851E833
:1038B000051F226821F0010142E805134BB1216880
:1038C00051E8051F226821F0010142E80513002B91
:1038D000DAD1202184F83E1000212163216851E8CB
:1038E000031F226821F0100142E80313002B3FF46C
:1038F000A5AE216851E8031F226821F0100142E8BB
:103900000313002B3FF49AAE216851E8031F22688D
:1039100021F0100142E80313002B3FF48FAE216821
:1039200051E8031F226821F0100142E80313002B25
:10393000D4D183E6216A31F8022B6FF35F22426013
:1039400021628EE5002804BF0120704710B50446AF
:1039500090F83D0028B9002084F83C00204600F093
:1039600021F8242084F83D002068C16821F400512A
:10397000C160204600F036FE2068016921F49041C4
:103980000161416921F02A014161C16841F400519E
:10399000C16000202021206484F83D1084F83E108E
:1039A00010BD000080B586B0016841F20000C4F28D
:1039B0000100814201D006B080BD002143F63002F3
:1039C0000191C4F20202536900F5704043F0100304
:1039D0005361536903F010030193019B0191136834
:1039E00043F001031360126802F001020192019A90
:1039F0004FF4C06201920222CDE902210321049119
:103A00000721059101A9FDF765FC25200021002271
:103A1000FEF7FAFC2520FEF7E3FC06B080BD0000AF
:103A200090F83E30202B0BD100294FF0010318BF36
:103A3000002A01D11846704790F83C30012B01D183
:103A40000220704700230363816222218285C285A0
:103A5000036480F83E100269016880F83C301AB1B6
:103A6000C86840F48070C8604869002340F00100D5
:103A70004861C86840F02000C860184670470000E0
:103A80004FF6E24CC2F2000CBCF800000021431CCF
:103A900098B2B1EB103F4EF6E140C2F2000018BF01
:103AA000002310FA83F140F25C50C2F200000122C0
:103AB000ACF80030FFF7B4BF704700002DE9F04FBD
:103AC00083B00446006899460368904643F48062D8
:103AD00002600268DDF834B042F48072026042692C
:103AE0000C9ED2070F4612D1751C02E04169C9072E
:103AF0000DD1002DFAD0FDF7CBFC002E00F0BC80DC
:103B0000A0EB0B00B04200F2B7802068EEE707F0B0
:103B1000FE0AC0F810A0014651F8142F920719D4DC
:103B2000771C05E02068014651F8142F920711D444
:103B30004269520500F1B880002FF4D0FDF7A8FCCF
:103B4000002E4FF0200100F0B780A0EB0B00B04238
:103B5000E8D9B1E000210291014651F8142F0292F8
:103B60004A680292029A0A68120617D4771C05E086
:103B70002068014651F8142F12060FD442695205ED
:103B800061D4002FF5D0FDF783FC002E4FF020010B
:103B90005DD0A0EB0B00B042EAD958E0B9F1010FBB
:103BA0001FD04FEA18210161014651F8142F120667
:103BB00017D4771C06E000BF2068014651F8142F87
:103BC00012060ED4426952053DD4002FF5D0FDF700
:103BD0005FFC4FF02001D6B3A0EB0B00B042EBD955
:103BE00035E05FFA88F10161014651F8142F1206A1
:103BF00017D4771C05E000BF014651F8142F1206B8
:103C00000FD4426952051ED4002FF5D0FDF740FCB9
:103C10004FF02001DEB1A0EB0B00B04217D82068B6
:103C2000EAE70168002241F48071016020464FF00C
:103C300001113346CDF800B000F072F900284BD0E6
:103C40002068006827E06FF480600860042100208D
:103C50002022206384F83D2084F83E00226C11432A
:103C6000216484F83C00206C042831D1206801686C
:103C700041F4007101602BE000202021206384F8D2
:103C80003D1084F83E00216C41F020012164216840
:103C900084F83C000868C00544BF4FF400702064FD
:103CA000032003B0BDE8F08F026842F400720260A6
:103CB0006FF480600860042100202022206384F8D3
:103CC0003D2084F83E00226C1143216484F83C00BE
:103CD000012003B0BDE8F08F20684AF001010161C6
:103CE0000221C0F20101204632465B4600F060F935
:103CF000002818BF012003B0BDE8F08F2DE9F04780
:103D000082B00446006890460268DDF82CA042F4B8
:103D10008072026042690A9E9946D2070F4626D1F8
:103D2000751C03E020684169C90720D1002DFAD035
:103D3000FDF7AEFB1EB1A0EB0A00B042F2D90020A5
:103D40002021206384F83D1084F83E00216C41F06E
:103D500020012164216884F83C000868C00544BF44
:103D60004FF400702064032002B0BDE8F08707F034
:103D7000FE010161014651F8142F920718D4771CF7
:103D800006E000BF2068014651F8142F92070FD4B7
:103D9000426952055AD4002FF5D0FDF779FB002E69
:103DA0004FF020015AD0A0EB0A00B042EAD955E00A
:103DB00000210191014651F8142F01924A680192A5
:103DC000019A0A68120617D4771C04E0014651F8DC
:103DD000142F120610D4426952054CD4002FF5D08E
:103DE000FDF756FB002E4FF0200148D0A0EB0A0053
:103DF000B04244D82068E9E7B9F1010F1FD04FEA7B
:103E000018210161014651F8142F120617D4771CAE
:103E100005E000BF014651F8142F12060FD4426985
:103E2000520528D4002FF5D0FDF732FB4FF02001CA
:103E30002EB3A0EB0A00B04221D82068EAE75FFA6F
:103E400088F10161002002B0BDE8F087026842F409
:103E5000007202606FF4806008600421002020225C
:103E6000206384F83D2084F83E00226C11432164D5
:103E700084F83C0017E06FF48060086004210020A3
:103E80002022206384F83D2084F83E00226C1143F8
:103E9000216484F83C00206C042804D12068016867
:103EA00041F400710160012002B0BDE8F08700001C
:103EB000F0B581B0044600681546034653F8147FF8
:103EC0007A0717D40E464F1C06E000BF2068034651
:103ED00053F8141F49070DD4416949050DD4002F2B
:103EE000F5D0FDF7D5FA4FF0200156B1401BB04296
:103EF000ECD906E0002001B0F0BD6FF48060042131
:103F0000186000202022206384F83D2084F83E00C1
:103F1000226C1143216484F83C00012001B0F0BD03
:103F20002DE9F04780460068924601F47F07182289
:103F3000B7F5803F08BF142280588CB22040001B88
:103F4000B0FA80F0400950452FD1DDF820901E4690
:103F50005D1C0EE0D8F800001821B7F5803F08BFBF
:103F6000142140582040001BB0FA80F04009504511
:103F70001BD1002DEED0FDF78BFA1EB1A0EB09008E
:103F8000B042E7D900202021C8F8300088F83D1061
:103F900088F83E00D8F8401041F02001C8F84010E1
:103FA00088F83C000120BDE8F0870020BDE8F087DC
:103FB0002DE9F041044600689846034653F8146F13
:103FC0008FB206EA0701B94202D10020BDE8F081B4
:103FD0001646551C07E000BF2068034653F8141F1F
:103FE0003940B942F1D0416949050BD4002DF4D0D4
:103FF000FDF74EFA4FF0200166B1A0EB0800B04289
:10400000EAD907E0016841F4007101606FF4806053
:104010000421186000202022206384F83D2084F8C9
:104020003E00226C1143216484F83C000120BDE86D
:10403000F081000010B54FF0D84C4FF02A0E02244A
:10404000ACF800E04FEA102EC6F60044C0B2A4F867
:1040500000E02080100A2080D0B220802B20ACF815
:104060000000080A2080C8B22080180A2080D8B238
:10407000208010BD80B588B040F20C50C2F2000024
:104080004FF0204240F20413CAF200034FF0060C36
:10409000002180E80C104FF48052C0E90A2102226E
:1040A00001920F22029204224FF0100ECDE903215B
:1040B0001122C0E90311C0E905E1C1614164C0E911
:1040C0000811C0E90C118163CDE9062101A9002284
:1040D000CDF814E0FFF7ECF8002818BFFDF706F85C
:1040E00008B080BDF0B587B0002643F63000CDE9BA
:1040F00005660196C4F20200016841F6000441F031
:10410000040101600168C4F2020401F0040101919C
:10411000019901960168002241F0200101600168C7
:104120004FF4004701F020010191019901960168C7
:1041300041F080010160016801F080010191019965
:104140000196016841F010010160016801F0100161
:10415000019101990196016841F00801016001682F
:1041600001F00801019101990196016841F04001B7
:104170000160016801F04001019101990196016817
:1041800041F001010160016801F001010191019913
:104190000196016841F480710160016801F4807149
:1041A000019101990196016841F0020101600068E6
:1041B0004FF4004100F00200019001982046FDF705
:1041C00061F9802002ADCDE9020620462946049619
:1041D000FDF780F80120CDE9030620462946029725
:1041E0000596FDF777F807B0F0BD000080B540F206
:1041F000404045F20041C2F20000C4F2000148F222
:10420000A06200234FF4804CC0F2010280E80E004F
:10421000C0E9033CC0E90533C0E90733FDF73EF9C7
:10422000002808BF80BDBDE88040FCF75FBF0000EC
:1042300010B586B040F2944042F600010024C2F26C
:104240000000C4F200017F22C0E9001400F108015F
:10425000CDE90244CDE90044FF231CC1C0E9054477
:10426000FEF76EFC002818BFFCF740FF40F29440B8
:10427000C2F2000001A90022ADF804408DF806400A
:10428000CDE90444FEF79CFD002818BFFCF72EFF83
:1042900041F20120C1F20470009040F29440C2F259
:1042A000000069460022FEF7E1FC002818BFFCF779
:1042B0001DFF06B010BD000080B540F2B44043F6CB
:1042C0000001C2F20000C4F200014FF48272002328
:1042D00080E80E0000F114014FF4007C4FF0280E2E
:1042E00081E808500A21C0E90333C0E90833C0E976
:1042F0000A31FEF725FE002808BF80BDBDE88040DA
:10430000FCF7F4BE80B540F25C5041F20001C2F20D
:104310000000C4F2010100234FF00C0C4FF4E13215
:1043200080E80E00C0E90333C0E905C3C361FFF7AD
:1043300009FB002808BF80BDBDE88040FCF7D6BE61
:104340002DE9F04381B01E4690460D468146FDF7AB
:104350009FF8301A00EB0807FDF79AF840F20C01BD
:10436000C2F200010968C1F3CB3179430091D9F859
:1043700000108A682A40AA421AD1064608F10104B0
:1043800004E000BF88682840A84211D1002CF9D071
:10439000FDF77EF8801BB8420ED2009800990028E5
:1043A000A1F101010091D9F8001008BF0746E9E723
:1043B000002001B0BDE8F083D9E900014268B1F501
:1043C000827F22F0E00242600BD1D9F80810B1F5EB
:1043D000004F02D0B1F5806F03D1016821F0400198
:1043E0000160D9F82810B1F5005F07D1016821F408
:1043F00000510160016841F400510160012089F819
:104400005100002089F85000032001B0BDE8F0837E
:10441000FDF778BFB0B592B0002443F640000A948F
:10442000CDE908440594CDE90344CDE90144009465
:10443000C4F202000168022541F080510160006869
:1044400000F080500090009847F200000094C4F201
:104450000000016841F480410160006800F4804080
:1044600000900098092006904FF4803007900120BA
:104470000B904FF480000D9019200E904FF4A8700F
:10448000CDE90F050420119006A80C95FEF7A8F9B8
:1044900018B1EFF3108072B6FEE70F20CDE90105E9
:1044A0004FF4A05004904FF48050059001A80521CE
:1044B0000394FEF789F820B1EFF3108072B600BFC5
:1044C000FEE712B0B0BD00004EF68850CEF20000FC
:1044D000016841F47001016070470000806B0021A9
:1044E000C185C184FEF77EBF81B090F83E102229BD
:1044F00020D183680246B3F5805F08D152F8281FA7
:1045000052F8183C002B61D003685B6809E052F850
:10451000281F13B90369002BF6D003685B6803F00A
:104520007F030B70116801311160C18D01390A04DC
:10453000C18501D001B070470168CA6822F020022D
:10454000CA60CA6822F48072CA604A6922F0010215
:104550004A61202180F83E10016B01293ED10021E3
:10456000016300BF016851E8031F026821F01001D8
:1045700042E80313DBB1016851E8031F026821F030
:10458000100142E8031393B1016851E8031F026868
:1045900021F0100142E803134BB1016851E8031FF9
:1045A000026821F0100142E80313002BDAD1016800
:1045B0000A68D20606D5002200920A68009249686D
:1045C00000910099818D01B0FEF70ABF0268526820
:1045D0006FF35F2221F8022B8162A6E701B0FFF79B
:1045E0004FBA000010B504460068D4E902C223693E
:1045F000016921F4405111430161626943EA0C01F0
:10460000E3691143C268194349F20C639A431143A9
:10461000C1604169A26921F4407141F20043114334
:1046200040F48062C4F201039A42416102D1FEF774
:104630008FF801E0FEF778F8E16963681922B1F5B7
:10464000004FA0FB020121D15A00DB0FFBF7B8FDA0
:1046500048F21F51C5F2EB11A0FB01235A094FF696
:104660009C73C0F6FF7303F1805302FB03003223F7
:1046700003EBC000A0FB01014FF4F87000EA111039
:1046800000EB0210C1F3421108441DE09A009B0F99
:10469000FBF796FD48F21F51C5F2EB11A0FB012379
:1046A0005A094FF69C73C0F6FF7302FB03003223D6
:1046B00003EB0010A0FB0101F02000EA511000EB19
:1046C0000210C1F3431108442168886010BD000046
:1046D00040F25C50C2F20000FEF786BE70B540F2B8
:1046E0000814C2F200042046442101F0FDFC46F605
:1046F0004950C0F600000A21002227F067FE40F270
:104700001416C2F2000640F2A4253060C2F2000581
:1047100001202870204601F0B7FC0146306811B135
:1047200027F08AFF01E027F077FF0020287070BD96
:104730002DE9F041B1F900C0B2F90460B44511DCD3
:10474000B1F904E0B2F90040A6450BDBB1F9025023
:10475000B2F90680454505DCB1F90670B2F90230C0
:104760009F4203DAFF2358B2BDE8F081A44509DB7C
:10477000AB4207DCB64505DC474503DC002358B2F5
:10478000BDE8F0815C1B24B2012CA7EB05060ADB17
:10479000A0F800C04580A0F804E0C380B2F806800D
:1047A0004D88012300E00023A6EB08042C4424B22A
:1047B000012C14DBB1F906400FFA88F7A7420EDA94
:1047C0000C888F88354400EBC30620F83340A6F8E8
:1047D0000280B780F5804D88B2F806800133B2F9C7
:1047E00002402DB2AC42C8BF2546B1F906600FFAAF
:1047F00088F7B2F800800C88B742B8BF3E46A8EBF5
:1048000004073FB2012FAEEB0C0C0DDB771B3FB260
:10481000012F09DB00EBC30720F833407D80A7F8A8
:104820000480FE800C8801339188ACEB01022244A5
:1048300012B2012A09DB04EB0C0200EBC30720F8DB
:10484000331001337D80BA80FE8058B2BDE8F0811C
:1048500070B50346B1F90000B2F90040B1F902C0E9
:10486000B2F90250B1F904E0B2F90460A042B1F922
:104870000610B2F90620C8BF0446AC451C80C8BF6C
:104880006546B6455D80B8BF764691429E80B8BF0A
:104890000A460020B4424FF00001D8BF01219542E2
:1048A000D8BF01200840DA8070BD00002DE9F04338
:1048B00081B00C46B0F90070B1F900108F423DDBB9
:1048C000B0F90260B4F902108E4237DBB0F90490FF
:1048D000B4F90410894531DCB0F90680B4F906005A
:1048E00080452BDC15466AB3694620462A46ADF85A
:1048F0000070ADF8026000F097F8F8B16946204604
:104900002A46ADF80090ADF8026000F08DF8A8B12D
:10491000694620462A46ADF80070ADF8028000F0E6
:1049200083F858B1694620462A46ADF80090ADF8A4
:10493000028000F079F801B0BDE8F083002001B0FA
:10494000BDE8F083012001B0BDE8F083B0F900209C
:10495000B1F904309A4213DCB0F90420B1F9003007
:104960009A420DDBB0F90220B1F906309A4207DC19
:10497000B0F90600B1F902108842A4BF01207047C7
:10498000002070472DE9F04381B00C46B0F9046077
:10499000B1F900108E4211DBB0F90670B4F90210C3
:1049A0008F420BDBB0F90080B4F90410884505DCB8
:1049B000B0F90290B4F90600814503DD012001B091
:1049C000BDE8F0831546EAB1694620462A46ADF8AF
:1049D0000080ADF8029000F027F898B969462046AB
:1049E0002A46ADF80060ADF8029000F01DF848B915
:1049F000694620462A46ADF80080ADF8027000F006
:104A000013F818B1002001B0BDE8F08369462046D4
:104A10002A46ADF80060ADF8027000F005F880F0AD
:104A2000010001B0BDE8F0832DE9F041B1F900309B
:104A3000B0F90040A3420DDBB0F904E0734509DC96
:104A4000B1F902C0B0F902108C4503DBB0F9065091
:104A5000AC4502DD0020BDE8F081012A52DBAEEB5F
:104A60000400013086B200EBD63006B2681A01307D
:104A700087B200EBD73007B24FEA66087810B8EB80
:104A8000670FB8BF70109042A8BF1046021917B246
:104A90004218BB4216B2D8BFB44515DD2A1ABB4234
:104AA00012B22ADC944528DB391809B2091B01EB44
:104AB000D1714F1004EB6106604402EB61019B1B56
:104AC000401A07FB07F10EE0384400B2001B00EB70
:104AD000D070421004EB600701EB6000DB1BACEB15
:104AE000000002FB02F113FB03F210FB0022002086
:104AF0008A4298BF0120BDE8F081AEEB000424B2E9
:104B0000A34202DA0120BDE8F081944516DAB445EB
:104B1000F8DC201A02B2AEEB020202EBD27200EB1A
:104B20006200181A01EB62015710ACEB010110FB97
:104B300000F007FB07F211FB010113E0211A0CB290
:104B4000AEEB040707EBD77701EB6701591A604416
:104B500002EB67027E10801A11FB01F106FB06F2E0
:104B600010FB00110020914298BF0120BDE8F081A8
:104B700070B5B1F90030B2F90040B1F902C0B2F934
:104B80000250B1F904E0B2F90460A342B1F9061091
:104B9000B2F90620B8BF1C46AC450480B8BF6546D4
:104BA000B6454580C8BF764686809142C8BF0A4652
:104BB000C28070BD2DE9F04F93B0044627F0A2FBF0
:104BC00000210A9104900CB1E06801E00EF006FAB1
:104BD00040F2D82B0169C2F2000BCBF80000084666
:104BE00023F0AEFCDBF80010486918B123F0A8FCF4
:104BF000DBF80010C86923F0A3FCDBF80000006AB2
:104C000023F09EFCDBF800000169002900F0DE8043
:104C1000B0F85011002959D000274FF001080DF1CC
:104C20002C09012204E000BF01378F420A464DD211
:104C3000C31993F83031002BF6D1002AF4D00025A7
:104C400007E000BFDBF800000135B0F850118D42DD
:104C5000EAD2411991F830110029F3D1BD42F1D0C7
:104C600000F1300101EBC70001EBC501FFF76EFE5B
:104C70000028E7D0DBF80000303000EBC70100EB84
:104C8000C5024846FFF774FF48460AF075FCDBF89A
:104C90000010044601EBC70030300AF06DFCDBF871
:104CA0000010064601EBC50030300AF065FC3044C8
:104CB0008442C7D2DBF80000DDE90B2300EBC7011B
:104CC00028440A634B6380F83081BBE701680A7CA3
:104CD000D20700F0A780C9684968002900F0A280C7
:104CE00000F5AC7001F06CFA002840F09B80DBF816
:104CF00000000168C9680B688A689A4208BF4B685F
:104D0000CDE908320EF084F9DBF800100790B1F815
:104D100050210020002ACDE91100CDE90F00CDE996
:104D20000D00CDE90B0057D00BAEA6F1080A4FF0ED
:104D3000000907E0DBF8001009F10109B1F85001A2
:104D4000814549D201EB090090F830010028F1D1EA
:104D500001F5AC7001F098F90028EBD004460CE0A6
:104D6000DBF80000214600F5AC7001F033FA204674
:104D70001CF0E8FD002D2C46DCD0DBF800002146BD
:104D800000F5AC7001F0A2F9DBF80010054601EB6C
:104D9000C90000F1300230462146FFF7C9FC411C32
:104DA000E8D00128DCDB5FFA80F85746DBF800002A
:104DB000214600F5AC7001F0B9F957F8081FB8F1B9
:104DC00001087A6801604260F0D1C9E70021A0F8CB
:104DD000501113B0BDE8F08F01F5AC7001F054F93B
:104DE0000DF11C0898E86001B0B10446DBF8000042
:104DF000414600682A46C06B2346876BCDE90065B3
:104E00000294B847DBF80000214600F5AC7001F0D1
:104E10005DF904460028E9D1DBF8000000F5AC702C
:104E200001F002F9DBF800104EF6D848B1F85091C5
:104E3000C2F200080020B9F1000FC8F8000000F02D
:104E4000B281B9F1010F1ADB01EB090090F82F21B3
:104E5000C2B1B9F1020F12DB90F82E21AAB1B9F15B
:104E6000030F0CDB90F82D2192B1B9F1040F06DB92
:104E700090F82C01A9F104090028E2D10AE04FF0D2
:104E8000000907E0A9F1010904E0A9F1020901E024
:104E9000A9F103090868426B1AB19047DBF80010CA
:104EA0000868C068826922F0010282610868C068EF
:104EB000826922F002028261B1F8502191F8280043
:104EC000002A40F0040281F8282000F068810024C4
:104ED000CDF814901CE08169554662F3410181616F
:104EE0003046B56028F0CAFDDBF8000000EBC400D6
:104EF00030300AF041FBD8F800100844DBF800100D
:104F0000C8F80000B1F850010134844280F0FC8000
:104F1000081990F830010028F4D14C4505D10868F3
:104F2000C068826942F001028261086801EBC40A2C
:104F3000C068826922F0020282610868C268C66B9A
:104F400092683260007C80070AF130001FD08246F0
:104F500008460EF05DF8DBF80010451E08460EF01E
:104F6000ADF8013807B22BB20BA800210022009740
:104F70000BAD0AF03BFBDBF8000075600168D1E97E
:104F8000030182698907A6D542F00201A7E73AF832
:104F9000328F524632F8029F5546CDE908200088EC
:104FA00035F9047F079008460EF088F8874206948A
:104FB00001DA2C8804E0DBF800000EF07FF8441ED4
:104FC000DBF8001007980968A9EB0000CB680130F6
:104FD000DB68A7EB080200B20132B3FBF0F089698D
:104FE0000FFA82F84045B8BF804619B30020474603
:104FF0000B90ADF8300000BF7D1EDBF80000ADF86F
:10500000325000680BA982699047BDF93200BDF8A3
:105010002E10411A013109B2884503DA2FB2002F50
:10502000EADC05E039B2012902DB00F1010801E008
:105030004FF00008BAF9000025B208EB00014A1E43
:105040000BAFAA4280B202DD4FF0000935E0CDF887
:105050001C800AE0304628F011FD0798444600FA0B
:105060008AF14A1EAA42504626DC099B8A461B88C2
:105070000FFA82F9ADF82C30089B4D451B88ADF82E
:105080002E00DBF80000ADF83030ADF8322077604C
:10509000B7600068A2B2C068A04681683160BCBF3A
:1050A000ADF83240A1461FFA89F18A42D2D1816916
:1050B00041F002018161CDE750464EF6D8481FFA13
:1050C00089F1A2B2C2F200088A421AD0099909886D
:1050D000ADF82C1008990988ADF82E00DBF8000017
:1050E000ADF83010ADF832407760B7600068C06846
:1050F00081683160816941F002018161304628F0A8
:10510000BDFCDDE90594EFE691F82820002802F0C7
:10511000FB0281F8282046D00868027CD2071ED006
:10512000C0684068D8B130244FF4987508E000BFDB
:10513000B1F85001A5F22F120834013582420ED287
:10514000485D0028F4D101F5AC7001F01FF8DBF8E0
:1051500000100A1952680B5942600360E8E701F138
:1051600030004FF480711DF0A7F8DBF8000020211B
:1051700000F598701DF0A0F8DBF800000021A0F801
:105180005011049827F0B8F80A90DBF80000006886
:10519000436A43B10A99D8F80020984703E000F029
:1051A000FB0081F828001CF00BFA00F04DF900F02C
:1051B00007F94EF6BC46C2F200067469E4BB0DF076
:1051C0000DFF0DF03DFF1AF029FC7F21002204465F
:1051D00023F0E8F820460021002223F0D7F82046EB
:1051E0004FF6FF71002223F013F92046032100221D
:1051F00023F002F920460321002223F0EBF8204699
:105200000321002223F0ECF820460321002223F0A2
:10521000EDF820460321002223F0F4F849F2201192
:10522000C0F6030120461BF009FD2046062100229E
:1052300000231EF0A1F87461306827F05DF8800843
:105240004A280DD8D8F8000041F28931884236D377
:105250000A98D6E901120844511CC6E901012EE062
:1052600027F050F8DBF800103060496829B1086871
:105270004FF47A71B1FBF0F500E06425B16828467F
:1052800041B170684FF47A72002808BF0120514381
:10529000B1FBF0F00021C6E90111A84238BF054674
:1052A000D6E9031028443061481CF06027F0C8F8A4
:1052B000C0F1640335A120462A461BF0FDFC4EF6E2
:1052C000B845C2F200052C68BCBB0DF087FE0DF09E
:1052D000B7FE1AF0A3FB7F210022044623F062F8F8
:1052E00020460021002223F051F820464FF6FF719E
:1052F000002223F08DF820460321002223F07CF8C1
:1053000020460321002223F065F8204603210022D5
:1053100023F066F820460321002223F067F849F2C3
:105320002011C0F6030120461BF088FC2046042112
:10533000002200231EF020F82C604EF6B445C2F285
:105340000005286826F0D8FFB0F5967F1AD926F018
:10535000D9FF28600BA81CF023FB0B980D999DF832
:105360004570401A40F2FE31820A08404AF2A1011B
:1053700048439DF84410830D009108A120460197F1
:105380001BF09AFC13B0BDE8F08F00BF25752046D6
:1053900050530A25752525204350550025752E2587
:1053A00075206B42207573656420282564202525AF
:1053B000290A2564252520667261672E00000000F9
:1053C00010B540F21814C2F200042068002818BF7B
:1053D0001CF0B8FA20461C211CF06EFFE069002882
:1053E00018BF1CF0AFFA04F11C001C211CF064FF74
:1053F000A06B002818BF1CF0A5FA04F138001C218E
:105400001CF05AFF606D002818BF1CF09BFA04F1D5
:1054100054001C21BDE810401CF04EBF40F2E831A2
:10542000C2F20001096804E00A7E42F001020A7635
:105430004969002908BF70474A688242F4D00A6867
:105440008242F5D1F0E700007047000040F21420DE
:10545000C2F20000042100F047BE000040F2242008
:10546000C2F20000202100F03FBE00002DE9F04F05
:1054700085B00E9E1D46002B834608BFB6F5807F83
:1054800069D0DDF83C800023019301A8ADF8081035
:10549000CDF80A30ADF80E20ADF81010ADF812209E
:1054A000294632464346071D00F1080900F10C0A5F
:1054B00023F09CF8384629463246434623F096F8B6
:1054C000484629463246434623F090F8504629463E
:1054D0003246434623F08AF8BDF90410BDF908307E
:1054E000BDF90C60BDF9104099421F46BDF9062078
:1054F000BDF90A00B8BF0F46A6422546B8BF3546DB
:10550000AF42B8BF3D46AF1E9942ABF80070C8BF6E
:105510000B46A642C8BF3446A342C8BF1C46BDF9CD
:105520000E70BDF9125082420346B8BF1346AF4217
:105530002E46B8BF3E46B342B8BF1E468242C8BFE1
:105540001046AF42C8BF3D46A11CB31EA842C8BF0B
:105550000546A81C04E00023ABF800300139501EBA
:10556000ABF80230ABF80410ABF8060005B0BDE8AC
:10557000F08F0000F0B581B016460C46074626F0C5
:10558000C1FEA2B240F23024C2F200040546204619
:105590003946334618F00AFD58B1E0690021A1628E
:1055A00078B9284626F0A8FE002808BF0120E0614F
:1055B00007E020462C211CF07FFE4FF00040A06247
:1055C0000024204601B0F0BD10B540F25C24C2F2C8
:1055D00000042046142100F087FD204600F08CFDD9
:1055E000B0B1142104461CF067FE4DF23540C0F600
:1055F00001004DF225514DF6AD024DF2FD33C0F6DE
:105600000101C0F60102C0F601030FC410BD00BFC6
:10561000FEE70000B0B50C460546084610211CF018
:105620004BFE28680178042908D0022908D00129F6
:1056300008D1A98A2180E98A618003E00A2100E07B
:10564000E96861604268002A08BFB0BD2146BDE834
:10565000B04010472DE9F04F8BB00446824634F835
:10566000140F20B9BAF81600002800F0DA82DAF830
:105670002C80B8F1000F49D04FF4807600274546C2
:10568000284600216E2220F0EBF80744284600212E
:105690006D2220F0E5F801B2C90D50FA81F000B298
:1056A0000012464328461FF0F3FA05460028E7D1CA
:1056B000380403D1B0B2B0F5807F0DD030B24FF4D2
:1056C000803292FBF0F079420022089209B202B2D5
:1056D00008AB204622F08AFF9AF8400000F00F0045
:1056E000032840F0498140461FF0FAFB054640463A
:1056F0001FF07CFBB4F900100246032740462B46FE
:10570000009705F001FC0646002547E119F08AF9EB
:105710000068BAF81410BAF81820037E5018AAF8D6
:105720001800BAF81600BAF81A10DAF824B00844CB
:10573000BBF1000FAAF81A0000F0738258420590DE
:10574000002001944FF0000804900020002700245E
:1057500003930290A1464FF4807600245D46CDF875
:10576000288000BF284600216E2220F079F80444EA
:10577000284600216D2220F073F800B27043061213
:1057800028461FF085FA05460028EBD1DAF8180004
:105790002104099008BFB6F5807F0FD04FF4803107
:1057A000604291FBF6F201B209A80AAB22F01EFF9B
:1057B000BDF82400BDF8261001E000BF010C02B2C4
:1057C00080EAE230A0EBE2300AB281EAE231A1EBFA
:1057D000E23180B289B288424FF000004FF0000100
:1057E0004C4688BF012098BF012141EA09040743C4
:1057F0005846102120F0E8F9002800F09C80584617
:1058000007971FF0C1FA814600F0040004EA9007F0
:1058100009F0080004EAD000069058461FF0E2FBA9
:10582000064658461FF04CFA054658461FF0DEFA69
:10583000804658461FF054FB002ED8BF012D11DBC7
:10584000BDF92610DDF80CC00FB1614504DA069AE7
:1058500052B1059A914207DC0C2102915946CDF8CC
:1058600010B001E0DDF80CC0B8F1000FD8BF00287F
:1058700041DDBE46079F09F0020209EA070111F067
:105880000103BDF9241007EA520201D0614503DA91
:105890003AB1059FB94204DC5F460327CDF810B04A
:1058A0000297A1460024B8F1000FC8BF012423408D
:1058B000012B02D1614580F2C38000284FF0000324
:1058C000C8BF0123002D4FF00000C8BF0120002EEB
:1058D0004FF00006C8BF0126069C1A40079F2040D3
:1058E000012A06EA0E0218D1059B4FF000089942E2
:1058F0004C4615DCA5E0002D4FF000004FF00001F4
:10590000C8BF0120002EC8BF012101EA0702069985
:10591000079F08404FF0000802E04FF000084C4697
:10592000BDF9261012B1614580F28B8018B105983F
:10593000814240F3868058464FF4807120F044F94C
:10594000002804BF87F001005FEAC07000F0858086
:1059500058464FF4007120F037F9002804BF84F056
:1059600001005FEAC07078D058461FF091F9834675
:1059700000287FF4EFAE70E040461FF033FB054691
:1059800040461FF09DF9BAF9161003460C27404611
:105990002A46009705F0B8FA0546002640461FF053
:1059A000F3F9C10705D1002E03DD0026410706D516
:1059B00009E0810758BF26EAE676410703D4002DA7
:1059C00001DD002503E0000758BF25EAE575BAF9B7
:1059D0001A10BAF9363001FA85F7BAF91800BAF98F
:1059E00034205C1A9F42B8BF2546BAF93A30B8BF96
:1059F00001FA84F79F42C8BF5D1A00FA86F1131AB4
:105A00009142B8BF1E46BAF93820B8BF00FA83F1F8
:105A10009142C8BF161A31B22AB2404600F028FCA3
:105A20009AF80100800700F1FC80BAF81800BAF873
:105A30001A103044AAF818004819AAF81A00F0E021
:105A4000079FF8079AF840104FF00C0018BF03208A
:105A500001F0F00108448AF84000DDF81080019C54
:105A6000B8F1000F00F0DD809AF84000029900F0D4
:105A7000F00001F00F0108448AF840000020CAF845
:105A80001800404680214EF20105CAF82C8020F013
:105A90009BF8D0B140461FF09DFA032821D0022880
:105AA00039D0012849D1B8F8160041F6FF7201300B
:105AB00001B24046002305F049FCAAF83600B8F8C8
:105AC000160029B2013802B232E029B20AF13400DC
:105AD00041F6FF770A4641F6FF73009709F086FD0D
