:020000040800F2
:10000000C806002029020008310200083302000857
:10001000350200083702000839020008000000001D
:100020000000000000000000000000003B0200088B
:100030003D020008000000003F020008310F0008E8
:10004000430200084302000843020008430200087C
:10005000430200084302000843020008430200086C
:10006000430200084302000843020008430200085C
:10007000430200084302000843020008430200084C
:10008000430200084302000843020008430200083C
:10009000430200084302000843020008430200082C
:1000A000430200084302000843020008430200081C
:1000B000430200084302000843020008430200080C
:1000C00043020008430200084302000843020008FC
:1000D00043020008430200084302000843020008EC
:1000E00043020008430200084302000843020008DC
:1000F00043020008430200084302000843020008CC
:1001000043020008430200084302000843020008BB
:1001100043020008430200084302000843020008AB
:10012000430200084302000843020008430200089B
:10013000430200084302000843020008430200088B
:10014000430200084302000843020008430200087B
:10015000430200084302000843020008430200086B
:10016000430200084302000843020008430200085B
:100170004302000843020008430200080000000098
:10018000430200084302000800F002F800F03CF8C7
:100190000AA090E8000C82448344AAF10107DA45E2
:1001A00001D100F031F8AFF2090EBAE80F0013F0F8
:1001B000010F18BFFB1A43F001031847780E000027
:1001C000980E0000103A24BF78C878C1FAD85207B8
:1001D00024BF30C830C144BF04680C6070470000C1
:1001E0000023002400250026103A28BF78C1FBD840
:1001F000520728BF30C148BF0B6070471FB500F0E1
:1002000004FF1FBD10B510BD00F0B1F81146FFF797
:10021000F5FF00F0F1FE00F0CFF803B4FFF7F2FFB6
:1002200003BC00F09DF800000948804709480047DA
:10023000FEE7FEE7FEE7FEE7FEE7FEE7FEE7FEE796
:10024000FEE7FEE704480549054A064B70470000F3
:10025000E50F000889010008C8000020C80600203A
:10026000C8020020C802002053EA020C00F0698096
:100270002DE9F04B4FF00006002B1FBFB3FA83F5BA
:1002800003FA05F424FA05F65E4012BF1643B2FAEB
:1002900082F502FA05F4C5F120051EBF22FA05FC1D
:1002A00044EA0C04203556EA044C4FEA144418BFC3
:1002B000641C4FF000084FF00009904271EB030CF2
:1002C00039D3002919BFB1FA81F701FA07F6B0FA5C
:1002D00080F700FA07F6C7F120071EBF20FA07FCD7
:1002E00046EA0C062037B6FBF4FCA7EB0507103FE7
:1002F00007F01F0BCBF120062CFA06F60CFA0BFBCD
:1003000044BFB3460026202FA4BF5E464FF0000B2B
:100310005BEA060C08BF4FF0010B19EB0B0948EB29
:100320000608ABFB027C06FB02CC0BFB03CCC01B1C
:1003300071EB0C01C1E70B46024641464846BDE859
:10034000F08B13B5084318BF4FF0FF300146AFF3F1
:100350000080BDE81C407047704770477047000040
:1003600001491820ABBEFEE7260002007047754623
:1003700000F02CF8AE4605006946534620F0070011
:10038000854618B020B5FFF75DFFBDE820404FF06F
:1003900000064FF000074FF000084FF0000BAC468E
:1003A000ACE8C009ACE8C009ACE8C009ACE8C009D9
:1003B00021F007018D46704710B50446AFF3008069
:1003C0002046BDE81040FFF728BF000000487047F6
:1003D00010000020EFF3108072B600BFFEE70000AF
:1003E000B0B5B3F5804F034616D153F822C00020B4
:1003F000CCF6F0700CEA000E91E83100D1F818C08C
:1004000040EA0E0040EA0410C96840EA052040EACC
:100410000C0040EA014101E06FF07041002043F818
:100420002210B0BD2DE9F04F83B00B68024650F8A2
:10043000230001F1240B20F0010042F82300D1E950
:1004400002C0D1E900E301908869D1E9049A0290E1
:10045000C86BD1E9077600909BE83008D1F830806E
:1004600052F82E008021CFF6F0710840BCF1080F41
:1004700008BF43F040030199194341EA090141EAE9
:100480000A01394331432143294341EA0B01029BCD
:1004900041EA08011943009B1943084340EA0C0153
:1004A000002042F82E1003B0BDE8F08FF0B500EB4D
:1004B00082025068D1E902E400F0404CD1E90030FA
:1004C000D1E9045643EA0C03002743EA0010CFF6B3
:1004D000F07740EA0E20896907EB055540EA0440B1
:1004E0002843FE36084340EA066100205160F0BD13
:1004F0002DE9F04F82B000F13E4241F6004502F195
:10050000FF77C4F20205082243F6004E4FEAB726F1
:10051000A84208BF0722C4F2010E072E38BF4FEAD7
:10052000B7220125002600274FF00008009208E0BE
:1005300008F101080437B8F1100F06F1020600F0C7
:10054000A6800C6805FA08F914EA090FF0D0D1F872
:1005500004B003220BF0030CACF10104B240012CF7
:100560006FEA020A10D88268CC6802EA0A02B44034
:10057000224382604268CBF3001422EA090204FAA3
:1005800008F42243426005E0BCF1030F02D14FF0B2
:10059000030C20E0C2688C6802EA0A02B4402243DD
:1005A000BCF1020FC26016D16FF0030202EA5802DA
:1005B0000244D2F820C007F01C050F230C69AB40A1
:1005C0002CEA030304FA05F52B431362D1F804B0B7
:1005D00001250BF0030C02680CFA06F302EA0A028A
:1005E0001A431BF4403F0260A2D0002243F64403AA
:1005F0000192C4F202031A684FF6084C42F480429A
:100600001A601A68CFF6FF7C02F480420192019AC8
:1006100028F00302724452F80C3007F00C050F2446
:10062000AC40A343009C04FA05F52B4342F80C3080
:10063000DEF808204B6842EA090543F60C4CDC0260
:1006400058BF22EA0905CEF80850C4F2010CDCF8C4
:1006500000209C0242EA090558BF22EA0905CCF8AD
:100660000050DEF804209C0342EA090558BF22EA44
:100670000905CEF80450DEF80020DB0342EA090544
:1006800058BF22EA0905CEF80050012550E702B014
:10069000BDE8F08F40F2C400C2F20000006870476D
:1006A00040F2040040F2C401C2F20000C2F20001B4
:1006B00000780A68104408607047000080B543F66F
:1006C0000040C4F20200016841F400710160016859
:1006D00041F480610160016841F480710160032090
:1006E00000F078F8002000F005F800F02BF800206A
:1006F00080BD0000B0B540F20402C2F2000240F238
:1007000000011278C2F200014FF47A730968B3FB5A
:10071000F2F20446B1FBF2F1084600F081FB0F2C27
:100720004FF001050CD858B94FF0FF302146002298
:10073000002500F023F840F20800C2F20000046037
:100740002846B0BD82B0002043F640010190C4F2BB
:1007500002014A6842F480424A604A6802F48042D8
:100760000192019A0090086840F080500860086883
:1007700000F080500090009802B0704710B54EF61F
:100780000C5CCEF2000CDCF80030C3F3022E8EF0CD
:100790000704042C28BF0424BEF103034FF0FF3EDE
:1007A0000EFA04F438BF0023A14399400EFA03F374
:1007B0009A43114300F00F0200F160430901043A2B
:1007C00003F564436244002848BF02F10C0319702A
:1007D00010BD00004EF60C51CEF200010A684FF633
:1007E000FF031A4060F30A2242F0806040F0FD707F
:1007F000086070472DE9F041002800F08B8043F637
:100800000808C4F202080446D8F8F8030D4600F0C0
:100810000700884207D288F8F853D8F8F80300F0A8
:100820000700A84276D12068810717D5410705D572
:10083000D8F8001041F4E051C8F80010010705D5C0
:10084000D8F8001041F46041C8F80010D8F8001042
:10085000A26821F0F0011143C8F80010C0073FD191
:10086000D8F8F80300F00700A84207D988F8F85331
:10087000D8F8F80300F00700A8424BD120684107E0
:1008800007D5D8F80010E26821F4E0511143C8F808
:100890000010000708D5D8F80000216920F4604056
:1008A00040EAC100C8F8000000F054F8D8F8001081
:1008B00041F22402C1F30311C0F60002515C40F280
:1008C000000220FA01F140F20800C2F200000068C4
:1008D000C2F200021160FFF70DFF0020BDE8F081B9
:1008E0006068811E022907D258F8081C89015CBF84
:1008F0000120BDE8F08110E0012807D158F8081C5C
:1009000089035CBF0120BDE8F08106E058F8081CAF
:10091000890702D40120BDE8F081D8F8001021F049
:1009200003010843C8F80000FFF7B4FE064641F291
:10093000883700BFD8F80000616800F00C00B0EB09
:10094000810F8DD0FFF7A6FE801BB842F2D903209D
:10095000BDE8F08110B543F60404C4F202046068F7
:1009600000F00C0008280AD0042819BF42F2004009
:10097000C0F2F40047F64000C0F27D1010BD2068C0
:1009800021682368490247F64001C0F27D1100F05A
:100990003F02C3F388105CBF42F20041C0F2F40191
:1009A000A1FB00010023FFF75FFC21680222C1F3D5
:1009B000014102EB4101B0FBF1F010BD2DE9F04126
:1009C00082B0002868D00446007843F60006C007CD
:1009D000C4F202060BD0B06800F00C00042840F00E
:1009E0009C803068800302D56068002854D020784D
:1009F00080071AD5B06810F00C0F09D0B06800F06D
:100A00000C00082840F0A3807068400200F19F802D
:100A10003068800702D5E06801283DD1306821693F
:100A200020F0F80040EAC10030602078000737D499
:100A3000207840074BD4A56955B3B06800F00C008E
:100A4000082840F0B780012D26D07068E16900F4D5
:100A500080028A4220D1216A00F03F028A421BD1E3
:100A600047F6C071626A0140B1EB821F14D1A16ADE
:100A70004FF6FF73C903994300F44032A1F580316A
:100A80008A4209D1E16A00F07060B0EB016F03D1D6
:100A9000002002B0BDE8F081012002B0BDE8F08185
:100AA0006069002840F20000C4F2472072D00121A2
:100AB000C0F8801EFFF7EEFD054600BF706F80078F
:100AC000B6D4FFF7E7FD401B0228F7D9D7E0306C1A
:100AD00010F080580AD100200190306C40F0805016
:100AE0003064306C00F080500190019847F20007AC
:100AF000C4F200073868C0053ED4386840F48070FE
:100B00003860FFF7C7FD05463868C00534D4FFF7E5
:100B1000C1FD401B0228F7D9B1E0B06800F00C001D
:100B2000082803D1706840023FF55BAF6068B0F5FC
:100B3000803F07D0B0F5A02F40F08B80306840F4A4
:100B400080203060306840F4803030608BE0E068B6
:100B5000002851D00020C4F2472001210160FFF796
:100B600099FD0546306880073FF558AFFFF792FDC5
:100B7000401B0228F6D982E0A068012805D005288C
:100B80004ED1306F40F004003067306F40F001000C
:100B900030674FE00021C0F8801EFFF77BFD05465F
:100BA000706F80077FF544AFFFF774FD401B02288C
:100BB000F6D964E00027C4F2472700203866FFF723
:100BC00069FD022D05460BD1306880015BD5FFF72A
:100BD00061FD401B02284FF00300F5D959E700BF23
:100BE000306880017FF554AFFFF754FD401B0228A9
:100BF0004FF00300F4D94CE70020C4F24720002155
:100C00000160FFF747FD0546306880077FF50DAFAF
:100C1000FFF740FD401B02284FF00300F4D938E7EE
:100C2000316F002821F001013167316F21F004019B
:100C3000316749D0FFF72EFD054641F2883700BFE6
:100C4000306F800751D4FFF725FD401BB842F7D91C
:100C500015E03168002821F480313160316821F4D9
:100C6000802131604AD0FFF715FD054630688003CA
:100C70003FF5BDAEFFF70EFD401B6428F6D90320FB
:100C800002B0BDE8F08104F11C052FCD084340EA15
:100C90008210D9034FF6FF729143A1F5803140EAEB
:100CA00005600843706001203866FFF7F3FC0446D6
:100CB000306880013FF5ECAEFFF7ECFC001B02282A
:100CC0004FF00300F4D9E4E6FFF7E4FC054641F2F7
:100CD000883700BF306F800707D5FFF7DBFC401B6C
:100CE000B8424FF00300F5D9D3E6B8F1000F7FF416
:100CF000A2AE306C20F0805030649CE6FFF7CAFC56
:100D0000054600BF306880037FF571AEFFF7C2FC77
:100D1000401B64284FF00300F4D9BAE6002804BF52
:100D20000120704770B5044690F8490015460E46FC
:100D300028B9002084F84800204600F01DF82068FB
:100D400004F10801FFF76EFB2068A2683146FFF747
:100D5000ADFBD4E90102236B2946FFF741FB206874
:100D6000A16850F8212042F0010240F82120012022
:100D700084F84900002070BD2DE9F04385B040F2B1
:100D80007000C2F200000178002945D101210170F4
:100D90004FF0000943F63800CDF80090C4F202008D
:100DA000026840F6004442F0010202600068C4F2AA
:100DB000020400F00100009000986D4600914FF091
:100DC000020803270C2604F500602946CDE90189B5
:100DD00003970496FFF78CFB4FF680708DE80103B4
:100DE00004F580602946CDE90376FFF781FB4CF2DC
:100DF00033708DE8010320462946CDE90376FFF7DD
:100E000077FB4FF480508DE8010304F540602946DC
:100E1000CDE90376FFF76CFB05B0BDE8F083000079
:100E2000411E0020B0EB116F1CBF012070474EF235
:100E30001002CEF2000251604EF62351CEF20001B4
:100E4000F0230B70072190601160704780B588B067
:100E500040F2740040F20412C2F200004FF0204C45
:100E6000CAF2000206230021C0E900C24FF48052FA
:100E7000C0E90231C0E90A210F22FF234FF0100E12
:100E8000CDE90122CDE903321122C0E9041EC0E9F7
:100E900006114164C0E90811C0E90C118163CDE974
:100EA000062101A90022CDF814E0FFF737FF002842
:100EB00018BFFFF78FFA08B080BD000081B0002195
:100EC00043F630000091C4F20200026842F02002B2
:100ED0000260026802F020020092009A009102680B
:100EE00042F080020260026802F080020092009AE2
:100EF0000091026842F010020260026802F01002E3
:100F00000092009A0091026842F0080202600268B2
:100F100002F008020092009A0091016841F040013D
:100F20000160006800F040000090009801B0704738
:100F3000FFF7B6BBB0B592B0002443F64000CDE950
:100F40000A44CDE908440594CDE90344CDE90144C0
:100F50000094C4F202000168022541F08051016052
:100F6000006800F080500090009847F20000009464
:100F7000C4F20000016841F480410160006800F49F
:100F8000804000900098012006904FF48030079038
:100F90004FF480000D9019200E904FF4A870CDE909
:100FA0000F050420119006A80C95FFF707FD20B14E
:100FB000EFF3108072B600BFFEE70F20CDE9010508
:100FC0004FF4A050CDE9040001A805210394FFF7D8
:100FD00011FC20B1EFF3108072B600BFFEE712B033
:100FE000B0BD00004EF68850CEF20000016841F41A
:100FF0007001016070470000FFF760FBFFF79AFF88
:10100000FFF75CFFFFF722FFFEE7F1EE100A4FF655
:10101000FF71C0F2C03120EA010040F04070E1EE03
:10102000100A7047000000000000000001020304E5
:1010300006070809581000080000002010000000F2
:10104000C40100086810000810000020B806000065
:10105000E0010008000000000024F400010000008E
:08106000100000000000000078
:040000050800018965
:00000001FF
